{
  "_format": "hh-sol-artifact-1",
  "contractName": "NFTMarketplace",
  "sourceName": "contracts/Market.sol",
  "abi": [
    {
      "inputs": [],
      "stateMutability": "nonpayable",
      "type": "constructor"
    },
    {
      "anonymous": false,
      "inputs": [
        {
          "indexed": true,
          "internalType": "address",
          "name": "owner",
          "type": "address"
        },
        {
          "indexed": true,
          "internalType": "address",
          "name": "approved",
          "type": "address"
        },
        {
          "indexed": true,
          "internalType": "uint256",
          "name": "tokenId",
          "type": "uint256"
        }
      ],
      "name": "Approval",
      "type": "event"
    },
    {
      "anonymous": false,
      "inputs": [
        {
          "indexed": true,
          "internalType": "address",
          "name": "owner",
          "type": "address"
        },
        {
          "indexed": true,
          "internalType": "address",
          "name": "operator",
          "type": "address"
        },
        {
          "indexed": false,
          "internalType": "bool",
          "name": "approved",
          "type": "bool"
        }
      ],
      "name": "ApprovalForAll",
      "type": "event"
    },
    {
      "anonymous": false,
      "inputs": [
        {
          "indexed": false,
          "internalType": "uint256",
          "name": "tokenId",
          "type": "uint256"
        },
        {
          "indexed": false,
          "internalType": "uint256",
          "name": "endTime",
          "type": "uint256"
        }
      ],
      "name": "AuctionCreated",
      "type": "event"
    },
    {
      "anonymous": false,
      "inputs": [
        {
          "indexed": false,
          "internalType": "uint256",
          "name": "tokenId",
          "type": "uint256"
        },
        {
          "indexed": false,
          "internalType": "address",
          "name": "highestBidder",
          "type": "address"
        },
        {
          "indexed": false,
          "internalType": "uint256",
          "name": "highestBid",
          "type": "uint256"
        }
      ],
      "name": "AuctionEnded",
      "type": "event"
    },
    {
      "anonymous": false,
      "inputs": [
        {
          "indexed": false,
          "internalType": "uint256",
          "name": "tokenId",
          "type": "uint256"
        },
        {
          "indexed": false,
          "internalType": "address",
          "name": "bidder",
          "type": "address"
        },
        {
          "indexed": false,
          "internalType": "uint256",
          "name": "bid",
          "type": "uint256"
        }
      ],
      "name": "BidPlaced",
      "type": "event"
    },
    {
      "anonymous": false,
      "inputs": [
        {
          "indexed": false,
          "internalType": "uint256",
          "name": "newMarketFeePercentage",
          "type": "uint256"
        }
      ],
      "name": "MarketFeePercentageChanged",
      "type": "event"
    },
    {
      "anonymous": false,
      "inputs": [
        {
          "indexed": true,
          "internalType": "uint256",
          "name": "tokenId",
          "type": "uint256"
        },
        {
          "indexed": true,
          "internalType": "address",
          "name": "seller",
          "type": "address"
        },
        {
          "indexed": false,
          "internalType": "uint256",
          "name": "price",
          "type": "uint256"
        }
      ],
      "name": "NFTListed",
      "type": "event"
    },
    {
      "anonymous": false,
      "inputs": [
        {
          "indexed": true,
          "internalType": "uint256",
          "name": "tokenId",
          "type": "uint256"
        },
        {
          "indexed": true,
          "internalType": "address",
          "name": "seller",
          "type": "address"
        }
      ],
      "name": "NFTListingCanceled",
      "type": "event"
    },
    {
      "anonymous": false,
      "inputs": [
        {
          "indexed": false,
          "internalType": "uint256",
          "name": "tokenId",
          "type": "uint256"
        }
      ],
      "name": "OfferCanceled",
      "type": "event"
    },
    {
      "anonymous": false,
      "inputs": [
        {
          "indexed": false,
          "internalType": "uint256",
          "name": "tokenId",
          "type": "uint256"
        },
        {
          "indexed": false,
          "internalType": "uint256",
          "name": "price",
          "type": "uint256"
        },
        {
          "indexed": false,
          "internalType": "uint256",
          "name": "royalty",
          "type": "uint256"
        }
      ],
      "name": "OfferCreated",
      "type": "event"
    },
    {
      "anonymous": false,
      "inputs": [
        {
          "indexed": true,
          "internalType": "uint256",
          "name": "tokenId",
          "type": "uint256"
        },
        {
          "indexed": true,
          "internalType": "address",
          "name": "requester",
          "type": "address"
        },
        {
          "indexed": false,
          "internalType": "uint256",
          "name": "price",
          "type": "uint256"
        }
      ],
      "name": "OfferRequestAccepted",
      "type": "event"
    },
    {
      "anonymous": false,
      "inputs": [
        {
          "indexed": true,
          "internalType": "uint256",
          "name": "tokenId",
          "type": "uint256"
        },
        {
          "indexed": true,
          "internalType": "address",
          "name": "requester",
          "type": "address"
        }
      ],
      "name": "OfferRequestRejected",
      "type": "event"
    },
    {
      "anonymous": false,
      "inputs": [
        {
          "indexed": true,
          "internalType": "uint256",
          "name": "tokenId",
          "type": "uint256"
        },
        {
          "indexed": true,
          "internalType": "address",
          "name": "requester",
          "type": "address"
        },
        {
          "indexed": false,
          "internalType": "uint256",
          "name": "price",
          "type": "uint256"
        }
      ],
      "name": "OfferRequested",
      "type": "event"
    },
    {
      "anonymous": false,
      "inputs": [
        {
          "indexed": true,
          "internalType": "address",
          "name": "previousOwner",
          "type": "address"
        },
        {
          "indexed": true,
          "internalType": "address",
          "name": "newOwner",
          "type": "address"
        }
      ],
      "name": "OwnershipTransferred",
      "type": "event"
    },
    {
      "anonymous": false,
      "inputs": [
        {
          "indexed": false,
          "internalType": "uint256",
          "name": "tokenId",
          "type": "uint256"
        },
        {
          "indexed": false,
          "internalType": "address",
          "name": "owner",
          "type": "address"
        }
      ],
      "name": "TokenMinted",
      "type": "event"
    },
    {
      "anonymous": false,
      "inputs": [
        {
          "indexed": true,
          "internalType": "address",
          "name": "from",
          "type": "address"
        },
        {
          "indexed": true,
          "internalType": "address",
          "name": "to",
          "type": "address"
        },
        {
          "indexed": true,
          "internalType": "uint256",
          "name": "tokenId",
          "type": "uint256"
        }
      ],
      "name": "Transfer",
      "type": "event"
    },
    {
      "anonymous": false,
      "inputs": [
        {
          "indexed": true,
          "internalType": "uint256",
          "name": "tokenId",
          "type": "uint256"
        },
        {
          "indexed": true,
          "internalType": "address",
          "name": "buyer",
          "type": "address"
        },
        {
          "indexed": false,
          "internalType": "uint256",
          "name": "price",
          "type": "uint256"
        }
      ],
      "name": "UserOfferAccepted",
      "type": "event"
    },
    {
      "anonymous": false,
      "inputs": [
        {
          "indexed": true,
          "internalType": "uint256",
          "name": "tokenId",
          "type": "uint256"
        },
        {
          "indexed": true,
          "internalType": "address",
          "name": "buyer",
          "type": "address"
        },
        {
          "indexed": false,
          "internalType": "uint256",
          "name": "price",
          "type": "uint256"
        }
      ],
      "name": "UserOfferAdded",
      "type": "event"
    },
    {
      "anonymous": false,
      "inputs": [
        {
          "indexed": true,
          "internalType": "uint256",
          "name": "tokenId",
          "type": "uint256"
        },
        {
          "indexed": true,
          "internalType": "address",
          "name": "buyer",
          "type": "address"
        }
      ],
      "name": "UserOfferRejected",
      "type": "event"
    },
    {
      "anonymous": false,
      "inputs": [
        {
          "indexed": true,
          "internalType": "uint256",
          "name": "tokenId",
          "type": "uint256"
        },
        {
          "indexed": true,
          "internalType": "address",
          "name": "buyer",
          "type": "address"
        }
      ],
      "name": "UserOfferRemoved",
      "type": "event"
    },
    {
      "inputs": [
        {
          "internalType": "uint256",
          "name": "tokenId",
          "type": "uint256"
        },
        {
          "internalType": "uint256",
          "name": "index",
          "type": "uint256"
        },
        {
          "internalType": "address[]",
          "name": "_Royaltyrecipients",
          "type": "address[]"
        },
        {
          "internalType": "uint256[]",
          "name": "_Royaltyamounts",
          "type": "uint256[]"
        }
      ],
      "name": "acceptUserOffer",
      "outputs": [],
      "stateMutability": "nonpayable",
      "type": "function"
    },
    {
      "inputs": [
        {
          "internalType": "uint256",
          "name": "tokenId",
          "type": "uint256"
        },
        {
          "internalType": "uint256",
          "name": "price",
          "type": "uint256"
        }
      ],
      "name": "addOffer",
      "outputs": [],
      "stateMutability": "nonpayable",
      "type": "function"
    },
    {
      "inputs": [
        {
          "internalType": "address",
          "name": "to",
          "type": "address"
        },
        {
          "internalType": "uint256",
          "name": "tokenId",
          "type": "uint256"
        }
      ],
      "name": "approve",
      "outputs": [],
      "stateMutability": "nonpayable",
      "type": "function"
    },
    {
      "inputs": [
        {
          "internalType": "address",
          "name": "owner",
          "type": "address"
        }
      ],
      "name": "balanceOf",
      "outputs": [
        {
          "internalType": "uint256",
          "name": "",
          "type": "uint256"
        }
      ],
      "stateMutability": "view",
      "type": "function"
    },
    {
      "inputs": [
        {
          "internalType": "uint256",
          "name": "tokenId",
          "type": "uint256"
        },
        {
          "internalType": "address[]",
          "name": "_Royaltyrecipients",
          "type": "address[]"
        },
        {
          "internalType": "uint256[]",
          "name": "_Royaltyamounts",
          "type": "uint256[]"
        },
        {
          "internalType": "uint256",
          "name": "quantity",
          "type": "uint256"
        }
      ],
      "name": "buyNFT",
      "outputs": [],
      "stateMutability": "payable",
      "type": "function"
    },
    {
      "inputs": [
        {
          "internalType": "uint256[]",
          "name": "tokenIds",
          "type": "uint256[]"
        },
        {
          "internalType": "uint256[]",
          "name": "quantities",
          "type": "uint256[]"
        },
        {
          "internalType": "address[][]",
          "name": "_Royaltyrecipients",
          "type": "address[][]"
        },
        {
          "internalType": "uint256[][]",
          "name": "_Royaltyamounts",
          "type": "uint256[][]"
        }
      ],
      "name": "buyNFTs",
      "outputs": [],
      "stateMutability": "payable",
      "type": "function"
    },
    {
      "inputs": [
        {
          "internalType": "uint256",
          "name": "tokenId",
          "type": "uint256"
        }
      ],
      "name": "cancelAuction",
      "outputs": [],
      "stateMutability": "nonpayable",
      "type": "function"
    },
    {
      "inputs": [
        {
          "internalType": "uint256",
          "name": "tokenId",
          "type": "uint256"
        }
      ],
      "name": "cancelNFTListing",
      "outputs": [],
      "stateMutability": "nonpayable",
      "type": "function"
    },
    {
      "inputs": [
        {
          "internalType": "uint256",
          "name": "tokenId",
          "type": "uint256"
        },
        {
          "internalType": "uint256",
          "name": "duration",
          "type": "uint256"
        }
      ],
      "name": "createAuction",
      "outputs": [],
      "stateMutability": "nonpayable",
      "type": "function"
    },
    {
      "inputs": [
        {
          "internalType": "uint256",
          "name": "tokenId",
          "type": "uint256"
        }
      ],
      "name": "depositForOffer",
      "outputs": [],
      "stateMutability": "payable",
      "type": "function"
    },
    {
      "inputs": [
        {
          "internalType": "uint256",
          "name": "tokenId",
          "type": "uint256"
        },
        {
          "internalType": "address[]",
          "name": "_Royaltyrecipients",
          "type": "address[]"
        },
        {
          "internalType": "uint256[]",
          "name": "_Royaltyamounts",
          "type": "uint256[]"
        }
      ],
      "name": "endAuction",
      "outputs": [],
      "stateMutability": "nonpayable",
      "type": "function"
    },
    {
      "inputs": [
        {
          "internalType": "uint256",
          "name": "tokenId",
          "type": "uint256"
        }
      ],
      "name": "getApproved",
      "outputs": [
        {
          "internalType": "address",
          "name": "",
          "type": "address"
        }
      ],
      "stateMutability": "view",
      "type": "function"
    },
    {
      "inputs": [
        {
          "internalType": "address",
          "name": "owner",
          "type": "address"
        },
        {
          "internalType": "address",
          "name": "operator",
          "type": "address"
        }
      ],
      "name": "isApprovedForAll",
      "outputs": [
        {
          "internalType": "bool",
          "name": "",
          "type": "bool"
        }
      ],
      "stateMutability": "view",
      "type": "function"
    },
    {
      "inputs": [
        {
          "internalType": "uint256",
          "name": "tokenId",
          "type": "uint256"
        },
        {
          "internalType": "uint256",
          "name": "price",
          "type": "uint256"
        }
      ],
      "name": "listNFT",
      "outputs": [],
      "stateMutability": "nonpayable",
      "type": "function"
    },
    {
      "inputs": [],
      "name": "marketFeePercentage",
      "outputs": [
        {
          "internalType": "uint256",
          "name": "",
          "type": "uint256"
        }
      ],
      "stateMutability": "view",
      "type": "function"
    },
    {
      "inputs": [
        {
          "internalType": "address",
          "name": "recipient",
          "type": "address"
        },
        {
          "internalType": "string",
          "name": "tokenURI",
          "type": "string"
        },
        {
          "internalType": "uint256",
          "name": "tokenId",
          "type": "uint256"
        },
        {
          "internalType": "uint256",
          "name": "copies",
          "type": "uint256"
        }
      ],
      "name": "mintNFT",
      "outputs": [
        {
          "internalType": "uint256",
          "name": "",
          "type": "uint256"
        }
      ],
      "stateMutability": "nonpayable",
      "type": "function"
    },
    {
      "inputs": [],
      "name": "name",
      "outputs": [
        {
          "internalType": "string",
          "name": "",
          "type": "string"
        }
      ],
      "stateMutability": "view",
      "type": "function"
    },
    {
      "inputs": [],
      "name": "owner",
      "outputs": [
        {
          "internalType": "address",
          "name": "",
          "type": "address"
        }
      ],
      "stateMutability": "view",
      "type": "function"
    },
    {
      "inputs": [
        {
          "internalType": "uint256",
          "name": "tokenId",
          "type": "uint256"
        }
      ],
      "name": "ownerOf",
      "outputs": [
        {
          "internalType": "address",
          "name": "",
          "type": "address"
        }
      ],
      "stateMutability": "view",
      "type": "function"
    },
    {
      "inputs": [
        {
          "internalType": "address",
          "name": "",
          "type": "address"
        }
      ],
      "name": "pendingWithdrawals",
      "outputs": [
        {
          "internalType": "uint256",
          "name": "",
          "type": "uint256"
        }
      ],
      "stateMutability": "view",
      "type": "function"
    },
    {
      "inputs": [
        {
          "internalType": "uint256",
          "name": "tokenId",
          "type": "uint256"
        }
      ],
      "name": "placeBid",
      "outputs": [],
      "stateMutability": "payable",
      "type": "function"
    },
    {
      "inputs": [
        {
          "internalType": "uint256",
          "name": "tokenId",
          "type": "uint256"
        },
        {
          "internalType": "uint256",
          "name": "index",
          "type": "uint256"
        }
      ],
      "name": "rejectUserOffer",
      "outputs": [],
      "stateMutability": "nonpayable",
      "type": "function"
    },
    {
      "inputs": [
        {
          "internalType": "uint256",
          "name": "tokenId",
          "type": "uint256"
        },
        {
          "internalType": "uint256",
          "name": "index",
          "type": "uint256"
        }
      ],
      "name": "removeOffer",
      "outputs": [],
      "stateMutability": "nonpayable",
      "type": "function"
    },
    {
      "inputs": [],
      "name": "renounceOwnership",
      "outputs": [],
      "stateMutability": "nonpayable",
      "type": "function"
    },
    {
      "inputs": [
        {
          "internalType": "address",
          "name": "from",
          "type": "address"
        },
        {
          "internalType": "address",
          "name": "to",
          "type": "address"
        },
        {
          "internalType": "uint256",
          "name": "tokenId",
          "type": "uint256"
        }
      ],
      "name": "safeTransferFrom",
      "outputs": [],
      "stateMutability": "nonpayable",
      "type": "function"
    },
    {
      "inputs": [
        {
          "internalType": "address",
          "name": "from",
          "type": "address"
        },
        {
          "internalType": "address",
          "name": "to",
          "type": "address"
        },
        {
          "internalType": "uint256",
          "name": "tokenId",
          "type": "uint256"
        },
        {
          "internalType": "bytes",
          "name": "data",
          "type": "bytes"
        }
      ],
      "name": "safeTransferFrom",
      "outputs": [],
      "stateMutability": "nonpayable",
      "type": "function"
    },
    {
      "inputs": [
        {
          "internalType": "address",
          "name": "operator",
          "type": "address"
        },
        {
          "internalType": "bool",
          "name": "approved",
          "type": "bool"
        }
      ],
      "name": "setApprovalForAll",
      "outputs": [],
      "stateMutability": "nonpayable",
      "type": "function"
    },
    {
      "inputs": [
        {
          "internalType": "uint256",
          "name": "newMarketFeePercentage",
          "type": "uint256"
        }
      ],
      "name": "setMarketFeePercentage",
      "outputs": [],
      "stateMutability": "nonpayable",
      "type": "function"
    },
    {
      "inputs": [
        {
          "internalType": "bytes4",
          "name": "interfaceId",
          "type": "bytes4"
        }
      ],
      "name": "supportsInterface",
      "outputs": [
        {
          "internalType": "bool",
          "name": "",
          "type": "bool"
        }
      ],
      "stateMutability": "view",
      "type": "function"
    },
    {
      "inputs": [],
      "name": "symbol",
      "outputs": [
        {
          "internalType": "string",
          "name": "",
          "type": "string"
        }
      ],
      "stateMutability": "view",
      "type": "function"
    },
    {
      "inputs": [
        {
          "internalType": "uint256",
          "name": "",
          "type": "uint256"
        }
      ],
      "name": "tokenIdToAuction",
      "outputs": [
        {
          "internalType": "bool",
          "name": "isActive",
          "type": "bool"
        },
        {
          "internalType": "uint256",
          "name": "tokenId",
          "type": "uint256"
        },
        {
          "internalType": "address",
          "name": "highestBidder",
          "type": "address"
        },
        {
          "internalType": "uint256",
          "name": "highestBid",
          "type": "uint256"
        },
        {
          "internalType": "uint256",
          "name": "endTime",
          "type": "uint256"
        }
      ],
      "stateMutability": "view",
      "type": "function"
    },
    {
      "inputs": [
        {
          "internalType": "uint256",
          "name": "",
          "type": "uint256"
        }
      ],
      "name": "tokenIdToOffer",
      "outputs": [
        {
          "internalType": "bool",
          "name": "isForSale",
          "type": "bool"
        },
        {
          "internalType": "uint256",
          "name": "tokenId",
          "type": "uint256"
        },
        {
          "internalType": "address",
          "name": "seller",
          "type": "address"
        },
        {
          "internalType": "uint256",
          "name": "askingPrice",
          "type": "uint256"
        }
      ],
      "stateMutability": "view",
      "type": "function"
    },
    {
      "inputs": [
        {
          "internalType": "uint256",
          "name": "",
          "type": "uint256"
        }
      ],
      "name": "tokenIdToOfferRequest",
      "outputs": [
        {
          "internalType": "bool",
          "name": "hasOffer",
          "type": "bool"
        },
        {
          "internalType": "uint256",
          "name": "tokenId",
          "type": "uint256"
        },
        {
          "internalType": "address",
          "name": "requester",
          "type": "address"
        },
        {
          "internalType": "uint256",
          "name": "price",
          "type": "uint256"
        }
      ],
      "stateMutability": "view",
      "type": "function"
    },
    {
      "inputs": [
        {
          "internalType": "uint256",
          "name": "",
          "type": "uint256"
        }
      ],
      "name": "tokenOwnerCopies",
      "outputs": [
        {
          "internalType": "address",
          "name": "owner",
          "type": "address"
        },
        {
          "internalType": "uint256",
          "name": "copies",
          "type": "uint256"
        }
      ],
      "stateMutability": "view",
      "type": "function"
    },
    {
      "inputs": [
        {
          "internalType": "uint256",
          "name": "tokenId",
          "type": "uint256"
        }
      ],
      "name": "tokenURI",
      "outputs": [
        {
          "internalType": "string",
          "name": "",
          "type": "string"
        }
      ],
      "stateMutability": "view",
      "type": "function"
    },
    {
      "inputs": [
        {
          "internalType": "address",
          "name": "_contract",
          "type": "address"
        },
        {
          "internalType": "address",
          "name": "owner",
          "type": "address"
        }
      ],
      "name": "tokensOfOwner",
      "outputs": [
        {
          "internalType": "uint256[]",
          "name": "",
          "type": "uint256[]"
        }
      ],
      "stateMutability": "view",
      "type": "function"
    },
    {
      "inputs": [
        {
          "internalType": "address",
          "name": "from",
          "type": "address"
        },
        {
          "internalType": "address",
          "name": "to",
          "type": "address"
        },
        {
          "internalType": "uint256",
          "name": "tokenId",
          "type": "uint256"
        }
      ],
      "name": "transferFrom",
      "outputs": [],
      "stateMutability": "nonpayable",
      "type": "function"
    },
    {
      "inputs": [
        {
          "internalType": "address",
          "name": "newOwner",
          "type": "address"
        }
      ],
      "name": "transferOwnership",
      "outputs": [],
      "stateMutability": "nonpayable",
      "type": "function"
    },
    {
      "inputs": [
        {
          "internalType": "uint256",
          "name": "tokenId",
          "type": "uint256"
        },
        {
          "internalType": "string",
          "name": "newTokenURI",
          "type": "string"
        }
      ],
      "name": "updateMetadataURI",
      "outputs": [],
      "stateMutability": "nonpayable",
      "type": "function"
    },
    {
      "inputs": [
        {
          "internalType": "uint256",
          "name": "",
          "type": "uint256"
        },
        {
          "internalType": "uint256",
          "name": "",
          "type": "uint256"
        }
      ],
      "name": "userOffers",
      "outputs": [
        {
          "internalType": "bool",
          "name": "exists",
          "type": "bool"
        },
        {
          "internalType": "uint256",
          "name": "tokenId",
          "type": "uint256"
        },
        {
          "internalType": "address",
          "name": "buyer",
          "type": "address"
        },
        {
          "internalType": "uint256",
          "name": "price",
          "type": "uint256"
        }
      ],
      "stateMutability": "view",
      "type": "function"
    },
    {
      "inputs": [],
      "name": "withdraw",
      "outputs": [],
      "stateMutability": "nonpayable",
      "type": "function"
    }
  ],
  "bytecode": "0x60806040523480156200001157600080fd5b506040518060400160405280600f81526020017f4e4654204d61726b6574706c61636500000000000000000000000000000000008152506040518060400160405280600481526020017f4e46544d00000000000000000000000000000000000000000000000000000000815250816000908051906020019062000096929190620001ae565b508060019080519060200190620000af929190620001ae565b505050620000d2620000c6620000e060201b60201c565b620000e860201b60201c565b6019600981905550620002c3565b600033905090565b6000600660009054906101000a900473ffffffffffffffffffffffffffffffffffffffff16905081600660006101000a81548173ffffffffffffffffffffffffffffffffffffffff021916908373ffffffffffffffffffffffffffffffffffffffff1602179055508173ffffffffffffffffffffffffffffffffffffffff168173ffffffffffffffffffffffffffffffffffffffff167f8be0079c531659141344cd1fd0a4f28419497f9722a3daafe3b4186f6b6457e060405160405180910390a35050565b828054620001bc906200028d565b90600052602060002090601f016020900481019282620001e057600085556200022c565b82601f10620001fb57805160ff19168380011785556200022c565b828001600101855582156200022c579182015b828111156200022b5782518255916020019190600101906200020e565b5b5090506200023b91906200023f565b5090565b5b808211156200025a57600081600090555060010162000240565b5090565b7f4e487b7100000000000000000000000000000000000000000000000000000000600052602260045260246000fd5b60006002820490506001821680620002a657607f821691505b60208210811415620002bd57620002bc6200025e565b5b50919050565b616fbe80620002d36000396000f3fe6080604052600436106102465760003560e01c806396b5a75511610139578063cfe8f487116100b6578063e4cd1d9f1161007a578063e4cd1d9f1461089f578063e985e9c5146108ca578063ebbe7b7d14610907578063f2d7143214610930578063f2fde38b1461094c578063f3f437031461097557610246565b8063cfe8f4871461077a578063d531fe2b146107b7578063d712c4f2146107f7578063e34fbb2414610820578063e3b147571461085e57610246565b8063a86a7a70116100fd578063a86a7a701461068f578063aaad2eab146106cf578063ac0eeed5146106f8578063b88d4fde14610714578063c87b56dd1461073d57610246565b806396b5a755146105cf5780639979ef45146105f85780639f9e9dad14610614578063a1c3b8011461063d578063a22cb4651461066657610246565b80636352211e116101c7578063859a818b1161018b578063859a818b146104ea5780638da5cb5b146105275780638fe86b3f1461055257806394383f141461057b57806395d89b41146105a457610246565b80636352211e146104075780636cf9cb7b1461044457806370a082311461046d578063715018a6146104aa578063755f5196146104c157610246565b806323b872dd1161020e57806323b872dd146103425780633ccfd60b1461036b5780633ffef5b31461038257806342842e0e146103c257806344bda79b146103eb57610246565b80630121683f1461024b57806301ffc9a71461027457806306fdde03146102b1578063081812fc146102dc578063095ea7b314610319575b600080fd5b34801561025757600080fd5b50610272600480360381019061026d9190614c5d565b6109b2565b005b34801561028057600080fd5b5061029b60048036038101906102969190614cf5565b610b2d565b6040516102a89190614d3d565b60405180910390f35b3480156102bd57600080fd5b506102c6610c0f565b6040516102d39190614df1565b60405180910390f35b3480156102e857600080fd5b5061030360048036038101906102fe9190614e13565b610ca1565b6040516103109190614e81565b60405180910390f35b34801561032557600080fd5b50610340600480360381019061033b9190614ec8565b610ce7565b005b34801561034e57600080fd5b5061036960048036038101906103649190614f08565b610dff565b005b34801561037757600080fd5b50610380610e5f565b005b34801561038e57600080fd5b506103a960048036038101906103a49190614c5d565b610ff0565b6040516103b99493929190614f6a565b60405180910390f35b3480156103ce57600080fd5b506103e960048036038101906103e49190614f08565b61106a565b005b610405600480360381019061040091906151ba565b61108a565b005b34801561041357600080fd5b5061042e60048036038101906104299190614e13565b61144c565b60405161043b9190614e81565b60405180910390f35b34801561045057600080fd5b5061046b60048036038101906104669190615259565b6114d3565b005b34801561047957600080fd5b50610494600480360381019061048f91906152e4565b611884565b6040516104a19190615311565b60405180910390f35b3480156104b657600080fd5b506104bf61193c565b005b3480156104cd57600080fd5b506104e860048036038101906104e39190614c5d565b611950565b005b3480156104f657600080fd5b50610511600480360381019061050c91906153e1565b611ba7565b60405161051e9190615311565b60405180910390f35b34801561053357600080fd5b5061053c611c93565b6040516105499190614e81565b60405180910390f35b34801561055e57600080fd5b5061057960048036038101906105749190615464565b611cbd565b005b34801561058757600080fd5b506105a2600480360381019061059d9190614c5d565b611d1b565b005b3480156105b057600080fd5b506105b9611eda565b6040516105c69190614df1565b60405180910390f35b3480156105db57600080fd5b506105f660048036038101906105f19190614e13565b611f6c565b005b610612600480360381019061060d9190614e13565b612158565b005b34801561062057600080fd5b5061063b600480360381019061063691906154c0565b6123bc565b005b34801561064957600080fd5b50610664600480360381019061065f9190614c5d565b612922565b005b34801561067257600080fd5b5061068d6004803603810190610688919061558b565b612ae3565b005b34801561069b57600080fd5b506106b660048036038101906106b19190614e13565b612af9565b6040516106c69493929190614f6a565b60405180910390f35b3480156106db57600080fd5b506106f660048036038101906106f19190614e13565b612b56565b005b610712600480360381019061070d9190614e13565b612c7e565b005b34801561072057600080fd5b5061073b6004803603810190610736919061566c565b612d3d565b005b34801561074957600080fd5b50610764600480360381019061075f9190614e13565b612d9f565b6040516107719190614df1565b60405180910390f35b34801561078657600080fd5b506107a1600480360381019061079c91906156ef565b612db1565b6040516107ae91906157ed565b60405180910390f35b3480156107c357600080fd5b506107de60048036038101906107d99190614e13565b612ee1565b6040516107ee9493929190614f6a565b60405180910390f35b34801561080357600080fd5b5061081e60048036038101906108199190614e13565b612f3e565b005b34801561082c57600080fd5b5061084760048036038101906108429190614e13565b612fd9565b60405161085592919061580f565b60405180910390f35b34801561086a57600080fd5b5061088560048036038101906108809190614e13565b61301d565b604051610896959493929190615838565b60405180910390f35b3480156108ab57600080fd5b506108b4613080565b6040516108c19190615311565b60405180910390f35b3480156108d657600080fd5b506108f160048036038101906108ec91906156ef565b613086565b6040516108fe9190614d3d565b60405180910390f35b34801561091357600080fd5b5061092e60048036038101906109299190614c5d565b61311a565b005b61094a60048036038101906109459190615a4d565b613427565b005b34801561095857600080fd5b50610973600480360381019061096e91906152e4565b613a2f565b005b34801561098157600080fd5b5061099c600480360381019061099791906152e4565b613ab3565b6040516109a99190615311565b60405180910390f35b6109c36109bd613acb565b83613ad3565b610a02576040517f08c379a00000000000000000000000000000000000000000000000000000000081526004016109f990615b70565b60405180910390fd5b60008142610a109190615bbf565b90506040518060a00160405280600115158152602001848152602001600073ffffffffffffffffffffffffffffffffffffffff1681526020016000815260200182815250600b600085815260200190815260200160002060008201518160000160006101000a81548160ff0219169083151502179055506020820151816001015560408201518160020160006101000a81548173ffffffffffffffffffffffffffffffffffffffff021916908373ffffffffffffffffffffffffffffffffffffffff16021790555060608201518160030155608082015181600401559050507fe00a2da3a0f34a566402a244ab7ec63f8ab7472591cb18edf3269aa00461a4108382604051610b20929190615c15565b60405180910390a1505050565b60007f80ac58cd000000000000000000000000000000000000000000000000000000007bffffffffffffffffffffffffffffffffffffffffffffffffffffffff1916827bffffffffffffffffffffffffffffffffffffffffffffffffffffffff19161480610bf857507f5b5e139f000000000000000000000000000000000000000000000000000000007bffffffffffffffffffffffffffffffffffffffffffffffffffffffff1916827bffffffffffffffffffffffffffffffffffffffffffffffffffffffff1916145b80610c085750610c0782613b68565b5b9050919050565b606060008054610c1e90615c6d565b80601f0160208091040260200160405190810160405280929190818152602001828054610c4a90615c6d565b8015610c975780601f10610c6c57610100808354040283529160200191610c97565b820191906000526020600020905b815481529060010190602001808311610c7a57829003601f168201915b5050505050905090565b6000610cac82613bd2565b6004600083815260200190815260200160002060009054906101000a900473ffffffffffffffffffffffffffffffffffffffff169050919050565b6000610cf28261144c565b90508073ffffffffffffffffffffffffffffffffffffffff168373ffffffffffffffffffffffffffffffffffffffff161415610d63576040517f08c379a0000000000000000000000000000000000000000000000000000000008152600401610d5a90615d11565b60405180910390fd5b8073ffffffffffffffffffffffffffffffffffffffff16610d82613acb565b73ffffffffffffffffffffffffffffffffffffffff161480610db15750610db081610dab613acb565b613086565b5b610df0576040517f08c379a0000000000000000000000000000000000000000000000000000000008152600401610de790615da3565b60405180910390fd5b610dfa8383613c1d565b505050565b610e10610e0a613acb565b82613ad3565b610e4f576040517f08c379a0000000000000000000000000000000000000000000000000000000008152600401610e4690615e35565b60405180910390fd5b610e5a838383613cd6565b505050565b6000600c6000610e6d613acb565b73ffffffffffffffffffffffffffffffffffffffff1673ffffffffffffffffffffffffffffffffffffffff16815260200190815260200160002054905060008111610eed576040517f08c379a0000000000000000000000000000000000000000000000000000000008152600401610ee490615ea1565b60405180910390fd5b6000600c6000610efb613acb565b73ffffffffffffffffffffffffffffffffffffffff1673ffffffffffffffffffffffffffffffffffffffff168152602001908152602001600020819055506000610f43613acb565b73ffffffffffffffffffffffffffffffffffffffff1682604051610f6690615ef2565b60006040518083038185875af1925050503d8060008114610fa3576040519150601f19603f3d011682016040523d82523d6000602084013e610fa8565b606091505b5050905080610fec576040517f08c379a0000000000000000000000000000000000000000000000000000000008152600401610fe390615f53565b60405180910390fd5b5050565b600f602052816000526040600020818154811061100c57600080fd5b9060005260206000209060040201600091509150508060000160009054906101000a900460ff16908060010154908060020160009054906101000a900473ffffffffffffffffffffffffffffffffffffffff16908060030154905084565b61108583838360405180602001604052806000815250612d3d565b505050565b6000600a60008681526020019081526020016000206040518060800160405290816000820160009054906101000a900460ff16151515158152602001600182015481526020016002820160009054906101000a900473ffffffffffffffffffffffffffffffffffffffff1673ffffffffffffffffffffffffffffffffffffffff1673ffffffffffffffffffffffffffffffffffffffff16815260200160038201548152505090508060000151611175576040517f08c379a000000000000000000000000000000000000000000000000000000000815260040161116c90615fbf565b60405180910390fd5b8181606001516111859190615fdf565b3410156111c7576040517f08c379a00000000000000000000000000000000000000000000000000000000081526004016111be90616085565b60405180910390fd5b6000808551905060005b8181116113075760008782815181106111ed576111ec6160a5565b5b60200260200101519050600087838151811061120c5761120b6160a5565b5b6020026020010151905060008110158015611228575060648111155b611267576040517f08c379a000000000000000000000000000000000000000000000000000000000815260040161125e90616146565b60405180910390fd5b60008111156112f2576000606482346112809190615fdf565b61128a9190616195565b905080866112989190615bbf565b955080600c60008573ffffffffffffffffffffffffffffffffffffffff1673ffffffffffffffffffffffffffffffffffffffff16815260200190815260200160002060008282546112e99190615bbf565b92505081905550505b505080806112ff906161c6565b9150506111d1565b5060006103e86009543461131b9190615fdf565b6113259190616195565b90506000818434611336919061620f565b611340919061620f565b905080600c600061134f613acb565b73ffffffffffffffffffffffffffffffffffffffff1673ffffffffffffffffffffffffffffffffffffffff16815260200190815260200160002060008282546113989190615bbf565b9250508190555081600c60006113ac611c93565b73ffffffffffffffffffffffffffffffffffffffff1673ffffffffffffffffffffffffffffffffffffffff16815260200190815260200160002060008282546113f59190615bbf565b92505081905550611412856040015161140c613acb565b8b613cd6565b6000600a60008b815260200190815260200160002060000160006101000a81548160ff021916908315150217905550505050505050505050565b60008061145883613fd0565b9050600073ffffffffffffffffffffffffffffffffffffffff168173ffffffffffffffffffffffffffffffffffffffff1614156114ca576040517f08c379a00000000000000000000000000000000000000000000000000000000081526004016114c19061628f565b60405180910390fd5b80915050919050565b6000600b600085815260200190815260200160002090508060000160009054906101000a900460ff1661153b576040517f08c379a0000000000000000000000000000000000000000000000000000000008152600401611532906162fb565b60405180910390fd5b8060040154421015611582576040517f08c379a000000000000000000000000000000000000000000000000000000000815260040161157990616367565b60405180910390fd5b6000808451905060005b8181116116c65760008682815181106115a8576115a76160a5565b5b6020026020010151905060008683815181106115c7576115c66160a5565b5b60200260200101519050600081101580156115e3575060648111155b611622576040517f08c379a000000000000000000000000000000000000000000000000000000000815260040161161990616146565b60405180910390fd5b60008111156116b1576000606482886003015461163f9190615fdf565b6116499190616195565b905080866116579190615bbf565b955080600c60008573ffffffffffffffffffffffffffffffffffffffff1673ffffffffffffffffffffffffffffffffffffffff16815260200190815260200160002060008282546116a89190615bbf565b92505081905550505b505080806116be906161c6565b91505061158c565b5060006103e860095485600301546116de9190615fdf565b6116e89190616195565b90506000818486600301546116fd919061620f565b611707919061620f565b905080600c6000611716613acb565b73ffffffffffffffffffffffffffffffffffffffff1673ffffffffffffffffffffffffffffffffffffffff168152602001908152602001600020600082825461175f9190615bbf565b9250508190555081600c6000611773611c93565b73ffffffffffffffffffffffffffffffffffffffff1673ffffffffffffffffffffffffffffffffffffffff16815260200190815260200160002060008282546117bc9190615bbf565b925050819055506117fa6117cf8961144c565b8660020160009054906101000a900473ffffffffffffffffffffffffffffffffffffffff168a613cd6565b60008560000160006101000a81548160ff0219169083151502179055507fd2aa34a4fdbbc6dff6a3e56f46e0f3ae2a31d7785ff3487aa5c95c642acea501888660020160009054906101000a900473ffffffffffffffffffffffffffffffffffffffff16876003015460405161187293929190616387565b60405180910390a15050505050505050565b60008073ffffffffffffffffffffffffffffffffffffffff168273ffffffffffffffffffffffffffffffffffffffff1614156118f5576040517f08c379a00000000000000000000000000000000000000000000000000000000081526004016118ec90616430565b60405180910390fd5b600360008373ffffffffffffffffffffffffffffffffffffffff1673ffffffffffffffffffffffffffffffffffffffff168152602001908152602001600020549050919050565b61194461400d565b61194e600061408b565b565b60008111611993576040517f08c379a000000000000000000000000000000000000000000000000000000000815260040161198a9061649c565b60405180910390fd5b600060405180608001604052806001151581526020018481526020016119b7613acb565b73ffffffffffffffffffffffffffffffffffffffff168152602001838152509050600f600084815260200190815260200160002081908060018154018082558091505060019003906000526020600020906004020160009091909190915060008201518160000160006101000a81548160ff0219169083151502179055506020820151816001015560408201518160020160006101000a81548173ffffffffffffffffffffffffffffffffffffffff021916908373ffffffffffffffffffffffffffffffffffffffff16021790555060608201518160030155505081600c6000611a9f613acb565b73ffffffffffffffffffffffffffffffffffffffff1673ffffffffffffffffffffffffffffffffffffffff1681526020019081526020016000206000828254611ae8919061620f565b9250508190555081600c6000611afc611c93565b73ffffffffffffffffffffffffffffffffffffffff1673ffffffffffffffffffffffffffffffffffffffff1681526020019081526020016000206000828254611b459190615bbf565b92505081905550611b54613acb565b73ffffffffffffffffffffffffffffffffffffffff16837f621602a81c41f208d6706724f028c3d6f902a344be2f9fc7fb5643d6df5c92cf84604051611b9a9190615311565b60405180910390a3505050565b6000611bb38584614151565b611bbd838561436f565b60405180604001604052808673ffffffffffffffffffffffffffffffffffffffff16815260200183815250600e600085815260200190815260200160002060008201518160000160006101000a81548173ffffffffffffffffffffffffffffffffffffffff021916908373ffffffffffffffffffffffffffffffffffffffff160217905550602082015181600101559050507f3a5398bda6f1f57d6c96834fa9bf02b5517bdc847d14312015a917ba421c31c98386604051611c809291906164bc565b60405180910390a1829050949350505050565b6000600660009054906101000a900473ffffffffffffffffffffffffffffffffffffffff16905090565b611cce611cc8613acb565b83613ad3565b611d0d576040517f08c379a0000000000000000000000000000000000000000000000000000000008152600401611d0490615b70565b60405180910390fd5b611d17828261436f565b5050565b611d2c611d26613acb565b83613ad3565b611d6b576040517f08c379a0000000000000000000000000000000000000000000000000000000008152600401611d6290615b70565b60405180910390fd5b60008111611dae576040517f08c379a0000000000000000000000000000000000000000000000000000000008152600401611da59061649c565b60405180910390fd5b6040518060800160405280600115158152602001838152602001611dd0613acb565b73ffffffffffffffffffffffffffffffffffffffff16815260200182815250600a600084815260200190815260200160002060008201518160000160006101000a81548160ff0219169083151502179055506020820151816001015560408201518160020160006101000a81548173ffffffffffffffffffffffffffffffffffffffff021916908373ffffffffffffffffffffffffffffffffffffffff16021790555060608201518160030155905050611e88613acb565b73ffffffffffffffffffffffffffffffffffffffff16827f5f9c03de076f5063cd3ebcfe8ef7aa8af378e4b35a83c77ba9777e97083879a283604051611ece9190615311565b60405180910390a35050565b606060018054611ee990615c6d565b80601f0160208091040260200160405190810160405280929190818152602001828054611f1590615c6d565b8015611f625780601f10611f3757610100808354040283529160200191611f62565b820191906000526020600020905b815481529060010190602001808311611f4557829003601f168201915b5050505050905090565b6000600b600083815260200190815260200160002090508060000160009054906101000a900460ff16611fd4576040517f08c379a0000000000000000000000000000000000000000000000000000000008152600401611fcb906162fb565b60405180910390fd5b611fe5611fdf613acb565b83613ad3565b612024576040517f08c379a000000000000000000000000000000000000000000000000000000000815260040161201b90615b70565b60405180910390fd5b600073ffffffffffffffffffffffffffffffffffffffff168160020160009054906101000a900473ffffffffffffffffffffffffffffffffffffffff1673ffffffffffffffffffffffffffffffffffffffff16146120fb578060030154600c60008360020160009054906101000a900473ffffffffffffffffffffffffffffffffffffffff1673ffffffffffffffffffffffffffffffffffffffff1673ffffffffffffffffffffffffffffffffffffffff16815260200190815260200160002060008282546120f39190615bbf565b925050819055505b60008160000160006101000a81548160ff0219169083151502179055507fd2aa34a4fdbbc6dff6a3e56f46e0f3ae2a31d7785ff3487aa5c95c642acea5018260008060405161214c9392919061652a565b60405180910390a15050565b6000600b600083815260200190815260200160002090508060000160009054906101000a900460ff166121c0576040517f08c379a00000000000000000000000000000000000000000000000000000000081526004016121b7906162fb565b60405180910390fd5b80600401544210612206576040517f08c379a00000000000000000000000000000000000000000000000000000000081526004016121fd906165ad565b60405180910390fd5b8060030154341161224c576040517f08c379a00000000000000000000000000000000000000000000000000000000081526004016122439061663f565b60405180910390fd5b600073ffffffffffffffffffffffffffffffffffffffff168160020160009054906101000a900473ffffffffffffffffffffffffffffffffffffffff1673ffffffffffffffffffffffffffffffffffffffff1614612323578060030154600c60008360020160009054906101000a900473ffffffffffffffffffffffffffffffffffffffff1673ffffffffffffffffffffffffffffffffffffffff1673ffffffffffffffffffffffffffffffffffffffff168152602001908152602001600020600082825461231b9190615bbf565b925050819055505b61232b613acb565b8160020160006101000a81548173ffffffffffffffffffffffffffffffffffffffff021916908373ffffffffffffffffffffffffffffffffffffffff1602179055503481600301819055507f0e54eff26401bf69b81b26f60bd85ef47f5d85275c1d268d84f68d6897431c47826123a0613acb565b346040516123b093929190616387565b60405180910390a15050565b6123cd6123c7613acb565b85613ad3565b61240c576040517f08c379a000000000000000000000000000000000000000000000000000000000815260040161240390615b70565b60405180910390fd5b600f6000858152602001908152602001600020805490508310612464576040517f08c379a000000000000000000000000000000000000000000000000000000000815260040161245b906166ab565b60405180910390fd5b600f60008581526020019081526020016000208381548110612489576124886160a5565b5b906000526020600020906004020160000160009054906101000a900460ff166124e7576040517f08c379a00000000000000000000000000000000000000000000000000000000081526004016124de90616717565b60405180910390fd5b6000600f6000868152602001908152602001600020848154811061250e5761250d6160a5565b5b90600052602060002090600402016040518060800160405290816000820160009054906101000a900460ff16151515158152602001600182015481526020016002820160009054906101000a900473ffffffffffffffffffffffffffffffffffffffff1673ffffffffffffffffffffffffffffffffffffffff1673ffffffffffffffffffffffffffffffffffffffff1681526020016003820154815250509050600081606001519050600082604001519050600073ffffffffffffffffffffffffffffffffffffffff168173ffffffffffffffffffffffffffffffffffffffff161415612630576040517f08c379a000000000000000000000000000000000000000000000000000000000815260040161262790616783565b60405180910390fd5b6000600f60008981526020019081526020016000208781548110612657576126566160a5565b5b906000526020600020906004020160000160006101000a81548160ff0219169083151502179055506000808651905060005b8181116127bf5760008882815181106126a5576126a46160a5565b5b6020026020010151905060008883815181106126c4576126c36160a5565b5b60200260200101519050600081101580156126e0575060648111155b61271f576040517f08c379a000000000000000000000000000000000000000000000000000000000815260040161271690616146565b60405180910390fd5b60008111156127aa576000606482896127389190615fdf565b6127429190616195565b905080866127509190615bbf565b955080600c60008573ffffffffffffffffffffffffffffffffffffffff1673ffffffffffffffffffffffffffffffffffffffff16815260200190815260200160002060008282546127a19190615bbf565b92505081905550505b505080806127b7906161c6565b915050612689565b5060006103e8600954866127d39190615fdf565b6127dd9190616195565b905060008184876127ee919061620f565b6127f8919061620f565b905080600c6000612807613acb565b73ffffffffffffffffffffffffffffffffffffffff1673ffffffffffffffffffffffffffffffffffffffff16815260200190815260200160002060008282546128509190615bbf565b9250508190555081600c6000612864611c93565b73ffffffffffffffffffffffffffffffffffffffff1673ffffffffffffffffffffffffffffffffffffffff16815260200190815260200160002060008282546128ad9190615bbf565b925050819055506128c66128bf613acb565b868d613cd6565b8473ffffffffffffffffffffffffffffffffffffffff168b7f7f584b34848385865b066dc153c88c882a41f1461d349a14181937f86d8b04298860405161290d9190615311565b60405180910390a35050505050505050505050565b600f600083815260200190815260200160002080549050811061297a576040517f08c379a0000000000000000000000000000000000000000000000000000000008152600401612971906166ab565b60405180910390fd5b612982613acb565b73ffffffffffffffffffffffffffffffffffffffff16600f600084815260200190815260200160002082815481106129bd576129bc6160a5565b5b906000526020600020906004020160020160009054906101000a900473ffffffffffffffffffffffffffffffffffffffff1673ffffffffffffffffffffffffffffffffffffffff1614612a45576040517f08c379a0000000000000000000000000000000000000000000000000000000008152600401612a3c906167ef565b60405180910390fd5b6000600f60008481526020019081526020016000208281548110612a6c57612a6b6160a5565b5b906000526020600020906004020160000160006101000a81548160ff021916908315150217905550612a9c613acb565b73ffffffffffffffffffffffffffffffffffffffff16827f7c49ef3636762858bc3078610b9cec68df66a78863ef2285cc9ea098530a481560405160405180910390a35050565b612af5612aee613acb565b83836143e3565b5050565b600d6020528060005260406000206000915090508060000160009054906101000a900460ff16908060010154908060020160009054906101000a900473ffffffffffffffffffffffffffffffffffffffff16908060030154905084565b612b5e613acb565b73ffffffffffffffffffffffffffffffffffffffff16600a600083815260200190815260200160002060020160009054906101000a900473ffffffffffffffffffffffffffffffffffffffff1673ffffffffffffffffffffffffffffffffffffffff1614612c01576040517f08c379a0000000000000000000000000000000000000000000000000000000008152600401612bf89061685b565b60405180910390fd5b6000600a600083815260200190815260200160002060000160006101000a81548160ff021916908315150217905550612c38613acb565b73ffffffffffffffffffffffffffffffffffffffff16817fb96f3a932e41e36c142d78a86850c1c9a1ba2c62a595e23ea0dfbf876330ea5760405160405180910390a350565b6000600a600083815260200190815260200160002090508060030154341015612cdc576040517f08c379a0000000000000000000000000000000000000000000000000000000008152600401612cd390616085565b60405180910390fd5b34600c6000612ce9613acb565b73ffffffffffffffffffffffffffffffffffffffff1673ffffffffffffffffffffffffffffffffffffffff1681526020019081526020016000206000828254612d329190615bbf565b925050819055505050565b612d4e612d48613acb565b83613ad3565b612d8d576040517f08c379a0000000000000000000000000000000000000000000000000000000008152600401612d8490615e35565b60405180910390fd5b612d9984848484614550565b50505050565b6060612daa826145ac565b9050919050565b60606000612dbe83611884565b905060008167ffffffffffffffff811115612ddc57612ddb614fb4565b5b604051908082528060200260200182016040528015612e0a5781602001602082028036833780820191505090505b50905060005b82811015612ed5578573ffffffffffffffffffffffffffffffffffffffff16632f745c5986836040518363ffffffff1660e01b8152600401612e5392919061580f565b60206040518083038186803b158015612e6b57600080fd5b505afa158015612e7f573d6000803e3d6000fd5b505050506040513d601f19601f82011682018060405250810190612ea39190616890565b828281518110612eb657612eb56160a5565b5b6020026020010181815250508080612ecd906161c6565b915050612e10565b50809250505092915050565b600a6020528060005260406000206000915090508060000160009054906101000a900460ff16908060010154908060020160009054906101000a900473ffffffffffffffffffffffffffffffffffffffff16908060030154905084565b612f4661400d565b60008110158015612f5957506103e88111155b612f98576040517f08c379a0000000000000000000000000000000000000000000000000000000008152600401612f8f90616909565b60405180910390fd5b806009819055507fc52b745517237e6357976bba03e5dc4ff05bfc70c61a1f50294bb5b1059af86e81604051612fce9190615311565b60405180910390a150565b600e6020528060005260406000206000915090508060000160009054906101000a900473ffffffffffffffffffffffffffffffffffffffff16908060010154905082565b600b6020528060005260406000206000915090508060000160009054906101000a900460ff16908060010154908060020160009054906101000a900473ffffffffffffffffffffffffffffffffffffffff16908060030154908060040154905085565b60095481565b6000600560008473ffffffffffffffffffffffffffffffffffffffff1673ffffffffffffffffffffffffffffffffffffffff16815260200190815260200160002060008373ffffffffffffffffffffffffffffffffffffffff1673ffffffffffffffffffffffffffffffffffffffff16815260200190815260200160002060009054906101000a900460ff16905092915050565b61312b613125613acb565b83613ad3565b61316a576040517f08c379a000000000000000000000000000000000000000000000000000000000815260040161316190615b70565b60405180910390fd5b600f60008381526020019081526020016000208054905081106131c2576040517f08c379a00000000000000000000000000000000000000000000000000000000081526004016131b9906166ab565b60405180910390fd5b600f600083815260200190815260200160002081815481106131e7576131e66160a5565b5b906000526020600020906004020160000160009054906101000a900460ff16613245576040517f08c379a000000000000000000000000000000000000000000000000000000000815260040161323c90616717565b60405180910390fd5b6000600f6000848152602001908152602001600020828154811061326c5761326b6160a5565b5b906000526020600020906004020160020160009054906101000a900473ffffffffffffffffffffffffffffffffffffffff1690506000600f600085815260200190815260200160002083815481106132c7576132c66160a5565b5b90600052602060002090600402016003015490506000600f60008681526020019081526020016000208481548110613302576133016160a5565b5b906000526020600020906004020160000160006101000a81548160ff02191690831515021790555080600c60008473ffffffffffffffffffffffffffffffffffffffff1673ffffffffffffffffffffffffffffffffffffffff16815260200190815260200160002060008282546133799190615bbf565b9250508190555080600c600061338d611c93565b73ffffffffffffffffffffffffffffffffffffffff1673ffffffffffffffffffffffffffffffffffffffff16815260200190815260200160002060008282546133d6919061620f565b925050819055508173ffffffffffffffffffffffffffffffffffffffff16847f2d9d00a807c2aff5d665db4d08836cdcefcafb265b17c460c5fcc6e40a7dd32c60405160405180910390a350505050565b825184511461346b576040517f08c379a00000000000000000000000000000000000000000000000000000000081526004016134629061699b565b60405180910390fd5b600080600090505b85518110156135de576000868281518110613491576134906160a5565b5b6020026020010151905060008683815181106134b0576134af6160a5565b5b602002602001015190506000600a60008481526020019081526020016000206040518060800160405290816000820160009054906101000a900460ff16151515158152602001600182015481526020016002820160009054906101000a900473ffffffffffffffffffffffffffffffffffffffff1673ffffffffffffffffffffffffffffffffffffffff1673ffffffffffffffffffffffffffffffffffffffff168152602001600382015481525050905080600001516135a5576040517f08c379a000000000000000000000000000000000000000000000000000000000815260040161359c90615fbf565b60405180910390fd5b60008282606001516135b79190615fdf565b905080866135c59190615bbf565b95505050505080806135d6906161c6565b915050613473565b5080341015613622576040517f08c379a000000000000000000000000000000000000000000000000000000000815260040161361990616085565b60405180910390fd5b60005b8551811015613a27576000868281518110613643576136426160a5565b5b602002602001015190506000868381518110613662576136616160a5565b5b602002602001015190506000600a60008481526020019081526020016000206040518060800160405290816000820160009054906101000a900460ff16151515158152602001600182015481526020016002820160009054906101000a900473ffffffffffffffffffffffffffffffffffffffff1673ffffffffffffffffffffffffffffffffffffffff1673ffffffffffffffffffffffffffffffffffffffff168152602001600382015481525050905060008282606001516137259190615fdf565b905060008089878151811061373d5761373c6160a5565b5b602002602001015151905060005b818110156138b65760008b8981518110613768576137676160a5565b5b60200260200101518281518110613782576137816160a5565b5b6020026020010151905060008b8a815181106137a1576137a06160a5565b5b602002602001015183815181106137bb576137ba6160a5565b5b60200260200101519050600081101580156137d7575060648111155b613816576040517f08c379a000000000000000000000000000000000000000000000000000000000815260040161380d90616146565b60405180910390fd5b60008111156138a15760006064828861382f9190615fdf565b6138399190616195565b905080866138479190615bbf565b955080600c60008573ffffffffffffffffffffffffffffffffffffffff1673ffffffffffffffffffffffffffffffffffffffff16815260200190815260200160002060008282546138989190615bbf565b92505081905550505b505080806138ae906161c6565b91505061374b565b5060006103e8600954856138ca9190615fdf565b6138d49190616195565b905060008184866138e5919061620f565b6138ef919061620f565b905080600c6000886040015173ffffffffffffffffffffffffffffffffffffffff1673ffffffffffffffffffffffffffffffffffffffff16815260200190815260200160002060008282546139449190615bbf565b9250508190555081600c6000613958611c93565b73ffffffffffffffffffffffffffffffffffffffff1673ffffffffffffffffffffffffffffffffffffffff16815260200190815260200160002060008282546139a19190615bbf565b9250508190555060005b878110156139dc576139c987604001516139c3613acb565b8b613cd6565b80806139d4906161c6565b9150506139ab565b506000600a60008a815260200190815260200160002060000160006101000a81548160ff02191690831515021790555050505050505050508080613a1f906161c6565b915050613625565b505050505050565b613a3761400d565b600073ffffffffffffffffffffffffffffffffffffffff168173ffffffffffffffffffffffffffffffffffffffff161415613aa7576040517f08c379a0000000000000000000000000000000000000000000000000000000008152600401613a9e90616a2d565b60405180910390fd5b613ab08161408b565b50565b600c6020528060005260406000206000915090505481565b600033905090565b600080613adf8361144c565b90508073ffffffffffffffffffffffffffffffffffffffff168473ffffffffffffffffffffffffffffffffffffffff161480613b215750613b208185613086565b5b80613b5f57508373ffffffffffffffffffffffffffffffffffffffff16613b4784610ca1565b73ffffffffffffffffffffffffffffffffffffffff16145b91505092915050565b60007f01ffc9a7000000000000000000000000000000000000000000000000000000007bffffffffffffffffffffffffffffffffffffffffffffffffffffffff1916827bffffffffffffffffffffffffffffffffffffffffffffffffffffffff1916149050919050565b613bdb816146bf565b613c1a576040517f08c379a0000000000000000000000000000000000000000000000000000000008152600401613c119061628f565b60405180910390fd5b50565b816004600083815260200190815260200160002060006101000a81548173ffffffffffffffffffffffffffffffffffffffff021916908373ffffffffffffffffffffffffffffffffffffffff160217905550808273ffffffffffffffffffffffffffffffffffffffff16613c908361144c565b73ffffffffffffffffffffffffffffffffffffffff167f8c5be1e5ebec7d5bd14f71427d1e84f3dd0314c0f7b2291e5b200ac8c7c3b92560405160405180910390a45050565b8273ffffffffffffffffffffffffffffffffffffffff16613cf68261144c565b73ffffffffffffffffffffffffffffffffffffffff1614613d4c576040517f08c379a0000000000000000000000000000000000000000000000000000000008152600401613d4390616abf565b60405180910390fd5b600073ffffffffffffffffffffffffffffffffffffffff168273ffffffffffffffffffffffffffffffffffffffff161415613dbc576040517f08c379a0000000000000000000000000000000000000000000000000000000008152600401613db390616b51565b60405180910390fd5b613dc98383836001614700565b8273ffffffffffffffffffffffffffffffffffffffff16613de98261144c565b73ffffffffffffffffffffffffffffffffffffffff1614613e3f576040517f08c379a0000000000000000000000000000000000000000000000000000000008152600401613e3690616abf565b60405180910390fd5b6004600082815260200190815260200160002060006101000a81549073ffffffffffffffffffffffffffffffffffffffff02191690556001600360008573ffffffffffffffffffffffffffffffffffffffff1673ffffffffffffffffffffffffffffffffffffffff168152602001908152602001600020600082825403925050819055506001600360008473ffffffffffffffffffffffffffffffffffffffff1673ffffffffffffffffffffffffffffffffffffffff16815260200190815260200160002060008282540192505081905550816002600083815260200190815260200160002060006101000a81548173ffffffffffffffffffffffffffffffffffffffff021916908373ffffffffffffffffffffffffffffffffffffffff160217905550808273ffffffffffffffffffffffffffffffffffffffff168473ffffffffffffffffffffffffffffffffffffffff167fddf252ad1be2c89b69c2b068fc378daa952ba7f163c4a11628f55a4df523b3ef60405160405180910390a4613fcb8383836001614706565b505050565b60006002600083815260200190815260200160002060009054906101000a900473ffffffffffffffffffffffffffffffffffffffff169050919050565b614015613acb565b73ffffffffffffffffffffffffffffffffffffffff16614033611c93565b73ffffffffffffffffffffffffffffffffffffffff1614614089576040517f08c379a000000000000000000000000000000000000000000000000000000000815260040161408090616bbd565b60405180910390fd5b565b6000600660009054906101000a900473ffffffffffffffffffffffffffffffffffffffff16905081600660006101000a81548173ffffffffffffffffffffffffffffffffffffffff021916908373ffffffffffffffffffffffffffffffffffffffff1602179055508173ffffffffffffffffffffffffffffffffffffffff168173ffffffffffffffffffffffffffffffffffffffff167f8be0079c531659141344cd1fd0a4f28419497f9722a3daafe3b4186f6b6457e060405160405180910390a35050565b600073ffffffffffffffffffffffffffffffffffffffff168273ffffffffffffffffffffffffffffffffffffffff1614156141c1576040517f08c379a00000000000000000000000000000000000000000000000000000000081526004016141b890616c29565b60405180910390fd5b6141ca816146bf565b1561420a576040517f08c379a000000000000000000000000000000000000000000000000000000000815260040161420190616c95565b60405180910390fd5b614218600083836001614700565b614221816146bf565b15614261576040517f08c379a000000000000000000000000000000000000000000000000000000000815260040161425890616c95565b60405180910390fd5b6001600360008473ffffffffffffffffffffffffffffffffffffffff1673ffffffffffffffffffffffffffffffffffffffff16815260200190815260200160002060008282540192505081905550816002600083815260200190815260200160002060006101000a81548173ffffffffffffffffffffffffffffffffffffffff021916908373ffffffffffffffffffffffffffffffffffffffff160217905550808273ffffffffffffffffffffffffffffffffffffffff16600073ffffffffffffffffffffffffffffffffffffffff167fddf252ad1be2c89b69c2b068fc378daa952ba7f163c4a11628f55a4df523b3ef60405160405180910390a461436b600083836001614706565b5050565b614378826146bf565b6143b7576040517f08c379a00000000000000000000000000000000000000000000000000000000081526004016143ae90616d27565b60405180910390fd5b806007600084815260200190815260200160002090805190602001906143de929190614b70565b505050565b8173ffffffffffffffffffffffffffffffffffffffff168373ffffffffffffffffffffffffffffffffffffffff161415614452576040517f08c379a000000000000000000000000000000000000000000000000000000000815260040161444990616d93565b60405180910390fd5b80600560008573ffffffffffffffffffffffffffffffffffffffff1673ffffffffffffffffffffffffffffffffffffffff16815260200190815260200160002060008473ffffffffffffffffffffffffffffffffffffffff1673ffffffffffffffffffffffffffffffffffffffff16815260200190815260200160002060006101000a81548160ff0219169083151502179055508173ffffffffffffffffffffffffffffffffffffffff168373ffffffffffffffffffffffffffffffffffffffff167f17307eab39ab6107e8899845ad3d59bd9653f200f220920489ca2b5937696c31836040516145439190614d3d565b60405180910390a3505050565b61455b848484613cd6565b6145678484848461470c565b6145a6576040517f08c379a000000000000000000000000000000000000000000000000000000000815260040161459d90616e25565b60405180910390fd5b50505050565b60606145b782613bd2565b60006007600084815260200190815260200160002080546145d790615c6d565b80601f016020809104026020016040519081016040528092919081815260200182805461460390615c6d565b80156146505780601f1061462557610100808354040283529160200191614650565b820191906000526020600020905b81548152906001019060200180831161463357829003601f168201915b5050505050905060006146616148a3565b90506000815114156146775781925050506146ba565b6000825111156146ac578082604051602001614694929190616e81565b604051602081830303815290604052925050506146ba565b6146b5846148ba565b925050505b919050565b60008073ffffffffffffffffffffffffffffffffffffffff166146e183613fd0565b73ffffffffffffffffffffffffffffffffffffffff1614159050919050565b50505050565b50505050565b600061472d8473ffffffffffffffffffffffffffffffffffffffff16614922565b15614896578373ffffffffffffffffffffffffffffffffffffffff1663150b7a02614756613acb565b8786866040518563ffffffff1660e01b81526004016147789493929190616efa565b602060405180830381600087803b15801561479257600080fd5b505af19250505080156147c357506040513d601f19601f820116820180604052508101906147c09190616f5b565b60015b614846573d80600081146147f3576040519150601f19603f3d011682016040523d82523d6000602084013e6147f8565b606091505b5060008151141561483e576040517f08c379a000000000000000000000000000000000000000000000000000000000815260040161483590616e25565b60405180910390fd5b805181602001fd5b63150b7a0260e01b7bffffffffffffffffffffffffffffffffffffffffffffffffffffffff1916817bffffffffffffffffffffffffffffffffffffffffffffffffffffffff19161491505061489b565b600190505b949350505050565b606060405180602001604052806000815250905090565b60606148c582613bd2565b60006148cf6148a3565b905060008151116148ef576040518060200160405280600081525061491a565b806148f984614945565b60405160200161490a929190616e81565b6040516020818303038152906040525b915050919050565b6000808273ffffffffffffffffffffffffffffffffffffffff163b119050919050565b60606000600161495484614a1d565b01905060008167ffffffffffffffff81111561497357614972614fb4565b5b6040519080825280601f01601f1916602001820160405280156149a55781602001600182028036833780820191505090505b509050600082602001820190505b600115614a12578080600190039150507f3031323334353637383961626364656600000000000000000000000000000000600a86061a8153600a85816149fc576149fb616166565b5b0494506000851415614a0d57614a12565b6149b3565b819350505050919050565b600080600090507a184f03e93ff9f4daa797ed6e38ed64bf6a1f0100000000000000008310614a7b577a184f03e93ff9f4daa797ed6e38ed64bf6a1f0100000000000000008381614a7157614a70616166565b5b0492506040810190505b6d04ee2d6d415b85acef81000000008310614ab8576d04ee2d6d415b85acef81000000008381614aae57614aad616166565b5b0492506020810190505b662386f26fc100008310614ae757662386f26fc100008381614add57614adc616166565b5b0492506010810190505b6305f5e1008310614b10576305f5e1008381614b0657614b05616166565b5b0492506008810190505b6127108310614b35576127108381614b2b57614b2a616166565b5b0492506004810190505b60648310614b585760648381614b4e57614b4d616166565b5b0492506002810190505b600a8310614b67576001810190505b80915050919050565b828054614b7c90615c6d565b90600052602060002090601f016020900481019282614b9e5760008555614be5565b82601f10614bb757805160ff1916838001178555614be5565b82800160010185558215614be5579182015b82811115614be4578251825591602001919060010190614bc9565b5b509050614bf29190614bf6565b5090565b5b80821115614c0f576000816000905550600101614bf7565b5090565b6000604051905090565b600080fd5b600080fd5b6000819050919050565b614c3a81614c27565b8114614c4557600080fd5b50565b600081359050614c5781614c31565b92915050565b60008060408385031215614c7457614c73614c1d565b5b6000614c8285828601614c48565b9250506020614c9385828601614c48565b9150509250929050565b60007fffffffff0000000000000000000000000000000000000000000000000000000082169050919050565b614cd281614c9d565b8114614cdd57600080fd5b50565b600081359050614cef81614cc9565b92915050565b600060208284031215614d0b57614d0a614c1d565b5b6000614d1984828501614ce0565b91505092915050565b60008115159050919050565b614d3781614d22565b82525050565b6000602082019050614d526000830184614d2e565b92915050565b600081519050919050565b600082825260208201905092915050565b60005b83811015614d92578082015181840152602081019050614d77565b83811115614da1576000848401525b50505050565b6000601f19601f8301169050919050565b6000614dc382614d58565b614dcd8185614d63565b9350614ddd818560208601614d74565b614de681614da7565b840191505092915050565b60006020820190508181036000830152614e0b8184614db8565b905092915050565b600060208284031215614e2957614e28614c1d565b5b6000614e3784828501614c48565b91505092915050565b600073ffffffffffffffffffffffffffffffffffffffff82169050919050565b6000614e6b82614e40565b9050919050565b614e7b81614e60565b82525050565b6000602082019050614e966000830184614e72565b92915050565b614ea581614e60565b8114614eb057600080fd5b50565b600081359050614ec281614e9c565b92915050565b60008060408385031215614edf57614ede614c1d565b5b6000614eed85828601614eb3565b9250506020614efe85828601614c48565b9150509250929050565b600080600060608486031215614f2157614f20614c1d565b5b6000614f2f86828701614eb3565b9350506020614f4086828701614eb3565b9250506040614f5186828701614c48565b9150509250925092565b614f6481614c27565b82525050565b6000608082019050614f7f6000830187614d2e565b614f8c6020830186614f5b565b614f996040830185614e72565b614fa66060830184614f5b565b95945050505050565b600080fd5b7f4e487b7100000000000000000000000000000000000000000000000000000000600052604160045260246000fd5b614fec82614da7565b810181811067ffffffffffffffff8211171561500b5761500a614fb4565b5b80604052505050565b600061501e614c13565b905061502a8282614fe3565b919050565b600067ffffffffffffffff82111561504a57615049614fb4565b5b602082029050602081019050919050565b600080fd5b600061507361506e8461502f565b615014565b905080838252602082019050602084028301858111156150965761509561505b565b5b835b818110156150bf57806150ab8882614eb3565b845260208401935050602081019050615098565b5050509392505050565b600082601f8301126150de576150dd614faf565b5b81356150ee848260208601615060565b91505092915050565b600067ffffffffffffffff82111561511257615111614fb4565b5b602082029050602081019050919050565b6000615136615131846150f7565b615014565b905080838252602082019050602084028301858111156151595761515861505b565b5b835b81811015615182578061516e8882614c48565b84526020840193505060208101905061515b565b5050509392505050565b600082601f8301126151a1576151a0614faf565b5b81356151b1848260208601615123565b91505092915050565b600080600080608085870312156151d4576151d3614c1d565b5b60006151e287828801614c48565b945050602085013567ffffffffffffffff81111561520357615202614c22565b5b61520f878288016150c9565b935050604085013567ffffffffffffffff8111156152305761522f614c22565b5b61523c8782880161518c565b925050606061524d87828801614c48565b91505092959194509250565b60008060006060848603121561527257615271614c1d565b5b600061528086828701614c48565b935050602084013567ffffffffffffffff8111156152a1576152a0614c22565b5b6152ad868287016150c9565b925050604084013567ffffffffffffffff8111156152ce576152cd614c22565b5b6152da8682870161518c565b9150509250925092565b6000602082840312156152fa576152f9614c1d565b5b600061530884828501614eb3565b91505092915050565b60006020820190506153266000830184614f5b565b92915050565b600080fd5b600067ffffffffffffffff82111561534c5761534b614fb4565b5b61535582614da7565b9050602081019050919050565b82818337600083830152505050565b600061538461537f84615331565b615014565b9050828152602081018484840111156153a05761539f61532c565b5b6153ab848285615362565b509392505050565b600082601f8301126153c8576153c7614faf565b5b81356153d8848260208601615371565b91505092915050565b600080600080608085870312156153fb576153fa614c1d565b5b600061540987828801614eb3565b945050602085013567ffffffffffffffff81111561542a57615429614c22565b5b615436878288016153b3565b935050604061544787828801614c48565b925050606061545887828801614c48565b91505092959194509250565b6000806040838503121561547b5761547a614c1d565b5b600061548985828601614c48565b925050602083013567ffffffffffffffff8111156154aa576154a9614c22565b5b6154b6858286016153b3565b9150509250929050565b600080600080608085870312156154da576154d9614c1d565b5b60006154e887828801614c48565b94505060206154f987828801614c48565b935050604085013567ffffffffffffffff81111561551a57615519614c22565b5b615526878288016150c9565b925050606085013567ffffffffffffffff81111561554757615546614c22565b5b6155538782880161518c565b91505092959194509250565b61556881614d22565b811461557357600080fd5b50565b6000813590506155858161555f565b92915050565b600080604083850312156155a2576155a1614c1d565b5b60006155b085828601614eb3565b92505060206155c185828601615576565b9150509250929050565b600067ffffffffffffffff8211156155e6576155e5614fb4565b5b6155ef82614da7565b9050602081019050919050565b600061560f61560a846155cb565b615014565b90508281526020810184848401111561562b5761562a61532c565b5b615636848285615362565b509392505050565b600082601f83011261565357615652614faf565b5b81356156638482602086016155fc565b91505092915050565b6000806000806080858703121561568657615685614c1d565b5b600061569487828801614eb3565b94505060206156a587828801614eb3565b93505060406156b687828801614c48565b925050606085013567ffffffffffffffff8111156156d7576156d6614c22565b5b6156e38782880161563e565b91505092959194509250565b6000806040838503121561570657615705614c1d565b5b600061571485828601614eb3565b925050602061572585828601614eb3565b9150509250929050565b600081519050919050565b600082825260208201905092915050565b6000819050602082019050919050565b61576481614c27565b82525050565b6000615776838361575b565b60208301905092915050565b6000602082019050919050565b600061579a8261572f565b6157a4818561573a565b93506157af8361574b565b8060005b838110156157e05781516157c7888261576a565b97506157d283615782565b9250506001810190506157b3565b5085935050505092915050565b60006020820190508181036000830152615807818461578f565b905092915050565b60006040820190506158246000830185614e72565b6158316020830184614f5b565b9392505050565b600060a08201905061584d6000830188614d2e565b61585a6020830187614f5b565b6158676040830186614e72565b6158746060830185614f5b565b6158816080830184614f5b565b9695505050505050565b600067ffffffffffffffff8211156158a6576158a5614fb4565b5b602082029050602081019050919050565b60006158ca6158c58461588b565b615014565b905080838252602082019050602084028301858111156158ed576158ec61505b565b5b835b8181101561593457803567ffffffffffffffff81111561591257615911614faf565b5b80860161591f89826150c9565b855260208501945050506020810190506158ef565b5050509392505050565b600082601f83011261595357615952614faf565b5b81356159638482602086016158b7565b91505092915050565b600067ffffffffffffffff82111561598757615986614fb4565b5b602082029050602081019050919050565b60006159ab6159a68461596c565b615014565b905080838252602082019050602084028301858111156159ce576159cd61505b565b5b835b81811015615a1557803567ffffffffffffffff8111156159f3576159f2614faf565b5b808601615a00898261518c565b855260208501945050506020810190506159d0565b5050509392505050565b600082601f830112615a3457615a33614faf565b5b8135615a44848260208601615998565b91505092915050565b60008060008060808587031215615a6757615a66614c1d565b5b600085013567ffffffffffffffff811115615a8557615a84614c22565b5b615a918782880161518c565b945050602085013567ffffffffffffffff811115615ab257615ab1614c22565b5b615abe8782880161518c565b935050604085013567ffffffffffffffff811115615adf57615ade614c22565b5b615aeb8782880161593e565b925050606085013567ffffffffffffffff811115615b0c57615b0b614c22565b5b615b1887828801615a1f565b91505092959194509250565b7f4e6f7420617070726f766564206f72206f776e65720000000000000000000000600082015250565b6000615b5a601583614d63565b9150615b6582615b24565b602082019050919050565b60006020820190508181036000830152615b8981615b4d565b9050919050565b7f4e487b7100000000000000000000000000000000000000000000000000000000600052601160045260246000fd5b6000615bca82614c27565b9150615bd583614c27565b9250827fffffffffffffffffffffffffffffffffffffffffffffffffffffffffffffffff03821115615c0a57615c09615b90565b5b828201905092915050565b6000604082019050615c2a6000830185614f5b565b615c376020830184614f5b565b9392505050565b7f4e487b7100000000000000000000000000000000000000000000000000000000600052602260045260246000fd5b60006002820490506001821680615c8557607f821691505b60208210811415615c9957615c98615c3e565b5b50919050565b7f4552433732313a20617070726f76616c20746f2063757272656e74206f776e6560008201527f7200000000000000000000000000000000000000000000000000000000000000602082015250565b6000615cfb602183614d63565b9150615d0682615c9f565b604082019050919050565b60006020820190508181036000830152615d2a81615cee565b9050919050565b7f4552433732313a20617070726f76652063616c6c6572206973206e6f7420746f60008201527f6b656e206f776e6572206f7220617070726f76656420666f7220616c6c000000602082015250565b6000615d8d603d83614d63565b9150615d9882615d31565b604082019050919050565b60006020820190508181036000830152615dbc81615d80565b9050919050565b7f4552433732313a2063616c6c6572206973206e6f7420746f6b656e206f776e6560008201527f72206f7220617070726f76656400000000000000000000000000000000000000602082015250565b6000615e1f602d83614d63565b9150615e2a82615dc3565b604082019050919050565b60006020820190508181036000830152615e4e81615e12565b9050919050565b7f4e6f2066756e647320746f207769746864726177000000000000000000000000600082015250565b6000615e8b601483614d63565b9150615e9682615e55565b602082019050919050565b60006020820190508181036000830152615eba81615e7e565b9050919050565b600081905092915050565b50565b6000615edc600083615ec1565b9150615ee782615ecc565b600082019050919050565b6000615efd82615ecf565b9150819050919050565b7f5769746864726177616c206661696c6564000000000000000000000000000000600082015250565b6000615f3d601183614d63565b9150615f4882615f07565b602082019050919050565b60006020820190508181036000830152615f6c81615f30565b9050919050565b7f546f6b656e206e6f7420666f722073616c650000000000000000000000000000600082015250565b6000615fa9601283614d63565b9150615fb482615f73565b602082019050919050565b60006020820190508181036000830152615fd881615f9c565b9050919050565b6000615fea82614c27565b9150615ff583614c27565b9250817fffffffffffffffffffffffffffffffffffffffffffffffffffffffffffffffff048311821515161561602e5761602d615b90565b5b828202905092915050565b7f496e73756666696369656e742066756e64730000000000000000000000000000600082015250565b600061606f601283614d63565b915061607a82616039565b602082019050919050565b6000602082019050818103600083015261609e81616062565b9050919050565b7f4e487b7100000000000000000000000000000000000000000000000000000000600052603260045260246000fd5b7f526f79616c7479206d757374206265206265747765656e203020616e6420313060008201527f3000000000000000000000000000000000000000000000000000000000000000602082015250565b6000616130602183614d63565b915061613b826160d4565b604082019050919050565b6000602082019050818103600083015261615f81616123565b9050919050565b7f4e487b7100000000000000000000000000000000000000000000000000000000600052601260045260246000fd5b60006161a082614c27565b91506161ab83614c27565b9250826161bb576161ba616166565b5b828204905092915050565b60006161d182614c27565b91507fffffffffffffffffffffffffffffffffffffffffffffffffffffffffffffffff82141561620457616203615b90565b5b600182019050919050565b600061621a82614c27565b915061622583614c27565b92508282101561623857616237615b90565b5b828203905092915050565b7f4552433732313a20696e76616c696420746f6b656e2049440000000000000000600082015250565b6000616279601883614d63565b915061628482616243565b602082019050919050565b600060208201905081810360008301526162a88161626c565b9050919050565b7f41756374696f6e206e6f74206163746976650000000000000000000000000000600082015250565b60006162e5601283614d63565b91506162f0826162af565b602082019050919050565b60006020820190508181036000830152616314816162d8565b9050919050565b7f41756374696f6e20686173206e6f7420656e6465642079657400000000000000600082015250565b6000616351601983614d63565b915061635c8261631b565b602082019050919050565b6000602082019050818103600083015261638081616344565b9050919050565b600060608201905061639c6000830186614f5b565b6163a96020830185614e72565b6163b66040830184614f5b565b949350505050565b7f4552433732313a2061646472657373207a65726f206973206e6f74206120766160008201527f6c6964206f776e65720000000000000000000000000000000000000000000000602082015250565b600061641a602983614d63565b9150616425826163be565b604082019050919050565b600060208201905081810360008301526164498161640d565b9050919050565b7f5072696365206d7573742062652067726561746572207468616e203000000000600082015250565b6000616486601c83614d63565b915061649182616450565b602082019050919050565b600060208201905081810360008301526164b581616479565b9050919050565b60006040820190506164d16000830185614f5b565b6164de6020830184614e72565b9392505050565b6000819050919050565b6000819050919050565b600061651461650f61650a846164e5565b6164ef565b614c27565b9050919050565b616524816164f9565b82525050565b600060608201905061653f6000830186614f5b565b61654c6020830185614e72565b616559604083018461651b565b949350505050565b7f41756374696f6e2068617320656e646564000000000000000000000000000000600082015250565b6000616597601183614d63565b91506165a282616561565b602082019050919050565b600060208201905081810360008301526165c68161658a565b9050919050565b7f426964206d75737420626520686967686572207468616e20746865206375727260008201527f656e742068696768657374206269640000000000000000000000000000000000602082015250565b6000616629602f83614d63565b9150616634826165cd565b604082019050919050565b600060208201905081810360008301526166588161661c565b9050919050565b7f496e76616c6964206f6666657220696e64657800000000000000000000000000600082015250565b6000616695601383614d63565b91506166a08261665f565b602082019050919050565b600060208201905081810360008301526166c481616688565b9050919050565b7f4f6666657220646f6573206e6f74206578697374000000000000000000000000600082015250565b6000616701601483614d63565b915061670c826166cb565b602082019050919050565b60006020820190508181036000830152616730816166f4565b9050919050565b7f496e76616c696420627579657220616464726573730000000000000000000000600082015250565b600061676d601583614d63565b915061677882616737565b602082019050919050565b6000602082019050818103600083015261679c81616760565b9050919050565b7f4e6f742074686520627579657200000000000000000000000000000000000000600082015250565b60006167d9600d83614d63565b91506167e4826167a3565b602082019050919050565b60006020820190508181036000830152616808816167cc565b9050919050565b7f4e6f74207468652073656c6c6572000000000000000000000000000000000000600082015250565b6000616845600e83614d63565b91506168508261680f565b602082019050919050565b6000602082019050818103600083015261687481616838565b9050919050565b60008151905061688a81614c31565b92915050565b6000602082840312156168a6576168a5614c1d565b5b60006168b48482850161687b565b91505092915050565b7f496e76616c6964206d61726b6574206665652070657263656e74616765000000600082015250565b60006168f3601d83614d63565b91506168fe826168bd565b602082019050919050565b60006020820190508181036000830152616922816168e6565b9050919050565b7f546f6b656e2049447320616e64207175616e746974696573206c656e6774682060008201527f6d69736d61746368000000000000000000000000000000000000000000000000602082015250565b6000616985602883614d63565b915061699082616929565b604082019050919050565b600060208201905081810360008301526169b481616978565b9050919050565b7f4f776e61626c653a206e6577206f776e657220697320746865207a65726f206160008201527f6464726573730000000000000000000000000000000000000000000000000000602082015250565b6000616a17602683614d63565b9150616a22826169bb565b604082019050919050565b60006020820190508181036000830152616a4681616a0a565b9050919050565b7f4552433732313a207472616e736665722066726f6d20696e636f72726563742060008201527f6f776e6572000000000000000000000000000000000000000000000000000000602082015250565b6000616aa9602583614d63565b9150616ab482616a4d565b604082019050919050565b60006020820190508181036000830152616ad881616a9c565b9050919050565b7f4552433732313a207472616e7366657220746f20746865207a65726f2061646460008201527f7265737300000000000000000000000000000000000000000000000000000000602082015250565b6000616b3b602483614d63565b9150616b4682616adf565b604082019050919050565b60006020820190508181036000830152616b6a81616b2e565b9050919050565b7f4f776e61626c653a2063616c6c6572206973206e6f7420746865206f776e6572600082015250565b6000616ba7602083614d63565b9150616bb282616b71565b602082019050919050565b60006020820190508181036000830152616bd681616b9a565b9050919050565b7f4552433732313a206d696e7420746f20746865207a65726f2061646472657373600082015250565b6000616c13602083614d63565b9150616c1e82616bdd565b602082019050919050565b60006020820190508181036000830152616c4281616c06565b9050919050565b7f4552433732313a20746f6b656e20616c7265616479206d696e74656400000000600082015250565b6000616c7f601c83614d63565b9150616c8a82616c49565b602082019050919050565b60006020820190508181036000830152616cae81616c72565b9050919050565b7f45524337323155524953746f726167653a2055524920736574206f66206e6f6e60008201527f6578697374656e7420746f6b656e000000000000000000000000000000000000602082015250565b6000616d11602e83614d63565b9150616d1c82616cb5565b604082019050919050565b60006020820190508181036000830152616d4081616d04565b9050919050565b7f4552433732313a20617070726f766520746f2063616c6c657200000000000000600082015250565b6000616d7d601983614d63565b9150616d8882616d47565b602082019050919050565b60006020820190508181036000830152616dac81616d70565b9050919050565b7f4552433732313a207472616e7366657220746f206e6f6e20455243373231526560008201527f63656976657220696d706c656d656e7465720000000000000000000000000000602082015250565b6000616e0f603283614d63565b9150616e1a82616db3565b604082019050919050565b60006020820190508181036000830152616e3e81616e02565b9050919050565b600081905092915050565b6000616e5b82614d58565b616e658185616e45565b9350616e75818560208601614d74565b80840191505092915050565b6000616e8d8285616e50565b9150616e998284616e50565b91508190509392505050565b600081519050919050565b600082825260208201905092915050565b6000616ecc82616ea5565b616ed68185616eb0565b9350616ee6818560208601614d74565b616eef81614da7565b840191505092915050565b6000608082019050616f0f6000830187614e72565b616f1c6020830186614e72565b616f296040830185614f5b565b8181036060830152616f3b8184616ec1565b905095945050505050565b600081519050616f5581614cc9565b92915050565b600060208284031215616f7157616f70614c1d565b5b6000616f7f84828501616f46565b9150509291505056fea26469706673582212203fe259338710837f2fbd5c0fae84ae2b21f17cbf4291a0909fa688fbc95ba15564736f6c63430008080033",
  "linkReferences": {},
  "deployedLinkReferences": {}
}