{
  "_format": "hh-sol-artifact-1",
  "contractName": "NFTMarketplace",
  "sourceName": "contracts/Market.sol",
  "abi": [
    {
      "inputs": [],
      "stateMutability": "nonpayable",
      "type": "constructor"
    },
    {
      "anonymous": false,
      "inputs": [
        {
          "indexed": true,
          "internalType": "address",
          "name": "owner",
          "type": "address"
        },
        {
          "indexed": true,
          "internalType": "address",
          "name": "approved",
          "type": "address"
        },
        {
          "indexed": true,
          "internalType": "uint256",
          "name": "tokenId",
          "type": "uint256"
        }
      ],
      "name": "Approval",
      "type": "event"
    },
    {
      "anonymous": false,
      "inputs": [
        {
          "indexed": true,
          "internalType": "address",
          "name": "owner",
          "type": "address"
        },
        {
          "indexed": true,
          "internalType": "address",
          "name": "operator",
          "type": "address"
        },
        {
          "indexed": false,
          "internalType": "bool",
          "name": "approved",
          "type": "bool"
        }
      ],
      "name": "ApprovalForAll",
      "type": "event"
    },
    {
      "anonymous": false,
      "inputs": [
        {
          "indexed": false,
          "internalType": "uint256",
          "name": "tokenId",
          "type": "uint256"
        },
        {
          "indexed": false,
          "internalType": "uint256",
          "name": "endTime",
          "type": "uint256"
        }
      ],
      "name": "AuctionCreated",
      "type": "event"
    },
    {
      "anonymous": false,
      "inputs": [
        {
          "indexed": false,
          "internalType": "uint256",
          "name": "tokenId",
          "type": "uint256"
        },
        {
          "indexed": false,
          "internalType": "address",
          "name": "highestBidder",
          "type": "address"
        },
        {
          "indexed": false,
          "internalType": "uint256",
          "name": "highestBid",
          "type": "uint256"
        }
      ],
      "name": "AuctionEnded",
      "type": "event"
    },
    {
      "anonymous": false,
      "inputs": [
        {
          "indexed": false,
          "internalType": "uint256",
          "name": "tokenId",
          "type": "uint256"
        },
        {
          "indexed": false,
          "internalType": "address",
          "name": "bidder",
          "type": "address"
        },
        {
          "indexed": false,
          "internalType": "uint256",
          "name": "bid",
          "type": "uint256"
        }
      ],
      "name": "BidPlaced",
      "type": "event"
    },
    {
      "anonymous": false,
      "inputs": [
        {
          "indexed": false,
          "internalType": "uint256",
          "name": "newMarketFeePercentage",
          "type": "uint256"
        }
      ],
      "name": "MarketFeePercentageChanged",
      "type": "event"
    },
    {
      "anonymous": false,
      "inputs": [
        {
          "indexed": true,
          "internalType": "uint256",
          "name": "tokenId",
          "type": "uint256"
        },
        {
          "indexed": true,
          "internalType": "address",
          "name": "seller",
          "type": "address"
        },
        {
          "indexed": false,
          "internalType": "uint256",
          "name": "price",
          "type": "uint256"
        }
      ],
      "name": "NFTListed",
      "type": "event"
    },
    {
      "anonymous": false,
      "inputs": [
        {
          "indexed": true,
          "internalType": "uint256",
          "name": "tokenId",
          "type": "uint256"
        },
        {
          "indexed": true,
          "internalType": "address",
          "name": "seller",
          "type": "address"
        }
      ],
      "name": "NFTListingCanceled",
      "type": "event"
    },
    {
      "anonymous": false,
      "inputs": [
        {
          "indexed": false,
          "internalType": "uint256",
          "name": "tokenId",
          "type": "uint256"
        }
      ],
      "name": "OfferCanceled",
      "type": "event"
    },
    {
      "anonymous": false,
      "inputs": [
        {
          "indexed": false,
          "internalType": "uint256",
          "name": "tokenId",
          "type": "uint256"
        },
        {
          "indexed": false,
          "internalType": "uint256",
          "name": "price",
          "type": "uint256"
        },
        {
          "indexed": false,
          "internalType": "uint256",
          "name": "royalty",
          "type": "uint256"
        }
      ],
      "name": "OfferCreated",
      "type": "event"
    },
    {
      "anonymous": false,
      "inputs": [
        {
          "indexed": true,
          "internalType": "uint256",
          "name": "tokenId",
          "type": "uint256"
        },
        {
          "indexed": true,
          "internalType": "address",
          "name": "requester",
          "type": "address"
        },
        {
          "indexed": false,
          "internalType": "uint256",
          "name": "price",
          "type": "uint256"
        }
      ],
      "name": "OfferRequestAccepted",
      "type": "event"
    },
    {
      "anonymous": false,
      "inputs": [
        {
          "indexed": true,
          "internalType": "uint256",
          "name": "tokenId",
          "type": "uint256"
        },
        {
          "indexed": true,
          "internalType": "address",
          "name": "requester",
          "type": "address"
        }
      ],
      "name": "OfferRequestRejected",
      "type": "event"
    },
    {
      "anonymous": false,
      "inputs": [
        {
          "indexed": true,
          "internalType": "uint256",
          "name": "tokenId",
          "type": "uint256"
        },
        {
          "indexed": true,
          "internalType": "address",
          "name": "requester",
          "type": "address"
        },
        {
          "indexed": false,
          "internalType": "uint256",
          "name": "price",
          "type": "uint256"
        }
      ],
      "name": "OfferRequested",
      "type": "event"
    },
    {
      "anonymous": false,
      "inputs": [
        {
          "indexed": true,
          "internalType": "address",
          "name": "previousOwner",
          "type": "address"
        },
        {
          "indexed": true,
          "internalType": "address",
          "name": "newOwner",
          "type": "address"
        }
      ],
      "name": "OwnershipTransferred",
      "type": "event"
    },
    {
      "anonymous": false,
      "inputs": [
        {
          "indexed": false,
          "internalType": "uint256",
          "name": "tokenId",
          "type": "uint256"
        },
        {
          "indexed": false,
          "internalType": "address",
          "name": "owner",
          "type": "address"
        }
      ],
      "name": "TokenMinted",
      "type": "event"
    },
    {
      "anonymous": false,
      "inputs": [
        {
          "indexed": true,
          "internalType": "address",
          "name": "from",
          "type": "address"
        },
        {
          "indexed": true,
          "internalType": "address",
          "name": "to",
          "type": "address"
        },
        {
          "indexed": true,
          "internalType": "uint256",
          "name": "tokenId",
          "type": "uint256"
        }
      ],
      "name": "Transfer",
      "type": "event"
    },
    {
      "anonymous": false,
      "inputs": [
        {
          "indexed": true,
          "internalType": "uint256",
          "name": "tokenId",
          "type": "uint256"
        },
        {
          "indexed": true,
          "internalType": "address",
          "name": "buyer",
          "type": "address"
        },
        {
          "indexed": false,
          "internalType": "uint256",
          "name": "price",
          "type": "uint256"
        }
      ],
      "name": "UserOfferAccepted",
      "type": "event"
    },
    {
      "anonymous": false,
      "inputs": [
        {
          "indexed": true,
          "internalType": "uint256",
          "name": "tokenId",
          "type": "uint256"
        },
        {
          "indexed": true,
          "internalType": "address",
          "name": "buyer",
          "type": "address"
        },
        {
          "indexed": false,
          "internalType": "uint256",
          "name": "price",
          "type": "uint256"
        }
      ],
      "name": "UserOfferAdded",
      "type": "event"
    },
    {
      "anonymous": false,
      "inputs": [
        {
          "indexed": true,
          "internalType": "uint256",
          "name": "tokenId",
          "type": "uint256"
        },
        {
          "indexed": true,
          "internalType": "address",
          "name": "buyer",
          "type": "address"
        }
      ],
      "name": "UserOfferRejected",
      "type": "event"
    },
    {
      "anonymous": false,
      "inputs": [
        {
          "indexed": true,
          "internalType": "uint256",
          "name": "tokenId",
          "type": "uint256"
        },
        {
          "indexed": true,
          "internalType": "address",
          "name": "buyer",
          "type": "address"
        }
      ],
      "name": "UserOfferRemoved",
      "type": "event"
    },
    {
      "inputs": [
        {
          "internalType": "uint256",
          "name": "tokenId",
          "type": "uint256"
        },
        {
          "internalType": "uint256",
          "name": "index",
          "type": "uint256"
        },
        {
          "internalType": "address[]",
          "name": "_Royaltyrecipients",
          "type": "address[]"
        },
        {
          "internalType": "uint256[]",
          "name": "_Royaltyamounts",
          "type": "uint256[]"
        }
      ],
      "name": "acceptUserOffer",
      "outputs": [],
      "stateMutability": "nonpayable",
      "type": "function"
    },
    {
      "inputs": [
        {
          "internalType": "uint256",
          "name": "tokenId",
          "type": "uint256"
        },
        {
          "internalType": "uint256",
          "name": "price",
          "type": "uint256"
        }
      ],
      "name": "addOffer",
      "outputs": [],
      "stateMutability": "nonpayable",
      "type": "function"
    },
    {
      "inputs": [
        {
          "internalType": "address",
          "name": "to",
          "type": "address"
        },
        {
          "internalType": "uint256",
          "name": "tokenId",
          "type": "uint256"
        }
      ],
      "name": "approve",
      "outputs": [],
      "stateMutability": "nonpayable",
      "type": "function"
    },
    {
      "inputs": [
        {
          "internalType": "address",
          "name": "owner",
          "type": "address"
        }
      ],
      "name": "balanceOf",
      "outputs": [
        {
          "internalType": "uint256",
          "name": "",
          "type": "uint256"
        }
      ],
      "stateMutability": "view",
      "type": "function"
    },
    {
      "inputs": [
        {
          "internalType": "uint256",
          "name": "tokenId",
          "type": "uint256"
        },
        {
          "internalType": "address[]",
          "name": "_Royaltyrecipients",
          "type": "address[]"
        },
        {
          "internalType": "uint256[]",
          "name": "_Royaltyamounts",
          "type": "uint256[]"
        }
      ],
      "name": "buyNFT",
      "outputs": [],
      "stateMutability": "payable",
      "type": "function"
    },
    {
      "inputs": [
        {
          "internalType": "uint256",
          "name": "tokenId",
          "type": "uint256"
        }
      ],
      "name": "cancelNFTListing",
      "outputs": [],
      "stateMutability": "nonpayable",
      "type": "function"
    },
    {
      "inputs": [
        {
          "internalType": "uint256",
          "name": "tokenId",
          "type": "uint256"
        },
        {
          "internalType": "uint256",
          "name": "duration",
          "type": "uint256"
        }
      ],
      "name": "createAuction",
      "outputs": [],
      "stateMutability": "nonpayable",
      "type": "function"
    },
    {
      "inputs": [
        {
          "internalType": "uint256",
          "name": "tokenId",
          "type": "uint256"
        }
      ],
      "name": "depositForOffer",
      "outputs": [],
      "stateMutability": "payable",
      "type": "function"
    },
    {
      "inputs": [
        {
          "internalType": "uint256",
          "name": "tokenId",
          "type": "uint256"
        },
        {
          "internalType": "address[]",
          "name": "_Royaltyrecipients",
          "type": "address[]"
        },
        {
          "internalType": "uint256[]",
          "name": "_Royaltyamounts",
          "type": "uint256[]"
        }
      ],
      "name": "endAuction",
      "outputs": [],
      "stateMutability": "nonpayable",
      "type": "function"
    },
    {
      "inputs": [
        {
          "internalType": "uint256",
          "name": "tokenId",
          "type": "uint256"
        }
      ],
      "name": "getApproved",
      "outputs": [
        {
          "internalType": "address",
          "name": "",
          "type": "address"
        }
      ],
      "stateMutability": "view",
      "type": "function"
    },
    {
      "inputs": [
        {
          "internalType": "address",
          "name": "owner",
          "type": "address"
        },
        {
          "internalType": "address",
          "name": "operator",
          "type": "address"
        }
      ],
      "name": "isApprovedForAll",
      "outputs": [
        {
          "internalType": "bool",
          "name": "",
          "type": "bool"
        }
      ],
      "stateMutability": "view",
      "type": "function"
    },
    {
      "inputs": [
        {
          "internalType": "uint256",
          "name": "tokenId",
          "type": "uint256"
        },
        {
          "internalType": "uint256",
          "name": "price",
          "type": "uint256"
        }
      ],
      "name": "listNFT",
      "outputs": [],
      "stateMutability": "nonpayable",
      "type": "function"
    },
    {
      "inputs": [],
      "name": "marketFeePercentage",
      "outputs": [
        {
          "internalType": "uint256",
          "name": "",
          "type": "uint256"
        }
      ],
      "stateMutability": "view",
      "type": "function"
    },
    {
      "inputs": [
        {
          "internalType": "address",
          "name": "recipient",
          "type": "address"
        },
        {
          "internalType": "string",
          "name": "tokenURI",
          "type": "string"
        }
      ],
      "name": "mintNFT",
      "outputs": [
        {
          "internalType": "uint256",
          "name": "",
          "type": "uint256"
        }
      ],
      "stateMutability": "nonpayable",
      "type": "function"
    },
    {
      "inputs": [],
      "name": "name",
      "outputs": [
        {
          "internalType": "string",
          "name": "",
          "type": "string"
        }
      ],
      "stateMutability": "view",
      "type": "function"
    },
    {
      "inputs": [],
      "name": "owner",
      "outputs": [
        {
          "internalType": "address",
          "name": "",
          "type": "address"
        }
      ],
      "stateMutability": "view",
      "type": "function"
    },
    {
      "inputs": [
        {
          "internalType": "uint256",
          "name": "tokenId",
          "type": "uint256"
        }
      ],
      "name": "ownerOf",
      "outputs": [
        {
          "internalType": "address",
          "name": "",
          "type": "address"
        }
      ],
      "stateMutability": "view",
      "type": "function"
    },
    {
      "inputs": [
        {
          "internalType": "address",
          "name": "",
          "type": "address"
        }
      ],
      "name": "pendingWithdrawals",
      "outputs": [
        {
          "internalType": "uint256",
          "name": "",
          "type": "uint256"
        }
      ],
      "stateMutability": "view",
      "type": "function"
    },
    {
      "inputs": [
        {
          "internalType": "uint256",
          "name": "tokenId",
          "type": "uint256"
        }
      ],
      "name": "placeBid",
      "outputs": [],
      "stateMutability": "payable",
      "type": "function"
    },
    {
      "inputs": [
        {
          "internalType": "uint256",
          "name": "tokenId",
          "type": "uint256"
        },
        {
          "internalType": "uint256",
          "name": "index",
          "type": "uint256"
        }
      ],
      "name": "rejectUserOffer",
      "outputs": [],
      "stateMutability": "nonpayable",
      "type": "function"
    },
    {
      "inputs": [
        {
          "internalType": "uint256",
          "name": "tokenId",
          "type": "uint256"
        },
        {
          "internalType": "uint256",
          "name": "index",
          "type": "uint256"
        }
      ],
      "name": "removeOffer",
      "outputs": [],
      "stateMutability": "nonpayable",
      "type": "function"
    },
    {
      "inputs": [],
      "name": "renounceOwnership",
      "outputs": [],
      "stateMutability": "nonpayable",
      "type": "function"
    },
    {
      "inputs": [
        {
          "internalType": "address",
          "name": "from",
          "type": "address"
        },
        {
          "internalType": "address",
          "name": "to",
          "type": "address"
        },
        {
          "internalType": "uint256",
          "name": "tokenId",
          "type": "uint256"
        }
      ],
      "name": "safeTransferFrom",
      "outputs": [],
      "stateMutability": "nonpayable",
      "type": "function"
    },
    {
      "inputs": [
        {
          "internalType": "address",
          "name": "from",
          "type": "address"
        },
        {
          "internalType": "address",
          "name": "to",
          "type": "address"
        },
        {
          "internalType": "uint256",
          "name": "tokenId",
          "type": "uint256"
        },
        {
          "internalType": "bytes",
          "name": "data",
          "type": "bytes"
        }
      ],
      "name": "safeTransferFrom",
      "outputs": [],
      "stateMutability": "nonpayable",
      "type": "function"
    },
    {
      "inputs": [
        {
          "internalType": "address",
          "name": "operator",
          "type": "address"
        },
        {
          "internalType": "bool",
          "name": "approved",
          "type": "bool"
        }
      ],
      "name": "setApprovalForAll",
      "outputs": [],
      "stateMutability": "nonpayable",
      "type": "function"
    },
    {
      "inputs": [
        {
          "internalType": "uint256",
          "name": "newMarketFeePercentage",
          "type": "uint256"
        }
      ],
      "name": "setMarketFeePercentage",
      "outputs": [],
      "stateMutability": "nonpayable",
      "type": "function"
    },
    {
      "inputs": [
        {
          "internalType": "bytes4",
          "name": "interfaceId",
          "type": "bytes4"
        }
      ],
      "name": "supportsInterface",
      "outputs": [
        {
          "internalType": "bool",
          "name": "",
          "type": "bool"
        }
      ],
      "stateMutability": "view",
      "type": "function"
    },
    {
      "inputs": [],
      "name": "symbol",
      "outputs": [
        {
          "internalType": "string",
          "name": "",
          "type": "string"
        }
      ],
      "stateMutability": "view",
      "type": "function"
    },
    {
      "inputs": [
        {
          "internalType": "uint256",
          "name": "",
          "type": "uint256"
        }
      ],
      "name": "tokenIdToAuction",
      "outputs": [
        {
          "internalType": "bool",
          "name": "isActive",
          "type": "bool"
        },
        {
          "internalType": "uint256",
          "name": "tokenId",
          "type": "uint256"
        },
        {
          "internalType": "address",
          "name": "highestBidder",
          "type": "address"
        },
        {
          "internalType": "uint256",
          "name": "highestBid",
          "type": "uint256"
        },
        {
          "internalType": "uint256",
          "name": "endTime",
          "type": "uint256"
        }
      ],
      "stateMutability": "view",
      "type": "function"
    },
    {
      "inputs": [
        {
          "internalType": "uint256",
          "name": "",
          "type": "uint256"
        }
      ],
      "name": "tokenIdToOffer",
      "outputs": [
        {
          "internalType": "bool",
          "name": "isForSale",
          "type": "bool"
        },
        {
          "internalType": "uint256",
          "name": "tokenId",
          "type": "uint256"
        },
        {
          "internalType": "address",
          "name": "seller",
          "type": "address"
        },
        {
          "internalType": "uint256",
          "name": "askingPrice",
          "type": "uint256"
        }
      ],
      "stateMutability": "view",
      "type": "function"
    },
    {
      "inputs": [
        {
          "internalType": "uint256",
          "name": "",
          "type": "uint256"
        }
      ],
      "name": "tokenIdToOfferRequest",
      "outputs": [
        {
          "internalType": "bool",
          "name": "hasOffer",
          "type": "bool"
        },
        {
          "internalType": "uint256",
          "name": "tokenId",
          "type": "uint256"
        },
        {
          "internalType": "address",
          "name": "requester",
          "type": "address"
        },
        {
          "internalType": "uint256",
          "name": "price",
          "type": "uint256"
        }
      ],
      "stateMutability": "view",
      "type": "function"
    },
    {
      "inputs": [
        {
          "internalType": "uint256",
          "name": "tokenId",
          "type": "uint256"
        }
      ],
      "name": "tokenURI",
      "outputs": [
        {
          "internalType": "string",
          "name": "",
          "type": "string"
        }
      ],
      "stateMutability": "view",
      "type": "function"
    },
    {
      "inputs": [
        {
          "internalType": "address",
          "name": "_contract",
          "type": "address"
        },
        {
          "internalType": "address",
          "name": "owner",
          "type": "address"
        }
      ],
      "name": "tokensOfOwner",
      "outputs": [
        {
          "internalType": "uint256[]",
          "name": "",
          "type": "uint256[]"
        }
      ],
      "stateMutability": "view",
      "type": "function"
    },
    {
      "inputs": [
        {
          "internalType": "address",
          "name": "from",
          "type": "address"
        },
        {
          "internalType": "address",
          "name": "to",
          "type": "address"
        },
        {
          "internalType": "uint256",
          "name": "tokenId",
          "type": "uint256"
        }
      ],
      "name": "transferFrom",
      "outputs": [],
      "stateMutability": "nonpayable",
      "type": "function"
    },
    {
      "inputs": [
        {
          "internalType": "address",
          "name": "newOwner",
          "type": "address"
        }
      ],
      "name": "transferOwnership",
      "outputs": [],
      "stateMutability": "nonpayable",
      "type": "function"
    },
    {
      "inputs": [
        {
          "internalType": "uint256",
          "name": "tokenId",
          "type": "uint256"
        },
        {
          "internalType": "string",
          "name": "newTokenURI",
          "type": "string"
        }
      ],
      "name": "updateMetadataURI",
      "outputs": [],
      "stateMutability": "nonpayable",
      "type": "function"
    },
    {
      "inputs": [
        {
          "internalType": "uint256",
          "name": "",
          "type": "uint256"
        },
        {
          "internalType": "uint256",
          "name": "",
          "type": "uint256"
        }
      ],
      "name": "userOffers",
      "outputs": [
        {
          "internalType": "bool",
          "name": "exists",
          "type": "bool"
        },
        {
          "internalType": "uint256",
          "name": "tokenId",
          "type": "uint256"
        },
        {
          "internalType": "address",
          "name": "buyer",
          "type": "address"
        },
        {
          "internalType": "uint256",
          "name": "price",
          "type": "uint256"
        }
      ],
      "stateMutability": "view",
      "type": "function"
    },
    {
      "inputs": [],
      "name": "withdraw",
      "outputs": [],
      "stateMutability": "nonpayable",
      "type": "function"
    }
  ],
  "bytecode": "0x60806040523480156200001157600080fd5b506040518060400160405280600f81526020017f4e4654204d61726b6574706c61636500000000000000000000000000000000008152506040518060400160405280600481526020017f4e46544d00000000000000000000000000000000000000000000000000000000815250816000908051906020019062000096929190620001ae565b508060019080519060200190620000af929190620001ae565b505050620000d2620000c6620000e060201b60201c565b620000e860201b60201c565b6019600981905550620002c3565b600033905090565b6000600660009054906101000a900473ffffffffffffffffffffffffffffffffffffffff16905081600660006101000a81548173ffffffffffffffffffffffffffffffffffffffff021916908373ffffffffffffffffffffffffffffffffffffffff1602179055508173ffffffffffffffffffffffffffffffffffffffff168173ffffffffffffffffffffffffffffffffffffffff167f8be0079c531659141344cd1fd0a4f28419497f9722a3daafe3b4186f6b6457e060405160405180910390a35050565b828054620001bc906200028d565b90600052602060002090601f016020900481019282620001e057600085556200022c565b82601f10620001fb57805160ff19168380011785556200022c565b828001600101855582156200022c579182015b828111156200022b5782518255916020019190600101906200020e565b5b5090506200023b91906200023f565b5090565b5b808211156200025a57600081600090555060010162000240565b5090565b7f4e487b7100000000000000000000000000000000000000000000000000000000600052602260045260246000fd5b60006002820490506001821680620002a657607f821691505b60208210811415620002bd57620002bc6200025e565b5b50919050565b61626b80620002d36000396000f3fe6080604052600436106102255760003560e01c80639f9e9dad11610123578063d531fe2b116100ab578063e985e9c51161006f578063e985e9c514610805578063eacabe1414610842578063ebbe7b7d1461087f578063f2fde38b146108a8578063f3f43703146108d157610225565b8063d531fe2b14610714578063d712c4f214610754578063e3b147571461077d578063e4cd1d9f146107be578063e5dc957f146107e957610225565b8063aaad2eab116100f2578063aaad2eab1461062c578063ac0eeed514610655578063b88d4fde14610671578063c87b56dd1461069a578063cfe8f487146106d757610225565b80639f9e9dad14610571578063a1c3b8011461059a578063a22cb465146105c3578063a86a7a70146105ec57610225565b80636352211e116101b15780638da5cb5b116101755780638da5cb5b146104ad5780638fe86b3f146104d857806394383f141461050157806395d89b411461052a5780639979ef451461055557610225565b80636352211e146103ca5780636cf9cb7b1461040757806370a0823114610430578063715018a61461046d578063755f51961461048457610225565b8063095ea7b3116101f8578063095ea7b3146102f857806323b872dd146103215780633ccfd60b1461034a5780633ffef5b31461036157806342842e0e146103a157610225565b80630121683f1461022a57806301ffc9a71461025357806306fdde0314610290578063081812fc146102bb575b600080fd5b34801561023657600080fd5b50610251600480360381019061024c9190614377565b61090e565b005b34801561025f57600080fd5b5061027a6004803603810190610275919061440f565b610a89565b6040516102879190614457565b60405180910390f35b34801561029c57600080fd5b506102a5610b6b565b6040516102b2919061450b565b60405180910390f35b3480156102c757600080fd5b506102e260048036038101906102dd919061452d565b610bfd565b6040516102ef919061459b565b60405180910390f35b34801561030457600080fd5b5061031f600480360381019061031a91906145e2565b610c43565b005b34801561032d57600080fd5b5061034860048036038101906103439190614622565b610d5b565b005b34801561035657600080fd5b5061035f610dbb565b005b34801561036d57600080fd5b5061038860048036038101906103839190614377565b610f4c565b6040516103989493929190614684565b60405180910390f35b3480156103ad57600080fd5b506103c860048036038101906103c39190614622565b610fc6565b005b3480156103d657600080fd5b506103f160048036038101906103ec919061452d565b610fe6565b6040516103fe919061459b565b60405180910390f35b34801561041357600080fd5b5061042e600480360381019061042991906148d4565b61106d565b005b34801561043c57600080fd5b506104576004803603810190610452919061495f565b61141e565b604051610464919061498c565b60405180910390f35b34801561047957600080fd5b506104826114d6565b005b34801561049057600080fd5b506104ab60048036038101906104a69190614377565b6114ea565b005b3480156104b957600080fd5b506104c2611741565b6040516104cf919061459b565b60405180910390f35b3480156104e457600080fd5b506104ff60048036038101906104fa9190614a5c565b61176b565b005b34801561050d57600080fd5b5061052860048036038101906105239190614377565b6117c9565b005b34801561053657600080fd5b5061053f611988565b60405161054c919061450b565b60405180910390f35b61056f600480360381019061056a919061452d565b611a1a565b005b34801561057d57600080fd5b5061059860048036038101906105939190614ab8565b611c7e565b005b3480156105a657600080fd5b506105c160048036038101906105bc9190614377565b6121e4565b005b3480156105cf57600080fd5b506105ea60048036038101906105e59190614b83565b6123a5565b005b3480156105f857600080fd5b50610613600480360381019061060e919061452d565b6123bb565b6040516106239493929190614684565b60405180910390f35b34801561063857600080fd5b50610653600480360381019061064e919061452d565b612418565b005b61066f600480360381019061066a919061452d565b612540565b005b34801561067d57600080fd5b5061069860048036038101906106939190614c64565b612650565b005b3480156106a657600080fd5b506106c160048036038101906106bc919061452d565b6126b2565b6040516106ce919061450b565b60405180910390f35b3480156106e357600080fd5b506106fe60048036038101906106f99190614ce7565b6126c4565b60405161070b9190614de5565b60405180910390f35b34801561072057600080fd5b5061073b6004803603810190610736919061452d565b6127f4565b60405161074b9493929190614684565b60405180910390f35b34801561076057600080fd5b5061077b6004803603810190610776919061452d565b612851565b005b34801561078957600080fd5b506107a4600480360381019061079f919061452d565b6128ec565b6040516107b5959493929190614e07565b60405180910390f35b3480156107ca57600080fd5b506107d361294f565b6040516107e0919061498c565b60405180910390f35b61080360048036038101906107fe91906148d4565b612955565b005b34801561081157600080fd5b5061082c60048036038101906108279190614ce7565b612d0b565b6040516108399190614457565b60405180910390f35b34801561084e57600080fd5b5061086960048036038101906108649190614e5a565b612d9f565b604051610876919061498c565b60405180910390f35b34801561088b57600080fd5b506108a660048036038101906108a19190614377565b612e18565b005b3480156108b457600080fd5b506108cf60048036038101906108ca919061495f565b613125565b005b3480156108dd57600080fd5b506108f860048036038101906108f3919061495f565b6131a9565b604051610905919061498c565b60405180910390f35b61091f6109196131c1565b836131c9565b61095e576040517f08c379a000000000000000000000000000000000000000000000000000000000815260040161095590614f02565b60405180910390fd5b6000814261096c9190614f51565b90506040518060a00160405280600115158152602001848152602001600073ffffffffffffffffffffffffffffffffffffffff1681526020016000815260200182815250600b600085815260200190815260200160002060008201518160000160006101000a81548160ff0219169083151502179055506020820151816001015560408201518160020160006101000a81548173ffffffffffffffffffffffffffffffffffffffff021916908373ffffffffffffffffffffffffffffffffffffffff16021790555060608201518160030155608082015181600401559050507fe00a2da3a0f34a566402a244ab7ec63f8ab7472591cb18edf3269aa00461a4108382604051610a7c929190614fa7565b60405180910390a1505050565b60007f80ac58cd000000000000000000000000000000000000000000000000000000007bffffffffffffffffffffffffffffffffffffffffffffffffffffffff1916827bffffffffffffffffffffffffffffffffffffffffffffffffffffffff19161480610b5457507f5b5e139f000000000000000000000000000000000000000000000000000000007bffffffffffffffffffffffffffffffffffffffffffffffffffffffff1916827bffffffffffffffffffffffffffffffffffffffffffffffffffffffff1916145b80610b645750610b638261325e565b5b9050919050565b606060008054610b7a90614fff565b80601f0160208091040260200160405190810160405280929190818152602001828054610ba690614fff565b8015610bf35780601f10610bc857610100808354040283529160200191610bf3565b820191906000526020600020905b815481529060010190602001808311610bd657829003601f168201915b5050505050905090565b6000610c08826132c8565b6004600083815260200190815260200160002060009054906101000a900473ffffffffffffffffffffffffffffffffffffffff169050919050565b6000610c4e82610fe6565b90508073ffffffffffffffffffffffffffffffffffffffff168373ffffffffffffffffffffffffffffffffffffffff161415610cbf576040517f08c379a0000000000000000000000000000000000000000000000000000000008152600401610cb6906150a3565b60405180910390fd5b8073ffffffffffffffffffffffffffffffffffffffff16610cde6131c1565b73ffffffffffffffffffffffffffffffffffffffff161480610d0d5750610d0c81610d076131c1565b612d0b565b5b610d4c576040517f08c379a0000000000000000000000000000000000000000000000000000000008152600401610d4390615135565b60405180910390fd5b610d568383613313565b505050565b610d6c610d666131c1565b826131c9565b610dab576040517f08c379a0000000000000000000000000000000000000000000000000000000008152600401610da2906151c7565b60405180910390fd5b610db68383836133cc565b505050565b6000600c6000610dc96131c1565b73ffffffffffffffffffffffffffffffffffffffff1673ffffffffffffffffffffffffffffffffffffffff16815260200190815260200160002054905060008111610e49576040517f08c379a0000000000000000000000000000000000000000000000000000000008152600401610e4090615233565b60405180910390fd5b6000600c6000610e576131c1565b73ffffffffffffffffffffffffffffffffffffffff1673ffffffffffffffffffffffffffffffffffffffff168152602001908152602001600020819055506000610e9f6131c1565b73ffffffffffffffffffffffffffffffffffffffff1682604051610ec290615284565b60006040518083038185875af1925050503d8060008114610eff576040519150601f19603f3d011682016040523d82523d6000602084013e610f04565b606091505b5050905080610f48576040517f08c379a0000000000000000000000000000000000000000000000000000000008152600401610f3f906152e5565b60405180910390fd5b5050565b600e6020528160005260406000208181548110610f6857600080fd5b9060005260206000209060040201600091509150508060000160009054906101000a900460ff16908060010154908060020160009054906101000a900473ffffffffffffffffffffffffffffffffffffffff16908060030154905084565b610fe183838360405180602001604052806000815250612650565b505050565b600080610ff2836136c6565b9050600073ffffffffffffffffffffffffffffffffffffffff168173ffffffffffffffffffffffffffffffffffffffff161415611064576040517f08c379a000000000000000000000000000000000000000000000000000000000815260040161105b90615351565b60405180910390fd5b80915050919050565b6000600b600085815260200190815260200160002090508060000160009054906101000a900460ff166110d5576040517f08c379a00000000000000000000000000000000000000000000000000000000081526004016110cc906153bd565b60405180910390fd5b806004015442101561111c576040517f08c379a000000000000000000000000000000000000000000000000000000000815260040161111390615429565b60405180910390fd5b6000808451905060005b81811161126057600086828151811061114257611141615449565b5b60200260200101519050600086838151811061116157611160615449565b5b602002602001015190506000811015801561117d575060648111155b6111bc576040517f08c379a00000000000000000000000000000000000000000000000000000000081526004016111b3906154ea565b60405180910390fd5b600081111561124b57600060648288600301546111d9919061550a565b6111e39190615593565b905080866111f19190614f51565b955080600c60008573ffffffffffffffffffffffffffffffffffffffff1673ffffffffffffffffffffffffffffffffffffffff16815260200190815260200160002060008282546112429190614f51565b92505081905550505b50508080611258906155c4565b915050611126565b5060006103e86009548560030154611278919061550a565b6112829190615593565b9050600081848660030154611297919061560d565b6112a1919061560d565b905080600c60006112b06131c1565b73ffffffffffffffffffffffffffffffffffffffff1673ffffffffffffffffffffffffffffffffffffffff16815260200190815260200160002060008282546112f99190614f51565b9250508190555081600c600061130d611741565b73ffffffffffffffffffffffffffffffffffffffff1673ffffffffffffffffffffffffffffffffffffffff16815260200190815260200160002060008282546113569190614f51565b9250508190555061139461136989610fe6565b8660020160009054906101000a900473ffffffffffffffffffffffffffffffffffffffff168a6133cc565b60008560000160006101000a81548160ff0219169083151502179055507fd2aa34a4fdbbc6dff6a3e56f46e0f3ae2a31d7785ff3487aa5c95c642acea501888660020160009054906101000a900473ffffffffffffffffffffffffffffffffffffffff16876003015460405161140c93929190615641565b60405180910390a15050505050505050565b60008073ffffffffffffffffffffffffffffffffffffffff168273ffffffffffffffffffffffffffffffffffffffff16141561148f576040517f08c379a0000000000000000000000000000000000000000000000000000000008152600401611486906156ea565b60405180910390fd5b600360008373ffffffffffffffffffffffffffffffffffffffff1673ffffffffffffffffffffffffffffffffffffffff168152602001908152602001600020549050919050565b6114de613703565b6114e86000613781565b565b6000811161152d576040517f08c379a000000000000000000000000000000000000000000000000000000000815260040161152490615756565b60405180910390fd5b600060405180608001604052806001151581526020018481526020016115516131c1565b73ffffffffffffffffffffffffffffffffffffffff168152602001838152509050600e600084815260200190815260200160002081908060018154018082558091505060019003906000526020600020906004020160009091909190915060008201518160000160006101000a81548160ff0219169083151502179055506020820151816001015560408201518160020160006101000a81548173ffffffffffffffffffffffffffffffffffffffff021916908373ffffffffffffffffffffffffffffffffffffffff16021790555060608201518160030155505081600c60006116396131c1565b73ffffffffffffffffffffffffffffffffffffffff1673ffffffffffffffffffffffffffffffffffffffff1681526020019081526020016000206000828254611682919061560d565b9250508190555081600c6000611696611741565b73ffffffffffffffffffffffffffffffffffffffff1673ffffffffffffffffffffffffffffffffffffffff16815260200190815260200160002060008282546116df9190614f51565b925050819055506116ee6131c1565b73ffffffffffffffffffffffffffffffffffffffff16837f621602a81c41f208d6706724f028c3d6f902a344be2f9fc7fb5643d6df5c92cf84604051611734919061498c565b60405180910390a3505050565b6000600660009054906101000a900473ffffffffffffffffffffffffffffffffffffffff16905090565b61177c6117766131c1565b836131c9565b6117bb576040517f08c379a00000000000000000000000000000000000000000000000000000000081526004016117b290614f02565b60405180910390fd5b6117c58282613847565b5050565b6117da6117d46131c1565b836131c9565b611819576040517f08c379a000000000000000000000000000000000000000000000000000000000815260040161181090614f02565b60405180910390fd5b6000811161185c576040517f08c379a000000000000000000000000000000000000000000000000000000000815260040161185390615756565b60405180910390fd5b604051806080016040528060011515815260200183815260200161187e6131c1565b73ffffffffffffffffffffffffffffffffffffffff16815260200182815250600a600084815260200190815260200160002060008201518160000160006101000a81548160ff0219169083151502179055506020820151816001015560408201518160020160006101000a81548173ffffffffffffffffffffffffffffffffffffffff021916908373ffffffffffffffffffffffffffffffffffffffff160217905550606082015181600301559050506119366131c1565b73ffffffffffffffffffffffffffffffffffffffff16827f5f9c03de076f5063cd3ebcfe8ef7aa8af378e4b35a83c77ba9777e97083879a28360405161197c919061498c565b60405180910390a35050565b60606001805461199790614fff565b80601f01602080910402602001604051908101604052809291908181526020018280546119c390614fff565b8015611a105780601f106119e557610100808354040283529160200191611a10565b820191906000526020600020905b8154815290600101906020018083116119f357829003601f168201915b5050505050905090565b6000600b600083815260200190815260200160002090508060000160009054906101000a900460ff16611a82576040517f08c379a0000000000000000000000000000000000000000000000000000000008152600401611a79906153bd565b60405180910390fd5b80600401544210611ac8576040517f08c379a0000000000000000000000000000000000000000000000000000000008152600401611abf906157c2565b60405180910390fd5b80600301543411611b0e576040517f08c379a0000000000000000000000000000000000000000000000000000000008152600401611b0590615854565b60405180910390fd5b600073ffffffffffffffffffffffffffffffffffffffff168160020160009054906101000a900473ffffffffffffffffffffffffffffffffffffffff1673ffffffffffffffffffffffffffffffffffffffff1614611be5578060030154600c60008360020160009054906101000a900473ffffffffffffffffffffffffffffffffffffffff1673ffffffffffffffffffffffffffffffffffffffff1673ffffffffffffffffffffffffffffffffffffffff1681526020019081526020016000206000828254611bdd9190614f51565b925050819055505b611bed6131c1565b8160020160006101000a81548173ffffffffffffffffffffffffffffffffffffffff021916908373ffffffffffffffffffffffffffffffffffffffff1602179055503481600301819055507f0e54eff26401bf69b81b26f60bd85ef47f5d85275c1d268d84f68d6897431c4782611c626131c1565b34604051611c7293929190615641565b60405180910390a15050565b611c8f611c896131c1565b856131c9565b611cce576040517f08c379a0000000000000000000000000000000000000000000000000000000008152600401611cc590614f02565b60405180910390fd5b600e6000858152602001908152602001600020805490508310611d26576040517f08c379a0000000000000000000000000000000000000000000000000000000008152600401611d1d906158c0565b60405180910390fd5b600e60008581526020019081526020016000208381548110611d4b57611d4a615449565b5b906000526020600020906004020160000160009054906101000a900460ff16611da9576040517f08c379a0000000000000000000000000000000000000000000000000000000008152600401611da09061592c565b60405180910390fd5b6000600e60008681526020019081526020016000208481548110611dd057611dcf615449565b5b90600052602060002090600402016040518060800160405290816000820160009054906101000a900460ff16151515158152602001600182015481526020016002820160009054906101000a900473ffffffffffffffffffffffffffffffffffffffff1673ffffffffffffffffffffffffffffffffffffffff1673ffffffffffffffffffffffffffffffffffffffff1681526020016003820154815250509050600081606001519050600082604001519050600073ffffffffffffffffffffffffffffffffffffffff168173ffffffffffffffffffffffffffffffffffffffff161415611ef2576040517f08c379a0000000000000000000000000000000000000000000000000000000008152600401611ee990615998565b60405180910390fd5b6000600e60008981526020019081526020016000208781548110611f1957611f18615449565b5b906000526020600020906004020160000160006101000a81548160ff0219169083151502179055506000808651905060005b818111612081576000888281518110611f6757611f66615449565b5b602002602001015190506000888381518110611f8657611f85615449565b5b6020026020010151905060008110158015611fa2575060648111155b611fe1576040517f08c379a0000000000000000000000000000000000000000000000000000000008152600401611fd8906154ea565b60405180910390fd5b600081111561206c57600060648289611ffa919061550a565b6120049190615593565b905080866120129190614f51565b955080600c60008573ffffffffffffffffffffffffffffffffffffffff1673ffffffffffffffffffffffffffffffffffffffff16815260200190815260200160002060008282546120639190614f51565b92505081905550505b50508080612079906155c4565b915050611f4b565b5060006103e860095486612095919061550a565b61209f9190615593565b905060008184876120b0919061560d565b6120ba919061560d565b905080600c60006120c96131c1565b73ffffffffffffffffffffffffffffffffffffffff1673ffffffffffffffffffffffffffffffffffffffff16815260200190815260200160002060008282546121129190614f51565b9250508190555081600c6000612126611741565b73ffffffffffffffffffffffffffffffffffffffff1673ffffffffffffffffffffffffffffffffffffffff168152602001908152602001600020600082825461216f9190614f51565b925050819055506121886121816131c1565b868d6133cc565b8473ffffffffffffffffffffffffffffffffffffffff168b7f7f584b34848385865b066dc153c88c882a41f1461d349a14181937f86d8b0429886040516121cf919061498c565b60405180910390a35050505050505050505050565b600e600083815260200190815260200160002080549050811061223c576040517f08c379a0000000000000000000000000000000000000000000000000000000008152600401612233906158c0565b60405180910390fd5b6122446131c1565b73ffffffffffffffffffffffffffffffffffffffff16600e6000848152602001908152602001600020828154811061227f5761227e615449565b5b906000526020600020906004020160020160009054906101000a900473ffffffffffffffffffffffffffffffffffffffff1673ffffffffffffffffffffffffffffffffffffffff1614612307576040517f08c379a00000000000000000000000000000000000000000000000000000000081526004016122fe90615a04565b60405180910390fd5b6000600e6000848152602001908152602001600020828154811061232e5761232d615449565b5b906000526020600020906004020160000160006101000a81548160ff02191690831515021790555061235e6131c1565b73ffffffffffffffffffffffffffffffffffffffff16827f7c49ef3636762858bc3078610b9cec68df66a78863ef2285cc9ea098530a481560405160405180910390a35050565b6123b76123b06131c1565b83836138bb565b5050565b600d6020528060005260406000206000915090508060000160009054906101000a900460ff16908060010154908060020160009054906101000a900473ffffffffffffffffffffffffffffffffffffffff16908060030154905084565b6124206131c1565b73ffffffffffffffffffffffffffffffffffffffff16600a600083815260200190815260200160002060020160009054906101000a900473ffffffffffffffffffffffffffffffffffffffff1673ffffffffffffffffffffffffffffffffffffffff16146124c3576040517f08c379a00000000000000000000000000000000000000000000000000000000081526004016124ba90615a70565b60405180910390fd5b6000600a600083815260200190815260200160002060000160006101000a81548160ff0219169083151502179055506124fa6131c1565b73ffffffffffffffffffffffffffffffffffffffff16817fb96f3a932e41e36c142d78a86850c1c9a1ba2c62a595e23ea0dfbf876330ea5760405160405180910390a350565b6000600a600083815260200190815260200160002090508060000160009054906101000a900460ff166125a8576040517f08c379a000000000000000000000000000000000000000000000000000000000815260040161259f90615adc565b60405180910390fd5b80600301543410156125ef576040517f08c379a00000000000000000000000000000000000000000000000000000000081526004016125e690615b48565b60405180910390fd5b34600c60006125fc6131c1565b73ffffffffffffffffffffffffffffffffffffffff1673ffffffffffffffffffffffffffffffffffffffff16815260200190815260200160002060008282546126459190614f51565b925050819055505050565b61266161265b6131c1565b836131c9565b6126a0576040517f08c379a0000000000000000000000000000000000000000000000000000000008152600401612697906151c7565b60405180910390fd5b6126ac84848484613a28565b50505050565b60606126bd82613a84565b9050919050565b606060006126d18361141e565b905060008167ffffffffffffffff8111156126ef576126ee6146ce565b5b60405190808252806020026020018201604052801561271d5781602001602082028036833780820191505090505b50905060005b828110156127e8578573ffffffffffffffffffffffffffffffffffffffff16632f745c5986836040518363ffffffff1660e01b8152600401612766929190615b68565b60206040518083038186803b15801561277e57600080fd5b505afa158015612792573d6000803e3d6000fd5b505050506040513d601f19601f820116820180604052508101906127b69190615ba6565b8282815181106127c9576127c8615449565b5b60200260200101818152505080806127e0906155c4565b915050612723565b50809250505092915050565b600a6020528060005260406000206000915090508060000160009054906101000a900460ff16908060010154908060020160009054906101000a900473ffffffffffffffffffffffffffffffffffffffff16908060030154905084565b612859613703565b6000811015801561286c57506103e88111155b6128ab576040517f08c379a00000000000000000000000000000000000000000000000000000000081526004016128a290615c1f565b60405180910390fd5b806009819055507fc52b745517237e6357976bba03e5dc4ff05bfc70c61a1f50294bb5b1059af86e816040516128e1919061498c565b60405180910390a150565b600b6020528060005260406000206000915090508060000160009054906101000a900460ff16908060010154908060020160009054906101000a900473ffffffffffffffffffffffffffffffffffffffff16908060030154908060040154905085565b60095481565b6000600a60008581526020019081526020016000206040518060800160405290816000820160009054906101000a900460ff16151515158152602001600182015481526020016002820160009054906101000a900473ffffffffffffffffffffffffffffffffffffffff1673ffffffffffffffffffffffffffffffffffffffff1673ffffffffffffffffffffffffffffffffffffffff16815260200160038201548152505090508060000151612a40576040517f08c379a0000000000000000000000000000000000000000000000000000000008152600401612a3790615adc565b60405180910390fd5b8060600151341015612a87576040517f08c379a0000000000000000000000000000000000000000000000000000000008152600401612a7e90615b48565b60405180910390fd5b6000808451905060005b818111612bc7576000868281518110612aad57612aac615449565b5b602002602001015190506000868381518110612acc57612acb615449565b5b6020026020010151905060008110158015612ae8575060648111155b612b27576040517f08c379a0000000000000000000000000000000000000000000000000000000008152600401612b1e906154ea565b60405180910390fd5b6000811115612bb257600060648234612b40919061550a565b612b4a9190615593565b90508086612b589190614f51565b955080600c60008573ffffffffffffffffffffffffffffffffffffffff1673ffffffffffffffffffffffffffffffffffffffff1681526020019081526020016000206000828254612ba99190614f51565b92505081905550505b50508080612bbf906155c4565b915050612a91565b5060006103e860095434612bdb919061550a565b612be59190615593565b90506000818434612bf6919061560d565b612c00919061560d565b905080600c6000612c0f6131c1565b73ffffffffffffffffffffffffffffffffffffffff1673ffffffffffffffffffffffffffffffffffffffff1681526020019081526020016000206000828254612c589190614f51565b9250508190555081600c6000612c6c611741565b73ffffffffffffffffffffffffffffffffffffffff1673ffffffffffffffffffffffffffffffffffffffff1681526020019081526020016000206000828254612cb59190614f51565b92505081905550612cd28560400151612ccc6131c1565b8a6133cc565b6000600a60008a815260200190815260200160002060000160006101000a81548160ff0219169083151502179055505050505050505050565b6000600560008473ffffffffffffffffffffffffffffffffffffffff1673ffffffffffffffffffffffffffffffffffffffff16815260200190815260200160002060008373ffffffffffffffffffffffffffffffffffffffff1673ffffffffffffffffffffffffffffffffffffffff16815260200190815260200160002060009054906101000a900460ff16905092915050565b6000612da9613703565b612db36008613b97565b6000612dbf6008613bad565b9050612dcb8482613bbb565b612dd58184613847565b7f3a5398bda6f1f57d6c96834fa9bf02b5517bdc847d14312015a917ba421c31c98185604051612e06929190615c3f565b60405180910390a18091505092915050565b612e29612e236131c1565b836131c9565b612e68576040517f08c379a0000000000000000000000000000000000000000000000000000000008152600401612e5f90614f02565b60405180910390fd5b600e6000838152602001908152602001600020805490508110612ec0576040517f08c379a0000000000000000000000000000000000000000000000000000000008152600401612eb7906158c0565b60405180910390fd5b600e60008381526020019081526020016000208181548110612ee557612ee4615449565b5b906000526020600020906004020160000160009054906101000a900460ff16612f43576040517f08c379a0000000000000000000000000000000000000000000000000000000008152600401612f3a9061592c565b60405180910390fd5b6000600e60008481526020019081526020016000208281548110612f6a57612f69615449565b5b906000526020600020906004020160020160009054906101000a900473ffffffffffffffffffffffffffffffffffffffff1690506000600e60008581526020019081526020016000208381548110612fc557612fc4615449565b5b90600052602060002090600402016003015490506000600e6000868152602001908152602001600020848154811061300057612fff615449565b5b906000526020600020906004020160000160006101000a81548160ff02191690831515021790555080600c60008473ffffffffffffffffffffffffffffffffffffffff1673ffffffffffffffffffffffffffffffffffffffff16815260200190815260200160002060008282546130779190614f51565b9250508190555080600c600061308b611741565b73ffffffffffffffffffffffffffffffffffffffff1673ffffffffffffffffffffffffffffffffffffffff16815260200190815260200160002060008282546130d4919061560d565b925050819055508173ffffffffffffffffffffffffffffffffffffffff16847f2d9d00a807c2aff5d665db4d08836cdcefcafb265b17c460c5fcc6e40a7dd32c60405160405180910390a350505050565b61312d613703565b600073ffffffffffffffffffffffffffffffffffffffff168173ffffffffffffffffffffffffffffffffffffffff16141561319d576040517f08c379a000000000000000000000000000000000000000000000000000000000815260040161319490615cda565b60405180910390fd5b6131a681613781565b50565b600c6020528060005260406000206000915090505481565b600033905090565b6000806131d583610fe6565b90508073ffffffffffffffffffffffffffffffffffffffff168473ffffffffffffffffffffffffffffffffffffffff16148061321757506132168185612d0b565b5b8061325557508373ffffffffffffffffffffffffffffffffffffffff1661323d84610bfd565b73ffffffffffffffffffffffffffffffffffffffff16145b91505092915050565b60007f01ffc9a7000000000000000000000000000000000000000000000000000000007bffffffffffffffffffffffffffffffffffffffffffffffffffffffff1916827bffffffffffffffffffffffffffffffffffffffffffffffffffffffff1916149050919050565b6132d181613dd9565b613310576040517f08c379a000000000000000000000000000000000000000000000000000000000815260040161330790615351565b60405180910390fd5b50565b816004600083815260200190815260200160002060006101000a81548173ffffffffffffffffffffffffffffffffffffffff021916908373ffffffffffffffffffffffffffffffffffffffff160217905550808273ffffffffffffffffffffffffffffffffffffffff1661338683610fe6565b73ffffffffffffffffffffffffffffffffffffffff167f8c5be1e5ebec7d5bd14f71427d1e84f3dd0314c0f7b2291e5b200ac8c7c3b92560405160405180910390a45050565b8273ffffffffffffffffffffffffffffffffffffffff166133ec82610fe6565b73ffffffffffffffffffffffffffffffffffffffff1614613442576040517f08c379a000000000000000000000000000000000000000000000000000000000815260040161343990615d6c565b60405180910390fd5b600073ffffffffffffffffffffffffffffffffffffffff168273ffffffffffffffffffffffffffffffffffffffff1614156134b2576040517f08c379a00000000000000000000000000000000000000000000000000000000081526004016134a990615dfe565b60405180910390fd5b6134bf8383836001613e1a565b8273ffffffffffffffffffffffffffffffffffffffff166134df82610fe6565b73ffffffffffffffffffffffffffffffffffffffff1614613535576040517f08c379a000000000000000000000000000000000000000000000000000000000815260040161352c90615d6c565b60405180910390fd5b6004600082815260200190815260200160002060006101000a81549073ffffffffffffffffffffffffffffffffffffffff02191690556001600360008573ffffffffffffffffffffffffffffffffffffffff1673ffffffffffffffffffffffffffffffffffffffff168152602001908152602001600020600082825403925050819055506001600360008473ffffffffffffffffffffffffffffffffffffffff1673ffffffffffffffffffffffffffffffffffffffff16815260200190815260200160002060008282540192505081905550816002600083815260200190815260200160002060006101000a81548173ffffffffffffffffffffffffffffffffffffffff021916908373ffffffffffffffffffffffffffffffffffffffff160217905550808273ffffffffffffffffffffffffffffffffffffffff168473ffffffffffffffffffffffffffffffffffffffff167fddf252ad1be2c89b69c2b068fc378daa952ba7f163c4a11628f55a4df523b3ef60405160405180910390a46136c18383836001613e20565b505050565b60006002600083815260200190815260200160002060009054906101000a900473ffffffffffffffffffffffffffffffffffffffff169050919050565b61370b6131c1565b73ffffffffffffffffffffffffffffffffffffffff16613729611741565b73ffffffffffffffffffffffffffffffffffffffff161461377f576040517f08c379a000000000000000000000000000000000000000000000000000000000815260040161377690615e6a565b60405180910390fd5b565b6000600660009054906101000a900473ffffffffffffffffffffffffffffffffffffffff16905081600660006101000a81548173ffffffffffffffffffffffffffffffffffffffff021916908373ffffffffffffffffffffffffffffffffffffffff1602179055508173ffffffffffffffffffffffffffffffffffffffff168173ffffffffffffffffffffffffffffffffffffffff167f8be0079c531659141344cd1fd0a4f28419497f9722a3daafe3b4186f6b6457e060405160405180910390a35050565b61385082613dd9565b61388f576040517f08c379a000000000000000000000000000000000000000000000000000000000815260040161388690615efc565b60405180910390fd5b806007600084815260200190815260200160002090805190602001906138b692919061428a565b505050565b8173ffffffffffffffffffffffffffffffffffffffff168373ffffffffffffffffffffffffffffffffffffffff16141561392a576040517f08c379a000000000000000000000000000000000000000000000000000000000815260040161392190615f68565b60405180910390fd5b80600560008573ffffffffffffffffffffffffffffffffffffffff1673ffffffffffffffffffffffffffffffffffffffff16815260200190815260200160002060008473ffffffffffffffffffffffffffffffffffffffff1673ffffffffffffffffffffffffffffffffffffffff16815260200190815260200160002060006101000a81548160ff0219169083151502179055508173ffffffffffffffffffffffffffffffffffffffff168373ffffffffffffffffffffffffffffffffffffffff167f17307eab39ab6107e8899845ad3d59bd9653f200f220920489ca2b5937696c3183604051613a1b9190614457565b60405180910390a3505050565b613a338484846133cc565b613a3f84848484613e26565b613a7e576040517f08c379a0000000000000000000000000000000000000000000000000000000008152600401613a7590615ffa565b60405180910390fd5b50505050565b6060613a8f826132c8565b6000600760008481526020019081526020016000208054613aaf90614fff565b80601f0160208091040260200160405190810160405280929190818152602001828054613adb90614fff565b8015613b285780601f10613afd57610100808354040283529160200191613b28565b820191906000526020600020905b815481529060010190602001808311613b0b57829003601f168201915b505050505090506000613b39613fbd565b9050600081511415613b4f578192505050613b92565b600082511115613b84578082604051602001613b6c929190616056565b60405160208183030381529060405292505050613b92565b613b8d84613fd4565b925050505b919050565b6001816000016000828254019250508190555050565b600081600001549050919050565b600073ffffffffffffffffffffffffffffffffffffffff168273ffffffffffffffffffffffffffffffffffffffff161415613c2b576040517f08c379a0000000000000000000000000000000000000000000000000000000008152600401613c22906160c6565b60405180910390fd5b613c3481613dd9565b15613c74576040517f08c379a0000000000000000000000000000000000000000000000000000000008152600401613c6b90616132565b60405180910390fd5b613c82600083836001613e1a565b613c8b81613dd9565b15613ccb576040517f08c379a0000000000000000000000000000000000000000000000000000000008152600401613cc290616132565b60405180910390fd5b6001600360008473ffffffffffffffffffffffffffffffffffffffff1673ffffffffffffffffffffffffffffffffffffffff16815260200190815260200160002060008282540192505081905550816002600083815260200190815260200160002060006101000a81548173ffffffffffffffffffffffffffffffffffffffff021916908373ffffffffffffffffffffffffffffffffffffffff160217905550808273ffffffffffffffffffffffffffffffffffffffff16600073ffffffffffffffffffffffffffffffffffffffff167fddf252ad1be2c89b69c2b068fc378daa952ba7f163c4a11628f55a4df523b3ef60405160405180910390a4613dd5600083836001613e20565b5050565b60008073ffffffffffffffffffffffffffffffffffffffff16613dfb836136c6565b73ffffffffffffffffffffffffffffffffffffffff1614159050919050565b50505050565b50505050565b6000613e478473ffffffffffffffffffffffffffffffffffffffff1661403c565b15613fb0578373ffffffffffffffffffffffffffffffffffffffff1663150b7a02613e706131c1565b8786866040518563ffffffff1660e01b8152600401613e9294939291906161a7565b602060405180830381600087803b158015613eac57600080fd5b505af1925050508015613edd57506040513d601f19601f82011682018060405250810190613eda9190616208565b60015b613f60573d8060008114613f0d576040519150601f19603f3d011682016040523d82523d6000602084013e613f12565b606091505b50600081511415613f58576040517f08c379a0000000000000000000000000000000000000000000000000000000008152600401613f4f90615ffa565b60405180910390fd5b805181602001fd5b63150b7a0260e01b7bffffffffffffffffffffffffffffffffffffffffffffffffffffffff1916817bffffffffffffffffffffffffffffffffffffffffffffffffffffffff191614915050613fb5565b600190505b949350505050565b606060405180602001604052806000815250905090565b6060613fdf826132c8565b6000613fe9613fbd565b905060008151116140095760405180602001604052806000815250614034565b806140138461405f565b604051602001614024929190616056565b6040516020818303038152906040525b915050919050565b6000808273ffffffffffffffffffffffffffffffffffffffff163b119050919050565b60606000600161406e84614137565b01905060008167ffffffffffffffff81111561408d5761408c6146ce565b5b6040519080825280601f01601f1916602001820160405280156140bf5781602001600182028036833780820191505090505b509050600082602001820190505b60011561412c578080600190039150507f3031323334353637383961626364656600000000000000000000000000000000600a86061a8153600a858161411657614115615564565b5b04945060008514156141275761412c565b6140cd565b819350505050919050565b600080600090507a184f03e93ff9f4daa797ed6e38ed64bf6a1f0100000000000000008310614195577a184f03e93ff9f4daa797ed6e38ed64bf6a1f010000000000000000838161418b5761418a615564565b5b0492506040810190505b6d04ee2d6d415b85acef810000000083106141d2576d04ee2d6d415b85acef810000000083816141c8576141c7615564565b5b0492506020810190505b662386f26fc10000831061420157662386f26fc1000083816141f7576141f6615564565b5b0492506010810190505b6305f5e100831061422a576305f5e10083816142205761421f615564565b5b0492506008810190505b612710831061424f57612710838161424557614244615564565b5b0492506004810190505b60648310614272576064838161426857614267615564565b5b0492506002810190505b600a8310614281576001810190505b80915050919050565b82805461429690614fff565b90600052602060002090601f0160209004810192826142b857600085556142ff565b82601f106142d157805160ff19168380011785556142ff565b828001600101855582156142ff579182015b828111156142fe5782518255916020019190600101906142e3565b5b50905061430c9190614310565b5090565b5b80821115614329576000816000905550600101614311565b5090565b6000604051905090565b600080fd5b600080fd5b6000819050919050565b61435481614341565b811461435f57600080fd5b50565b6000813590506143718161434b565b92915050565b6000806040838503121561438e5761438d614337565b5b600061439c85828601614362565b92505060206143ad85828601614362565b9150509250929050565b60007fffffffff0000000000000000000000000000000000000000000000000000000082169050919050565b6143ec816143b7565b81146143f757600080fd5b50565b600081359050614409816143e3565b92915050565b60006020828403121561442557614424614337565b5b6000614433848285016143fa565b91505092915050565b60008115159050919050565b6144518161443c565b82525050565b600060208201905061446c6000830184614448565b92915050565b600081519050919050565b600082825260208201905092915050565b60005b838110156144ac578082015181840152602081019050614491565b838111156144bb576000848401525b50505050565b6000601f19601f8301169050919050565b60006144dd82614472565b6144e7818561447d565b93506144f781856020860161448e565b614500816144c1565b840191505092915050565b6000602082019050818103600083015261452581846144d2565b905092915050565b60006020828403121561454357614542614337565b5b600061455184828501614362565b91505092915050565b600073ffffffffffffffffffffffffffffffffffffffff82169050919050565b60006145858261455a565b9050919050565b6145958161457a565b82525050565b60006020820190506145b0600083018461458c565b92915050565b6145bf8161457a565b81146145ca57600080fd5b50565b6000813590506145dc816145b6565b92915050565b600080604083850312156145f9576145f8614337565b5b6000614607858286016145cd565b925050602061461885828601614362565b9150509250929050565b60008060006060848603121561463b5761463a614337565b5b6000614649868287016145cd565b935050602061465a868287016145cd565b925050604061466b86828701614362565b9150509250925092565b61467e81614341565b82525050565b60006080820190506146996000830187614448565b6146a66020830186614675565b6146b3604083018561458c565b6146c06060830184614675565b95945050505050565b600080fd5b7f4e487b7100000000000000000000000000000000000000000000000000000000600052604160045260246000fd5b614706826144c1565b810181811067ffffffffffffffff82111715614725576147246146ce565b5b80604052505050565b600061473861432d565b905061474482826146fd565b919050565b600067ffffffffffffffff821115614764576147636146ce565b5b602082029050602081019050919050565b600080fd5b600061478d61478884614749565b61472e565b905080838252602082019050602084028301858111156147b0576147af614775565b5b835b818110156147d957806147c588826145cd565b8452602084019350506020810190506147b2565b5050509392505050565b600082601f8301126147f8576147f76146c9565b5b813561480884826020860161477a565b91505092915050565b600067ffffffffffffffff82111561482c5761482b6146ce565b5b602082029050602081019050919050565b600061485061484b84614811565b61472e565b9050808382526020820190506020840283018581111561487357614872614775565b5b835b8181101561489c57806148888882614362565b845260208401935050602081019050614875565b5050509392505050565b600082601f8301126148bb576148ba6146c9565b5b81356148cb84826020860161483d565b91505092915050565b6000806000606084860312156148ed576148ec614337565b5b60006148fb86828701614362565b935050602084013567ffffffffffffffff81111561491c5761491b61433c565b5b614928868287016147e3565b925050604084013567ffffffffffffffff8111156149495761494861433c565b5b614955868287016148a6565b9150509250925092565b60006020828403121561497557614974614337565b5b6000614983848285016145cd565b91505092915050565b60006020820190506149a16000830184614675565b92915050565b600080fd5b600067ffffffffffffffff8211156149c7576149c66146ce565b5b6149d0826144c1565b9050602081019050919050565b82818337600083830152505050565b60006149ff6149fa846149ac565b61472e565b905082815260208101848484011115614a1b57614a1a6149a7565b5b614a268482856149dd565b509392505050565b600082601f830112614a4357614a426146c9565b5b8135614a538482602086016149ec565b91505092915050565b60008060408385031215614a7357614a72614337565b5b6000614a8185828601614362565b925050602083013567ffffffffffffffff811115614aa257614aa161433c565b5b614aae85828601614a2e565b9150509250929050565b60008060008060808587031215614ad257614ad1614337565b5b6000614ae087828801614362565b9450506020614af187828801614362565b935050604085013567ffffffffffffffff811115614b1257614b1161433c565b5b614b1e878288016147e3565b925050606085013567ffffffffffffffff811115614b3f57614b3e61433c565b5b614b4b878288016148a6565b91505092959194509250565b614b608161443c565b8114614b6b57600080fd5b50565b600081359050614b7d81614b57565b92915050565b60008060408385031215614b9a57614b99614337565b5b6000614ba8858286016145cd565b9250506020614bb985828601614b6e565b9150509250929050565b600067ffffffffffffffff821115614bde57614bdd6146ce565b5b614be7826144c1565b9050602081019050919050565b6000614c07614c0284614bc3565b61472e565b905082815260208101848484011115614c2357614c226149a7565b5b614c2e8482856149dd565b509392505050565b600082601f830112614c4b57614c4a6146c9565b5b8135614c5b848260208601614bf4565b91505092915050565b60008060008060808587031215614c7e57614c7d614337565b5b6000614c8c878288016145cd565b9450506020614c9d878288016145cd565b9350506040614cae87828801614362565b925050606085013567ffffffffffffffff811115614ccf57614cce61433c565b5b614cdb87828801614c36565b91505092959194509250565b60008060408385031215614cfe57614cfd614337565b5b6000614d0c858286016145cd565b9250506020614d1d858286016145cd565b9150509250929050565b600081519050919050565b600082825260208201905092915050565b6000819050602082019050919050565b614d5c81614341565b82525050565b6000614d6e8383614d53565b60208301905092915050565b6000602082019050919050565b6000614d9282614d27565b614d9c8185614d32565b9350614da783614d43565b8060005b83811015614dd8578151614dbf8882614d62565b9750614dca83614d7a565b925050600181019050614dab565b5085935050505092915050565b60006020820190508181036000830152614dff8184614d87565b905092915050565b600060a082019050614e1c6000830188614448565b614e296020830187614675565b614e36604083018661458c565b614e436060830185614675565b614e506080830184614675565b9695505050505050565b60008060408385031215614e7157614e70614337565b5b6000614e7f858286016145cd565b925050602083013567ffffffffffffffff811115614ea057614e9f61433c565b5b614eac85828601614a2e565b9150509250929050565b7f4e6f7420617070726f766564206f72206f776e65720000000000000000000000600082015250565b6000614eec60158361447d565b9150614ef782614eb6565b602082019050919050565b60006020820190508181036000830152614f1b81614edf565b9050919050565b7f4e487b7100000000000000000000000000000000000000000000000000000000600052601160045260246000fd5b6000614f5c82614341565b9150614f6783614341565b9250827fffffffffffffffffffffffffffffffffffffffffffffffffffffffffffffffff03821115614f9c57614f9b614f22565b5b828201905092915050565b6000604082019050614fbc6000830185614675565b614fc96020830184614675565b9392505050565b7f4e487b7100000000000000000000000000000000000000000000000000000000600052602260045260246000fd5b6000600282049050600182168061501757607f821691505b6020821081141561502b5761502a614fd0565b5b50919050565b7f4552433732313a20617070726f76616c20746f2063757272656e74206f776e6560008201527f7200000000000000000000000000000000000000000000000000000000000000602082015250565b600061508d60218361447d565b915061509882615031565b604082019050919050565b600060208201905081810360008301526150bc81615080565b9050919050565b7f4552433732313a20617070726f76652063616c6c6572206973206e6f7420746f60008201527f6b656e206f776e6572206f7220617070726f76656420666f7220616c6c000000602082015250565b600061511f603d8361447d565b915061512a826150c3565b604082019050919050565b6000602082019050818103600083015261514e81615112565b9050919050565b7f4552433732313a2063616c6c6572206973206e6f7420746f6b656e206f776e6560008201527f72206f7220617070726f76656400000000000000000000000000000000000000602082015250565b60006151b1602d8361447d565b91506151bc82615155565b604082019050919050565b600060208201905081810360008301526151e0816151a4565b9050919050565b7f4e6f2066756e647320746f207769746864726177000000000000000000000000600082015250565b600061521d60148361447d565b9150615228826151e7565b602082019050919050565b6000602082019050818103600083015261524c81615210565b9050919050565b600081905092915050565b50565b600061526e600083615253565b91506152798261525e565b600082019050919050565b600061528f82615261565b9150819050919050565b7f5769746864726177616c206661696c6564000000000000000000000000000000600082015250565b60006152cf60118361447d565b91506152da82615299565b602082019050919050565b600060208201905081810360008301526152fe816152c2565b9050919050565b7f4552433732313a20696e76616c696420746f6b656e2049440000000000000000600082015250565b600061533b60188361447d565b915061534682615305565b602082019050919050565b6000602082019050818103600083015261536a8161532e565b9050919050565b7f41756374696f6e206e6f74206163746976650000000000000000000000000000600082015250565b60006153a760128361447d565b91506153b282615371565b602082019050919050565b600060208201905081810360008301526153d68161539a565b9050919050565b7f41756374696f6e20686173206e6f7420656e6465642079657400000000000000600082015250565b600061541360198361447d565b915061541e826153dd565b602082019050919050565b6000602082019050818103600083015261544281615406565b9050919050565b7f4e487b7100000000000000000000000000000000000000000000000000000000600052603260045260246000fd5b7f526f79616c7479206d757374206265206265747765656e203020616e6420313060008201527f3000000000000000000000000000000000000000000000000000000000000000602082015250565b60006154d460218361447d565b91506154df82615478565b604082019050919050565b60006020820190508181036000830152615503816154c7565b9050919050565b600061551582614341565b915061552083614341565b9250817fffffffffffffffffffffffffffffffffffffffffffffffffffffffffffffffff048311821515161561555957615558614f22565b5b828202905092915050565b7f4e487b7100000000000000000000000000000000000000000000000000000000600052601260045260246000fd5b600061559e82614341565b91506155a983614341565b9250826155b9576155b8615564565b5b828204905092915050565b60006155cf82614341565b91507fffffffffffffffffffffffffffffffffffffffffffffffffffffffffffffffff82141561560257615601614f22565b5b600182019050919050565b600061561882614341565b915061562383614341565b92508282101561563657615635614f22565b5b828203905092915050565b60006060820190506156566000830186614675565b615663602083018561458c565b6156706040830184614675565b949350505050565b7f4552433732313a2061646472657373207a65726f206973206e6f74206120766160008201527f6c6964206f776e65720000000000000000000000000000000000000000000000602082015250565b60006156d460298361447d565b91506156df82615678565b604082019050919050565b60006020820190508181036000830152615703816156c7565b9050919050565b7f5072696365206d7573742062652067726561746572207468616e203000000000600082015250565b6000615740601c8361447d565b915061574b8261570a565b602082019050919050565b6000602082019050818103600083015261576f81615733565b9050919050565b7f41756374696f6e2068617320656e646564000000000000000000000000000000600082015250565b60006157ac60118361447d565b91506157b782615776565b602082019050919050565b600060208201905081810360008301526157db8161579f565b9050919050565b7f426964206d75737420626520686967686572207468616e20746865206375727260008201527f656e742068696768657374206269640000000000000000000000000000000000602082015250565b600061583e602f8361447d565b9150615849826157e2565b604082019050919050565b6000602082019050818103600083015261586d81615831565b9050919050565b7f496e76616c6964206f6666657220696e64657800000000000000000000000000600082015250565b60006158aa60138361447d565b91506158b582615874565b602082019050919050565b600060208201905081810360008301526158d98161589d565b9050919050565b7f4f6666657220646f6573206e6f74206578697374000000000000000000000000600082015250565b600061591660148361447d565b9150615921826158e0565b602082019050919050565b6000602082019050818103600083015261594581615909565b9050919050565b7f496e76616c696420627579657220616464726573730000000000000000000000600082015250565b600061598260158361447d565b915061598d8261594c565b602082019050919050565b600060208201905081810360008301526159b181615975565b9050919050565b7f4e6f742074686520627579657200000000000000000000000000000000000000600082015250565b60006159ee600d8361447d565b91506159f9826159b8565b602082019050919050565b60006020820190508181036000830152615a1d816159e1565b9050919050565b7f4e6f74207468652073656c6c6572000000000000000000000000000000000000600082015250565b6000615a5a600e8361447d565b9150615a6582615a24565b602082019050919050565b60006020820190508181036000830152615a8981615a4d565b9050919050565b7f546f6b656e206e6f7420666f722073616c650000000000000000000000000000600082015250565b6000615ac660128361447d565b9150615ad182615a90565b602082019050919050565b60006020820190508181036000830152615af581615ab9565b9050919050565b7f496e73756666696369656e742066756e64730000000000000000000000000000600082015250565b6000615b3260128361447d565b9150615b3d82615afc565b602082019050919050565b60006020820190508181036000830152615b6181615b25565b9050919050565b6000604082019050615b7d600083018561458c565b615b8a6020830184614675565b9392505050565b600081519050615ba08161434b565b92915050565b600060208284031215615bbc57615bbb614337565b5b6000615bca84828501615b91565b91505092915050565b7f496e76616c6964206d61726b6574206665652070657263656e74616765000000600082015250565b6000615c09601d8361447d565b9150615c1482615bd3565b602082019050919050565b60006020820190508181036000830152615c3881615bfc565b9050919050565b6000604082019050615c546000830185614675565b615c61602083018461458c565b9392505050565b7f4f776e61626c653a206e6577206f776e657220697320746865207a65726f206160008201527f6464726573730000000000000000000000000000000000000000000000000000602082015250565b6000615cc460268361447d565b9150615ccf82615c68565b604082019050919050565b60006020820190508181036000830152615cf381615cb7565b9050919050565b7f4552433732313a207472616e736665722066726f6d20696e636f72726563742060008201527f6f776e6572000000000000000000000000000000000000000000000000000000602082015250565b6000615d5660258361447d565b9150615d6182615cfa565b604082019050919050565b60006020820190508181036000830152615d8581615d49565b9050919050565b7f4552433732313a207472616e7366657220746f20746865207a65726f2061646460008201527f7265737300000000000000000000000000000000000000000000000000000000602082015250565b6000615de860248361447d565b9150615df382615d8c565b604082019050919050565b60006020820190508181036000830152615e1781615ddb565b9050919050565b7f4f776e61626c653a2063616c6c6572206973206e6f7420746865206f776e6572600082015250565b6000615e5460208361447d565b9150615e5f82615e1e565b602082019050919050565b60006020820190508181036000830152615e8381615e47565b9050919050565b7f45524337323155524953746f726167653a2055524920736574206f66206e6f6e60008201527f6578697374656e7420746f6b656e000000000000000000000000000000000000602082015250565b6000615ee6602e8361447d565b9150615ef182615e8a565b604082019050919050565b60006020820190508181036000830152615f1581615ed9565b9050919050565b7f4552433732313a20617070726f766520746f2063616c6c657200000000000000600082015250565b6000615f5260198361447d565b9150615f5d82615f1c565b602082019050919050565b60006020820190508181036000830152615f8181615f45565b9050919050565b7f4552433732313a207472616e7366657220746f206e6f6e20455243373231526560008201527f63656976657220696d706c656d656e7465720000000000000000000000000000602082015250565b6000615fe460328361447d565b9150615fef82615f88565b604082019050919050565b6000602082019050818103600083015261601381615fd7565b9050919050565b600081905092915050565b600061603082614472565b61603a818561601a565b935061604a81856020860161448e565b80840191505092915050565b60006160628285616025565b915061606e8284616025565b91508190509392505050565b7f4552433732313a206d696e7420746f20746865207a65726f2061646472657373600082015250565b60006160b060208361447d565b91506160bb8261607a565b602082019050919050565b600060208201905081810360008301526160df816160a3565b9050919050565b7f4552433732313a20746f6b656e20616c7265616479206d696e74656400000000600082015250565b600061611c601c8361447d565b9150616127826160e6565b602082019050919050565b6000602082019050818103600083015261614b8161610f565b9050919050565b600081519050919050565b600082825260208201905092915050565b600061617982616152565b616183818561615d565b935061619381856020860161448e565b61619c816144c1565b840191505092915050565b60006080820190506161bc600083018761458c565b6161c9602083018661458c565b6161d66040830185614675565b81810360608301526161e8818461616e565b905095945050505050565b600081519050616202816143e3565b92915050565b60006020828403121561621e5761621d614337565b5b600061622c848285016161f3565b9150509291505056fea26469706673582212204b958723a6ae34f0ac861ab4d4b7554b6506a77f2c6e0965e448456eee4698dd64736f6c63430008080033",
  "linkReferences": {},
  "deployedLinkReferences": {}
}