{
  "_format": "hh-sol-artifact-1",
  "contractName": "NFTMarketplace",
  "sourceName": "contracts/Market.sol",
  "abi": [
    {
      "inputs": [],
      "stateMutability": "nonpayable",
      "type": "constructor"
    },
    {
      "anonymous": false,
      "inputs": [
        {
          "indexed": true,
          "internalType": "address",
          "name": "owner",
          "type": "address"
        },
        {
          "indexed": true,
          "internalType": "address",
          "name": "approved",
          "type": "address"
        },
        {
          "indexed": true,
          "internalType": "uint256",
          "name": "tokenId",
          "type": "uint256"
        }
      ],
      "name": "Approval",
      "type": "event"
    },
    {
      "anonymous": false,
      "inputs": [
        {
          "indexed": true,
          "internalType": "address",
          "name": "owner",
          "type": "address"
        },
        {
          "indexed": true,
          "internalType": "address",
          "name": "operator",
          "type": "address"
        },
        {
          "indexed": false,
          "internalType": "bool",
          "name": "approved",
          "type": "bool"
        }
      ],
      "name": "ApprovalForAll",
      "type": "event"
    },
    {
      "anonymous": false,
      "inputs": [
        {
          "indexed": false,
          "internalType": "uint256",
          "name": "tokenId",
          "type": "uint256"
        },
        {
          "indexed": false,
          "internalType": "uint256",
          "name": "endTime",
          "type": "uint256"
        }
      ],
      "name": "AuctionCreated",
      "type": "event"
    },
    {
      "anonymous": false,
      "inputs": [
        {
          "indexed": false,
          "internalType": "uint256",
          "name": "tokenId",
          "type": "uint256"
        },
        {
          "indexed": false,
          "internalType": "address",
          "name": "highestBidder",
          "type": "address"
        },
        {
          "indexed": false,
          "internalType": "uint256",
          "name": "highestBid",
          "type": "uint256"
        }
      ],
      "name": "AuctionEnded",
      "type": "event"
    },
    {
      "anonymous": false,
      "inputs": [
        {
          "indexed": false,
          "internalType": "uint256",
          "name": "tokenId",
          "type": "uint256"
        },
        {
          "indexed": false,
          "internalType": "address",
          "name": "bidder",
          "type": "address"
        },
        {
          "indexed": false,
          "internalType": "uint256",
          "name": "bid",
          "type": "uint256"
        }
      ],
      "name": "BidPlaced",
      "type": "event"
    },
    {
      "anonymous": false,
      "inputs": [
        {
          "indexed": false,
          "internalType": "uint256",
          "name": "newMarketFeePercentage",
          "type": "uint256"
        }
      ],
      "name": "MarketFeePercentageChanged",
      "type": "event"
    },
    {
      "anonymous": false,
      "inputs": [
        {
          "indexed": true,
          "internalType": "uint256",
          "name": "tokenId",
          "type": "uint256"
        },
        {
          "indexed": true,
          "internalType": "address",
          "name": "seller",
          "type": "address"
        },
        {
          "indexed": false,
          "internalType": "uint256",
          "name": "price",
          "type": "uint256"
        }
      ],
      "name": "NFTListed",
      "type": "event"
    },
    {
      "anonymous": false,
      "inputs": [
        {
          "indexed": true,
          "internalType": "uint256",
          "name": "tokenId",
          "type": "uint256"
        },
        {
          "indexed": true,
          "internalType": "address",
          "name": "seller",
          "type": "address"
        }
      ],
      "name": "NFTListingCanceled",
      "type": "event"
    },
    {
      "anonymous": false,
      "inputs": [
        {
          "indexed": false,
          "internalType": "uint256",
          "name": "tokenId",
          "type": "uint256"
        }
      ],
      "name": "OfferCanceled",
      "type": "event"
    },
    {
      "anonymous": false,
      "inputs": [
        {
          "indexed": false,
          "internalType": "uint256",
          "name": "tokenId",
          "type": "uint256"
        },
        {
          "indexed": false,
          "internalType": "uint256",
          "name": "price",
          "type": "uint256"
        },
        {
          "indexed": false,
          "internalType": "uint256",
          "name": "royalty",
          "type": "uint256"
        }
      ],
      "name": "OfferCreated",
      "type": "event"
    },
    {
      "anonymous": false,
      "inputs": [
        {
          "indexed": true,
          "internalType": "uint256",
          "name": "tokenId",
          "type": "uint256"
        },
        {
          "indexed": true,
          "internalType": "address",
          "name": "requester",
          "type": "address"
        },
        {
          "indexed": false,
          "internalType": "uint256",
          "name": "price",
          "type": "uint256"
        }
      ],
      "name": "OfferRequestAccepted",
      "type": "event"
    },
    {
      "anonymous": false,
      "inputs": [
        {
          "indexed": true,
          "internalType": "uint256",
          "name": "tokenId",
          "type": "uint256"
        },
        {
          "indexed": true,
          "internalType": "address",
          "name": "requester",
          "type": "address"
        }
      ],
      "name": "OfferRequestRejected",
      "type": "event"
    },
    {
      "anonymous": false,
      "inputs": [
        {
          "indexed": true,
          "internalType": "uint256",
          "name": "tokenId",
          "type": "uint256"
        },
        {
          "indexed": true,
          "internalType": "address",
          "name": "requester",
          "type": "address"
        },
        {
          "indexed": false,
          "internalType": "uint256",
          "name": "price",
          "type": "uint256"
        }
      ],
      "name": "OfferRequested",
      "type": "event"
    },
    {
      "anonymous": false,
      "inputs": [
        {
          "indexed": true,
          "internalType": "address",
          "name": "previousOwner",
          "type": "address"
        },
        {
          "indexed": true,
          "internalType": "address",
          "name": "newOwner",
          "type": "address"
        }
      ],
      "name": "OwnershipTransferred",
      "type": "event"
    },
    {
      "anonymous": false,
      "inputs": [
        {
          "indexed": false,
          "internalType": "uint256",
          "name": "tokenId",
          "type": "uint256"
        },
        {
          "indexed": false,
          "internalType": "address",
          "name": "owner",
          "type": "address"
        }
      ],
      "name": "TokenMinted",
      "type": "event"
    },
    {
      "anonymous": false,
      "inputs": [
        {
          "indexed": true,
          "internalType": "address",
          "name": "from",
          "type": "address"
        },
        {
          "indexed": true,
          "internalType": "address",
          "name": "to",
          "type": "address"
        },
        {
          "indexed": true,
          "internalType": "uint256",
          "name": "tokenId",
          "type": "uint256"
        }
      ],
      "name": "Transfer",
      "type": "event"
    },
    {
      "anonymous": false,
      "inputs": [
        {
          "indexed": true,
          "internalType": "uint256",
          "name": "tokenId",
          "type": "uint256"
        },
        {
          "indexed": true,
          "internalType": "address",
          "name": "buyer",
          "type": "address"
        },
        {
          "indexed": false,
          "internalType": "uint256",
          "name": "price",
          "type": "uint256"
        }
      ],
      "name": "UserOfferAccepted",
      "type": "event"
    },
    {
      "anonymous": false,
      "inputs": [
        {
          "indexed": true,
          "internalType": "uint256",
          "name": "tokenId",
          "type": "uint256"
        },
        {
          "indexed": true,
          "internalType": "address",
          "name": "buyer",
          "type": "address"
        },
        {
          "indexed": false,
          "internalType": "uint256",
          "name": "price",
          "type": "uint256"
        }
      ],
      "name": "UserOfferAdded",
      "type": "event"
    },
    {
      "anonymous": false,
      "inputs": [
        {
          "indexed": true,
          "internalType": "uint256",
          "name": "tokenId",
          "type": "uint256"
        },
        {
          "indexed": true,
          "internalType": "address",
          "name": "buyer",
          "type": "address"
        }
      ],
      "name": "UserOfferRejected",
      "type": "event"
    },
    {
      "anonymous": false,
      "inputs": [
        {
          "indexed": true,
          "internalType": "uint256",
          "name": "tokenId",
          "type": "uint256"
        },
        {
          "indexed": true,
          "internalType": "address",
          "name": "buyer",
          "type": "address"
        }
      ],
      "name": "UserOfferRemoved",
      "type": "event"
    },
    {
      "inputs": [
        {
          "internalType": "uint256",
          "name": "tokenId",
          "type": "uint256"
        },
        {
          "internalType": "uint256",
          "name": "index",
          "type": "uint256"
        },
        {
          "internalType": "address[]",
          "name": "_Royaltyrecipients",
          "type": "address[]"
        },
        {
          "internalType": "uint256[]",
          "name": "_Royaltyamounts",
          "type": "uint256[]"
        }
      ],
      "name": "acceptUserOffer",
      "outputs": [],
      "stateMutability": "nonpayable",
      "type": "function"
    },
    {
      "inputs": [
        {
          "internalType": "uint256",
          "name": "tokenId",
          "type": "uint256"
        },
        {
          "internalType": "uint256",
          "name": "price",
          "type": "uint256"
        }
      ],
      "name": "addOffer",
      "outputs": [],
      "stateMutability": "nonpayable",
      "type": "function"
    },
    {
      "inputs": [
        {
          "internalType": "address",
          "name": "to",
          "type": "address"
        },
        {
          "internalType": "uint256",
          "name": "tokenId",
          "type": "uint256"
        }
      ],
      "name": "approve",
      "outputs": [],
      "stateMutability": "nonpayable",
      "type": "function"
    },
    {
      "inputs": [
        {
          "internalType": "address",
          "name": "owner",
          "type": "address"
        }
      ],
      "name": "balanceOf",
      "outputs": [
        {
          "internalType": "uint256",
          "name": "",
          "type": "uint256"
        }
      ],
      "stateMutability": "view",
      "type": "function"
    },
    {
      "inputs": [
        {
          "internalType": "uint256",
          "name": "tokenId",
          "type": "uint256"
        },
        {
          "internalType": "address[]",
          "name": "_Royaltyrecipients",
          "type": "address[]"
        },
        {
          "internalType": "uint256[]",
          "name": "_Royaltyamounts",
          "type": "uint256[]"
        }
      ],
      "name": "buyNFT",
      "outputs": [],
      "stateMutability": "payable",
      "type": "function"
    },
    {
      "inputs": [
        {
          "internalType": "uint256",
          "name": "tokenId",
          "type": "uint256"
        }
      ],
      "name": "cancelNFTListing",
      "outputs": [],
      "stateMutability": "nonpayable",
      "type": "function"
    },
    {
      "inputs": [
        {
          "internalType": "uint256",
          "name": "tokenId",
          "type": "uint256"
        },
        {
          "internalType": "uint256",
          "name": "duration",
          "type": "uint256"
        }
      ],
      "name": "createAuction",
      "outputs": [],
      "stateMutability": "nonpayable",
      "type": "function"
    },
    {
      "inputs": [
        {
          "internalType": "uint256",
          "name": "tokenId",
          "type": "uint256"
        }
      ],
      "name": "depositForOffer",
      "outputs": [],
      "stateMutability": "payable",
      "type": "function"
    },
    {
      "inputs": [
        {
          "internalType": "uint256",
          "name": "tokenId",
          "type": "uint256"
        },
        {
          "internalType": "address[]",
          "name": "_Royaltyrecipients",
          "type": "address[]"
        },
        {
          "internalType": "uint256[]",
          "name": "_Royaltyamounts",
          "type": "uint256[]"
        }
      ],
      "name": "endAuction",
      "outputs": [],
      "stateMutability": "nonpayable",
      "type": "function"
    },
    {
      "inputs": [
        {
          "internalType": "uint256",
          "name": "tokenId",
          "type": "uint256"
        }
      ],
      "name": "getApproved",
      "outputs": [
        {
          "internalType": "address",
          "name": "",
          "type": "address"
        }
      ],
      "stateMutability": "view",
      "type": "function"
    },
    {
      "inputs": [
        {
          "internalType": "address",
          "name": "owner",
          "type": "address"
        },
        {
          "internalType": "address",
          "name": "operator",
          "type": "address"
        }
      ],
      "name": "isApprovedForAll",
      "outputs": [
        {
          "internalType": "bool",
          "name": "",
          "type": "bool"
        }
      ],
      "stateMutability": "view",
      "type": "function"
    },
    {
      "inputs": [
        {
          "internalType": "uint256",
          "name": "tokenId",
          "type": "uint256"
        },
        {
          "internalType": "uint256",
          "name": "price",
          "type": "uint256"
        }
      ],
      "name": "listNFT",
      "outputs": [],
      "stateMutability": "nonpayable",
      "type": "function"
    },
    {
      "inputs": [],
      "name": "marketFeePercentage",
      "outputs": [
        {
          "internalType": "uint256",
          "name": "",
          "type": "uint256"
        }
      ],
      "stateMutability": "view",
      "type": "function"
    },
    {
      "inputs": [
        {
          "internalType": "address",
          "name": "recipient",
          "type": "address"
        },
        {
          "internalType": "string",
          "name": "tokenURI",
          "type": "string"
        },
        {
          "internalType": "uint256",
          "name": "tokenId",
          "type": "uint256"
        }
      ],
      "name": "mintNFT",
      "outputs": [
        {
          "internalType": "uint256",
          "name": "",
          "type": "uint256"
        }
      ],
      "stateMutability": "nonpayable",
      "type": "function"
    },
    {
      "inputs": [],
      "name": "name",
      "outputs": [
        {
          "internalType": "string",
          "name": "",
          "type": "string"
        }
      ],
      "stateMutability": "view",
      "type": "function"
    },
    {
      "inputs": [],
      "name": "owner",
      "outputs": [
        {
          "internalType": "address",
          "name": "",
          "type": "address"
        }
      ],
      "stateMutability": "view",
      "type": "function"
    },
    {
      "inputs": [
        {
          "internalType": "uint256",
          "name": "tokenId",
          "type": "uint256"
        }
      ],
      "name": "ownerOf",
      "outputs": [
        {
          "internalType": "address",
          "name": "",
          "type": "address"
        }
      ],
      "stateMutability": "view",
      "type": "function"
    },
    {
      "inputs": [
        {
          "internalType": "address",
          "name": "",
          "type": "address"
        }
      ],
      "name": "pendingWithdrawals",
      "outputs": [
        {
          "internalType": "uint256",
          "name": "",
          "type": "uint256"
        }
      ],
      "stateMutability": "view",
      "type": "function"
    },
    {
      "inputs": [
        {
          "internalType": "uint256",
          "name": "tokenId",
          "type": "uint256"
        }
      ],
      "name": "placeBid",
      "outputs": [],
      "stateMutability": "payable",
      "type": "function"
    },
    {
      "inputs": [
        {
          "internalType": "uint256",
          "name": "tokenId",
          "type": "uint256"
        },
        {
          "internalType": "uint256",
          "name": "index",
          "type": "uint256"
        }
      ],
      "name": "rejectUserOffer",
      "outputs": [],
      "stateMutability": "nonpayable",
      "type": "function"
    },
    {
      "inputs": [
        {
          "internalType": "uint256",
          "name": "tokenId",
          "type": "uint256"
        },
        {
          "internalType": "uint256",
          "name": "index",
          "type": "uint256"
        }
      ],
      "name": "removeOffer",
      "outputs": [],
      "stateMutability": "nonpayable",
      "type": "function"
    },
    {
      "inputs": [],
      "name": "renounceOwnership",
      "outputs": [],
      "stateMutability": "nonpayable",
      "type": "function"
    },
    {
      "inputs": [
        {
          "internalType": "address",
          "name": "from",
          "type": "address"
        },
        {
          "internalType": "address",
          "name": "to",
          "type": "address"
        },
        {
          "internalType": "uint256",
          "name": "tokenId",
          "type": "uint256"
        }
      ],
      "name": "safeTransferFrom",
      "outputs": [],
      "stateMutability": "nonpayable",
      "type": "function"
    },
    {
      "inputs": [
        {
          "internalType": "address",
          "name": "from",
          "type": "address"
        },
        {
          "internalType": "address",
          "name": "to",
          "type": "address"
        },
        {
          "internalType": "uint256",
          "name": "tokenId",
          "type": "uint256"
        },
        {
          "internalType": "bytes",
          "name": "data",
          "type": "bytes"
        }
      ],
      "name": "safeTransferFrom",
      "outputs": [],
      "stateMutability": "nonpayable",
      "type": "function"
    },
    {
      "inputs": [
        {
          "internalType": "address",
          "name": "operator",
          "type": "address"
        },
        {
          "internalType": "bool",
          "name": "approved",
          "type": "bool"
        }
      ],
      "name": "setApprovalForAll",
      "outputs": [],
      "stateMutability": "nonpayable",
      "type": "function"
    },
    {
      "inputs": [
        {
          "internalType": "uint256",
          "name": "newMarketFeePercentage",
          "type": "uint256"
        }
      ],
      "name": "setMarketFeePercentage",
      "outputs": [],
      "stateMutability": "nonpayable",
      "type": "function"
    },
    {
      "inputs": [
        {
          "internalType": "bytes4",
          "name": "interfaceId",
          "type": "bytes4"
        }
      ],
      "name": "supportsInterface",
      "outputs": [
        {
          "internalType": "bool",
          "name": "",
          "type": "bool"
        }
      ],
      "stateMutability": "view",
      "type": "function"
    },
    {
      "inputs": [],
      "name": "symbol",
      "outputs": [
        {
          "internalType": "string",
          "name": "",
          "type": "string"
        }
      ],
      "stateMutability": "view",
      "type": "function"
    },
    {
      "inputs": [
        {
          "internalType": "uint256",
          "name": "",
          "type": "uint256"
        }
      ],
      "name": "tokenIdToAuction",
      "outputs": [
        {
          "internalType": "bool",
          "name": "isActive",
          "type": "bool"
        },
        {
          "internalType": "uint256",
          "name": "tokenId",
          "type": "uint256"
        },
        {
          "internalType": "address",
          "name": "highestBidder",
          "type": "address"
        },
        {
          "internalType": "uint256",
          "name": "highestBid",
          "type": "uint256"
        },
        {
          "internalType": "uint256",
          "name": "endTime",
          "type": "uint256"
        }
      ],
      "stateMutability": "view",
      "type": "function"
    },
    {
      "inputs": [
        {
          "internalType": "uint256",
          "name": "",
          "type": "uint256"
        }
      ],
      "name": "tokenIdToOffer",
      "outputs": [
        {
          "internalType": "bool",
          "name": "isForSale",
          "type": "bool"
        },
        {
          "internalType": "uint256",
          "name": "tokenId",
          "type": "uint256"
        },
        {
          "internalType": "address",
          "name": "seller",
          "type": "address"
        },
        {
          "internalType": "uint256",
          "name": "askingPrice",
          "type": "uint256"
        }
      ],
      "stateMutability": "view",
      "type": "function"
    },
    {
      "inputs": [
        {
          "internalType": "uint256",
          "name": "",
          "type": "uint256"
        }
      ],
      "name": "tokenIdToOfferRequest",
      "outputs": [
        {
          "internalType": "bool",
          "name": "hasOffer",
          "type": "bool"
        },
        {
          "internalType": "uint256",
          "name": "tokenId",
          "type": "uint256"
        },
        {
          "internalType": "address",
          "name": "requester",
          "type": "address"
        },
        {
          "internalType": "uint256",
          "name": "price",
          "type": "uint256"
        }
      ],
      "stateMutability": "view",
      "type": "function"
    },
    {
      "inputs": [
        {
          "internalType": "uint256",
          "name": "tokenId",
          "type": "uint256"
        }
      ],
      "name": "tokenURI",
      "outputs": [
        {
          "internalType": "string",
          "name": "",
          "type": "string"
        }
      ],
      "stateMutability": "view",
      "type": "function"
    },
    {
      "inputs": [
        {
          "internalType": "address",
          "name": "_contract",
          "type": "address"
        },
        {
          "internalType": "address",
          "name": "owner",
          "type": "address"
        }
      ],
      "name": "tokensOfOwner",
      "outputs": [
        {
          "internalType": "uint256[]",
          "name": "",
          "type": "uint256[]"
        }
      ],
      "stateMutability": "view",
      "type": "function"
    },
    {
      "inputs": [
        {
          "internalType": "address",
          "name": "from",
          "type": "address"
        },
        {
          "internalType": "address",
          "name": "to",
          "type": "address"
        },
        {
          "internalType": "uint256",
          "name": "tokenId",
          "type": "uint256"
        }
      ],
      "name": "transferFrom",
      "outputs": [],
      "stateMutability": "nonpayable",
      "type": "function"
    },
    {
      "inputs": [
        {
          "internalType": "address",
          "name": "newOwner",
          "type": "address"
        }
      ],
      "name": "transferOwnership",
      "outputs": [],
      "stateMutability": "nonpayable",
      "type": "function"
    },
    {
      "inputs": [
        {
          "internalType": "uint256",
          "name": "tokenId",
          "type": "uint256"
        },
        {
          "internalType": "string",
          "name": "newTokenURI",
          "type": "string"
        }
      ],
      "name": "updateMetadataURI",
      "outputs": [],
      "stateMutability": "nonpayable",
      "type": "function"
    },
    {
      "inputs": [
        {
          "internalType": "uint256",
          "name": "",
          "type": "uint256"
        },
        {
          "internalType": "uint256",
          "name": "",
          "type": "uint256"
        }
      ],
      "name": "userOffers",
      "outputs": [
        {
          "internalType": "bool",
          "name": "exists",
          "type": "bool"
        },
        {
          "internalType": "uint256",
          "name": "tokenId",
          "type": "uint256"
        },
        {
          "internalType": "address",
          "name": "buyer",
          "type": "address"
        },
        {
          "internalType": "uint256",
          "name": "price",
          "type": "uint256"
        }
      ],
      "stateMutability": "view",
      "type": "function"
    },
    {
      "inputs": [],
      "name": "withdraw",
      "outputs": [],
      "stateMutability": "nonpayable",
      "type": "function"
    }
  ],
  "bytecode": "0x60806040523480156200001157600080fd5b506040518060400160405280600f81526020017f4e4654204d61726b6574706c61636500000000000000000000000000000000008152506040518060400160405280600481526020017f4e46544d00000000000000000000000000000000000000000000000000000000815250816000908051906020019062000096929190620001ae565b508060019080519060200190620000af929190620001ae565b505050620000d2620000c6620000e060201b60201c565b620000e860201b60201c565b6019600981905550620002c3565b600033905090565b6000600660009054906101000a900473ffffffffffffffffffffffffffffffffffffffff16905081600660006101000a81548173ffffffffffffffffffffffffffffffffffffffff021916908373ffffffffffffffffffffffffffffffffffffffff1602179055508173ffffffffffffffffffffffffffffffffffffffff168173ffffffffffffffffffffffffffffffffffffffff167f8be0079c531659141344cd1fd0a4f28419497f9722a3daafe3b4186f6b6457e060405160405180910390a35050565b828054620001bc906200028d565b90600052602060002090601f016020900481019282620001e057600085556200022c565b82601f10620001fb57805160ff19168380011785556200022c565b828001600101855582156200022c579182015b828111156200022b5782518255916020019190600101906200020e565b5b5090506200023b91906200023f565b5090565b5b808211156200025a57600081600090555060010162000240565b5090565b7f4e487b7100000000000000000000000000000000000000000000000000000000600052602260045260246000fd5b60006002820490506001821680620002a657607f821691505b60208210811415620002bd57620002bc6200025e565b5b50919050565b61623a80620002d36000396000f3fe6080604052600436106102255760003560e01c80639979ef4511610123578063cfe8f487116100ab578063e5dc957f1161006f578063e5dc957f14610826578063e985e9c514610842578063ebbe7b7d1461087f578063f2fde38b146108a8578063f3f43703146108d157610225565b8063cfe8f48714610714578063d531fe2b14610751578063d712c4f214610791578063e3b14757146107ba578063e4cd1d9f146107fb57610225565b8063a86a7a70116100f2578063a86a7a7014610629578063aaad2eab14610669578063ac0eeed514610692578063b88d4fde146106ae578063c87b56dd146106d757610225565b80639979ef45146105925780639f9e9dad146105ae578063a1c3b801146105d7578063a22cb4651461060057610225565b806342842e0e116101b1578063755f519611610175578063755f5196146104c15780638da5cb5b146104ea5780638fe86b3f1461051557806394383f141461053e57806395d89b411461056757610225565b806342842e0e146103de5780636352211e146104075780636cf9cb7b1461044457806370a082311461046d578063715018a6146104aa57610225565b806308598df0116101f857806308598df0146102f8578063095ea7b31461033557806323b872dd1461035e5780633ccfd60b146103875780633ffef5b31461039e57610225565b80630121683f1461022a57806301ffc9a71461025357806306fdde0314610290578063081812fc146102bb575b600080fd5b34801561023657600080fd5b50610251600480360381019061024c9190614333565b61090e565b005b34801561025f57600080fd5b5061027a600480360381019061027591906143cb565b610a89565b6040516102879190614413565b60405180910390f35b34801561029c57600080fd5b506102a5610b6b565b6040516102b291906144c7565b60405180910390f35b3480156102c757600080fd5b506102e260048036038101906102dd91906144e9565b610bfd565b6040516102ef9190614557565b60405180910390f35b34801561030457600080fd5b5061031f600480360381019061031a91906146d3565b610c43565b60405161032c9190614751565b60405180910390f35b34801561034157600080fd5b5061035c6004803603810190610357919061476c565b610c9c565b005b34801561036a57600080fd5b50610385600480360381019061038091906147ac565b610db4565b005b34801561039357600080fd5b5061039c610e14565b005b3480156103aa57600080fd5b506103c560048036038101906103c09190614333565b610fa5565b6040516103d594939291906147ff565b60405180910390f35b3480156103ea57600080fd5b50610405600480360381019061040091906147ac565b61101f565b005b34801561041357600080fd5b5061042e600480360381019061042991906144e9565b61103f565b60405161043b9190614557565b60405180910390f35b34801561045057600080fd5b5061046b600480360381019061046691906149cf565b6110c6565b005b34801561047957600080fd5b50610494600480360381019061048f9190614a5a565b611477565b6040516104a19190614751565b60405180910390f35b3480156104b657600080fd5b506104bf61152f565b005b3480156104cd57600080fd5b506104e860048036038101906104e39190614333565b611543565b005b3480156104f657600080fd5b506104ff61179a565b60405161050c9190614557565b60405180910390f35b34801561052157600080fd5b5061053c60048036038101906105379190614a87565b6117c4565b005b34801561054a57600080fd5b5061056560048036038101906105609190614333565b611822565b005b34801561057357600080fd5b5061057c6119e1565b60405161058991906144c7565b60405180910390f35b6105ac60048036038101906105a791906144e9565b611a73565b005b3480156105ba57600080fd5b506105d560048036038101906105d09190614ae3565b611cd7565b005b3480156105e357600080fd5b506105fe60048036038101906105f99190614333565b61223d565b005b34801561060c57600080fd5b5061062760048036038101906106229190614bae565b6123fe565b005b34801561063557600080fd5b50610650600480360381019061064b91906144e9565b612414565b60405161066094939291906147ff565b60405180910390f35b34801561067557600080fd5b50610690600480360381019061068b91906144e9565b612471565b005b6106ac60048036038101906106a791906144e9565b612599565b005b3480156106ba57600080fd5b506106d560048036038101906106d09190614c8f565b6126a9565b005b3480156106e357600080fd5b506106fe60048036038101906106f991906144e9565b61270b565b60405161070b91906144c7565b60405180910390f35b34801561072057600080fd5b5061073b60048036038101906107369190614d12565b61271d565b6040516107489190614e10565b60405180910390f35b34801561075d57600080fd5b50610778600480360381019061077391906144e9565b61284d565b60405161078894939291906147ff565b60405180910390f35b34801561079d57600080fd5b506107b860048036038101906107b391906144e9565b6128aa565b005b3480156107c657600080fd5b506107e160048036038101906107dc91906144e9565b612945565b6040516107f2959493929190614e32565b60405180910390f35b34801561080757600080fd5b506108106129a8565b60405161081d9190614751565b60405180910390f35b610840600480360381019061083b91906149cf565b6129ae565b005b34801561084e57600080fd5b5061086960048036038101906108649190614d12565b612d64565b6040516108769190614413565b60405180910390f35b34801561088b57600080fd5b506108a660048036038101906108a19190614333565b612df8565b005b3480156108b457600080fd5b506108cf60048036038101906108ca9190614a5a565b613105565b005b3480156108dd57600080fd5b506108f860048036038101906108f39190614a5a565b613189565b6040516109059190614751565b60405180910390f35b61091f6109196131a1565b836131a9565b61095e576040517f08c379a000000000000000000000000000000000000000000000000000000000815260040161095590614ed1565b60405180910390fd5b6000814261096c9190614f20565b90506040518060a00160405280600115158152602001848152602001600073ffffffffffffffffffffffffffffffffffffffff1681526020016000815260200182815250600b600085815260200190815260200160002060008201518160000160006101000a81548160ff0219169083151502179055506020820151816001015560408201518160020160006101000a81548173ffffffffffffffffffffffffffffffffffffffff021916908373ffffffffffffffffffffffffffffffffffffffff16021790555060608201518160030155608082015181600401559050507fe00a2da3a0f34a566402a244ab7ec63f8ab7472591cb18edf3269aa00461a4108382604051610a7c929190614f76565b60405180910390a1505050565b60007f80ac58cd000000000000000000000000000000000000000000000000000000007bffffffffffffffffffffffffffffffffffffffffffffffffffffffff1916827bffffffffffffffffffffffffffffffffffffffffffffffffffffffff19161480610b5457507f5b5e139f000000000000000000000000000000000000000000000000000000007bffffffffffffffffffffffffffffffffffffffffffffffffffffffff1916827bffffffffffffffffffffffffffffffffffffffffffffffffffffffff1916145b80610b645750610b638261323e565b5b9050919050565b606060008054610b7a90614fce565b80601f0160208091040260200160405190810160405280929190818152602001828054610ba690614fce565b8015610bf35780601f10610bc857610100808354040283529160200191610bf3565b820191906000526020600020905b815481529060010190602001808311610bd657829003601f168201915b5050505050905090565b6000610c08826132a8565b6004600083815260200190815260200160002060009054906101000a900473ffffffffffffffffffffffffffffffffffffffff169050919050565b6000610c4f84836132f3565b610c598284613511565b7f3a5398bda6f1f57d6c96834fa9bf02b5517bdc847d14312015a917ba421c31c98285604051610c8a929190615000565b60405180910390a18190509392505050565b6000610ca78261103f565b90508073ffffffffffffffffffffffffffffffffffffffff168373ffffffffffffffffffffffffffffffffffffffff161415610d18576040517f08c379a0000000000000000000000000000000000000000000000000000000008152600401610d0f9061509b565b60405180910390fd5b8073ffffffffffffffffffffffffffffffffffffffff16610d376131a1565b73ffffffffffffffffffffffffffffffffffffffff161480610d665750610d6581610d606131a1565b612d64565b5b610da5576040517f08c379a0000000000000000000000000000000000000000000000000000000008152600401610d9c9061512d565b60405180910390fd5b610daf8383613585565b505050565b610dc5610dbf6131a1565b826131a9565b610e04576040517f08c379a0000000000000000000000000000000000000000000000000000000008152600401610dfb906151bf565b60405180910390fd5b610e0f83838361363e565b505050565b6000600c6000610e226131a1565b73ffffffffffffffffffffffffffffffffffffffff1673ffffffffffffffffffffffffffffffffffffffff16815260200190815260200160002054905060008111610ea2576040517f08c379a0000000000000000000000000000000000000000000000000000000008152600401610e999061522b565b60405180910390fd5b6000600c6000610eb06131a1565b73ffffffffffffffffffffffffffffffffffffffff1673ffffffffffffffffffffffffffffffffffffffff168152602001908152602001600020819055506000610ef86131a1565b73ffffffffffffffffffffffffffffffffffffffff1682604051610f1b9061527c565b60006040518083038185875af1925050503d8060008114610f58576040519150601f19603f3d011682016040523d82523d6000602084013e610f5d565b606091505b5050905080610fa1576040517f08c379a0000000000000000000000000000000000000000000000000000000008152600401610f98906152dd565b60405180910390fd5b5050565b600e6020528160005260406000208181548110610fc157600080fd5b9060005260206000209060040201600091509150508060000160009054906101000a900460ff16908060010154908060020160009054906101000a900473ffffffffffffffffffffffffffffffffffffffff16908060030154905084565b61103a838383604051806020016040528060008152506126a9565b505050565b60008061104b83613938565b9050600073ffffffffffffffffffffffffffffffffffffffff168173ffffffffffffffffffffffffffffffffffffffff1614156110bd576040517f08c379a00000000000000000000000000000000000000000000000000000000081526004016110b490615349565b60405180910390fd5b80915050919050565b6000600b600085815260200190815260200160002090508060000160009054906101000a900460ff1661112e576040517f08c379a0000000000000000000000000000000000000000000000000000000008152600401611125906153b5565b60405180910390fd5b8060040154421015611175576040517f08c379a000000000000000000000000000000000000000000000000000000000815260040161116c90615421565b60405180910390fd5b6000808451905060005b8181116112b957600086828151811061119b5761119a615441565b5b6020026020010151905060008683815181106111ba576111b9615441565b5b60200260200101519050600081101580156111d6575060648111155b611215576040517f08c379a000000000000000000000000000000000000000000000000000000000815260040161120c906154e2565b60405180910390fd5b60008111156112a457600060648288600301546112329190615502565b61123c919061558b565b9050808661124a9190614f20565b955080600c60008573ffffffffffffffffffffffffffffffffffffffff1673ffffffffffffffffffffffffffffffffffffffff168152602001908152602001600020600082825461129b9190614f20565b92505081905550505b505080806112b1906155bc565b91505061117f565b5060006103e860095485600301546112d19190615502565b6112db919061558b565b90506000818486600301546112f09190615605565b6112fa9190615605565b905080600c60006113096131a1565b73ffffffffffffffffffffffffffffffffffffffff1673ffffffffffffffffffffffffffffffffffffffff16815260200190815260200160002060008282546113529190614f20565b9250508190555081600c600061136661179a565b73ffffffffffffffffffffffffffffffffffffffff1673ffffffffffffffffffffffffffffffffffffffff16815260200190815260200160002060008282546113af9190614f20565b925050819055506113ed6113c28961103f565b8660020160009054906101000a900473ffffffffffffffffffffffffffffffffffffffff168a61363e565b60008560000160006101000a81548160ff0219169083151502179055507fd2aa34a4fdbbc6dff6a3e56f46e0f3ae2a31d7785ff3487aa5c95c642acea501888660020160009054906101000a900473ffffffffffffffffffffffffffffffffffffffff16876003015460405161146593929190615639565b60405180910390a15050505050505050565b60008073ffffffffffffffffffffffffffffffffffffffff168273ffffffffffffffffffffffffffffffffffffffff1614156114e8576040517f08c379a00000000000000000000000000000000000000000000000000000000081526004016114df906156e2565b60405180910390fd5b600360008373ffffffffffffffffffffffffffffffffffffffff1673ffffffffffffffffffffffffffffffffffffffff168152602001908152602001600020549050919050565b611537613975565b61154160006139f3565b565b60008111611586576040517f08c379a000000000000000000000000000000000000000000000000000000000815260040161157d9061574e565b60405180910390fd5b600060405180608001604052806001151581526020018481526020016115aa6131a1565b73ffffffffffffffffffffffffffffffffffffffff168152602001838152509050600e600084815260200190815260200160002081908060018154018082558091505060019003906000526020600020906004020160009091909190915060008201518160000160006101000a81548160ff0219169083151502179055506020820151816001015560408201518160020160006101000a81548173ffffffffffffffffffffffffffffffffffffffff021916908373ffffffffffffffffffffffffffffffffffffffff16021790555060608201518160030155505081600c60006116926131a1565b73ffffffffffffffffffffffffffffffffffffffff1673ffffffffffffffffffffffffffffffffffffffff16815260200190815260200160002060008282546116db9190615605565b9250508190555081600c60006116ef61179a565b73ffffffffffffffffffffffffffffffffffffffff1673ffffffffffffffffffffffffffffffffffffffff16815260200190815260200160002060008282546117389190614f20565b925050819055506117476131a1565b73ffffffffffffffffffffffffffffffffffffffff16837f621602a81c41f208d6706724f028c3d6f902a344be2f9fc7fb5643d6df5c92cf8460405161178d9190614751565b60405180910390a3505050565b6000600660009054906101000a900473ffffffffffffffffffffffffffffffffffffffff16905090565b6117d56117cf6131a1565b836131a9565b611814576040517f08c379a000000000000000000000000000000000000000000000000000000000815260040161180b90614ed1565b60405180910390fd5b61181e8282613511565b5050565b61183361182d6131a1565b836131a9565b611872576040517f08c379a000000000000000000000000000000000000000000000000000000000815260040161186990614ed1565b60405180910390fd5b600081116118b5576040517f08c379a00000000000000000000000000000000000000000000000000000000081526004016118ac9061574e565b60405180910390fd5b60405180608001604052806001151581526020018381526020016118d76131a1565b73ffffffffffffffffffffffffffffffffffffffff16815260200182815250600a600084815260200190815260200160002060008201518160000160006101000a81548160ff0219169083151502179055506020820151816001015560408201518160020160006101000a81548173ffffffffffffffffffffffffffffffffffffffff021916908373ffffffffffffffffffffffffffffffffffffffff1602179055506060820151816003015590505061198f6131a1565b73ffffffffffffffffffffffffffffffffffffffff16827f5f9c03de076f5063cd3ebcfe8ef7aa8af378e4b35a83c77ba9777e97083879a2836040516119d59190614751565b60405180910390a35050565b6060600180546119f090614fce565b80601f0160208091040260200160405190810160405280929190818152602001828054611a1c90614fce565b8015611a695780601f10611a3e57610100808354040283529160200191611a69565b820191906000526020600020905b815481529060010190602001808311611a4c57829003601f168201915b5050505050905090565b6000600b600083815260200190815260200160002090508060000160009054906101000a900460ff16611adb576040517f08c379a0000000000000000000000000000000000000000000000000000000008152600401611ad2906153b5565b60405180910390fd5b80600401544210611b21576040517f08c379a0000000000000000000000000000000000000000000000000000000008152600401611b18906157ba565b60405180910390fd5b80600301543411611b67576040517f08c379a0000000000000000000000000000000000000000000000000000000008152600401611b5e9061584c565b60405180910390fd5b600073ffffffffffffffffffffffffffffffffffffffff168160020160009054906101000a900473ffffffffffffffffffffffffffffffffffffffff1673ffffffffffffffffffffffffffffffffffffffff1614611c3e578060030154600c60008360020160009054906101000a900473ffffffffffffffffffffffffffffffffffffffff1673ffffffffffffffffffffffffffffffffffffffff1673ffffffffffffffffffffffffffffffffffffffff1681526020019081526020016000206000828254611c369190614f20565b925050819055505b611c466131a1565b8160020160006101000a81548173ffffffffffffffffffffffffffffffffffffffff021916908373ffffffffffffffffffffffffffffffffffffffff1602179055503481600301819055507f0e54eff26401bf69b81b26f60bd85ef47f5d85275c1d268d84f68d6897431c4782611cbb6131a1565b34604051611ccb93929190615639565b60405180910390a15050565b611ce8611ce26131a1565b856131a9565b611d27576040517f08c379a0000000000000000000000000000000000000000000000000000000008152600401611d1e90614ed1565b60405180910390fd5b600e6000858152602001908152602001600020805490508310611d7f576040517f08c379a0000000000000000000000000000000000000000000000000000000008152600401611d76906158b8565b60405180910390fd5b600e60008581526020019081526020016000208381548110611da457611da3615441565b5b906000526020600020906004020160000160009054906101000a900460ff16611e02576040517f08c379a0000000000000000000000000000000000000000000000000000000008152600401611df990615924565b60405180910390fd5b6000600e60008681526020019081526020016000208481548110611e2957611e28615441565b5b90600052602060002090600402016040518060800160405290816000820160009054906101000a900460ff16151515158152602001600182015481526020016002820160009054906101000a900473ffffffffffffffffffffffffffffffffffffffff1673ffffffffffffffffffffffffffffffffffffffff1673ffffffffffffffffffffffffffffffffffffffff1681526020016003820154815250509050600081606001519050600082604001519050600073ffffffffffffffffffffffffffffffffffffffff168173ffffffffffffffffffffffffffffffffffffffff161415611f4b576040517f08c379a0000000000000000000000000000000000000000000000000000000008152600401611f4290615990565b60405180910390fd5b6000600e60008981526020019081526020016000208781548110611f7257611f71615441565b5b906000526020600020906004020160000160006101000a81548160ff0219169083151502179055506000808651905060005b8181116120da576000888281518110611fc057611fbf615441565b5b602002602001015190506000888381518110611fdf57611fde615441565b5b6020026020010151905060008110158015611ffb575060648111155b61203a576040517f08c379a0000000000000000000000000000000000000000000000000000000008152600401612031906154e2565b60405180910390fd5b60008111156120c5576000606482896120539190615502565b61205d919061558b565b9050808661206b9190614f20565b955080600c60008573ffffffffffffffffffffffffffffffffffffffff1673ffffffffffffffffffffffffffffffffffffffff16815260200190815260200160002060008282546120bc9190614f20565b92505081905550505b505080806120d2906155bc565b915050611fa4565b5060006103e8600954866120ee9190615502565b6120f8919061558b565b905060008184876121099190615605565b6121139190615605565b905080600c60006121226131a1565b73ffffffffffffffffffffffffffffffffffffffff1673ffffffffffffffffffffffffffffffffffffffff168152602001908152602001600020600082825461216b9190614f20565b9250508190555081600c600061217f61179a565b73ffffffffffffffffffffffffffffffffffffffff1673ffffffffffffffffffffffffffffffffffffffff16815260200190815260200160002060008282546121c89190614f20565b925050819055506121e16121da6131a1565b868d61363e565b8473ffffffffffffffffffffffffffffffffffffffff168b7f7f584b34848385865b066dc153c88c882a41f1461d349a14181937f86d8b0429886040516122289190614751565b60405180910390a35050505050505050505050565b600e6000838152602001908152602001600020805490508110612295576040517f08c379a000000000000000000000000000000000000000000000000000000000815260040161228c906158b8565b60405180910390fd5b61229d6131a1565b73ffffffffffffffffffffffffffffffffffffffff16600e600084815260200190815260200160002082815481106122d8576122d7615441565b5b906000526020600020906004020160020160009054906101000a900473ffffffffffffffffffffffffffffffffffffffff1673ffffffffffffffffffffffffffffffffffffffff1614612360576040517f08c379a0000000000000000000000000000000000000000000000000000000008152600401612357906159fc565b60405180910390fd5b6000600e6000848152602001908152602001600020828154811061238757612386615441565b5b906000526020600020906004020160000160006101000a81548160ff0219169083151502179055506123b76131a1565b73ffffffffffffffffffffffffffffffffffffffff16827f7c49ef3636762858bc3078610b9cec68df66a78863ef2285cc9ea098530a481560405160405180910390a35050565b6124106124096131a1565b8383613ab9565b5050565b600d6020528060005260406000206000915090508060000160009054906101000a900460ff16908060010154908060020160009054906101000a900473ffffffffffffffffffffffffffffffffffffffff16908060030154905084565b6124796131a1565b73ffffffffffffffffffffffffffffffffffffffff16600a600083815260200190815260200160002060020160009054906101000a900473ffffffffffffffffffffffffffffffffffffffff1673ffffffffffffffffffffffffffffffffffffffff161461251c576040517f08c379a000000000000000000000000000000000000000000000000000000000815260040161251390615a68565b60405180910390fd5b6000600a600083815260200190815260200160002060000160006101000a81548160ff0219169083151502179055506125536131a1565b73ffffffffffffffffffffffffffffffffffffffff16817fb96f3a932e41e36c142d78a86850c1c9a1ba2c62a595e23ea0dfbf876330ea5760405160405180910390a350565b6000600a600083815260200190815260200160002090508060000160009054906101000a900460ff16612601576040517f08c379a00000000000000000000000000000000000000000000000000000000081526004016125f890615ad4565b60405180910390fd5b8060030154341015612648576040517f08c379a000000000000000000000000000000000000000000000000000000000815260040161263f90615b40565b60405180910390fd5b34600c60006126556131a1565b73ffffffffffffffffffffffffffffffffffffffff1673ffffffffffffffffffffffffffffffffffffffff168152602001908152602001600020600082825461269e9190614f20565b925050819055505050565b6126ba6126b46131a1565b836131a9565b6126f9576040517f08c379a00000000000000000000000000000000000000000000000000000000081526004016126f0906151bf565b60405180910390fd5b61270584848484613c26565b50505050565b606061271682613c82565b9050919050565b6060600061272a83611477565b905060008167ffffffffffffffff811115612748576127476145a8565b5b6040519080825280602002602001820160405280156127765781602001602082028036833780820191505090505b50905060005b82811015612841578573ffffffffffffffffffffffffffffffffffffffff16632f745c5986836040518363ffffffff1660e01b81526004016127bf929190615b60565b60206040518083038186803b1580156127d757600080fd5b505afa1580156127eb573d6000803e3d6000fd5b505050506040513d601f19601f8201168201806040525081019061280f9190615b9e565b82828151811061282257612821615441565b5b6020026020010181815250508080612839906155bc565b91505061277c565b50809250505092915050565b600a6020528060005260406000206000915090508060000160009054906101000a900460ff16908060010154908060020160009054906101000a900473ffffffffffffffffffffffffffffffffffffffff16908060030154905084565b6128b2613975565b600081101580156128c557506103e88111155b612904576040517f08c379a00000000000000000000000000000000000000000000000000000000081526004016128fb90615c17565b60405180910390fd5b806009819055507fc52b745517237e6357976bba03e5dc4ff05bfc70c61a1f50294bb5b1059af86e8160405161293a9190614751565b60405180910390a150565b600b6020528060005260406000206000915090508060000160009054906101000a900460ff16908060010154908060020160009054906101000a900473ffffffffffffffffffffffffffffffffffffffff16908060030154908060040154905085565b60095481565b6000600a60008581526020019081526020016000206040518060800160405290816000820160009054906101000a900460ff16151515158152602001600182015481526020016002820160009054906101000a900473ffffffffffffffffffffffffffffffffffffffff1673ffffffffffffffffffffffffffffffffffffffff1673ffffffffffffffffffffffffffffffffffffffff16815260200160038201548152505090508060000151612a99576040517f08c379a0000000000000000000000000000000000000000000000000000000008152600401612a9090615ad4565b60405180910390fd5b8060600151341015612ae0576040517f08c379a0000000000000000000000000000000000000000000000000000000008152600401612ad790615b40565b60405180910390fd5b6000808451905060005b818111612c20576000868281518110612b0657612b05615441565b5b602002602001015190506000868381518110612b2557612b24615441565b5b6020026020010151905060008110158015612b41575060648111155b612b80576040517f08c379a0000000000000000000000000000000000000000000000000000000008152600401612b77906154e2565b60405180910390fd5b6000811115612c0b57600060648234612b999190615502565b612ba3919061558b565b90508086612bb19190614f20565b955080600c60008573ffffffffffffffffffffffffffffffffffffffff1673ffffffffffffffffffffffffffffffffffffffff1681526020019081526020016000206000828254612c029190614f20565b92505081905550505b50508080612c18906155bc565b915050612aea565b5060006103e860095434612c349190615502565b612c3e919061558b565b90506000818434612c4f9190615605565b612c599190615605565b905080600c6000612c686131a1565b73ffffffffffffffffffffffffffffffffffffffff1673ffffffffffffffffffffffffffffffffffffffff1681526020019081526020016000206000828254612cb19190614f20565b9250508190555081600c6000612cc561179a565b73ffffffffffffffffffffffffffffffffffffffff1673ffffffffffffffffffffffffffffffffffffffff1681526020019081526020016000206000828254612d0e9190614f20565b92505081905550612d2b8560400151612d256131a1565b8a61363e565b6000600a60008a815260200190815260200160002060000160006101000a81548160ff0219169083151502179055505050505050505050565b6000600560008473ffffffffffffffffffffffffffffffffffffffff1673ffffffffffffffffffffffffffffffffffffffff16815260200190815260200160002060008373ffffffffffffffffffffffffffffffffffffffff1673ffffffffffffffffffffffffffffffffffffffff16815260200190815260200160002060009054906101000a900460ff16905092915050565b612e09612e036131a1565b836131a9565b612e48576040517f08c379a0000000000000000000000000000000000000000000000000000000008152600401612e3f90614ed1565b60405180910390fd5b600e6000838152602001908152602001600020805490508110612ea0576040517f08c379a0000000000000000000000000000000000000000000000000000000008152600401612e97906158b8565b60405180910390fd5b600e60008381526020019081526020016000208181548110612ec557612ec4615441565b5b906000526020600020906004020160000160009054906101000a900460ff16612f23576040517f08c379a0000000000000000000000000000000000000000000000000000000008152600401612f1a90615924565b60405180910390fd5b6000600e60008481526020019081526020016000208281548110612f4a57612f49615441565b5b906000526020600020906004020160020160009054906101000a900473ffffffffffffffffffffffffffffffffffffffff1690506000600e60008581526020019081526020016000208381548110612fa557612fa4615441565b5b90600052602060002090600402016003015490506000600e60008681526020019081526020016000208481548110612fe057612fdf615441565b5b906000526020600020906004020160000160006101000a81548160ff02191690831515021790555080600c60008473ffffffffffffffffffffffffffffffffffffffff1673ffffffffffffffffffffffffffffffffffffffff16815260200190815260200160002060008282546130579190614f20565b9250508190555080600c600061306b61179a565b73ffffffffffffffffffffffffffffffffffffffff1673ffffffffffffffffffffffffffffffffffffffff16815260200190815260200160002060008282546130b49190615605565b925050819055508173ffffffffffffffffffffffffffffffffffffffff16847f2d9d00a807c2aff5d665db4d08836cdcefcafb265b17c460c5fcc6e40a7dd32c60405160405180910390a350505050565b61310d613975565b600073ffffffffffffffffffffffffffffffffffffffff168173ffffffffffffffffffffffffffffffffffffffff16141561317d576040517f08c379a000000000000000000000000000000000000000000000000000000000815260040161317490615ca9565b60405180910390fd5b613186816139f3565b50565b600c6020528060005260406000206000915090505481565b600033905090565b6000806131b58361103f565b90508073ffffffffffffffffffffffffffffffffffffffff168473ffffffffffffffffffffffffffffffffffffffff1614806131f757506131f68185612d64565b5b8061323557508373ffffffffffffffffffffffffffffffffffffffff1661321d84610bfd565b73ffffffffffffffffffffffffffffffffffffffff16145b91505092915050565b60007f01ffc9a7000000000000000000000000000000000000000000000000000000007bffffffffffffffffffffffffffffffffffffffffffffffffffffffff1916827bffffffffffffffffffffffffffffffffffffffffffffffffffffffff1916149050919050565b6132b181613d95565b6132f0576040517f08c379a00000000000000000000000000000000000000000000000000000000081526004016132e790615349565b60405180910390fd5b50565b600073ffffffffffffffffffffffffffffffffffffffff168273ffffffffffffffffffffffffffffffffffffffff161415613363576040517f08c379a000000000000000000000000000000000000000000000000000000000815260040161335a90615d15565b60405180910390fd5b61336c81613d95565b156133ac576040517f08c379a00000000000000000000000000000000000000000000000000000000081526004016133a390615d81565b60405180910390fd5b6133ba600083836001613dd6565b6133c381613d95565b15613403576040517f08c379a00000000000000000000000000000000000000000000000000000000081526004016133fa90615d81565b60405180910390fd5b6001600360008473ffffffffffffffffffffffffffffffffffffffff1673ffffffffffffffffffffffffffffffffffffffff16815260200190815260200160002060008282540192505081905550816002600083815260200190815260200160002060006101000a81548173ffffffffffffffffffffffffffffffffffffffff021916908373ffffffffffffffffffffffffffffffffffffffff160217905550808273ffffffffffffffffffffffffffffffffffffffff16600073ffffffffffffffffffffffffffffffffffffffff167fddf252ad1be2c89b69c2b068fc378daa952ba7f163c4a11628f55a4df523b3ef60405160405180910390a461350d600083836001613ddc565b5050565b61351a82613d95565b613559576040517f08c379a000000000000000000000000000000000000000000000000000000000815260040161355090615e13565b60405180910390fd5b80600760008481526020019081526020016000209080519060200190613580929190614246565b505050565b816004600083815260200190815260200160002060006101000a81548173ffffffffffffffffffffffffffffffffffffffff021916908373ffffffffffffffffffffffffffffffffffffffff160217905550808273ffffffffffffffffffffffffffffffffffffffff166135f88361103f565b73ffffffffffffffffffffffffffffffffffffffff167f8c5be1e5ebec7d5bd14f71427d1e84f3dd0314c0f7b2291e5b200ac8c7c3b92560405160405180910390a45050565b8273ffffffffffffffffffffffffffffffffffffffff1661365e8261103f565b73ffffffffffffffffffffffffffffffffffffffff16146136b4576040517f08c379a00000000000000000000000000000000000000000000000000000000081526004016136ab90615ea5565b60405180910390fd5b600073ffffffffffffffffffffffffffffffffffffffff168273ffffffffffffffffffffffffffffffffffffffff161415613724576040517f08c379a000000000000000000000000000000000000000000000000000000000815260040161371b90615f37565b60405180910390fd5b6137318383836001613dd6565b8273ffffffffffffffffffffffffffffffffffffffff166137518261103f565b73ffffffffffffffffffffffffffffffffffffffff16146137a7576040517f08c379a000000000000000000000000000000000000000000000000000000000815260040161379e90615ea5565b60405180910390fd5b6004600082815260200190815260200160002060006101000a81549073ffffffffffffffffffffffffffffffffffffffff02191690556001600360008573ffffffffffffffffffffffffffffffffffffffff1673ffffffffffffffffffffffffffffffffffffffff168152602001908152602001600020600082825403925050819055506001600360008473ffffffffffffffffffffffffffffffffffffffff1673ffffffffffffffffffffffffffffffffffffffff16815260200190815260200160002060008282540192505081905550816002600083815260200190815260200160002060006101000a81548173ffffffffffffffffffffffffffffffffffffffff021916908373ffffffffffffffffffffffffffffffffffffffff160217905550808273ffffffffffffffffffffffffffffffffffffffff168473ffffffffffffffffffffffffffffffffffffffff167fddf252ad1be2c89b69c2b068fc378daa952ba7f163c4a11628f55a4df523b3ef60405160405180910390a46139338383836001613ddc565b505050565b60006002600083815260200190815260200160002060009054906101000a900473ffffffffffffffffffffffffffffffffffffffff169050919050565b61397d6131a1565b73ffffffffffffffffffffffffffffffffffffffff1661399b61179a565b73ffffffffffffffffffffffffffffffffffffffff16146139f1576040517f08c379a00000000000000000000000000000000000000000000000000000000081526004016139e890615fa3565b60405180910390fd5b565b6000600660009054906101000a900473ffffffffffffffffffffffffffffffffffffffff16905081600660006101000a81548173ffffffffffffffffffffffffffffffffffffffff021916908373ffffffffffffffffffffffffffffffffffffffff1602179055508173ffffffffffffffffffffffffffffffffffffffff168173ffffffffffffffffffffffffffffffffffffffff167f8be0079c531659141344cd1fd0a4f28419497f9722a3daafe3b4186f6b6457e060405160405180910390a35050565b8173ffffffffffffffffffffffffffffffffffffffff168373ffffffffffffffffffffffffffffffffffffffff161415613b28576040517f08c379a0000000000000000000000000000000000000000000000000000000008152600401613b1f9061600f565b60405180910390fd5b80600560008573ffffffffffffffffffffffffffffffffffffffff1673ffffffffffffffffffffffffffffffffffffffff16815260200190815260200160002060008473ffffffffffffffffffffffffffffffffffffffff1673ffffffffffffffffffffffffffffffffffffffff16815260200190815260200160002060006101000a81548160ff0219169083151502179055508173ffffffffffffffffffffffffffffffffffffffff168373ffffffffffffffffffffffffffffffffffffffff167f17307eab39ab6107e8899845ad3d59bd9653f200f220920489ca2b5937696c3183604051613c199190614413565b60405180910390a3505050565b613c3184848461363e565b613c3d84848484613de2565b613c7c576040517f08c379a0000000000000000000000000000000000000000000000000000000008152600401613c73906160a1565b60405180910390fd5b50505050565b6060613c8d826132a8565b6000600760008481526020019081526020016000208054613cad90614fce565b80601f0160208091040260200160405190810160405280929190818152602001828054613cd990614fce565b8015613d265780601f10613cfb57610100808354040283529160200191613d26565b820191906000526020600020905b815481529060010190602001808311613d0957829003601f168201915b505050505090506000613d37613f79565b9050600081511415613d4d578192505050613d90565b600082511115613d82578082604051602001613d6a9291906160fd565b60405160208183030381529060405292505050613d90565b613d8b84613f90565b925050505b919050565b60008073ffffffffffffffffffffffffffffffffffffffff16613db783613938565b73ffffffffffffffffffffffffffffffffffffffff1614159050919050565b50505050565b50505050565b6000613e038473ffffffffffffffffffffffffffffffffffffffff16613ff8565b15613f6c578373ffffffffffffffffffffffffffffffffffffffff1663150b7a02613e2c6131a1565b8786866040518563ffffffff1660e01b8152600401613e4e9493929190616176565b602060405180830381600087803b158015613e6857600080fd5b505af1925050508015613e9957506040513d601f19601f82011682018060405250810190613e9691906161d7565b60015b613f1c573d8060008114613ec9576040519150601f19603f3d011682016040523d82523d6000602084013e613ece565b606091505b50600081511415613f14576040517f08c379a0000000000000000000000000000000000000000000000000000000008152600401613f0b906160a1565b60405180910390fd5b805181602001fd5b63150b7a0260e01b7bffffffffffffffffffffffffffffffffffffffffffffffffffffffff1916817bffffffffffffffffffffffffffffffffffffffffffffffffffffffff191614915050613f71565b600190505b949350505050565b606060405180602001604052806000815250905090565b6060613f9b826132a8565b6000613fa5613f79565b90506000815111613fc55760405180602001604052806000815250613ff0565b80613fcf8461401b565b604051602001613fe09291906160fd565b6040516020818303038152906040525b915050919050565b6000808273ffffffffffffffffffffffffffffffffffffffff163b119050919050565b60606000600161402a846140f3565b01905060008167ffffffffffffffff811115614049576140486145a8565b5b6040519080825280601f01601f19166020018201604052801561407b5781602001600182028036833780820191505090505b509050600082602001820190505b6001156140e8578080600190039150507f3031323334353637383961626364656600000000000000000000000000000000600a86061a8153600a85816140d2576140d161555c565b5b04945060008514156140e3576140e8565b614089565b819350505050919050565b600080600090507a184f03e93ff9f4daa797ed6e38ed64bf6a1f0100000000000000008310614151577a184f03e93ff9f4daa797ed6e38ed64bf6a1f01000000000000000083816141475761414661555c565b5b0492506040810190505b6d04ee2d6d415b85acef8100000000831061418e576d04ee2d6d415b85acef810000000083816141845761418361555c565b5b0492506020810190505b662386f26fc1000083106141bd57662386f26fc1000083816141b3576141b261555c565b5b0492506010810190505b6305f5e10083106141e6576305f5e10083816141dc576141db61555c565b5b0492506008810190505b612710831061420b5761271083816142015761420061555c565b5b0492506004810190505b6064831061422e57606483816142245761422361555c565b5b0492506002810190505b600a831061423d576001810190505b80915050919050565b82805461425290614fce565b90600052602060002090601f01602090048101928261427457600085556142bb565b82601f1061428d57805160ff19168380011785556142bb565b828001600101855582156142bb579182015b828111156142ba57825182559160200191906001019061429f565b5b5090506142c891906142cc565b5090565b5b808211156142e55760008160009055506001016142cd565b5090565b6000604051905090565b600080fd5b600080fd5b6000819050919050565b614310816142fd565b811461431b57600080fd5b50565b60008135905061432d81614307565b92915050565b6000806040838503121561434a576143496142f3565b5b60006143588582860161431e565b92505060206143698582860161431e565b9150509250929050565b60007fffffffff0000000000000000000000000000000000000000000000000000000082169050919050565b6143a881614373565b81146143b357600080fd5b50565b6000813590506143c58161439f565b92915050565b6000602082840312156143e1576143e06142f3565b5b60006143ef848285016143b6565b91505092915050565b60008115159050919050565b61440d816143f8565b82525050565b60006020820190506144286000830184614404565b92915050565b600081519050919050565b600082825260208201905092915050565b60005b8381101561446857808201518184015260208101905061444d565b83811115614477576000848401525b50505050565b6000601f19601f8301169050919050565b60006144998261442e565b6144a38185614439565b93506144b381856020860161444a565b6144bc8161447d565b840191505092915050565b600060208201905081810360008301526144e1818461448e565b905092915050565b6000602082840312156144ff576144fe6142f3565b5b600061450d8482850161431e565b91505092915050565b600073ffffffffffffffffffffffffffffffffffffffff82169050919050565b600061454182614516565b9050919050565b61455181614536565b82525050565b600060208201905061456c6000830184614548565b92915050565b61457b81614536565b811461458657600080fd5b50565b60008135905061459881614572565b92915050565b600080fd5b600080fd5b7f4e487b7100000000000000000000000000000000000000000000000000000000600052604160045260246000fd5b6145e08261447d565b810181811067ffffffffffffffff821117156145ff576145fe6145a8565b5b80604052505050565b60006146126142e9565b905061461e82826145d7565b919050565b600067ffffffffffffffff82111561463e5761463d6145a8565b5b6146478261447d565b9050602081019050919050565b82818337600083830152505050565b600061467661467184614623565b614608565b905082815260208101848484011115614692576146916145a3565b5b61469d848285614654565b509392505050565b600082601f8301126146ba576146b961459e565b5b81356146ca848260208601614663565b91505092915050565b6000806000606084860312156146ec576146eb6142f3565b5b60006146fa86828701614589565b935050602084013567ffffffffffffffff81111561471b5761471a6142f8565b5b614727868287016146a5565b92505060406147388682870161431e565b9150509250925092565b61474b816142fd565b82525050565b60006020820190506147666000830184614742565b92915050565b60008060408385031215614783576147826142f3565b5b600061479185828601614589565b92505060206147a28582860161431e565b9150509250929050565b6000806000606084860312156147c5576147c46142f3565b5b60006147d386828701614589565b93505060206147e486828701614589565b92505060406147f58682870161431e565b9150509250925092565b60006080820190506148146000830187614404565b6148216020830186614742565b61482e6040830185614548565b61483b6060830184614742565b95945050505050565b600067ffffffffffffffff82111561485f5761485e6145a8565b5b602082029050602081019050919050565b600080fd5b600061488861488384614844565b614608565b905080838252602082019050602084028301858111156148ab576148aa614870565b5b835b818110156148d457806148c08882614589565b8452602084019350506020810190506148ad565b5050509392505050565b600082601f8301126148f3576148f261459e565b5b8135614903848260208601614875565b91505092915050565b600067ffffffffffffffff821115614927576149266145a8565b5b602082029050602081019050919050565b600061494b6149468461490c565b614608565b9050808382526020820190506020840283018581111561496e5761496d614870565b5b835b818110156149975780614983888261431e565b845260208401935050602081019050614970565b5050509392505050565b600082601f8301126149b6576149b561459e565b5b81356149c6848260208601614938565b91505092915050565b6000806000606084860312156149e8576149e76142f3565b5b60006149f68682870161431e565b935050602084013567ffffffffffffffff811115614a1757614a166142f8565b5b614a23868287016148de565b925050604084013567ffffffffffffffff811115614a4457614a436142f8565b5b614a50868287016149a1565b9150509250925092565b600060208284031215614a7057614a6f6142f3565b5b6000614a7e84828501614589565b91505092915050565b60008060408385031215614a9e57614a9d6142f3565b5b6000614aac8582860161431e565b925050602083013567ffffffffffffffff811115614acd57614acc6142f8565b5b614ad9858286016146a5565b9150509250929050565b60008060008060808587031215614afd57614afc6142f3565b5b6000614b0b8782880161431e565b9450506020614b1c8782880161431e565b935050604085013567ffffffffffffffff811115614b3d57614b3c6142f8565b5b614b49878288016148de565b925050606085013567ffffffffffffffff811115614b6a57614b696142f8565b5b614b76878288016149a1565b91505092959194509250565b614b8b816143f8565b8114614b9657600080fd5b50565b600081359050614ba881614b82565b92915050565b60008060408385031215614bc557614bc46142f3565b5b6000614bd385828601614589565b9250506020614be485828601614b99565b9150509250929050565b600067ffffffffffffffff821115614c0957614c086145a8565b5b614c128261447d565b9050602081019050919050565b6000614c32614c2d84614bee565b614608565b905082815260208101848484011115614c4e57614c4d6145a3565b5b614c59848285614654565b509392505050565b600082601f830112614c7657614c7561459e565b5b8135614c86848260208601614c1f565b91505092915050565b60008060008060808587031215614ca957614ca86142f3565b5b6000614cb787828801614589565b9450506020614cc887828801614589565b9350506040614cd98782880161431e565b925050606085013567ffffffffffffffff811115614cfa57614cf96142f8565b5b614d0687828801614c61565b91505092959194509250565b60008060408385031215614d2957614d286142f3565b5b6000614d3785828601614589565b9250506020614d4885828601614589565b9150509250929050565b600081519050919050565b600082825260208201905092915050565b6000819050602082019050919050565b614d87816142fd565b82525050565b6000614d998383614d7e565b60208301905092915050565b6000602082019050919050565b6000614dbd82614d52565b614dc78185614d5d565b9350614dd283614d6e565b8060005b83811015614e03578151614dea8882614d8d565b9750614df583614da5565b925050600181019050614dd6565b5085935050505092915050565b60006020820190508181036000830152614e2a8184614db2565b905092915050565b600060a082019050614e476000830188614404565b614e546020830187614742565b614e616040830186614548565b614e6e6060830185614742565b614e7b6080830184614742565b9695505050505050565b7f4e6f7420617070726f766564206f72206f776e65720000000000000000000000600082015250565b6000614ebb601583614439565b9150614ec682614e85565b602082019050919050565b60006020820190508181036000830152614eea81614eae565b9050919050565b7f4e487b7100000000000000000000000000000000000000000000000000000000600052601160045260246000fd5b6000614f2b826142fd565b9150614f36836142fd565b9250827fffffffffffffffffffffffffffffffffffffffffffffffffffffffffffffffff03821115614f6b57614f6a614ef1565b5b828201905092915050565b6000604082019050614f8b6000830185614742565b614f986020830184614742565b9392505050565b7f4e487b7100000000000000000000000000000000000000000000000000000000600052602260045260246000fd5b60006002820490506001821680614fe657607f821691505b60208210811415614ffa57614ff9614f9f565b5b50919050565b60006040820190506150156000830185614742565b6150226020830184614548565b9392505050565b7f4552433732313a20617070726f76616c20746f2063757272656e74206f776e6560008201527f7200000000000000000000000000000000000000000000000000000000000000602082015250565b6000615085602183614439565b915061509082615029565b604082019050919050565b600060208201905081810360008301526150b481615078565b9050919050565b7f4552433732313a20617070726f76652063616c6c6572206973206e6f7420746f60008201527f6b656e206f776e6572206f7220617070726f76656420666f7220616c6c000000602082015250565b6000615117603d83614439565b9150615122826150bb565b604082019050919050565b600060208201905081810360008301526151468161510a565b9050919050565b7f4552433732313a2063616c6c6572206973206e6f7420746f6b656e206f776e6560008201527f72206f7220617070726f76656400000000000000000000000000000000000000602082015250565b60006151a9602d83614439565b91506151b48261514d565b604082019050919050565b600060208201905081810360008301526151d88161519c565b9050919050565b7f4e6f2066756e647320746f207769746864726177000000000000000000000000600082015250565b6000615215601483614439565b9150615220826151df565b602082019050919050565b6000602082019050818103600083015261524481615208565b9050919050565b600081905092915050565b50565b600061526660008361524b565b915061527182615256565b600082019050919050565b600061528782615259565b9150819050919050565b7f5769746864726177616c206661696c6564000000000000000000000000000000600082015250565b60006152c7601183614439565b91506152d282615291565b602082019050919050565b600060208201905081810360008301526152f6816152ba565b9050919050565b7f4552433732313a20696e76616c696420746f6b656e2049440000000000000000600082015250565b6000615333601883614439565b915061533e826152fd565b602082019050919050565b6000602082019050818103600083015261536281615326565b9050919050565b7f41756374696f6e206e6f74206163746976650000000000000000000000000000600082015250565b600061539f601283614439565b91506153aa82615369565b602082019050919050565b600060208201905081810360008301526153ce81615392565b9050919050565b7f41756374696f6e20686173206e6f7420656e6465642079657400000000000000600082015250565b600061540b601983614439565b9150615416826153d5565b602082019050919050565b6000602082019050818103600083015261543a816153fe565b9050919050565b7f4e487b7100000000000000000000000000000000000000000000000000000000600052603260045260246000fd5b7f526f79616c7479206d757374206265206265747765656e203020616e6420313060008201527f3000000000000000000000000000000000000000000000000000000000000000602082015250565b60006154cc602183614439565b91506154d782615470565b604082019050919050565b600060208201905081810360008301526154fb816154bf565b9050919050565b600061550d826142fd565b9150615518836142fd565b9250817fffffffffffffffffffffffffffffffffffffffffffffffffffffffffffffffff048311821515161561555157615550614ef1565b5b828202905092915050565b7f4e487b7100000000000000000000000000000000000000000000000000000000600052601260045260246000fd5b6000615596826142fd565b91506155a1836142fd565b9250826155b1576155b061555c565b5b828204905092915050565b60006155c7826142fd565b91507fffffffffffffffffffffffffffffffffffffffffffffffffffffffffffffffff8214156155fa576155f9614ef1565b5b600182019050919050565b6000615610826142fd565b915061561b836142fd565b92508282101561562e5761562d614ef1565b5b828203905092915050565b600060608201905061564e6000830186614742565b61565b6020830185614548565b6156686040830184614742565b949350505050565b7f4552433732313a2061646472657373207a65726f206973206e6f74206120766160008201527f6c6964206f776e65720000000000000000000000000000000000000000000000602082015250565b60006156cc602983614439565b91506156d782615670565b604082019050919050565b600060208201905081810360008301526156fb816156bf565b9050919050565b7f5072696365206d7573742062652067726561746572207468616e203000000000600082015250565b6000615738601c83614439565b915061574382615702565b602082019050919050565b600060208201905081810360008301526157678161572b565b9050919050565b7f41756374696f6e2068617320656e646564000000000000000000000000000000600082015250565b60006157a4601183614439565b91506157af8261576e565b602082019050919050565b600060208201905081810360008301526157d381615797565b9050919050565b7f426964206d75737420626520686967686572207468616e20746865206375727260008201527f656e742068696768657374206269640000000000000000000000000000000000602082015250565b6000615836602f83614439565b9150615841826157da565b604082019050919050565b6000602082019050818103600083015261586581615829565b9050919050565b7f496e76616c6964206f6666657220696e64657800000000000000000000000000600082015250565b60006158a2601383614439565b91506158ad8261586c565b602082019050919050565b600060208201905081810360008301526158d181615895565b9050919050565b7f4f6666657220646f6573206e6f74206578697374000000000000000000000000600082015250565b600061590e601483614439565b9150615919826158d8565b602082019050919050565b6000602082019050818103600083015261593d81615901565b9050919050565b7f496e76616c696420627579657220616464726573730000000000000000000000600082015250565b600061597a601583614439565b915061598582615944565b602082019050919050565b600060208201905081810360008301526159a98161596d565b9050919050565b7f4e6f742074686520627579657200000000000000000000000000000000000000600082015250565b60006159e6600d83614439565b91506159f1826159b0565b602082019050919050565b60006020820190508181036000830152615a15816159d9565b9050919050565b7f4e6f74207468652073656c6c6572000000000000000000000000000000000000600082015250565b6000615a52600e83614439565b9150615a5d82615a1c565b602082019050919050565b60006020820190508181036000830152615a8181615a45565b9050919050565b7f546f6b656e206e6f7420666f722073616c650000000000000000000000000000600082015250565b6000615abe601283614439565b9150615ac982615a88565b602082019050919050565b60006020820190508181036000830152615aed81615ab1565b9050919050565b7f496e73756666696369656e742066756e64730000000000000000000000000000600082015250565b6000615b2a601283614439565b9150615b3582615af4565b602082019050919050565b60006020820190508181036000830152615b5981615b1d565b9050919050565b6000604082019050615b756000830185614548565b615b826020830184614742565b9392505050565b600081519050615b9881614307565b92915050565b600060208284031215615bb457615bb36142f3565b5b6000615bc284828501615b89565b91505092915050565b7f496e76616c6964206d61726b6574206665652070657263656e74616765000000600082015250565b6000615c01601d83614439565b9150615c0c82615bcb565b602082019050919050565b60006020820190508181036000830152615c3081615bf4565b9050919050565b7f4f776e61626c653a206e6577206f776e657220697320746865207a65726f206160008201527f6464726573730000000000000000000000000000000000000000000000000000602082015250565b6000615c93602683614439565b9150615c9e82615c37565b604082019050919050565b60006020820190508181036000830152615cc281615c86565b9050919050565b7f4552433732313a206d696e7420746f20746865207a65726f2061646472657373600082015250565b6000615cff602083614439565b9150615d0a82615cc9565b602082019050919050565b60006020820190508181036000830152615d2e81615cf2565b9050919050565b7f4552433732313a20746f6b656e20616c7265616479206d696e74656400000000600082015250565b6000615d6b601c83614439565b9150615d7682615d35565b602082019050919050565b60006020820190508181036000830152615d9a81615d5e565b9050919050565b7f45524337323155524953746f726167653a2055524920736574206f66206e6f6e60008201527f6578697374656e7420746f6b656e000000000000000000000000000000000000602082015250565b6000615dfd602e83614439565b9150615e0882615da1565b604082019050919050565b60006020820190508181036000830152615e2c81615df0565b9050919050565b7f4552433732313a207472616e736665722066726f6d20696e636f72726563742060008201527f6f776e6572000000000000000000000000000000000000000000000000000000602082015250565b6000615e8f602583614439565b9150615e9a82615e33565b604082019050919050565b60006020820190508181036000830152615ebe81615e82565b9050919050565b7f4552433732313a207472616e7366657220746f20746865207a65726f2061646460008201527f7265737300000000000000000000000000000000000000000000000000000000602082015250565b6000615f21602483614439565b9150615f2c82615ec5565b604082019050919050565b60006020820190508181036000830152615f5081615f14565b9050919050565b7f4f776e61626c653a2063616c6c6572206973206e6f7420746865206f776e6572600082015250565b6000615f8d602083614439565b9150615f9882615f57565b602082019050919050565b60006020820190508181036000830152615fbc81615f80565b9050919050565b7f4552433732313a20617070726f766520746f2063616c6c657200000000000000600082015250565b6000615ff9601983614439565b915061600482615fc3565b602082019050919050565b6000602082019050818103600083015261602881615fec565b9050919050565b7f4552433732313a207472616e7366657220746f206e6f6e20455243373231526560008201527f63656976657220696d706c656d656e7465720000000000000000000000000000602082015250565b600061608b603283614439565b91506160968261602f565b604082019050919050565b600060208201905081810360008301526160ba8161607e565b9050919050565b600081905092915050565b60006160d78261442e565b6160e181856160c1565b93506160f181856020860161444a565b80840191505092915050565b600061610982856160cc565b915061611582846160cc565b91508190509392505050565b600081519050919050565b600082825260208201905092915050565b600061614882616121565b616152818561612c565b935061616281856020860161444a565b61616b8161447d565b840191505092915050565b600060808201905061618b6000830187614548565b6161986020830186614548565b6161a56040830185614742565b81810360608301526161b7818461613d565b905095945050505050565b6000815190506161d18161439f565b92915050565b6000602082840312156161ed576161ec6142f3565b5b60006161fb848285016161c2565b9150509291505056fea26469706673582212206198e5f6aecd5ef414e861b22d1cd66e213308f5e862934e3261f9bbe021cf7c64736f6c63430008080033",
  "linkReferences": {},
  "deployedLinkReferences": {}
}