{
  "_format": "hh-sol-artifact-1",
  "contractName": "NFTMarketplace",
  "sourceName": "contracts/Market.sol",
  "abi": [
    {
      "inputs": [],
      "stateMutability": "nonpayable",
      "type": "constructor"
    },
    {
      "anonymous": false,
      "inputs": [
        {
          "indexed": true,
          "internalType": "address",
          "name": "owner",
          "type": "address"
        },
        {
          "indexed": true,
          "internalType": "address",
          "name": "approved",
          "type": "address"
        },
        {
          "indexed": true,
          "internalType": "uint256",
          "name": "tokenId",
          "type": "uint256"
        }
      ],
      "name": "Approval",
      "type": "event"
    },
    {
      "anonymous": false,
      "inputs": [
        {
          "indexed": true,
          "internalType": "address",
          "name": "owner",
          "type": "address"
        },
        {
          "indexed": true,
          "internalType": "address",
          "name": "operator",
          "type": "address"
        },
        {
          "indexed": false,
          "internalType": "bool",
          "name": "approved",
          "type": "bool"
        }
      ],
      "name": "ApprovalForAll",
      "type": "event"
    },
    {
      "anonymous": false,
      "inputs": [
        {
          "indexed": false,
          "internalType": "uint256",
          "name": "tokenId",
          "type": "uint256"
        },
        {
          "indexed": false,
          "internalType": "uint256",
          "name": "endTime",
          "type": "uint256"
        }
      ],
      "name": "AuctionCreated",
      "type": "event"
    },
    {
      "anonymous": false,
      "inputs": [
        {
          "indexed": false,
          "internalType": "uint256",
          "name": "tokenId",
          "type": "uint256"
        },
        {
          "indexed": false,
          "internalType": "address",
          "name": "highestBidder",
          "type": "address"
        },
        {
          "indexed": false,
          "internalType": "uint256",
          "name": "highestBid",
          "type": "uint256"
        }
      ],
      "name": "AuctionEnded",
      "type": "event"
    },
    {
      "anonymous": false,
      "inputs": [
        {
          "indexed": false,
          "internalType": "uint256",
          "name": "tokenId",
          "type": "uint256"
        },
        {
          "indexed": false,
          "internalType": "address",
          "name": "bidder",
          "type": "address"
        },
        {
          "indexed": false,
          "internalType": "uint256",
          "name": "bid",
          "type": "uint256"
        }
      ],
      "name": "BidPlaced",
      "type": "event"
    },
    {
      "anonymous": false,
      "inputs": [
        {
          "indexed": false,
          "internalType": "uint256",
          "name": "newMarketFeePercentage",
          "type": "uint256"
        }
      ],
      "name": "MarketFeePercentageChanged",
      "type": "event"
    },
    {
      "anonymous": false,
      "inputs": [
        {
          "indexed": true,
          "internalType": "uint256",
          "name": "tokenId",
          "type": "uint256"
        },
        {
          "indexed": true,
          "internalType": "address",
          "name": "seller",
          "type": "address"
        },
        {
          "indexed": false,
          "internalType": "uint256",
          "name": "price",
          "type": "uint256"
        }
      ],
      "name": "NFTListed",
      "type": "event"
    },
    {
      "anonymous": false,
      "inputs": [
        {
          "indexed": true,
          "internalType": "uint256",
          "name": "tokenId",
          "type": "uint256"
        },
        {
          "indexed": true,
          "internalType": "address",
          "name": "seller",
          "type": "address"
        }
      ],
      "name": "NFTListingCanceled",
      "type": "event"
    },
    {
      "anonymous": false,
      "inputs": [
        {
          "indexed": false,
          "internalType": "uint256",
          "name": "tokenId",
          "type": "uint256"
        }
      ],
      "name": "OfferCanceled",
      "type": "event"
    },
    {
      "anonymous": false,
      "inputs": [
        {
          "indexed": false,
          "internalType": "uint256",
          "name": "tokenId",
          "type": "uint256"
        },
        {
          "indexed": false,
          "internalType": "uint256",
          "name": "price",
          "type": "uint256"
        },
        {
          "indexed": false,
          "internalType": "uint256",
          "name": "royalty",
          "type": "uint256"
        }
      ],
      "name": "OfferCreated",
      "type": "event"
    },
    {
      "anonymous": false,
      "inputs": [
        {
          "indexed": true,
          "internalType": "uint256",
          "name": "tokenId",
          "type": "uint256"
        },
        {
          "indexed": true,
          "internalType": "address",
          "name": "requester",
          "type": "address"
        },
        {
          "indexed": false,
          "internalType": "uint256",
          "name": "price",
          "type": "uint256"
        }
      ],
      "name": "OfferRequestAccepted",
      "type": "event"
    },
    {
      "anonymous": false,
      "inputs": [
        {
          "indexed": true,
          "internalType": "uint256",
          "name": "tokenId",
          "type": "uint256"
        },
        {
          "indexed": true,
          "internalType": "address",
          "name": "requester",
          "type": "address"
        }
      ],
      "name": "OfferRequestRejected",
      "type": "event"
    },
    {
      "anonymous": false,
      "inputs": [
        {
          "indexed": true,
          "internalType": "uint256",
          "name": "tokenId",
          "type": "uint256"
        },
        {
          "indexed": true,
          "internalType": "address",
          "name": "requester",
          "type": "address"
        },
        {
          "indexed": false,
          "internalType": "uint256",
          "name": "price",
          "type": "uint256"
        }
      ],
      "name": "OfferRequested",
      "type": "event"
    },
    {
      "anonymous": false,
      "inputs": [
        {
          "indexed": true,
          "internalType": "address",
          "name": "previousOwner",
          "type": "address"
        },
        {
          "indexed": true,
          "internalType": "address",
          "name": "newOwner",
          "type": "address"
        }
      ],
      "name": "OwnershipTransferred",
      "type": "event"
    },
    {
      "anonymous": false,
      "inputs": [
        {
          "indexed": false,
          "internalType": "uint256",
          "name": "tokenId",
          "type": "uint256"
        },
        {
          "indexed": false,
          "internalType": "address",
          "name": "owner",
          "type": "address"
        }
      ],
      "name": "TokenMinted",
      "type": "event"
    },
    {
      "anonymous": false,
      "inputs": [
        {
          "indexed": true,
          "internalType": "address",
          "name": "from",
          "type": "address"
        },
        {
          "indexed": true,
          "internalType": "address",
          "name": "to",
          "type": "address"
        },
        {
          "indexed": true,
          "internalType": "uint256",
          "name": "tokenId",
          "type": "uint256"
        }
      ],
      "name": "Transfer",
      "type": "event"
    },
    {
      "anonymous": false,
      "inputs": [
        {
          "indexed": true,
          "internalType": "uint256",
          "name": "tokenId",
          "type": "uint256"
        },
        {
          "indexed": true,
          "internalType": "address",
          "name": "buyer",
          "type": "address"
        },
        {
          "indexed": false,
          "internalType": "uint256",
          "name": "price",
          "type": "uint256"
        }
      ],
      "name": "UserOfferAccepted",
      "type": "event"
    },
    {
      "anonymous": false,
      "inputs": [
        {
          "indexed": true,
          "internalType": "uint256",
          "name": "tokenId",
          "type": "uint256"
        },
        {
          "indexed": true,
          "internalType": "address",
          "name": "buyer",
          "type": "address"
        },
        {
          "indexed": false,
          "internalType": "uint256",
          "name": "price",
          "type": "uint256"
        }
      ],
      "name": "UserOfferAdded",
      "type": "event"
    },
    {
      "anonymous": false,
      "inputs": [
        {
          "indexed": true,
          "internalType": "uint256",
          "name": "tokenId",
          "type": "uint256"
        },
        {
          "indexed": true,
          "internalType": "address",
          "name": "buyer",
          "type": "address"
        }
      ],
      "name": "UserOfferRejected",
      "type": "event"
    },
    {
      "anonymous": false,
      "inputs": [
        {
          "indexed": true,
          "internalType": "uint256",
          "name": "tokenId",
          "type": "uint256"
        },
        {
          "indexed": true,
          "internalType": "address",
          "name": "buyer",
          "type": "address"
        }
      ],
      "name": "UserOfferRemoved",
      "type": "event"
    },
    {
      "inputs": [
        {
          "internalType": "uint256",
          "name": "tokenId",
          "type": "uint256"
        },
        {
          "internalType": "uint256",
          "name": "index",
          "type": "uint256"
        },
        {
          "internalType": "address[]",
          "name": "_Royaltyrecipients",
          "type": "address[]"
        },
        {
          "internalType": "uint256[]",
          "name": "_Royaltyamounts",
          "type": "uint256[]"
        }
      ],
      "name": "acceptUserOffer",
      "outputs": [],
      "stateMutability": "nonpayable",
      "type": "function"
    },
    {
      "inputs": [
        {
          "internalType": "uint256",
          "name": "tokenId",
          "type": "uint256"
        },
        {
          "internalType": "uint256",
          "name": "price",
          "type": "uint256"
        }
      ],
      "name": "addOffer",
      "outputs": [],
      "stateMutability": "nonpayable",
      "type": "function"
    },
    {
      "inputs": [
        {
          "internalType": "address",
          "name": "to",
          "type": "address"
        },
        {
          "internalType": "uint256",
          "name": "tokenId",
          "type": "uint256"
        }
      ],
      "name": "approve",
      "outputs": [],
      "stateMutability": "nonpayable",
      "type": "function"
    },
    {
      "inputs": [
        {
          "internalType": "address",
          "name": "owner",
          "type": "address"
        }
      ],
      "name": "balanceOf",
      "outputs": [
        {
          "internalType": "uint256",
          "name": "",
          "type": "uint256"
        }
      ],
      "stateMutability": "view",
      "type": "function"
    },
    {
      "inputs": [
        {
          "internalType": "uint256",
          "name": "tokenId",
          "type": "uint256"
        },
        {
          "internalType": "address[]",
          "name": "_Royaltyrecipients",
          "type": "address[]"
        },
        {
          "internalType": "uint256[]",
          "name": "_Royaltyamounts",
          "type": "uint256[]"
        }
      ],
      "name": "buyNFT",
      "outputs": [],
      "stateMutability": "payable",
      "type": "function"
    },
    {
      "inputs": [
        {
          "internalType": "uint256",
          "name": "tokenId",
          "type": "uint256"
        }
      ],
      "name": "cancelNFTListing",
      "outputs": [],
      "stateMutability": "nonpayable",
      "type": "function"
    },
    {
      "inputs": [
        {
          "internalType": "uint256",
          "name": "tokenId",
          "type": "uint256"
        },
        {
          "internalType": "uint256",
          "name": "duration",
          "type": "uint256"
        }
      ],
      "name": "createAuction",
      "outputs": [],
      "stateMutability": "nonpayable",
      "type": "function"
    },
    {
      "inputs": [
        {
          "internalType": "uint256",
          "name": "tokenId",
          "type": "uint256"
        }
      ],
      "name": "depositForOffer",
      "outputs": [],
      "stateMutability": "payable",
      "type": "function"
    },
    {
      "inputs": [
        {
          "internalType": "uint256",
          "name": "tokenId",
          "type": "uint256"
        },
        {
          "internalType": "address[]",
          "name": "_Royaltyrecipients",
          "type": "address[]"
        },
        {
          "internalType": "uint256[]",
          "name": "_Royaltyamounts",
          "type": "uint256[]"
        }
      ],
      "name": "endAuction",
      "outputs": [],
      "stateMutability": "nonpayable",
      "type": "function"
    },
    {
      "inputs": [
        {
          "internalType": "uint256",
          "name": "tokenId",
          "type": "uint256"
        }
      ],
      "name": "getApproved",
      "outputs": [
        {
          "internalType": "address",
          "name": "",
          "type": "address"
        }
      ],
      "stateMutability": "view",
      "type": "function"
    },
    {
      "inputs": [
        {
          "internalType": "address",
          "name": "owner",
          "type": "address"
        },
        {
          "internalType": "address",
          "name": "operator",
          "type": "address"
        }
      ],
      "name": "isApprovedForAll",
      "outputs": [
        {
          "internalType": "bool",
          "name": "",
          "type": "bool"
        }
      ],
      "stateMutability": "view",
      "type": "function"
    },
    {
      "inputs": [
        {
          "internalType": "uint256",
          "name": "tokenId",
          "type": "uint256"
        },
        {
          "internalType": "uint256",
          "name": "price",
          "type": "uint256"
        }
      ],
      "name": "listNFT",
      "outputs": [],
      "stateMutability": "nonpayable",
      "type": "function"
    },
    {
      "inputs": [],
      "name": "marketFeePercentage",
      "outputs": [
        {
          "internalType": "uint256",
          "name": "",
          "type": "uint256"
        }
      ],
      "stateMutability": "view",
      "type": "function"
    },
    {
      "inputs": [
        {
          "internalType": "address",
          "name": "recipient",
          "type": "address"
        },
        {
          "internalType": "string",
          "name": "tokenURI",
          "type": "string"
        },
        {
          "internalType": "uint256",
          "name": "tokenId",
          "type": "uint256"
        }
      ],
      "name": "mintNFT",
      "outputs": [
        {
          "internalType": "uint256",
          "name": "",
          "type": "uint256"
        }
      ],
      "stateMutability": "nonpayable",
      "type": "function"
    },
    {
      "inputs": [],
      "name": "name",
      "outputs": [
        {
          "internalType": "string",
          "name": "",
          "type": "string"
        }
      ],
      "stateMutability": "view",
      "type": "function"
    },
    {
      "inputs": [],
      "name": "owner",
      "outputs": [
        {
          "internalType": "address",
          "name": "",
          "type": "address"
        }
      ],
      "stateMutability": "view",
      "type": "function"
    },
    {
      "inputs": [
        {
          "internalType": "uint256",
          "name": "tokenId",
          "type": "uint256"
        }
      ],
      "name": "ownerOf",
      "outputs": [
        {
          "internalType": "address",
          "name": "",
          "type": "address"
        }
      ],
      "stateMutability": "view",
      "type": "function"
    },
    {
      "inputs": [
        {
          "internalType": "address",
          "name": "",
          "type": "address"
        }
      ],
      "name": "pendingWithdrawals",
      "outputs": [
        {
          "internalType": "uint256",
          "name": "",
          "type": "uint256"
        }
      ],
      "stateMutability": "view",
      "type": "function"
    },
    {
      "inputs": [
        {
          "internalType": "uint256",
          "name": "tokenId",
          "type": "uint256"
        }
      ],
      "name": "placeBid",
      "outputs": [],
      "stateMutability": "payable",
      "type": "function"
    },
    {
      "inputs": [
        {
          "internalType": "uint256",
          "name": "tokenId",
          "type": "uint256"
        },
        {
          "internalType": "uint256",
          "name": "index",
          "type": "uint256"
        }
      ],
      "name": "rejectUserOffer",
      "outputs": [],
      "stateMutability": "nonpayable",
      "type": "function"
    },
    {
      "inputs": [
        {
          "internalType": "uint256",
          "name": "tokenId",
          "type": "uint256"
        },
        {
          "internalType": "uint256",
          "name": "index",
          "type": "uint256"
        }
      ],
      "name": "removeOffer",
      "outputs": [],
      "stateMutability": "nonpayable",
      "type": "function"
    },
    {
      "inputs": [],
      "name": "renounceOwnership",
      "outputs": [],
      "stateMutability": "nonpayable",
      "type": "function"
    },
    {
      "inputs": [
        {
          "internalType": "address",
          "name": "from",
          "type": "address"
        },
        {
          "internalType": "address",
          "name": "to",
          "type": "address"
        },
        {
          "internalType": "uint256",
          "name": "tokenId",
          "type": "uint256"
        }
      ],
      "name": "safeTransferFrom",
      "outputs": [],
      "stateMutability": "nonpayable",
      "type": "function"
    },
    {
      "inputs": [
        {
          "internalType": "address",
          "name": "from",
          "type": "address"
        },
        {
          "internalType": "address",
          "name": "to",
          "type": "address"
        },
        {
          "internalType": "uint256",
          "name": "tokenId",
          "type": "uint256"
        },
        {
          "internalType": "bytes",
          "name": "data",
          "type": "bytes"
        }
      ],
      "name": "safeTransferFrom",
      "outputs": [],
      "stateMutability": "nonpayable",
      "type": "function"
    },
    {
      "inputs": [
        {
          "internalType": "address",
          "name": "operator",
          "type": "address"
        },
        {
          "internalType": "bool",
          "name": "approved",
          "type": "bool"
        }
      ],
      "name": "setApprovalForAll",
      "outputs": [],
      "stateMutability": "nonpayable",
      "type": "function"
    },
    {
      "inputs": [
        {
          "internalType": "uint256",
          "name": "newMarketFeePercentage",
          "type": "uint256"
        }
      ],
      "name": "setMarketFeePercentage",
      "outputs": [],
      "stateMutability": "nonpayable",
      "type": "function"
    },
    {
      "inputs": [
        {
          "internalType": "bytes4",
          "name": "interfaceId",
          "type": "bytes4"
        }
      ],
      "name": "supportsInterface",
      "outputs": [
        {
          "internalType": "bool",
          "name": "",
          "type": "bool"
        }
      ],
      "stateMutability": "view",
      "type": "function"
    },
    {
      "inputs": [],
      "name": "symbol",
      "outputs": [
        {
          "internalType": "string",
          "name": "",
          "type": "string"
        }
      ],
      "stateMutability": "view",
      "type": "function"
    },
    {
      "inputs": [
        {
          "internalType": "uint256",
          "name": "",
          "type": "uint256"
        }
      ],
      "name": "tokenIdToAuction",
      "outputs": [
        {
          "internalType": "bool",
          "name": "isActive",
          "type": "bool"
        },
        {
          "internalType": "uint256",
          "name": "tokenId",
          "type": "uint256"
        },
        {
          "internalType": "address",
          "name": "highestBidder",
          "type": "address"
        },
        {
          "internalType": "uint256",
          "name": "highestBid",
          "type": "uint256"
        },
        {
          "internalType": "uint256",
          "name": "endTime",
          "type": "uint256"
        }
      ],
      "stateMutability": "view",
      "type": "function"
    },
    {
      "inputs": [
        {
          "internalType": "uint256",
          "name": "",
          "type": "uint256"
        }
      ],
      "name": "tokenIdToOffer",
      "outputs": [
        {
          "internalType": "bool",
          "name": "isForSale",
          "type": "bool"
        },
        {
          "internalType": "uint256",
          "name": "tokenId",
          "type": "uint256"
        },
        {
          "internalType": "address",
          "name": "seller",
          "type": "address"
        },
        {
          "internalType": "uint256",
          "name": "askingPrice",
          "type": "uint256"
        }
      ],
      "stateMutability": "view",
      "type": "function"
    },
    {
      "inputs": [
        {
          "internalType": "uint256",
          "name": "",
          "type": "uint256"
        }
      ],
      "name": "tokenIdToOfferRequest",
      "outputs": [
        {
          "internalType": "bool",
          "name": "hasOffer",
          "type": "bool"
        },
        {
          "internalType": "uint256",
          "name": "tokenId",
          "type": "uint256"
        },
        {
          "internalType": "address",
          "name": "requester",
          "type": "address"
        },
        {
          "internalType": "uint256",
          "name": "price",
          "type": "uint256"
        }
      ],
      "stateMutability": "view",
      "type": "function"
    },
    {
      "inputs": [
        {
          "internalType": "uint256",
          "name": "tokenId",
          "type": "uint256"
        }
      ],
      "name": "tokenURI",
      "outputs": [
        {
          "internalType": "string",
          "name": "",
          "type": "string"
        }
      ],
      "stateMutability": "view",
      "type": "function"
    },
    {
      "inputs": [
        {
          "internalType": "address",
          "name": "_contract",
          "type": "address"
        },
        {
          "internalType": "address",
          "name": "owner",
          "type": "address"
        }
      ],
      "name": "tokensOfOwner",
      "outputs": [
        {
          "internalType": "uint256[]",
          "name": "",
          "type": "uint256[]"
        }
      ],
      "stateMutability": "view",
      "type": "function"
    },
    {
      "inputs": [
        {
          "internalType": "address",
          "name": "from",
          "type": "address"
        },
        {
          "internalType": "address",
          "name": "to",
          "type": "address"
        },
        {
          "internalType": "uint256",
          "name": "tokenId",
          "type": "uint256"
        }
      ],
      "name": "transferFrom",
      "outputs": [],
      "stateMutability": "nonpayable",
      "type": "function"
    },
    {
      "inputs": [
        {
          "internalType": "address",
          "name": "newOwner",
          "type": "address"
        }
      ],
      "name": "transferOwnership",
      "outputs": [],
      "stateMutability": "nonpayable",
      "type": "function"
    },
    {
      "inputs": [
        {
          "internalType": "uint256",
          "name": "tokenId",
          "type": "uint256"
        },
        {
          "internalType": "string",
          "name": "newTokenURI",
          "type": "string"
        }
      ],
      "name": "updateMetadataURI",
      "outputs": [],
      "stateMutability": "nonpayable",
      "type": "function"
    },
    {
      "inputs": [
        {
          "internalType": "uint256",
          "name": "",
          "type": "uint256"
        },
        {
          "internalType": "uint256",
          "name": "",
          "type": "uint256"
        }
      ],
      "name": "userOffers",
      "outputs": [
        {
          "internalType": "bool",
          "name": "exists",
          "type": "bool"
        },
        {
          "internalType": "uint256",
          "name": "tokenId",
          "type": "uint256"
        },
        {
          "internalType": "address",
          "name": "buyer",
          "type": "address"
        },
        {
          "internalType": "uint256",
          "name": "price",
          "type": "uint256"
        }
      ],
      "stateMutability": "view",
      "type": "function"
    },
    {
      "inputs": [],
      "name": "withdraw",
      "outputs": [],
      "stateMutability": "nonpayable",
      "type": "function"
    }
  ],
  "bytecode": "0x60806040523480156200001157600080fd5b506040518060400160405280600f81526020017f4e4654204d61726b6574706c61636500000000000000000000000000000000008152506040518060400160405280600481526020017f4e46544d00000000000000000000000000000000000000000000000000000000815250816000908051906020019062000096929190620001ae565b508060019080519060200190620000af929190620001ae565b505050620000d2620000c6620000e060201b60201c565b620000e860201b60201c565b6019600981905550620002c3565b600033905090565b6000600660009054906101000a900473ffffffffffffffffffffffffffffffffffffffff16905081600660006101000a81548173ffffffffffffffffffffffffffffffffffffffff021916908373ffffffffffffffffffffffffffffffffffffffff1602179055508173ffffffffffffffffffffffffffffffffffffffff168173ffffffffffffffffffffffffffffffffffffffff167f8be0079c531659141344cd1fd0a4f28419497f9722a3daafe3b4186f6b6457e060405160405180910390a35050565b828054620001bc906200028d565b90600052602060002090601f016020900481019282620001e057600085556200022c565b82601f10620001fb57805160ff19168380011785556200022c565b828001600101855582156200022c579182015b828111156200022b5782518255916020019190600101906200020e565b5b5090506200023b91906200023f565b5090565b5b808211156200025a57600081600090555060010162000240565b5090565b7f4e487b7100000000000000000000000000000000000000000000000000000000600052602260045260246000fd5b60006002820490506001821680620002a657607f821691505b60208210811415620002bd57620002bc6200025e565b5b50919050565b6161e980620002d36000396000f3fe6080604052600436106102255760003560e01c80639979ef4511610123578063cfe8f487116100ab578063e5dc957f1161006f578063e5dc957f14610826578063e985e9c514610842578063ebbe7b7d1461087f578063f2fde38b146108a8578063f3f43703146108d157610225565b8063cfe8f48714610714578063d531fe2b14610751578063d712c4f214610791578063e3b14757146107ba578063e4cd1d9f146107fb57610225565b8063a86a7a70116100f2578063a86a7a7014610629578063aaad2eab14610669578063ac0eeed514610692578063b88d4fde146106ae578063c87b56dd146106d757610225565b80639979ef45146105925780639f9e9dad146105ae578063a1c3b801146105d7578063a22cb4651461060057610225565b806342842e0e116101b1578063755f519611610175578063755f5196146104c15780638da5cb5b146104ea5780638fe86b3f1461051557806394383f141461053e57806395d89b411461056757610225565b806342842e0e146103de5780636352211e146104075780636cf9cb7b1461044457806370a082311461046d578063715018a6146104aa57610225565b806308598df0116101f857806308598df0146102f8578063095ea7b31461033557806323b872dd1461035e5780633ccfd60b146103875780633ffef5b31461039e57610225565b80630121683f1461022a57806301ffc9a71461025357806306fdde0314610290578063081812fc146102bb575b600080fd5b34801561023657600080fd5b50610251600480360381019061024c91906142e2565b61090e565b005b34801561025f57600080fd5b5061027a6004803603810190610275919061437a565b610a89565b60405161028791906143c2565b60405180910390f35b34801561029c57600080fd5b506102a5610b6b565b6040516102b29190614476565b60405180910390f35b3480156102c757600080fd5b506102e260048036038101906102dd9190614498565b610bfd565b6040516102ef9190614506565b60405180910390f35b34801561030457600080fd5b5061031f600480360381019061031a9190614682565b610c43565b60405161032c9190614700565b60405180910390f35b34801561034157600080fd5b5061035c6004803603810190610357919061471b565b610c9c565b005b34801561036a57600080fd5b506103856004803603810190610380919061475b565b610db4565b005b34801561039357600080fd5b5061039c610e14565b005b3480156103aa57600080fd5b506103c560048036038101906103c091906142e2565b610fa5565b6040516103d594939291906147ae565b60405180910390f35b3480156103ea57600080fd5b506104056004803603810190610400919061475b565b61101f565b005b34801561041357600080fd5b5061042e60048036038101906104299190614498565b61103f565b60405161043b9190614506565b60405180910390f35b34801561045057600080fd5b5061046b6004803603810190610466919061497e565b6110c6565b005b34801561047957600080fd5b50610494600480360381019061048f9190614a09565b611477565b6040516104a19190614700565b60405180910390f35b3480156104b657600080fd5b506104bf61152f565b005b3480156104cd57600080fd5b506104e860048036038101906104e391906142e2565b611543565b005b3480156104f657600080fd5b506104ff61179a565b60405161050c9190614506565b60405180910390f35b34801561052157600080fd5b5061053c60048036038101906105379190614a36565b6117c4565b005b34801561054a57600080fd5b50610565600480360381019061056091906142e2565b611822565b005b34801561057357600080fd5b5061057c6119e1565b6040516105899190614476565b60405180910390f35b6105ac60048036038101906105a79190614498565b611a73565b005b3480156105ba57600080fd5b506105d560048036038101906105d09190614a92565b611cd7565b005b3480156105e357600080fd5b506105fe60048036038101906105f991906142e2565b61223d565b005b34801561060c57600080fd5b5061062760048036038101906106229190614b5d565b6123fe565b005b34801561063557600080fd5b50610650600480360381019061064b9190614498565b612414565b60405161066094939291906147ae565b60405180910390f35b34801561067557600080fd5b50610690600480360381019061068b9190614498565b612471565b005b6106ac60048036038101906106a79190614498565b612599565b005b3480156106ba57600080fd5b506106d560048036038101906106d09190614c3e565b612658565b005b3480156106e357600080fd5b506106fe60048036038101906106f99190614498565b6126ba565b60405161070b9190614476565b60405180910390f35b34801561072057600080fd5b5061073b60048036038101906107369190614cc1565b6126cc565b6040516107489190614dbf565b60405180910390f35b34801561075d57600080fd5b5061077860048036038101906107739190614498565b6127fc565b60405161078894939291906147ae565b60405180910390f35b34801561079d57600080fd5b506107b860048036038101906107b39190614498565b612859565b005b3480156107c657600080fd5b506107e160048036038101906107dc9190614498565b6128f4565b6040516107f2959493929190614de1565b60405180910390f35b34801561080757600080fd5b50610810612957565b60405161081d9190614700565b60405180910390f35b610840600480360381019061083b919061497e565b61295d565b005b34801561084e57600080fd5b5061086960048036038101906108649190614cc1565b612d13565b60405161087691906143c2565b60405180910390f35b34801561088b57600080fd5b506108a660048036038101906108a191906142e2565b612da7565b005b3480156108b457600080fd5b506108cf60048036038101906108ca9190614a09565b6130b4565b005b3480156108dd57600080fd5b506108f860048036038101906108f39190614a09565b613138565b6040516109059190614700565b60405180910390f35b61091f610919613150565b83613158565b61095e576040517f08c379a000000000000000000000000000000000000000000000000000000000815260040161095590614e80565b60405180910390fd5b6000814261096c9190614ecf565b90506040518060a00160405280600115158152602001848152602001600073ffffffffffffffffffffffffffffffffffffffff1681526020016000815260200182815250600b600085815260200190815260200160002060008201518160000160006101000a81548160ff0219169083151502179055506020820151816001015560408201518160020160006101000a81548173ffffffffffffffffffffffffffffffffffffffff021916908373ffffffffffffffffffffffffffffffffffffffff16021790555060608201518160030155608082015181600401559050507fe00a2da3a0f34a566402a244ab7ec63f8ab7472591cb18edf3269aa00461a4108382604051610a7c929190614f25565b60405180910390a1505050565b60007f80ac58cd000000000000000000000000000000000000000000000000000000007bffffffffffffffffffffffffffffffffffffffffffffffffffffffff1916827bffffffffffffffffffffffffffffffffffffffffffffffffffffffff19161480610b5457507f5b5e139f000000000000000000000000000000000000000000000000000000007bffffffffffffffffffffffffffffffffffffffffffffffffffffffff1916827bffffffffffffffffffffffffffffffffffffffffffffffffffffffff1916145b80610b645750610b63826131ed565b5b9050919050565b606060008054610b7a90614f7d565b80601f0160208091040260200160405190810160405280929190818152602001828054610ba690614f7d565b8015610bf35780601f10610bc857610100808354040283529160200191610bf3565b820191906000526020600020905b815481529060010190602001808311610bd657829003601f168201915b5050505050905090565b6000610c0882613257565b6004600083815260200190815260200160002060009054906101000a900473ffffffffffffffffffffffffffffffffffffffff169050919050565b6000610c4f84836132a2565b610c5982846134c0565b7f3a5398bda6f1f57d6c96834fa9bf02b5517bdc847d14312015a917ba421c31c98285604051610c8a929190614faf565b60405180910390a18190509392505050565b6000610ca78261103f565b90508073ffffffffffffffffffffffffffffffffffffffff168373ffffffffffffffffffffffffffffffffffffffff161415610d18576040517f08c379a0000000000000000000000000000000000000000000000000000000008152600401610d0f9061504a565b60405180910390fd5b8073ffffffffffffffffffffffffffffffffffffffff16610d37613150565b73ffffffffffffffffffffffffffffffffffffffff161480610d665750610d6581610d60613150565b612d13565b5b610da5576040517f08c379a0000000000000000000000000000000000000000000000000000000008152600401610d9c906150dc565b60405180910390fd5b610daf8383613534565b505050565b610dc5610dbf613150565b82613158565b610e04576040517f08c379a0000000000000000000000000000000000000000000000000000000008152600401610dfb9061516e565b60405180910390fd5b610e0f8383836135ed565b505050565b6000600c6000610e22613150565b73ffffffffffffffffffffffffffffffffffffffff1673ffffffffffffffffffffffffffffffffffffffff16815260200190815260200160002054905060008111610ea2576040517f08c379a0000000000000000000000000000000000000000000000000000000008152600401610e99906151da565b60405180910390fd5b6000600c6000610eb0613150565b73ffffffffffffffffffffffffffffffffffffffff1673ffffffffffffffffffffffffffffffffffffffff168152602001908152602001600020819055506000610ef8613150565b73ffffffffffffffffffffffffffffffffffffffff1682604051610f1b9061522b565b60006040518083038185875af1925050503d8060008114610f58576040519150601f19603f3d011682016040523d82523d6000602084013e610f5d565b606091505b5050905080610fa1576040517f08c379a0000000000000000000000000000000000000000000000000000000008152600401610f989061528c565b60405180910390fd5b5050565b600e6020528160005260406000208181548110610fc157600080fd5b9060005260206000209060040201600091509150508060000160009054906101000a900460ff16908060010154908060020160009054906101000a900473ffffffffffffffffffffffffffffffffffffffff16908060030154905084565b61103a83838360405180602001604052806000815250612658565b505050565b60008061104b836138e7565b9050600073ffffffffffffffffffffffffffffffffffffffff168173ffffffffffffffffffffffffffffffffffffffff1614156110bd576040517f08c379a00000000000000000000000000000000000000000000000000000000081526004016110b4906152f8565b60405180910390fd5b80915050919050565b6000600b600085815260200190815260200160002090508060000160009054906101000a900460ff1661112e576040517f08c379a000000000000000000000000000000000000000000000000000000000815260040161112590615364565b60405180910390fd5b8060040154421015611175576040517f08c379a000000000000000000000000000000000000000000000000000000000815260040161116c906153d0565b60405180910390fd5b6000808451905060005b8181116112b957600086828151811061119b5761119a6153f0565b5b6020026020010151905060008683815181106111ba576111b96153f0565b5b60200260200101519050600081101580156111d6575060648111155b611215576040517f08c379a000000000000000000000000000000000000000000000000000000000815260040161120c90615491565b60405180910390fd5b60008111156112a4576000606482886003015461123291906154b1565b61123c919061553a565b9050808661124a9190614ecf565b955080600c60008573ffffffffffffffffffffffffffffffffffffffff1673ffffffffffffffffffffffffffffffffffffffff168152602001908152602001600020600082825461129b9190614ecf565b92505081905550505b505080806112b19061556b565b91505061117f565b5060006103e860095485600301546112d191906154b1565b6112db919061553a565b90506000818486600301546112f091906155b4565b6112fa91906155b4565b905080600c6000611309613150565b73ffffffffffffffffffffffffffffffffffffffff1673ffffffffffffffffffffffffffffffffffffffff16815260200190815260200160002060008282546113529190614ecf565b9250508190555081600c600061136661179a565b73ffffffffffffffffffffffffffffffffffffffff1673ffffffffffffffffffffffffffffffffffffffff16815260200190815260200160002060008282546113af9190614ecf565b925050819055506113ed6113c28961103f565b8660020160009054906101000a900473ffffffffffffffffffffffffffffffffffffffff168a6135ed565b60008560000160006101000a81548160ff0219169083151502179055507fd2aa34a4fdbbc6dff6a3e56f46e0f3ae2a31d7785ff3487aa5c95c642acea501888660020160009054906101000a900473ffffffffffffffffffffffffffffffffffffffff168760030154604051611465939291906155e8565b60405180910390a15050505050505050565b60008073ffffffffffffffffffffffffffffffffffffffff168273ffffffffffffffffffffffffffffffffffffffff1614156114e8576040517f08c379a00000000000000000000000000000000000000000000000000000000081526004016114df90615691565b60405180910390fd5b600360008373ffffffffffffffffffffffffffffffffffffffff1673ffffffffffffffffffffffffffffffffffffffff168152602001908152602001600020549050919050565b611537613924565b61154160006139a2565b565b60008111611586576040517f08c379a000000000000000000000000000000000000000000000000000000000815260040161157d906156fd565b60405180910390fd5b600060405180608001604052806001151581526020018481526020016115aa613150565b73ffffffffffffffffffffffffffffffffffffffff168152602001838152509050600e600084815260200190815260200160002081908060018154018082558091505060019003906000526020600020906004020160009091909190915060008201518160000160006101000a81548160ff0219169083151502179055506020820151816001015560408201518160020160006101000a81548173ffffffffffffffffffffffffffffffffffffffff021916908373ffffffffffffffffffffffffffffffffffffffff16021790555060608201518160030155505081600c6000611692613150565b73ffffffffffffffffffffffffffffffffffffffff1673ffffffffffffffffffffffffffffffffffffffff16815260200190815260200160002060008282546116db91906155b4565b9250508190555081600c60006116ef61179a565b73ffffffffffffffffffffffffffffffffffffffff1673ffffffffffffffffffffffffffffffffffffffff16815260200190815260200160002060008282546117389190614ecf565b92505081905550611747613150565b73ffffffffffffffffffffffffffffffffffffffff16837f621602a81c41f208d6706724f028c3d6f902a344be2f9fc7fb5643d6df5c92cf8460405161178d9190614700565b60405180910390a3505050565b6000600660009054906101000a900473ffffffffffffffffffffffffffffffffffffffff16905090565b6117d56117cf613150565b83613158565b611814576040517f08c379a000000000000000000000000000000000000000000000000000000000815260040161180b90614e80565b60405180910390fd5b61181e82826134c0565b5050565b61183361182d613150565b83613158565b611872576040517f08c379a000000000000000000000000000000000000000000000000000000000815260040161186990614e80565b60405180910390fd5b600081116118b5576040517f08c379a00000000000000000000000000000000000000000000000000000000081526004016118ac906156fd565b60405180910390fd5b60405180608001604052806001151581526020018381526020016118d7613150565b73ffffffffffffffffffffffffffffffffffffffff16815260200182815250600a600084815260200190815260200160002060008201518160000160006101000a81548160ff0219169083151502179055506020820151816001015560408201518160020160006101000a81548173ffffffffffffffffffffffffffffffffffffffff021916908373ffffffffffffffffffffffffffffffffffffffff1602179055506060820151816003015590505061198f613150565b73ffffffffffffffffffffffffffffffffffffffff16827f5f9c03de076f5063cd3ebcfe8ef7aa8af378e4b35a83c77ba9777e97083879a2836040516119d59190614700565b60405180910390a35050565b6060600180546119f090614f7d565b80601f0160208091040260200160405190810160405280929190818152602001828054611a1c90614f7d565b8015611a695780601f10611a3e57610100808354040283529160200191611a69565b820191906000526020600020905b815481529060010190602001808311611a4c57829003601f168201915b5050505050905090565b6000600b600083815260200190815260200160002090508060000160009054906101000a900460ff16611adb576040517f08c379a0000000000000000000000000000000000000000000000000000000008152600401611ad290615364565b60405180910390fd5b80600401544210611b21576040517f08c379a0000000000000000000000000000000000000000000000000000000008152600401611b1890615769565b60405180910390fd5b80600301543411611b67576040517f08c379a0000000000000000000000000000000000000000000000000000000008152600401611b5e906157fb565b60405180910390fd5b600073ffffffffffffffffffffffffffffffffffffffff168160020160009054906101000a900473ffffffffffffffffffffffffffffffffffffffff1673ffffffffffffffffffffffffffffffffffffffff1614611c3e578060030154600c60008360020160009054906101000a900473ffffffffffffffffffffffffffffffffffffffff1673ffffffffffffffffffffffffffffffffffffffff1673ffffffffffffffffffffffffffffffffffffffff1681526020019081526020016000206000828254611c369190614ecf565b925050819055505b611c46613150565b8160020160006101000a81548173ffffffffffffffffffffffffffffffffffffffff021916908373ffffffffffffffffffffffffffffffffffffffff1602179055503481600301819055507f0e54eff26401bf69b81b26f60bd85ef47f5d85275c1d268d84f68d6897431c4782611cbb613150565b34604051611ccb939291906155e8565b60405180910390a15050565b611ce8611ce2613150565b85613158565b611d27576040517f08c379a0000000000000000000000000000000000000000000000000000000008152600401611d1e90614e80565b60405180910390fd5b600e6000858152602001908152602001600020805490508310611d7f576040517f08c379a0000000000000000000000000000000000000000000000000000000008152600401611d7690615867565b60405180910390fd5b600e60008581526020019081526020016000208381548110611da457611da36153f0565b5b906000526020600020906004020160000160009054906101000a900460ff16611e02576040517f08c379a0000000000000000000000000000000000000000000000000000000008152600401611df9906158d3565b60405180910390fd5b6000600e60008681526020019081526020016000208481548110611e2957611e286153f0565b5b90600052602060002090600402016040518060800160405290816000820160009054906101000a900460ff16151515158152602001600182015481526020016002820160009054906101000a900473ffffffffffffffffffffffffffffffffffffffff1673ffffffffffffffffffffffffffffffffffffffff1673ffffffffffffffffffffffffffffffffffffffff1681526020016003820154815250509050600081606001519050600082604001519050600073ffffffffffffffffffffffffffffffffffffffff168173ffffffffffffffffffffffffffffffffffffffff161415611f4b576040517f08c379a0000000000000000000000000000000000000000000000000000000008152600401611f429061593f565b60405180910390fd5b6000600e60008981526020019081526020016000208781548110611f7257611f716153f0565b5b906000526020600020906004020160000160006101000a81548160ff0219169083151502179055506000808651905060005b8181116120da576000888281518110611fc057611fbf6153f0565b5b602002602001015190506000888381518110611fdf57611fde6153f0565b5b6020026020010151905060008110158015611ffb575060648111155b61203a576040517f08c379a000000000000000000000000000000000000000000000000000000000815260040161203190615491565b60405180910390fd5b60008111156120c55760006064828961205391906154b1565b61205d919061553a565b9050808661206b9190614ecf565b955080600c60008573ffffffffffffffffffffffffffffffffffffffff1673ffffffffffffffffffffffffffffffffffffffff16815260200190815260200160002060008282546120bc9190614ecf565b92505081905550505b505080806120d29061556b565b915050611fa4565b5060006103e8600954866120ee91906154b1565b6120f8919061553a565b9050600081848761210991906155b4565b61211391906155b4565b905080600c6000612122613150565b73ffffffffffffffffffffffffffffffffffffffff1673ffffffffffffffffffffffffffffffffffffffff168152602001908152602001600020600082825461216b9190614ecf565b9250508190555081600c600061217f61179a565b73ffffffffffffffffffffffffffffffffffffffff1673ffffffffffffffffffffffffffffffffffffffff16815260200190815260200160002060008282546121c89190614ecf565b925050819055506121e16121da613150565b868d6135ed565b8473ffffffffffffffffffffffffffffffffffffffff168b7f7f584b34848385865b066dc153c88c882a41f1461d349a14181937f86d8b0429886040516122289190614700565b60405180910390a35050505050505050505050565b600e6000838152602001908152602001600020805490508110612295576040517f08c379a000000000000000000000000000000000000000000000000000000000815260040161228c90615867565b60405180910390fd5b61229d613150565b73ffffffffffffffffffffffffffffffffffffffff16600e600084815260200190815260200160002082815481106122d8576122d76153f0565b5b906000526020600020906004020160020160009054906101000a900473ffffffffffffffffffffffffffffffffffffffff1673ffffffffffffffffffffffffffffffffffffffff1614612360576040517f08c379a0000000000000000000000000000000000000000000000000000000008152600401612357906159ab565b60405180910390fd5b6000600e60008481526020019081526020016000208281548110612387576123866153f0565b5b906000526020600020906004020160000160006101000a81548160ff0219169083151502179055506123b7613150565b73ffffffffffffffffffffffffffffffffffffffff16827f7c49ef3636762858bc3078610b9cec68df66a78863ef2285cc9ea098530a481560405160405180910390a35050565b612410612409613150565b8383613a68565b5050565b600d6020528060005260406000206000915090508060000160009054906101000a900460ff16908060010154908060020160009054906101000a900473ffffffffffffffffffffffffffffffffffffffff16908060030154905084565b612479613150565b73ffffffffffffffffffffffffffffffffffffffff16600a600083815260200190815260200160002060020160009054906101000a900473ffffffffffffffffffffffffffffffffffffffff1673ffffffffffffffffffffffffffffffffffffffff161461251c576040517f08c379a000000000000000000000000000000000000000000000000000000000815260040161251390615a17565b60405180910390fd5b6000600a600083815260200190815260200160002060000160006101000a81548160ff021916908315150217905550612553613150565b73ffffffffffffffffffffffffffffffffffffffff16817fb96f3a932e41e36c142d78a86850c1c9a1ba2c62a595e23ea0dfbf876330ea5760405160405180910390a350565b6000600a6000838152602001908152602001600020905080600301543410156125f7576040517f08c379a00000000000000000000000000000000000000000000000000000000081526004016125ee90615a83565b60405180910390fd5b34600c6000612604613150565b73ffffffffffffffffffffffffffffffffffffffff1673ffffffffffffffffffffffffffffffffffffffff168152602001908152602001600020600082825461264d9190614ecf565b925050819055505050565b612669612663613150565b83613158565b6126a8576040517f08c379a000000000000000000000000000000000000000000000000000000000815260040161269f9061516e565b60405180910390fd5b6126b484848484613bd5565b50505050565b60606126c582613c31565b9050919050565b606060006126d983611477565b905060008167ffffffffffffffff8111156126f7576126f6614557565b5b6040519080825280602002602001820160405280156127255781602001602082028036833780820191505090505b50905060005b828110156127f0578573ffffffffffffffffffffffffffffffffffffffff16632f745c5986836040518363ffffffff1660e01b815260040161276e929190615aa3565b60206040518083038186803b15801561278657600080fd5b505afa15801561279a573d6000803e3d6000fd5b505050506040513d601f19601f820116820180604052508101906127be9190615ae1565b8282815181106127d1576127d06153f0565b5b60200260200101818152505080806127e89061556b565b91505061272b565b50809250505092915050565b600a6020528060005260406000206000915090508060000160009054906101000a900460ff16908060010154908060020160009054906101000a900473ffffffffffffffffffffffffffffffffffffffff16908060030154905084565b612861613924565b6000811015801561287457506103e88111155b6128b3576040517f08c379a00000000000000000000000000000000000000000000000000000000081526004016128aa90615b5a565b60405180910390fd5b806009819055507fc52b745517237e6357976bba03e5dc4ff05bfc70c61a1f50294bb5b1059af86e816040516128e99190614700565b60405180910390a150565b600b6020528060005260406000206000915090508060000160009054906101000a900460ff16908060010154908060020160009054906101000a900473ffffffffffffffffffffffffffffffffffffffff16908060030154908060040154905085565b60095481565b6000600a60008581526020019081526020016000206040518060800160405290816000820160009054906101000a900460ff16151515158152602001600182015481526020016002820160009054906101000a900473ffffffffffffffffffffffffffffffffffffffff1673ffffffffffffffffffffffffffffffffffffffff1673ffffffffffffffffffffffffffffffffffffffff16815260200160038201548152505090508060000151612a48576040517f08c379a0000000000000000000000000000000000000000000000000000000008152600401612a3f90615bc6565b60405180910390fd5b8060600151341015612a8f576040517f08c379a0000000000000000000000000000000000000000000000000000000008152600401612a8690615a83565b60405180910390fd5b6000808451905060005b818111612bcf576000868281518110612ab557612ab46153f0565b5b602002602001015190506000868381518110612ad457612ad36153f0565b5b6020026020010151905060008110158015612af0575060648111155b612b2f576040517f08c379a0000000000000000000000000000000000000000000000000000000008152600401612b2690615491565b60405180910390fd5b6000811115612bba57600060648234612b4891906154b1565b612b52919061553a565b90508086612b609190614ecf565b955080600c60008573ffffffffffffffffffffffffffffffffffffffff1673ffffffffffffffffffffffffffffffffffffffff1681526020019081526020016000206000828254612bb19190614ecf565b92505081905550505b50508080612bc79061556b565b915050612a99565b5060006103e860095434612be391906154b1565b612bed919061553a565b90506000818434612bfe91906155b4565b612c0891906155b4565b905080600c6000612c17613150565b73ffffffffffffffffffffffffffffffffffffffff1673ffffffffffffffffffffffffffffffffffffffff1681526020019081526020016000206000828254612c609190614ecf565b9250508190555081600c6000612c7461179a565b73ffffffffffffffffffffffffffffffffffffffff1673ffffffffffffffffffffffffffffffffffffffff1681526020019081526020016000206000828254612cbd9190614ecf565b92505081905550612cda8560400151612cd4613150565b8a6135ed565b6000600a60008a815260200190815260200160002060000160006101000a81548160ff0219169083151502179055505050505050505050565b6000600560008473ffffffffffffffffffffffffffffffffffffffff1673ffffffffffffffffffffffffffffffffffffffff16815260200190815260200160002060008373ffffffffffffffffffffffffffffffffffffffff1673ffffffffffffffffffffffffffffffffffffffff16815260200190815260200160002060009054906101000a900460ff16905092915050565b612db8612db2613150565b83613158565b612df7576040517f08c379a0000000000000000000000000000000000000000000000000000000008152600401612dee90614e80565b60405180910390fd5b600e6000838152602001908152602001600020805490508110612e4f576040517f08c379a0000000000000000000000000000000000000000000000000000000008152600401612e4690615867565b60405180910390fd5b600e60008381526020019081526020016000208181548110612e7457612e736153f0565b5b906000526020600020906004020160000160009054906101000a900460ff16612ed2576040517f08c379a0000000000000000000000000000000000000000000000000000000008152600401612ec9906158d3565b60405180910390fd5b6000600e60008481526020019081526020016000208281548110612ef957612ef86153f0565b5b906000526020600020906004020160020160009054906101000a900473ffffffffffffffffffffffffffffffffffffffff1690506000600e60008581526020019081526020016000208381548110612f5457612f536153f0565b5b90600052602060002090600402016003015490506000600e60008681526020019081526020016000208481548110612f8f57612f8e6153f0565b5b906000526020600020906004020160000160006101000a81548160ff02191690831515021790555080600c60008473ffffffffffffffffffffffffffffffffffffffff1673ffffffffffffffffffffffffffffffffffffffff16815260200190815260200160002060008282546130069190614ecf565b9250508190555080600c600061301a61179a565b73ffffffffffffffffffffffffffffffffffffffff1673ffffffffffffffffffffffffffffffffffffffff168152602001908152602001600020600082825461306391906155b4565b925050819055508173ffffffffffffffffffffffffffffffffffffffff16847f2d9d00a807c2aff5d665db4d08836cdcefcafb265b17c460c5fcc6e40a7dd32c60405160405180910390a350505050565b6130bc613924565b600073ffffffffffffffffffffffffffffffffffffffff168173ffffffffffffffffffffffffffffffffffffffff16141561312c576040517f08c379a000000000000000000000000000000000000000000000000000000000815260040161312390615c58565b60405180910390fd5b613135816139a2565b50565b600c6020528060005260406000206000915090505481565b600033905090565b6000806131648361103f565b90508073ffffffffffffffffffffffffffffffffffffffff168473ffffffffffffffffffffffffffffffffffffffff1614806131a657506131a58185612d13565b5b806131e457508373ffffffffffffffffffffffffffffffffffffffff166131cc84610bfd565b73ffffffffffffffffffffffffffffffffffffffff16145b91505092915050565b60007f01ffc9a7000000000000000000000000000000000000000000000000000000007bffffffffffffffffffffffffffffffffffffffffffffffffffffffff1916827bffffffffffffffffffffffffffffffffffffffffffffffffffffffff1916149050919050565b61326081613d44565b61329f576040517f08c379a0000000000000000000000000000000000000000000000000000000008152600401613296906152f8565b60405180910390fd5b50565b600073ffffffffffffffffffffffffffffffffffffffff168273ffffffffffffffffffffffffffffffffffffffff161415613312576040517f08c379a000000000000000000000000000000000000000000000000000000000815260040161330990615cc4565b60405180910390fd5b61331b81613d44565b1561335b576040517f08c379a000000000000000000000000000000000000000000000000000000000815260040161335290615d30565b60405180910390fd5b613369600083836001613d85565b61337281613d44565b156133b2576040517f08c379a00000000000000000000000000000000000000000000000000000000081526004016133a990615d30565b60405180910390fd5b6001600360008473ffffffffffffffffffffffffffffffffffffffff1673ffffffffffffffffffffffffffffffffffffffff16815260200190815260200160002060008282540192505081905550816002600083815260200190815260200160002060006101000a81548173ffffffffffffffffffffffffffffffffffffffff021916908373ffffffffffffffffffffffffffffffffffffffff160217905550808273ffffffffffffffffffffffffffffffffffffffff16600073ffffffffffffffffffffffffffffffffffffffff167fddf252ad1be2c89b69c2b068fc378daa952ba7f163c4a11628f55a4df523b3ef60405160405180910390a46134bc600083836001613d8b565b5050565b6134c982613d44565b613508576040517f08c379a00000000000000000000000000000000000000000000000000000000081526004016134ff90615dc2565b60405180910390fd5b8060076000848152602001908152602001600020908051906020019061352f9291906141f5565b505050565b816004600083815260200190815260200160002060006101000a81548173ffffffffffffffffffffffffffffffffffffffff021916908373ffffffffffffffffffffffffffffffffffffffff160217905550808273ffffffffffffffffffffffffffffffffffffffff166135a78361103f565b73ffffffffffffffffffffffffffffffffffffffff167f8c5be1e5ebec7d5bd14f71427d1e84f3dd0314c0f7b2291e5b200ac8c7c3b92560405160405180910390a45050565b8273ffffffffffffffffffffffffffffffffffffffff1661360d8261103f565b73ffffffffffffffffffffffffffffffffffffffff1614613663576040517f08c379a000000000000000000000000000000000000000000000000000000000815260040161365a90615e54565b60405180910390fd5b600073ffffffffffffffffffffffffffffffffffffffff168273ffffffffffffffffffffffffffffffffffffffff1614156136d3576040517f08c379a00000000000000000000000000000000000000000000000000000000081526004016136ca90615ee6565b60405180910390fd5b6136e08383836001613d85565b8273ffffffffffffffffffffffffffffffffffffffff166137008261103f565b73ffffffffffffffffffffffffffffffffffffffff1614613756576040517f08c379a000000000000000000000000000000000000000000000000000000000815260040161374d90615e54565b60405180910390fd5b6004600082815260200190815260200160002060006101000a81549073ffffffffffffffffffffffffffffffffffffffff02191690556001600360008573ffffffffffffffffffffffffffffffffffffffff1673ffffffffffffffffffffffffffffffffffffffff168152602001908152602001600020600082825403925050819055506001600360008473ffffffffffffffffffffffffffffffffffffffff1673ffffffffffffffffffffffffffffffffffffffff16815260200190815260200160002060008282540192505081905550816002600083815260200190815260200160002060006101000a81548173ffffffffffffffffffffffffffffffffffffffff021916908373ffffffffffffffffffffffffffffffffffffffff160217905550808273ffffffffffffffffffffffffffffffffffffffff168473ffffffffffffffffffffffffffffffffffffffff167fddf252ad1be2c89b69c2b068fc378daa952ba7f163c4a11628f55a4df523b3ef60405160405180910390a46138e28383836001613d8b565b505050565b60006002600083815260200190815260200160002060009054906101000a900473ffffffffffffffffffffffffffffffffffffffff169050919050565b61392c613150565b73ffffffffffffffffffffffffffffffffffffffff1661394a61179a565b73ffffffffffffffffffffffffffffffffffffffff16146139a0576040517f08c379a000000000000000000000000000000000000000000000000000000000815260040161399790615f52565b60405180910390fd5b565b6000600660009054906101000a900473ffffffffffffffffffffffffffffffffffffffff16905081600660006101000a81548173ffffffffffffffffffffffffffffffffffffffff021916908373ffffffffffffffffffffffffffffffffffffffff1602179055508173ffffffffffffffffffffffffffffffffffffffff168173ffffffffffffffffffffffffffffffffffffffff167f8be0079c531659141344cd1fd0a4f28419497f9722a3daafe3b4186f6b6457e060405160405180910390a35050565b8173ffffffffffffffffffffffffffffffffffffffff168373ffffffffffffffffffffffffffffffffffffffff161415613ad7576040517f08c379a0000000000000000000000000000000000000000000000000000000008152600401613ace90615fbe565b60405180910390fd5b80600560008573ffffffffffffffffffffffffffffffffffffffff1673ffffffffffffffffffffffffffffffffffffffff16815260200190815260200160002060008473ffffffffffffffffffffffffffffffffffffffff1673ffffffffffffffffffffffffffffffffffffffff16815260200190815260200160002060006101000a81548160ff0219169083151502179055508173ffffffffffffffffffffffffffffffffffffffff168373ffffffffffffffffffffffffffffffffffffffff167f17307eab39ab6107e8899845ad3d59bd9653f200f220920489ca2b5937696c3183604051613bc891906143c2565b60405180910390a3505050565b613be08484846135ed565b613bec84848484613d91565b613c2b576040517f08c379a0000000000000000000000000000000000000000000000000000000008152600401613c2290616050565b60405180910390fd5b50505050565b6060613c3c82613257565b6000600760008481526020019081526020016000208054613c5c90614f7d565b80601f0160208091040260200160405190810160405280929190818152602001828054613c8890614f7d565b8015613cd55780601f10613caa57610100808354040283529160200191613cd5565b820191906000526020600020905b815481529060010190602001808311613cb857829003601f168201915b505050505090506000613ce6613f28565b9050600081511415613cfc578192505050613d3f565b600082511115613d31578082604051602001613d199291906160ac565b60405160208183030381529060405292505050613d3f565b613d3a84613f3f565b925050505b919050565b60008073ffffffffffffffffffffffffffffffffffffffff16613d66836138e7565b73ffffffffffffffffffffffffffffffffffffffff1614159050919050565b50505050565b50505050565b6000613db28473ffffffffffffffffffffffffffffffffffffffff16613fa7565b15613f1b578373ffffffffffffffffffffffffffffffffffffffff1663150b7a02613ddb613150565b8786866040518563ffffffff1660e01b8152600401613dfd9493929190616125565b602060405180830381600087803b158015613e1757600080fd5b505af1925050508015613e4857506040513d601f19601f82011682018060405250810190613e459190616186565b60015b613ecb573d8060008114613e78576040519150601f19603f3d011682016040523d82523d6000602084013e613e7d565b606091505b50600081511415613ec3576040517f08c379a0000000000000000000000000000000000000000000000000000000008152600401613eba90616050565b60405180910390fd5b805181602001fd5b63150b7a0260e01b7bffffffffffffffffffffffffffffffffffffffffffffffffffffffff1916817bffffffffffffffffffffffffffffffffffffffffffffffffffffffff191614915050613f20565b600190505b949350505050565b606060405180602001604052806000815250905090565b6060613f4a82613257565b6000613f54613f28565b90506000815111613f745760405180602001604052806000815250613f9f565b80613f7e84613fca565b604051602001613f8f9291906160ac565b6040516020818303038152906040525b915050919050565b6000808273ffffffffffffffffffffffffffffffffffffffff163b119050919050565b606060006001613fd9846140a2565b01905060008167ffffffffffffffff811115613ff857613ff7614557565b5b6040519080825280601f01601f19166020018201604052801561402a5781602001600182028036833780820191505090505b509050600082602001820190505b600115614097578080600190039150507f3031323334353637383961626364656600000000000000000000000000000000600a86061a8153600a85816140815761408061550b565b5b049450600085141561409257614097565b614038565b819350505050919050565b600080600090507a184f03e93ff9f4daa797ed6e38ed64bf6a1f0100000000000000008310614100577a184f03e93ff9f4daa797ed6e38ed64bf6a1f01000000000000000083816140f6576140f561550b565b5b0492506040810190505b6d04ee2d6d415b85acef8100000000831061413d576d04ee2d6d415b85acef810000000083816141335761413261550b565b5b0492506020810190505b662386f26fc10000831061416c57662386f26fc1000083816141625761416161550b565b5b0492506010810190505b6305f5e1008310614195576305f5e100838161418b5761418a61550b565b5b0492506008810190505b61271083106141ba5761271083816141b0576141af61550b565b5b0492506004810190505b606483106141dd57606483816141d3576141d261550b565b5b0492506002810190505b600a83106141ec576001810190505b80915050919050565b82805461420190614f7d565b90600052602060002090601f016020900481019282614223576000855561426a565b82601f1061423c57805160ff191683800117855561426a565b8280016001018555821561426a579182015b8281111561426957825182559160200191906001019061424e565b5b509050614277919061427b565b5090565b5b8082111561429457600081600090555060010161427c565b5090565b6000604051905090565b600080fd5b600080fd5b6000819050919050565b6142bf816142ac565b81146142ca57600080fd5b50565b6000813590506142dc816142b6565b92915050565b600080604083850312156142f9576142f86142a2565b5b6000614307858286016142cd565b9250506020614318858286016142cd565b9150509250929050565b60007fffffffff0000000000000000000000000000000000000000000000000000000082169050919050565b61435781614322565b811461436257600080fd5b50565b6000813590506143748161434e565b92915050565b6000602082840312156143905761438f6142a2565b5b600061439e84828501614365565b91505092915050565b60008115159050919050565b6143bc816143a7565b82525050565b60006020820190506143d760008301846143b3565b92915050565b600081519050919050565b600082825260208201905092915050565b60005b838110156144175780820151818401526020810190506143fc565b83811115614426576000848401525b50505050565b6000601f19601f8301169050919050565b6000614448826143dd565b61445281856143e8565b93506144628185602086016143f9565b61446b8161442c565b840191505092915050565b60006020820190508181036000830152614490818461443d565b905092915050565b6000602082840312156144ae576144ad6142a2565b5b60006144bc848285016142cd565b91505092915050565b600073ffffffffffffffffffffffffffffffffffffffff82169050919050565b60006144f0826144c5565b9050919050565b614500816144e5565b82525050565b600060208201905061451b60008301846144f7565b92915050565b61452a816144e5565b811461453557600080fd5b50565b60008135905061454781614521565b92915050565b600080fd5b600080fd5b7f4e487b7100000000000000000000000000000000000000000000000000000000600052604160045260246000fd5b61458f8261442c565b810181811067ffffffffffffffff821117156145ae576145ad614557565b5b80604052505050565b60006145c1614298565b90506145cd8282614586565b919050565b600067ffffffffffffffff8211156145ed576145ec614557565b5b6145f68261442c565b9050602081019050919050565b82818337600083830152505050565b6000614625614620846145d2565b6145b7565b90508281526020810184848401111561464157614640614552565b5b61464c848285614603565b509392505050565b600082601f8301126146695761466861454d565b5b8135614679848260208601614612565b91505092915050565b60008060006060848603121561469b5761469a6142a2565b5b60006146a986828701614538565b935050602084013567ffffffffffffffff8111156146ca576146c96142a7565b5b6146d686828701614654565b92505060406146e7868287016142cd565b9150509250925092565b6146fa816142ac565b82525050565b600060208201905061471560008301846146f1565b92915050565b60008060408385031215614732576147316142a2565b5b600061474085828601614538565b9250506020614751858286016142cd565b9150509250929050565b600080600060608486031215614774576147736142a2565b5b600061478286828701614538565b935050602061479386828701614538565b92505060406147a4868287016142cd565b9150509250925092565b60006080820190506147c360008301876143b3565b6147d060208301866146f1565b6147dd60408301856144f7565b6147ea60608301846146f1565b95945050505050565b600067ffffffffffffffff82111561480e5761480d614557565b5b602082029050602081019050919050565b600080fd5b6000614837614832846147f3565b6145b7565b9050808382526020820190506020840283018581111561485a5761485961481f565b5b835b81811015614883578061486f8882614538565b84526020840193505060208101905061485c565b5050509392505050565b600082601f8301126148a2576148a161454d565b5b81356148b2848260208601614824565b91505092915050565b600067ffffffffffffffff8211156148d6576148d5614557565b5b602082029050602081019050919050565b60006148fa6148f5846148bb565b6145b7565b9050808382526020820190506020840283018581111561491d5761491c61481f565b5b835b81811015614946578061493288826142cd565b84526020840193505060208101905061491f565b5050509392505050565b600082601f8301126149655761496461454d565b5b81356149758482602086016148e7565b91505092915050565b600080600060608486031215614997576149966142a2565b5b60006149a5868287016142cd565b935050602084013567ffffffffffffffff8111156149c6576149c56142a7565b5b6149d28682870161488d565b925050604084013567ffffffffffffffff8111156149f3576149f26142a7565b5b6149ff86828701614950565b9150509250925092565b600060208284031215614a1f57614a1e6142a2565b5b6000614a2d84828501614538565b91505092915050565b60008060408385031215614a4d57614a4c6142a2565b5b6000614a5b858286016142cd565b925050602083013567ffffffffffffffff811115614a7c57614a7b6142a7565b5b614a8885828601614654565b9150509250929050565b60008060008060808587031215614aac57614aab6142a2565b5b6000614aba878288016142cd565b9450506020614acb878288016142cd565b935050604085013567ffffffffffffffff811115614aec57614aeb6142a7565b5b614af88782880161488d565b925050606085013567ffffffffffffffff811115614b1957614b186142a7565b5b614b2587828801614950565b91505092959194509250565b614b3a816143a7565b8114614b4557600080fd5b50565b600081359050614b5781614b31565b92915050565b60008060408385031215614b7457614b736142a2565b5b6000614b8285828601614538565b9250506020614b9385828601614b48565b9150509250929050565b600067ffffffffffffffff821115614bb857614bb7614557565b5b614bc18261442c565b9050602081019050919050565b6000614be1614bdc84614b9d565b6145b7565b905082815260208101848484011115614bfd57614bfc614552565b5b614c08848285614603565b509392505050565b600082601f830112614c2557614c2461454d565b5b8135614c35848260208601614bce565b91505092915050565b60008060008060808587031215614c5857614c576142a2565b5b6000614c6687828801614538565b9450506020614c7787828801614538565b9350506040614c88878288016142cd565b925050606085013567ffffffffffffffff811115614ca957614ca86142a7565b5b614cb587828801614c10565b91505092959194509250565b60008060408385031215614cd857614cd76142a2565b5b6000614ce685828601614538565b9250506020614cf785828601614538565b9150509250929050565b600081519050919050565b600082825260208201905092915050565b6000819050602082019050919050565b614d36816142ac565b82525050565b6000614d488383614d2d565b60208301905092915050565b6000602082019050919050565b6000614d6c82614d01565b614d768185614d0c565b9350614d8183614d1d565b8060005b83811015614db2578151614d998882614d3c565b9750614da483614d54565b925050600181019050614d85565b5085935050505092915050565b60006020820190508181036000830152614dd98184614d61565b905092915050565b600060a082019050614df660008301886143b3565b614e0360208301876146f1565b614e1060408301866144f7565b614e1d60608301856146f1565b614e2a60808301846146f1565b9695505050505050565b7f4e6f7420617070726f766564206f72206f776e65720000000000000000000000600082015250565b6000614e6a6015836143e8565b9150614e7582614e34565b602082019050919050565b60006020820190508181036000830152614e9981614e5d565b9050919050565b7f4e487b7100000000000000000000000000000000000000000000000000000000600052601160045260246000fd5b6000614eda826142ac565b9150614ee5836142ac565b9250827fffffffffffffffffffffffffffffffffffffffffffffffffffffffffffffffff03821115614f1a57614f19614ea0565b5b828201905092915050565b6000604082019050614f3a60008301856146f1565b614f4760208301846146f1565b9392505050565b7f4e487b7100000000000000000000000000000000000000000000000000000000600052602260045260246000fd5b60006002820490506001821680614f9557607f821691505b60208210811415614fa957614fa8614f4e565b5b50919050565b6000604082019050614fc460008301856146f1565b614fd160208301846144f7565b9392505050565b7f4552433732313a20617070726f76616c20746f2063757272656e74206f776e6560008201527f7200000000000000000000000000000000000000000000000000000000000000602082015250565b60006150346021836143e8565b915061503f82614fd8565b604082019050919050565b6000602082019050818103600083015261506381615027565b9050919050565b7f4552433732313a20617070726f76652063616c6c6572206973206e6f7420746f60008201527f6b656e206f776e6572206f7220617070726f76656420666f7220616c6c000000602082015250565b60006150c6603d836143e8565b91506150d18261506a565b604082019050919050565b600060208201905081810360008301526150f5816150b9565b9050919050565b7f4552433732313a2063616c6c6572206973206e6f7420746f6b656e206f776e6560008201527f72206f7220617070726f76656400000000000000000000000000000000000000602082015250565b6000615158602d836143e8565b9150615163826150fc565b604082019050919050565b600060208201905081810360008301526151878161514b565b9050919050565b7f4e6f2066756e647320746f207769746864726177000000000000000000000000600082015250565b60006151c46014836143e8565b91506151cf8261518e565b602082019050919050565b600060208201905081810360008301526151f3816151b7565b9050919050565b600081905092915050565b50565b60006152156000836151fa565b915061522082615205565b600082019050919050565b600061523682615208565b9150819050919050565b7f5769746864726177616c206661696c6564000000000000000000000000000000600082015250565b60006152766011836143e8565b915061528182615240565b602082019050919050565b600060208201905081810360008301526152a581615269565b9050919050565b7f4552433732313a20696e76616c696420746f6b656e2049440000000000000000600082015250565b60006152e26018836143e8565b91506152ed826152ac565b602082019050919050565b60006020820190508181036000830152615311816152d5565b9050919050565b7f41756374696f6e206e6f74206163746976650000000000000000000000000000600082015250565b600061534e6012836143e8565b915061535982615318565b602082019050919050565b6000602082019050818103600083015261537d81615341565b9050919050565b7f41756374696f6e20686173206e6f7420656e6465642079657400000000000000600082015250565b60006153ba6019836143e8565b91506153c582615384565b602082019050919050565b600060208201905081810360008301526153e9816153ad565b9050919050565b7f4e487b7100000000000000000000000000000000000000000000000000000000600052603260045260246000fd5b7f526f79616c7479206d757374206265206265747765656e203020616e6420313060008201527f3000000000000000000000000000000000000000000000000000000000000000602082015250565b600061547b6021836143e8565b91506154868261541f565b604082019050919050565b600060208201905081810360008301526154aa8161546e565b9050919050565b60006154bc826142ac565b91506154c7836142ac565b9250817fffffffffffffffffffffffffffffffffffffffffffffffffffffffffffffffff0483118215151615615500576154ff614ea0565b5b828202905092915050565b7f4e487b7100000000000000000000000000000000000000000000000000000000600052601260045260246000fd5b6000615545826142ac565b9150615550836142ac565b9250826155605761555f61550b565b5b828204905092915050565b6000615576826142ac565b91507fffffffffffffffffffffffffffffffffffffffffffffffffffffffffffffffff8214156155a9576155a8614ea0565b5b600182019050919050565b60006155bf826142ac565b91506155ca836142ac565b9250828210156155dd576155dc614ea0565b5b828203905092915050565b60006060820190506155fd60008301866146f1565b61560a60208301856144f7565b61561760408301846146f1565b949350505050565b7f4552433732313a2061646472657373207a65726f206973206e6f74206120766160008201527f6c6964206f776e65720000000000000000000000000000000000000000000000602082015250565b600061567b6029836143e8565b91506156868261561f565b604082019050919050565b600060208201905081810360008301526156aa8161566e565b9050919050565b7f5072696365206d7573742062652067726561746572207468616e203000000000600082015250565b60006156e7601c836143e8565b91506156f2826156b1565b602082019050919050565b60006020820190508181036000830152615716816156da565b9050919050565b7f41756374696f6e2068617320656e646564000000000000000000000000000000600082015250565b60006157536011836143e8565b915061575e8261571d565b602082019050919050565b6000602082019050818103600083015261578281615746565b9050919050565b7f426964206d75737420626520686967686572207468616e20746865206375727260008201527f656e742068696768657374206269640000000000000000000000000000000000602082015250565b60006157e5602f836143e8565b91506157f082615789565b604082019050919050565b60006020820190508181036000830152615814816157d8565b9050919050565b7f496e76616c6964206f6666657220696e64657800000000000000000000000000600082015250565b60006158516013836143e8565b915061585c8261581b565b602082019050919050565b6000602082019050818103600083015261588081615844565b9050919050565b7f4f6666657220646f6573206e6f74206578697374000000000000000000000000600082015250565b60006158bd6014836143e8565b91506158c882615887565b602082019050919050565b600060208201905081810360008301526158ec816158b0565b9050919050565b7f496e76616c696420627579657220616464726573730000000000000000000000600082015250565b60006159296015836143e8565b9150615934826158f3565b602082019050919050565b600060208201905081810360008301526159588161591c565b9050919050565b7f4e6f742074686520627579657200000000000000000000000000000000000000600082015250565b6000615995600d836143e8565b91506159a08261595f565b602082019050919050565b600060208201905081810360008301526159c481615988565b9050919050565b7f4e6f74207468652073656c6c6572000000000000000000000000000000000000600082015250565b6000615a01600e836143e8565b9150615a0c826159cb565b602082019050919050565b60006020820190508181036000830152615a30816159f4565b9050919050565b7f496e73756666696369656e742066756e64730000000000000000000000000000600082015250565b6000615a6d6012836143e8565b9150615a7882615a37565b602082019050919050565b60006020820190508181036000830152615a9c81615a60565b9050919050565b6000604082019050615ab860008301856144f7565b615ac560208301846146f1565b9392505050565b600081519050615adb816142b6565b92915050565b600060208284031215615af757615af66142a2565b5b6000615b0584828501615acc565b91505092915050565b7f496e76616c6964206d61726b6574206665652070657263656e74616765000000600082015250565b6000615b44601d836143e8565b9150615b4f82615b0e565b602082019050919050565b60006020820190508181036000830152615b7381615b37565b9050919050565b7f546f6b656e206e6f7420666f722073616c650000000000000000000000000000600082015250565b6000615bb06012836143e8565b9150615bbb82615b7a565b602082019050919050565b60006020820190508181036000830152615bdf81615ba3565b9050919050565b7f4f776e61626c653a206e6577206f776e657220697320746865207a65726f206160008201527f6464726573730000000000000000000000000000000000000000000000000000602082015250565b6000615c426026836143e8565b9150615c4d82615be6565b604082019050919050565b60006020820190508181036000830152615c7181615c35565b9050919050565b7f4552433732313a206d696e7420746f20746865207a65726f2061646472657373600082015250565b6000615cae6020836143e8565b9150615cb982615c78565b602082019050919050565b60006020820190508181036000830152615cdd81615ca1565b9050919050565b7f4552433732313a20746f6b656e20616c7265616479206d696e74656400000000600082015250565b6000615d1a601c836143e8565b9150615d2582615ce4565b602082019050919050565b60006020820190508181036000830152615d4981615d0d565b9050919050565b7f45524337323155524953746f726167653a2055524920736574206f66206e6f6e60008201527f6578697374656e7420746f6b656e000000000000000000000000000000000000602082015250565b6000615dac602e836143e8565b9150615db782615d50565b604082019050919050565b60006020820190508181036000830152615ddb81615d9f565b9050919050565b7f4552433732313a207472616e736665722066726f6d20696e636f72726563742060008201527f6f776e6572000000000000000000000000000000000000000000000000000000602082015250565b6000615e3e6025836143e8565b9150615e4982615de2565b604082019050919050565b60006020820190508181036000830152615e6d81615e31565b9050919050565b7f4552433732313a207472616e7366657220746f20746865207a65726f2061646460008201527f7265737300000000000000000000000000000000000000000000000000000000602082015250565b6000615ed06024836143e8565b9150615edb82615e74565b604082019050919050565b60006020820190508181036000830152615eff81615ec3565b9050919050565b7f4f776e61626c653a2063616c6c6572206973206e6f7420746865206f776e6572600082015250565b6000615f3c6020836143e8565b9150615f4782615f06565b602082019050919050565b60006020820190508181036000830152615f6b81615f2f565b9050919050565b7f4552433732313a20617070726f766520746f2063616c6c657200000000000000600082015250565b6000615fa86019836143e8565b9150615fb382615f72565b602082019050919050565b60006020820190508181036000830152615fd781615f9b565b9050919050565b7f4552433732313a207472616e7366657220746f206e6f6e20455243373231526560008201527f63656976657220696d706c656d656e7465720000000000000000000000000000602082015250565b600061603a6032836143e8565b915061604582615fde565b604082019050919050565b600060208201905081810360008301526160698161602d565b9050919050565b600081905092915050565b6000616086826143dd565b6160908185616070565b93506160a08185602086016143f9565b80840191505092915050565b60006160b8828561607b565b91506160c4828461607b565b91508190509392505050565b600081519050919050565b600082825260208201905092915050565b60006160f7826160d0565b61610181856160db565b93506161118185602086016143f9565b61611a8161442c565b840191505092915050565b600060808201905061613a60008301876144f7565b61614760208301866144f7565b61615460408301856146f1565b818103606083015261616681846160ec565b905095945050505050565b6000815190506161808161434e565b92915050565b60006020828403121561619c5761619b6142a2565b5b60006161aa84828501616171565b9150509291505056fea2646970667358221220e7ddb50fc77308284447c1fbf3cd72208d86318ec403e56922924b6f82e438a264736f6c63430008080033",
  "linkReferences": {},
  "deployedLinkReferences": {}
}