{
  "_format": "hh-sol-artifact-1",
  "contractName": "NFTMarketplace",
  "sourceName": "contracts/Market.sol",
  "abi": [
    {
      "inputs": [],
      "stateMutability": "nonpayable",
      "type": "constructor"
    },
    {
      "anonymous": false,
      "inputs": [
        {
          "indexed": true,
          "internalType": "address",
          "name": "owner",
          "type": "address"
        },
        {
          "indexed": true,
          "internalType": "address",
          "name": "approved",
          "type": "address"
        },
        {
          "indexed": true,
          "internalType": "uint256",
          "name": "tokenId",
          "type": "uint256"
        }
      ],
      "name": "Approval",
      "type": "event"
    },
    {
      "anonymous": false,
      "inputs": [
        {
          "indexed": true,
          "internalType": "address",
          "name": "owner",
          "type": "address"
        },
        {
          "indexed": true,
          "internalType": "address",
          "name": "operator",
          "type": "address"
        },
        {
          "indexed": false,
          "internalType": "bool",
          "name": "approved",
          "type": "bool"
        }
      ],
      "name": "ApprovalForAll",
      "type": "event"
    },
    {
      "anonymous": false,
      "inputs": [
        {
          "indexed": false,
          "internalType": "uint256",
          "name": "tokenId",
          "type": "uint256"
        },
        {
          "indexed": false,
          "internalType": "uint256",
          "name": "endTime",
          "type": "uint256"
        }
      ],
      "name": "AuctionCreated",
      "type": "event"
    },
    {
      "anonymous": false,
      "inputs": [
        {
          "indexed": false,
          "internalType": "uint256",
          "name": "tokenId",
          "type": "uint256"
        },
        {
          "indexed": false,
          "internalType": "address",
          "name": "highestBidder",
          "type": "address"
        },
        {
          "indexed": false,
          "internalType": "uint256",
          "name": "highestBid",
          "type": "uint256"
        }
      ],
      "name": "AuctionEnded",
      "type": "event"
    },
    {
      "anonymous": false,
      "inputs": [
        {
          "indexed": false,
          "internalType": "uint256",
          "name": "tokenId",
          "type": "uint256"
        },
        {
          "indexed": false,
          "internalType": "address",
          "name": "bidder",
          "type": "address"
        },
        {
          "indexed": false,
          "internalType": "uint256",
          "name": "bid",
          "type": "uint256"
        }
      ],
      "name": "BidPlaced",
      "type": "event"
    },
    {
      "anonymous": false,
      "inputs": [
        {
          "indexed": false,
          "internalType": "uint256",
          "name": "newMarketFeePercentage",
          "type": "uint256"
        }
      ],
      "name": "MarketFeePercentageChanged",
      "type": "event"
    },
    {
      "anonymous": false,
      "inputs": [
        {
          "indexed": true,
          "internalType": "uint256",
          "name": "tokenId",
          "type": "uint256"
        },
        {
          "indexed": true,
          "internalType": "address",
          "name": "seller",
          "type": "address"
        },
        {
          "indexed": false,
          "internalType": "uint256",
          "name": "price",
          "type": "uint256"
        }
      ],
      "name": "NFTListed",
      "type": "event"
    },
    {
      "anonymous": false,
      "inputs": [
        {
          "indexed": true,
          "internalType": "uint256",
          "name": "tokenId",
          "type": "uint256"
        },
        {
          "indexed": true,
          "internalType": "address",
          "name": "seller",
          "type": "address"
        }
      ],
      "name": "NFTListingCanceled",
      "type": "event"
    },
    {
      "anonymous": false,
      "inputs": [
        {
          "indexed": false,
          "internalType": "uint256",
          "name": "tokenId",
          "type": "uint256"
        }
      ],
      "name": "OfferCanceled",
      "type": "event"
    },
    {
      "anonymous": false,
      "inputs": [
        {
          "indexed": false,
          "internalType": "uint256",
          "name": "tokenId",
          "type": "uint256"
        },
        {
          "indexed": false,
          "internalType": "uint256",
          "name": "price",
          "type": "uint256"
        },
        {
          "indexed": false,
          "internalType": "uint256",
          "name": "royalty",
          "type": "uint256"
        }
      ],
      "name": "OfferCreated",
      "type": "event"
    },
    {
      "anonymous": false,
      "inputs": [
        {
          "indexed": true,
          "internalType": "uint256",
          "name": "tokenId",
          "type": "uint256"
        },
        {
          "indexed": true,
          "internalType": "address",
          "name": "requester",
          "type": "address"
        },
        {
          "indexed": false,
          "internalType": "uint256",
          "name": "price",
          "type": "uint256"
        }
      ],
      "name": "OfferRequestAccepted",
      "type": "event"
    },
    {
      "anonymous": false,
      "inputs": [
        {
          "indexed": true,
          "internalType": "uint256",
          "name": "tokenId",
          "type": "uint256"
        },
        {
          "indexed": true,
          "internalType": "address",
          "name": "requester",
          "type": "address"
        }
      ],
      "name": "OfferRequestRejected",
      "type": "event"
    },
    {
      "anonymous": false,
      "inputs": [
        {
          "indexed": true,
          "internalType": "uint256",
          "name": "tokenId",
          "type": "uint256"
        },
        {
          "indexed": true,
          "internalType": "address",
          "name": "requester",
          "type": "address"
        },
        {
          "indexed": false,
          "internalType": "uint256",
          "name": "price",
          "type": "uint256"
        }
      ],
      "name": "OfferRequested",
      "type": "event"
    },
    {
      "anonymous": false,
      "inputs": [
        {
          "indexed": true,
          "internalType": "address",
          "name": "previousOwner",
          "type": "address"
        },
        {
          "indexed": true,
          "internalType": "address",
          "name": "newOwner",
          "type": "address"
        }
      ],
      "name": "OwnershipTransferred",
      "type": "event"
    },
    {
      "anonymous": false,
      "inputs": [
        {
          "indexed": false,
          "internalType": "uint256",
          "name": "tokenId",
          "type": "uint256"
        },
        {
          "indexed": false,
          "internalType": "address",
          "name": "owner",
          "type": "address"
        }
      ],
      "name": "TokenMinted",
      "type": "event"
    },
    {
      "anonymous": false,
      "inputs": [
        {
          "indexed": true,
          "internalType": "address",
          "name": "from",
          "type": "address"
        },
        {
          "indexed": true,
          "internalType": "address",
          "name": "to",
          "type": "address"
        },
        {
          "indexed": true,
          "internalType": "uint256",
          "name": "tokenId",
          "type": "uint256"
        }
      ],
      "name": "Transfer",
      "type": "event"
    },
    {
      "anonymous": false,
      "inputs": [
        {
          "indexed": true,
          "internalType": "uint256",
          "name": "tokenId",
          "type": "uint256"
        },
        {
          "indexed": true,
          "internalType": "address",
          "name": "buyer",
          "type": "address"
        },
        {
          "indexed": false,
          "internalType": "uint256",
          "name": "price",
          "type": "uint256"
        }
      ],
      "name": "UserOfferAccepted",
      "type": "event"
    },
    {
      "anonymous": false,
      "inputs": [
        {
          "indexed": true,
          "internalType": "uint256",
          "name": "tokenId",
          "type": "uint256"
        },
        {
          "indexed": true,
          "internalType": "address",
          "name": "buyer",
          "type": "address"
        },
        {
          "indexed": false,
          "internalType": "uint256",
          "name": "price",
          "type": "uint256"
        }
      ],
      "name": "UserOfferAdded",
      "type": "event"
    },
    {
      "anonymous": false,
      "inputs": [
        {
          "indexed": true,
          "internalType": "uint256",
          "name": "tokenId",
          "type": "uint256"
        },
        {
          "indexed": true,
          "internalType": "address",
          "name": "buyer",
          "type": "address"
        }
      ],
      "name": "UserOfferRejected",
      "type": "event"
    },
    {
      "anonymous": false,
      "inputs": [
        {
          "indexed": true,
          "internalType": "uint256",
          "name": "tokenId",
          "type": "uint256"
        },
        {
          "indexed": true,
          "internalType": "address",
          "name": "buyer",
          "type": "address"
        }
      ],
      "name": "UserOfferRemoved",
      "type": "event"
    },
    {
      "inputs": [
        {
          "internalType": "uint256",
          "name": "tokenId",
          "type": "uint256"
        },
        {
          "internalType": "uint256",
          "name": "index",
          "type": "uint256"
        },
        {
          "internalType": "address[]",
          "name": "_Royaltyrecipients",
          "type": "address[]"
        },
        {
          "internalType": "uint256[]",
          "name": "_Royaltyamounts",
          "type": "uint256[]"
        }
      ],
      "name": "acceptUserOffer",
      "outputs": [],
      "stateMutability": "nonpayable",
      "type": "function"
    },
    {
      "inputs": [
        {
          "internalType": "uint256",
          "name": "tokenId",
          "type": "uint256"
        },
        {
          "internalType": "uint256",
          "name": "price",
          "type": "uint256"
        }
      ],
      "name": "addOffer",
      "outputs": [],
      "stateMutability": "nonpayable",
      "type": "function"
    },
    {
      "inputs": [
        {
          "internalType": "address",
          "name": "to",
          "type": "address"
        },
        {
          "internalType": "uint256",
          "name": "tokenId",
          "type": "uint256"
        }
      ],
      "name": "approve",
      "outputs": [],
      "stateMutability": "nonpayable",
      "type": "function"
    },
    {
      "inputs": [
        {
          "internalType": "address",
          "name": "owner",
          "type": "address"
        }
      ],
      "name": "balanceOf",
      "outputs": [
        {
          "internalType": "uint256",
          "name": "",
          "type": "uint256"
        }
      ],
      "stateMutability": "view",
      "type": "function"
    },
    {
      "inputs": [
        {
          "internalType": "uint256",
          "name": "tokenId",
          "type": "uint256"
        },
        {
          "internalType": "address[]",
          "name": "_Royaltyrecipients",
          "type": "address[]"
        },
        {
          "internalType": "uint256[]",
          "name": "_Royaltyamounts",
          "type": "uint256[]"
        },
        {
          "internalType": "uint256",
          "name": "quantity",
          "type": "uint256"
        }
      ],
      "name": "buyNFT",
      "outputs": [],
      "stateMutability": "payable",
      "type": "function"
    },
    {
      "inputs": [
        {
          "internalType": "uint256",
          "name": "tokenId",
          "type": "uint256"
        }
      ],
      "name": "cancelAuction",
      "outputs": [],
      "stateMutability": "nonpayable",
      "type": "function"
    },
    {
      "inputs": [
        {
          "internalType": "uint256",
          "name": "tokenId",
          "type": "uint256"
        }
      ],
      "name": "cancelNFTListing",
      "outputs": [],
      "stateMutability": "nonpayable",
      "type": "function"
    },
    {
      "inputs": [
        {
          "internalType": "uint256",
          "name": "tokenId",
          "type": "uint256"
        },
        {
          "internalType": "uint256",
          "name": "duration",
          "type": "uint256"
        }
      ],
      "name": "createAuction",
      "outputs": [],
      "stateMutability": "nonpayable",
      "type": "function"
    },
    {
      "inputs": [
        {
          "internalType": "uint256",
          "name": "tokenId",
          "type": "uint256"
        }
      ],
      "name": "depositForOffer",
      "outputs": [],
      "stateMutability": "payable",
      "type": "function"
    },
    {
      "inputs": [
        {
          "internalType": "uint256",
          "name": "tokenId",
          "type": "uint256"
        },
        {
          "internalType": "address[]",
          "name": "_Royaltyrecipients",
          "type": "address[]"
        },
        {
          "internalType": "uint256[]",
          "name": "_Royaltyamounts",
          "type": "uint256[]"
        }
      ],
      "name": "endAuction",
      "outputs": [],
      "stateMutability": "nonpayable",
      "type": "function"
    },
    {
      "inputs": [
        {
          "internalType": "uint256",
          "name": "tokenId",
          "type": "uint256"
        }
      ],
      "name": "getApproved",
      "outputs": [
        {
          "internalType": "address",
          "name": "",
          "type": "address"
        }
      ],
      "stateMutability": "view",
      "type": "function"
    },
    {
      "inputs": [
        {
          "internalType": "address",
          "name": "owner",
          "type": "address"
        },
        {
          "internalType": "address",
          "name": "operator",
          "type": "address"
        }
      ],
      "name": "isApprovedForAll",
      "outputs": [
        {
          "internalType": "bool",
          "name": "",
          "type": "bool"
        }
      ],
      "stateMutability": "view",
      "type": "function"
    },
    {
      "inputs": [
        {
          "internalType": "uint256",
          "name": "tokenId",
          "type": "uint256"
        },
        {
          "internalType": "uint256",
          "name": "price",
          "type": "uint256"
        }
      ],
      "name": "listNFT",
      "outputs": [],
      "stateMutability": "nonpayable",
      "type": "function"
    },
    {
      "inputs": [],
      "name": "marketFeePercentage",
      "outputs": [
        {
          "internalType": "uint256",
          "name": "",
          "type": "uint256"
        }
      ],
      "stateMutability": "view",
      "type": "function"
    },
    {
      "inputs": [
        {
          "internalType": "address",
          "name": "recipient",
          "type": "address"
        },
        {
          "internalType": "string",
          "name": "tokenURI",
          "type": "string"
        },
        {
          "internalType": "uint256",
          "name": "tokenId",
          "type": "uint256"
        },
        {
          "internalType": "uint256",
          "name": "copies",
          "type": "uint256"
        }
      ],
      "name": "mintNFT",
      "outputs": [
        {
          "internalType": "uint256",
          "name": "",
          "type": "uint256"
        }
      ],
      "stateMutability": "nonpayable",
      "type": "function"
    },
    {
      "inputs": [],
      "name": "name",
      "outputs": [
        {
          "internalType": "string",
          "name": "",
          "type": "string"
        }
      ],
      "stateMutability": "view",
      "type": "function"
    },
    {
      "inputs": [],
      "name": "owner",
      "outputs": [
        {
          "internalType": "address",
          "name": "",
          "type": "address"
        }
      ],
      "stateMutability": "view",
      "type": "function"
    },
    {
      "inputs": [
        {
          "internalType": "uint256",
          "name": "tokenId",
          "type": "uint256"
        }
      ],
      "name": "ownerOf",
      "outputs": [
        {
          "internalType": "address",
          "name": "",
          "type": "address"
        }
      ],
      "stateMutability": "view",
      "type": "function"
    },
    {
      "inputs": [
        {
          "internalType": "address",
          "name": "",
          "type": "address"
        }
      ],
      "name": "pendingWithdrawals",
      "outputs": [
        {
          "internalType": "uint256",
          "name": "",
          "type": "uint256"
        }
      ],
      "stateMutability": "view",
      "type": "function"
    },
    {
      "inputs": [
        {
          "internalType": "uint256",
          "name": "tokenId",
          "type": "uint256"
        }
      ],
      "name": "placeBid",
      "outputs": [],
      "stateMutability": "payable",
      "type": "function"
    },
    {
      "inputs": [
        {
          "internalType": "uint256",
          "name": "tokenId",
          "type": "uint256"
        },
        {
          "internalType": "uint256",
          "name": "index",
          "type": "uint256"
        }
      ],
      "name": "rejectUserOffer",
      "outputs": [],
      "stateMutability": "nonpayable",
      "type": "function"
    },
    {
      "inputs": [
        {
          "internalType": "uint256",
          "name": "tokenId",
          "type": "uint256"
        },
        {
          "internalType": "uint256",
          "name": "index",
          "type": "uint256"
        }
      ],
      "name": "removeOffer",
      "outputs": [],
      "stateMutability": "nonpayable",
      "type": "function"
    },
    {
      "inputs": [],
      "name": "renounceOwnership",
      "outputs": [],
      "stateMutability": "nonpayable",
      "type": "function"
    },
    {
      "inputs": [
        {
          "internalType": "address",
          "name": "from",
          "type": "address"
        },
        {
          "internalType": "address",
          "name": "to",
          "type": "address"
        },
        {
          "internalType": "uint256",
          "name": "tokenId",
          "type": "uint256"
        }
      ],
      "name": "safeTransferFrom",
      "outputs": [],
      "stateMutability": "nonpayable",
      "type": "function"
    },
    {
      "inputs": [
        {
          "internalType": "address",
          "name": "from",
          "type": "address"
        },
        {
          "internalType": "address",
          "name": "to",
          "type": "address"
        },
        {
          "internalType": "uint256",
          "name": "tokenId",
          "type": "uint256"
        },
        {
          "internalType": "bytes",
          "name": "data",
          "type": "bytes"
        }
      ],
      "name": "safeTransferFrom",
      "outputs": [],
      "stateMutability": "nonpayable",
      "type": "function"
    },
    {
      "inputs": [
        {
          "internalType": "address",
          "name": "operator",
          "type": "address"
        },
        {
          "internalType": "bool",
          "name": "approved",
          "type": "bool"
        }
      ],
      "name": "setApprovalForAll",
      "outputs": [],
      "stateMutability": "nonpayable",
      "type": "function"
    },
    {
      "inputs": [
        {
          "internalType": "uint256",
          "name": "newMarketFeePercentage",
          "type": "uint256"
        }
      ],
      "name": "setMarketFeePercentage",
      "outputs": [],
      "stateMutability": "nonpayable",
      "type": "function"
    },
    {
      "inputs": [
        {
          "internalType": "bytes4",
          "name": "interfaceId",
          "type": "bytes4"
        }
      ],
      "name": "supportsInterface",
      "outputs": [
        {
          "internalType": "bool",
          "name": "",
          "type": "bool"
        }
      ],
      "stateMutability": "view",
      "type": "function"
    },
    {
      "inputs": [],
      "name": "symbol",
      "outputs": [
        {
          "internalType": "string",
          "name": "",
          "type": "string"
        }
      ],
      "stateMutability": "view",
      "type": "function"
    },
    {
      "inputs": [
        {
          "internalType": "uint256",
          "name": "",
          "type": "uint256"
        }
      ],
      "name": "tokenIdToAuction",
      "outputs": [
        {
          "internalType": "bool",
          "name": "isActive",
          "type": "bool"
        },
        {
          "internalType": "uint256",
          "name": "tokenId",
          "type": "uint256"
        },
        {
          "internalType": "address",
          "name": "highestBidder",
          "type": "address"
        },
        {
          "internalType": "uint256",
          "name": "highestBid",
          "type": "uint256"
        },
        {
          "internalType": "uint256",
          "name": "endTime",
          "type": "uint256"
        }
      ],
      "stateMutability": "view",
      "type": "function"
    },
    {
      "inputs": [
        {
          "internalType": "uint256",
          "name": "",
          "type": "uint256"
        }
      ],
      "name": "tokenIdToOffer",
      "outputs": [
        {
          "internalType": "bool",
          "name": "isForSale",
          "type": "bool"
        },
        {
          "internalType": "uint256",
          "name": "tokenId",
          "type": "uint256"
        },
        {
          "internalType": "address",
          "name": "seller",
          "type": "address"
        },
        {
          "internalType": "uint256",
          "name": "askingPrice",
          "type": "uint256"
        }
      ],
      "stateMutability": "view",
      "type": "function"
    },
    {
      "inputs": [
        {
          "internalType": "uint256",
          "name": "",
          "type": "uint256"
        }
      ],
      "name": "tokenIdToOfferRequest",
      "outputs": [
        {
          "internalType": "bool",
          "name": "hasOffer",
          "type": "bool"
        },
        {
          "internalType": "uint256",
          "name": "tokenId",
          "type": "uint256"
        },
        {
          "internalType": "address",
          "name": "requester",
          "type": "address"
        },
        {
          "internalType": "uint256",
          "name": "price",
          "type": "uint256"
        }
      ],
      "stateMutability": "view",
      "type": "function"
    },
    {
      "inputs": [
        {
          "internalType": "uint256",
          "name": "",
          "type": "uint256"
        }
      ],
      "name": "tokenOwnerCopies",
      "outputs": [
        {
          "internalType": "address",
          "name": "owner",
          "type": "address"
        },
        {
          "internalType": "uint256",
          "name": "copies",
          "type": "uint256"
        }
      ],
      "stateMutability": "view",
      "type": "function"
    },
    {
      "inputs": [
        {
          "internalType": "uint256",
          "name": "tokenId",
          "type": "uint256"
        }
      ],
      "name": "tokenURI",
      "outputs": [
        {
          "internalType": "string",
          "name": "",
          "type": "string"
        }
      ],
      "stateMutability": "view",
      "type": "function"
    },
    {
      "inputs": [
        {
          "internalType": "address",
          "name": "_contract",
          "type": "address"
        },
        {
          "internalType": "address",
          "name": "owner",
          "type": "address"
        }
      ],
      "name": "tokensOfOwner",
      "outputs": [
        {
          "internalType": "uint256[]",
          "name": "",
          "type": "uint256[]"
        }
      ],
      "stateMutability": "view",
      "type": "function"
    },
    {
      "inputs": [
        {
          "internalType": "address",
          "name": "from",
          "type": "address"
        },
        {
          "internalType": "address",
          "name": "to",
          "type": "address"
        },
        {
          "internalType": "uint256",
          "name": "tokenId",
          "type": "uint256"
        }
      ],
      "name": "transferFrom",
      "outputs": [],
      "stateMutability": "nonpayable",
      "type": "function"
    },
    {
      "inputs": [
        {
          "internalType": "address",
          "name": "newOwner",
          "type": "address"
        }
      ],
      "name": "transferOwnership",
      "outputs": [],
      "stateMutability": "nonpayable",
      "type": "function"
    },
    {
      "inputs": [
        {
          "internalType": "uint256",
          "name": "tokenId",
          "type": "uint256"
        },
        {
          "internalType": "string",
          "name": "newTokenURI",
          "type": "string"
        }
      ],
      "name": "updateMetadataURI",
      "outputs": [],
      "stateMutability": "nonpayable",
      "type": "function"
    },
    {
      "inputs": [
        {
          "internalType": "uint256",
          "name": "",
          "type": "uint256"
        },
        {
          "internalType": "uint256",
          "name": "",
          "type": "uint256"
        }
      ],
      "name": "userOffers",
      "outputs": [
        {
          "internalType": "bool",
          "name": "exists",
          "type": "bool"
        },
        {
          "internalType": "uint256",
          "name": "tokenId",
          "type": "uint256"
        },
        {
          "internalType": "address",
          "name": "buyer",
          "type": "address"
        },
        {
          "internalType": "uint256",
          "name": "price",
          "type": "uint256"
        }
      ],
      "stateMutability": "view",
      "type": "function"
    },
    {
      "inputs": [],
      "name": "withdraw",
      "outputs": [],
      "stateMutability": "nonpayable",
      "type": "function"
    }
  ],
  "bytecode": "0x60806040523480156200001157600080fd5b506040518060400160405280600f81526020017f4e4654204d61726b6574706c61636500000000000000000000000000000000008152506040518060400160405280600481526020017f4e46544d00000000000000000000000000000000000000000000000000000000815250816000908051906020019062000096929190620001ae565b508060019080519060200190620000af929190620001ae565b505050620000d2620000c6620000e060201b60201c565b620000e860201b60201c565b6019600981905550620002c3565b600033905090565b6000600660009054906101000a900473ffffffffffffffffffffffffffffffffffffffff16905081600660006101000a81548173ffffffffffffffffffffffffffffffffffffffff021916908373ffffffffffffffffffffffffffffffffffffffff1602179055508173ffffffffffffffffffffffffffffffffffffffff168173ffffffffffffffffffffffffffffffffffffffff167f8be0079c531659141344cd1fd0a4f28419497f9722a3daafe3b4186f6b6457e060405160405180910390a35050565b828054620001bc906200028d565b90600052602060002090601f016020900481019282620001e057600085556200022c565b82601f10620001fb57805160ff19168380011785556200022c565b828001600101855582156200022c579182015b828111156200022b5782518255916020019190600101906200020e565b5b5090506200023b91906200023f565b5090565b5b808211156200025a57600081600090555060010162000240565b5090565b7f4e487b7100000000000000000000000000000000000000000000000000000000600052602260045260246000fd5b60006002820490506001821680620002a657607f821691505b60208210811415620002bd57620002bc6200025e565b5b50919050565b61666480620002d36000396000f3fe60806040526004361061023b5760003560e01c806396b5a7551161012e578063cfe8f487116100ab578063e4cd1d9f1161006f578063e4cd1d9f14610894578063e985e9c5146108bf578063ebbe7b7d146108fc578063f2fde38b14610925578063f3f437031461094e5761023b565b8063cfe8f4871461076f578063d531fe2b146107ac578063d712c4f2146107ec578063e34fbb2414610815578063e3b14757146108535761023b565b8063a86a7a70116100f2578063a86a7a7014610684578063aaad2eab146106c4578063ac0eeed5146106ed578063b88d4fde14610709578063c87b56dd146107325761023b565b806396b5a755146105c45780639979ef45146105ed5780639f9e9dad14610609578063a1c3b80114610632578063a22cb4651461065b5761023b565b80636352211e116101bc578063859a818b11610180578063859a818b146104df5780638da5cb5b1461051c5780638fe86b3f1461054757806394383f141461057057806395d89b41146105995761023b565b80636352211e146103fc5780636cf9cb7b1461043957806370a0823114610462578063715018a61461049f578063755f5196146104b65761023b565b806323b872dd1161020357806323b872dd146103375780633ccfd60b146103605780633ffef5b31461037757806342842e0e146103b757806344bda79b146103e05761023b565b80630121683f1461024057806301ffc9a71461026957806306fdde03146102a6578063081812fc146102d1578063095ea7b31461030e575b600080fd5b34801561024c57600080fd5b506102676004803603810190610262919061462e565b61098b565b005b34801561027557600080fd5b50610290600480360381019061028b91906146c6565b610b06565b60405161029d919061470e565b60405180910390f35b3480156102b257600080fd5b506102bb610be8565b6040516102c891906147c2565b60405180910390f35b3480156102dd57600080fd5b506102f860048036038101906102f391906147e4565b610c7a565b6040516103059190614852565b60405180910390f35b34801561031a57600080fd5b5061033560048036038101906103309190614899565b610cc0565b005b34801561034357600080fd5b5061035e600480360381019061035991906148d9565b610dd8565b005b34801561036c57600080fd5b50610375610e38565b005b34801561038357600080fd5b5061039e6004803603810190610399919061462e565b610fc9565b6040516103ae949392919061493b565b60405180910390f35b3480156103c357600080fd5b506103de60048036038101906103d991906148d9565b611043565b005b6103fa60048036038101906103f59190614b8b565b611063565b005b34801561040857600080fd5b50610423600480360381019061041e91906147e4565b611425565b6040516104309190614852565b60405180910390f35b34801561044557600080fd5b50610460600480360381019061045b9190614c2a565b6114ac565b005b34801561046e57600080fd5b5061048960048036038101906104849190614cb5565b61185d565b6040516104969190614ce2565b60405180910390f35b3480156104ab57600080fd5b506104b4611915565b005b3480156104c257600080fd5b506104dd60048036038101906104d8919061462e565b611929565b005b3480156104eb57600080fd5b5061050660048036038101906105019190614db2565b611b80565b6040516105139190614ce2565b60405180910390f35b34801561052857600080fd5b50610531611c6c565b60405161053e9190614852565b60405180910390f35b34801561055357600080fd5b5061056e60048036038101906105699190614e35565b611c96565b005b34801561057c57600080fd5b506105976004803603810190610592919061462e565b611cf4565b005b3480156105a557600080fd5b506105ae611eb3565b6040516105bb91906147c2565b60405180910390f35b3480156105d057600080fd5b506105eb60048036038101906105e691906147e4565b611f45565b005b610607600480360381019061060291906147e4565b612131565b005b34801561061557600080fd5b50610630600480360381019061062b9190614e91565b612395565b005b34801561063e57600080fd5b506106596004803603810190610654919061462e565b6128fb565b005b34801561066757600080fd5b50610682600480360381019061067d9190614f5c565b612abc565b005b34801561069057600080fd5b506106ab60048036038101906106a691906147e4565b612ad2565b6040516106bb949392919061493b565b60405180910390f35b3480156106d057600080fd5b506106eb60048036038101906106e691906147e4565b612b2f565b005b610707600480360381019061070291906147e4565b612c57565b005b34801561071557600080fd5b50610730600480360381019061072b919061503d565b612d16565b005b34801561073e57600080fd5b50610759600480360381019061075491906147e4565b612d78565b60405161076691906147c2565b60405180910390f35b34801561077b57600080fd5b50610796600480360381019061079191906150c0565b612d8a565b6040516107a391906151be565b60405180910390f35b3480156107b857600080fd5b506107d360048036038101906107ce91906147e4565b612eba565b6040516107e3949392919061493b565b60405180910390f35b3480156107f857600080fd5b50610813600480360381019061080e91906147e4565b612f17565b005b34801561082157600080fd5b5061083c600480360381019061083791906147e4565b612fb2565b60405161084a9291906151e0565b60405180910390f35b34801561085f57600080fd5b5061087a600480360381019061087591906147e4565b612ff6565b60405161088b959493929190615209565b60405180910390f35b3480156108a057600080fd5b506108a9613059565b6040516108b69190614ce2565b60405180910390f35b3480156108cb57600080fd5b506108e660048036038101906108e191906150c0565b61305f565b6040516108f3919061470e565b60405180910390f35b34801561090857600080fd5b50610923600480360381019061091e919061462e565b6130f3565b005b34801561093157600080fd5b5061094c60048036038101906109479190614cb5565b613400565b005b34801561095a57600080fd5b5061097560048036038101906109709190614cb5565b613484565b6040516109829190614ce2565b60405180910390f35b61099c61099661349c565b836134a4565b6109db576040517f08c379a00000000000000000000000000000000000000000000000000000000081526004016109d2906152a8565b60405180910390fd5b600081426109e991906152f7565b90506040518060a00160405280600115158152602001848152602001600073ffffffffffffffffffffffffffffffffffffffff1681526020016000815260200182815250600b600085815260200190815260200160002060008201518160000160006101000a81548160ff0219169083151502179055506020820151816001015560408201518160020160006101000a81548173ffffffffffffffffffffffffffffffffffffffff021916908373ffffffffffffffffffffffffffffffffffffffff16021790555060608201518160030155608082015181600401559050507fe00a2da3a0f34a566402a244ab7ec63f8ab7472591cb18edf3269aa00461a4108382604051610af992919061534d565b60405180910390a1505050565b60007f80ac58cd000000000000000000000000000000000000000000000000000000007bffffffffffffffffffffffffffffffffffffffffffffffffffffffff1916827bffffffffffffffffffffffffffffffffffffffffffffffffffffffff19161480610bd157507f5b5e139f000000000000000000000000000000000000000000000000000000007bffffffffffffffffffffffffffffffffffffffffffffffffffffffff1916827bffffffffffffffffffffffffffffffffffffffffffffffffffffffff1916145b80610be15750610be082613539565b5b9050919050565b606060008054610bf7906153a5565b80601f0160208091040260200160405190810160405280929190818152602001828054610c23906153a5565b8015610c705780601f10610c4557610100808354040283529160200191610c70565b820191906000526020600020905b815481529060010190602001808311610c5357829003601f168201915b5050505050905090565b6000610c85826135a3565b6004600083815260200190815260200160002060009054906101000a900473ffffffffffffffffffffffffffffffffffffffff169050919050565b6000610ccb82611425565b90508073ffffffffffffffffffffffffffffffffffffffff168373ffffffffffffffffffffffffffffffffffffffff161415610d3c576040517f08c379a0000000000000000000000000000000000000000000000000000000008152600401610d3390615449565b60405180910390fd5b8073ffffffffffffffffffffffffffffffffffffffff16610d5b61349c565b73ffffffffffffffffffffffffffffffffffffffff161480610d8a5750610d8981610d8461349c565b61305f565b5b610dc9576040517f08c379a0000000000000000000000000000000000000000000000000000000008152600401610dc0906154db565b60405180910390fd5b610dd383836135ee565b505050565b610de9610de361349c565b826134a4565b610e28576040517f08c379a0000000000000000000000000000000000000000000000000000000008152600401610e1f9061556d565b60405180910390fd5b610e338383836136a7565b505050565b6000600c6000610e4661349c565b73ffffffffffffffffffffffffffffffffffffffff1673ffffffffffffffffffffffffffffffffffffffff16815260200190815260200160002054905060008111610ec6576040517f08c379a0000000000000000000000000000000000000000000000000000000008152600401610ebd906155d9565b60405180910390fd5b6000600c6000610ed461349c565b73ffffffffffffffffffffffffffffffffffffffff1673ffffffffffffffffffffffffffffffffffffffff168152602001908152602001600020819055506000610f1c61349c565b73ffffffffffffffffffffffffffffffffffffffff1682604051610f3f9061562a565b60006040518083038185875af1925050503d8060008114610f7c576040519150601f19603f3d011682016040523d82523d6000602084013e610f81565b606091505b5050905080610fc5576040517f08c379a0000000000000000000000000000000000000000000000000000000008152600401610fbc9061568b565b60405180910390fd5b5050565b600f6020528160005260406000208181548110610fe557600080fd5b9060005260206000209060040201600091509150508060000160009054906101000a900460ff16908060010154908060020160009054906101000a900473ffffffffffffffffffffffffffffffffffffffff16908060030154905084565b61105e83838360405180602001604052806000815250612d16565b505050565b6000600a60008681526020019081526020016000206040518060800160405290816000820160009054906101000a900460ff16151515158152602001600182015481526020016002820160009054906101000a900473ffffffffffffffffffffffffffffffffffffffff1673ffffffffffffffffffffffffffffffffffffffff1673ffffffffffffffffffffffffffffffffffffffff1681526020016003820154815250509050806000015161114e576040517f08c379a0000000000000000000000000000000000000000000000000000000008152600401611145906156f7565b60405180910390fd5b81816060015161115e9190615717565b3410156111a0576040517f08c379a0000000000000000000000000000000000000000000000000000000008152600401611197906157bd565b60405180910390fd5b6000808551905060005b8181116112e05760008782815181106111c6576111c56157dd565b5b6020026020010151905060008783815181106111e5576111e46157dd565b5b6020026020010151905060008110158015611201575060648111155b611240576040517f08c379a00000000000000000000000000000000000000000000000000000000081526004016112379061587e565b60405180910390fd5b60008111156112cb576000606482346112599190615717565b61126391906158cd565b9050808661127191906152f7565b955080600c60008573ffffffffffffffffffffffffffffffffffffffff1673ffffffffffffffffffffffffffffffffffffffff16815260200190815260200160002060008282546112c291906152f7565b92505081905550505b505080806112d8906158fe565b9150506111aa565b5060006103e8600954346112f49190615717565b6112fe91906158cd565b9050600081843461130f9190615947565b6113199190615947565b905080600c600061132861349c565b73ffffffffffffffffffffffffffffffffffffffff1673ffffffffffffffffffffffffffffffffffffffff168152602001908152602001600020600082825461137191906152f7565b9250508190555081600c6000611385611c6c565b73ffffffffffffffffffffffffffffffffffffffff1673ffffffffffffffffffffffffffffffffffffffff16815260200190815260200160002060008282546113ce91906152f7565b925050819055506113eb85604001516113e561349c565b8b6136a7565b6000600a60008b815260200190815260200160002060000160006101000a81548160ff021916908315150217905550505050505050505050565b600080611431836139a1565b9050600073ffffffffffffffffffffffffffffffffffffffff168173ffffffffffffffffffffffffffffffffffffffff1614156114a3576040517f08c379a000000000000000000000000000000000000000000000000000000000815260040161149a906159c7565b60405180910390fd5b80915050919050565b6000600b600085815260200190815260200160002090508060000160009054906101000a900460ff16611514576040517f08c379a000000000000000000000000000000000000000000000000000000000815260040161150b90615a33565b60405180910390fd5b806004015442101561155b576040517f08c379a000000000000000000000000000000000000000000000000000000000815260040161155290615a9f565b60405180910390fd5b6000808451905060005b81811161169f576000868281518110611581576115806157dd565b5b6020026020010151905060008683815181106115a05761159f6157dd565b5b60200260200101519050600081101580156115bc575060648111155b6115fb576040517f08c379a00000000000000000000000000000000000000000000000000000000081526004016115f29061587e565b60405180910390fd5b600081111561168a57600060648288600301546116189190615717565b61162291906158cd565b9050808661163091906152f7565b955080600c60008573ffffffffffffffffffffffffffffffffffffffff1673ffffffffffffffffffffffffffffffffffffffff168152602001908152602001600020600082825461168191906152f7565b92505081905550505b50508080611697906158fe565b915050611565565b5060006103e860095485600301546116b79190615717565b6116c191906158cd565b90506000818486600301546116d69190615947565b6116e09190615947565b905080600c60006116ef61349c565b73ffffffffffffffffffffffffffffffffffffffff1673ffffffffffffffffffffffffffffffffffffffff168152602001908152602001600020600082825461173891906152f7565b9250508190555081600c600061174c611c6c565b73ffffffffffffffffffffffffffffffffffffffff1673ffffffffffffffffffffffffffffffffffffffff168152602001908152602001600020600082825461179591906152f7565b925050819055506117d36117a889611425565b8660020160009054906101000a900473ffffffffffffffffffffffffffffffffffffffff168a6136a7565b60008560000160006101000a81548160ff0219169083151502179055507fd2aa34a4fdbbc6dff6a3e56f46e0f3ae2a31d7785ff3487aa5c95c642acea501888660020160009054906101000a900473ffffffffffffffffffffffffffffffffffffffff16876003015460405161184b93929190615abf565b60405180910390a15050505050505050565b60008073ffffffffffffffffffffffffffffffffffffffff168273ffffffffffffffffffffffffffffffffffffffff1614156118ce576040517f08c379a00000000000000000000000000000000000000000000000000000000081526004016118c590615b68565b60405180910390fd5b600360008373ffffffffffffffffffffffffffffffffffffffff1673ffffffffffffffffffffffffffffffffffffffff168152602001908152602001600020549050919050565b61191d6139de565b6119276000613a5c565b565b6000811161196c576040517f08c379a000000000000000000000000000000000000000000000000000000000815260040161196390615bd4565b60405180910390fd5b6000604051806080016040528060011515815260200184815260200161199061349c565b73ffffffffffffffffffffffffffffffffffffffff168152602001838152509050600f600084815260200190815260200160002081908060018154018082558091505060019003906000526020600020906004020160009091909190915060008201518160000160006101000a81548160ff0219169083151502179055506020820151816001015560408201518160020160006101000a81548173ffffffffffffffffffffffffffffffffffffffff021916908373ffffffffffffffffffffffffffffffffffffffff16021790555060608201518160030155505081600c6000611a7861349c565b73ffffffffffffffffffffffffffffffffffffffff1673ffffffffffffffffffffffffffffffffffffffff1681526020019081526020016000206000828254611ac19190615947565b9250508190555081600c6000611ad5611c6c565b73ffffffffffffffffffffffffffffffffffffffff1673ffffffffffffffffffffffffffffffffffffffff1681526020019081526020016000206000828254611b1e91906152f7565b92505081905550611b2d61349c565b73ffffffffffffffffffffffffffffffffffffffff16837f621602a81c41f208d6706724f028c3d6f902a344be2f9fc7fb5643d6df5c92cf84604051611b739190614ce2565b60405180910390a3505050565b6000611b8c8584613b22565b611b968385613d40565b60405180604001604052808673ffffffffffffffffffffffffffffffffffffffff16815260200183815250600e600085815260200190815260200160002060008201518160000160006101000a81548173ffffffffffffffffffffffffffffffffffffffff021916908373ffffffffffffffffffffffffffffffffffffffff160217905550602082015181600101559050507f3a5398bda6f1f57d6c96834fa9bf02b5517bdc847d14312015a917ba421c31c98386604051611c59929190615bf4565b60405180910390a1829050949350505050565b6000600660009054906101000a900473ffffffffffffffffffffffffffffffffffffffff16905090565b611ca7611ca161349c565b836134a4565b611ce6576040517f08c379a0000000000000000000000000000000000000000000000000000000008152600401611cdd906152a8565b60405180910390fd5b611cf08282613d40565b5050565b611d05611cff61349c565b836134a4565b611d44576040517f08c379a0000000000000000000000000000000000000000000000000000000008152600401611d3b906152a8565b60405180910390fd5b60008111611d87576040517f08c379a0000000000000000000000000000000000000000000000000000000008152600401611d7e90615bd4565b60405180910390fd5b6040518060800160405280600115158152602001838152602001611da961349c565b73ffffffffffffffffffffffffffffffffffffffff16815260200182815250600a600084815260200190815260200160002060008201518160000160006101000a81548160ff0219169083151502179055506020820151816001015560408201518160020160006101000a81548173ffffffffffffffffffffffffffffffffffffffff021916908373ffffffffffffffffffffffffffffffffffffffff16021790555060608201518160030155905050611e6161349c565b73ffffffffffffffffffffffffffffffffffffffff16827f5f9c03de076f5063cd3ebcfe8ef7aa8af378e4b35a83c77ba9777e97083879a283604051611ea79190614ce2565b60405180910390a35050565b606060018054611ec2906153a5565b80601f0160208091040260200160405190810160405280929190818152602001828054611eee906153a5565b8015611f3b5780601f10611f1057610100808354040283529160200191611f3b565b820191906000526020600020905b815481529060010190602001808311611f1e57829003601f168201915b5050505050905090565b6000600b600083815260200190815260200160002090508060000160009054906101000a900460ff16611fad576040517f08c379a0000000000000000000000000000000000000000000000000000000008152600401611fa490615a33565b60405180910390fd5b611fbe611fb861349c565b836134a4565b611ffd576040517f08c379a0000000000000000000000000000000000000000000000000000000008152600401611ff4906152a8565b60405180910390fd5b600073ffffffffffffffffffffffffffffffffffffffff168160020160009054906101000a900473ffffffffffffffffffffffffffffffffffffffff1673ffffffffffffffffffffffffffffffffffffffff16146120d4578060030154600c60008360020160009054906101000a900473ffffffffffffffffffffffffffffffffffffffff1673ffffffffffffffffffffffffffffffffffffffff1673ffffffffffffffffffffffffffffffffffffffff16815260200190815260200160002060008282546120cc91906152f7565b925050819055505b60008160000160006101000a81548160ff0219169083151502179055507fd2aa34a4fdbbc6dff6a3e56f46e0f3ae2a31d7785ff3487aa5c95c642acea5018260008060405161212593929190615c62565b60405180910390a15050565b6000600b600083815260200190815260200160002090508060000160009054906101000a900460ff16612199576040517f08c379a000000000000000000000000000000000000000000000000000000000815260040161219090615a33565b60405180910390fd5b806004015442106121df576040517f08c379a00000000000000000000000000000000000000000000000000000000081526004016121d690615ce5565b60405180910390fd5b80600301543411612225576040517f08c379a000000000000000000000000000000000000000000000000000000000815260040161221c90615d77565b60405180910390fd5b600073ffffffffffffffffffffffffffffffffffffffff168160020160009054906101000a900473ffffffffffffffffffffffffffffffffffffffff1673ffffffffffffffffffffffffffffffffffffffff16146122fc578060030154600c60008360020160009054906101000a900473ffffffffffffffffffffffffffffffffffffffff1673ffffffffffffffffffffffffffffffffffffffff1673ffffffffffffffffffffffffffffffffffffffff16815260200190815260200160002060008282546122f491906152f7565b925050819055505b61230461349c565b8160020160006101000a81548173ffffffffffffffffffffffffffffffffffffffff021916908373ffffffffffffffffffffffffffffffffffffffff1602179055503481600301819055507f0e54eff26401bf69b81b26f60bd85ef47f5d85275c1d268d84f68d6897431c478261237961349c565b3460405161238993929190615abf565b60405180910390a15050565b6123a66123a061349c565b856134a4565b6123e5576040517f08c379a00000000000000000000000000000000000000000000000000000000081526004016123dc906152a8565b60405180910390fd5b600f600085815260200190815260200160002080549050831061243d576040517f08c379a000000000000000000000000000000000000000000000000000000000815260040161243490615de3565b60405180910390fd5b600f60008581526020019081526020016000208381548110612462576124616157dd565b5b906000526020600020906004020160000160009054906101000a900460ff166124c0576040517f08c379a00000000000000000000000000000000000000000000000000000000081526004016124b790615e4f565b60405180910390fd5b6000600f600086815260200190815260200160002084815481106124e7576124e66157dd565b5b90600052602060002090600402016040518060800160405290816000820160009054906101000a900460ff16151515158152602001600182015481526020016002820160009054906101000a900473ffffffffffffffffffffffffffffffffffffffff1673ffffffffffffffffffffffffffffffffffffffff1673ffffffffffffffffffffffffffffffffffffffff1681526020016003820154815250509050600081606001519050600082604001519050600073ffffffffffffffffffffffffffffffffffffffff168173ffffffffffffffffffffffffffffffffffffffff161415612609576040517f08c379a000000000000000000000000000000000000000000000000000000000815260040161260090615ebb565b60405180910390fd5b6000600f600089815260200190815260200160002087815481106126305761262f6157dd565b5b906000526020600020906004020160000160006101000a81548160ff0219169083151502179055506000808651905060005b81811161279857600088828151811061267e5761267d6157dd565b5b60200260200101519050600088838151811061269d5761269c6157dd565b5b60200260200101519050600081101580156126b9575060648111155b6126f8576040517f08c379a00000000000000000000000000000000000000000000000000000000081526004016126ef9061587e565b60405180910390fd5b6000811115612783576000606482896127119190615717565b61271b91906158cd565b9050808661272991906152f7565b955080600c60008573ffffffffffffffffffffffffffffffffffffffff1673ffffffffffffffffffffffffffffffffffffffff168152602001908152602001600020600082825461277a91906152f7565b92505081905550505b50508080612790906158fe565b915050612662565b5060006103e8600954866127ac9190615717565b6127b691906158cd565b905060008184876127c79190615947565b6127d19190615947565b905080600c60006127e061349c565b73ffffffffffffffffffffffffffffffffffffffff1673ffffffffffffffffffffffffffffffffffffffff168152602001908152602001600020600082825461282991906152f7565b9250508190555081600c600061283d611c6c565b73ffffffffffffffffffffffffffffffffffffffff1673ffffffffffffffffffffffffffffffffffffffff168152602001908152602001600020600082825461288691906152f7565b9250508190555061289f61289861349c565b868d6136a7565b8473ffffffffffffffffffffffffffffffffffffffff168b7f7f584b34848385865b066dc153c88c882a41f1461d349a14181937f86d8b0429886040516128e69190614ce2565b60405180910390a35050505050505050505050565b600f6000838152602001908152602001600020805490508110612953576040517f08c379a000000000000000000000000000000000000000000000000000000000815260040161294a90615de3565b60405180910390fd5b61295b61349c565b73ffffffffffffffffffffffffffffffffffffffff16600f60008481526020019081526020016000208281548110612996576129956157dd565b5b906000526020600020906004020160020160009054906101000a900473ffffffffffffffffffffffffffffffffffffffff1673ffffffffffffffffffffffffffffffffffffffff1614612a1e576040517f08c379a0000000000000000000000000000000000000000000000000000000008152600401612a1590615f27565b60405180910390fd5b6000600f60008481526020019081526020016000208281548110612a4557612a446157dd565b5b906000526020600020906004020160000160006101000a81548160ff021916908315150217905550612a7561349c565b73ffffffffffffffffffffffffffffffffffffffff16827f7c49ef3636762858bc3078610b9cec68df66a78863ef2285cc9ea098530a481560405160405180910390a35050565b612ace612ac761349c565b8383613db4565b5050565b600d6020528060005260406000206000915090508060000160009054906101000a900460ff16908060010154908060020160009054906101000a900473ffffffffffffffffffffffffffffffffffffffff16908060030154905084565b612b3761349c565b73ffffffffffffffffffffffffffffffffffffffff16600a600083815260200190815260200160002060020160009054906101000a900473ffffffffffffffffffffffffffffffffffffffff1673ffffffffffffffffffffffffffffffffffffffff1614612bda576040517f08c379a0000000000000000000000000000000000000000000000000000000008152600401612bd190615f93565b60405180910390fd5b6000600a600083815260200190815260200160002060000160006101000a81548160ff021916908315150217905550612c1161349c565b73ffffffffffffffffffffffffffffffffffffffff16817fb96f3a932e41e36c142d78a86850c1c9a1ba2c62a595e23ea0dfbf876330ea5760405160405180910390a350565b6000600a600083815260200190815260200160002090508060030154341015612cb5576040517f08c379a0000000000000000000000000000000000000000000000000000000008152600401612cac906157bd565b60405180910390fd5b34600c6000612cc261349c565b73ffffffffffffffffffffffffffffffffffffffff1673ffffffffffffffffffffffffffffffffffffffff1681526020019081526020016000206000828254612d0b91906152f7565b925050819055505050565b612d27612d2161349c565b836134a4565b612d66576040517f08c379a0000000000000000000000000000000000000000000000000000000008152600401612d5d9061556d565b60405180910390fd5b612d7284848484613f21565b50505050565b6060612d8382613f7d565b9050919050565b60606000612d978361185d565b905060008167ffffffffffffffff811115612db557612db4614985565b5b604051908082528060200260200182016040528015612de35781602001602082028036833780820191505090505b50905060005b82811015612eae578573ffffffffffffffffffffffffffffffffffffffff16632f745c5986836040518363ffffffff1660e01b8152600401612e2c9291906151e0565b60206040518083038186803b158015612e4457600080fd5b505afa158015612e58573d6000803e3d6000fd5b505050506040513d601f19601f82011682018060405250810190612e7c9190615fc8565b828281518110612e8f57612e8e6157dd565b5b6020026020010181815250508080612ea6906158fe565b915050612de9565b50809250505092915050565b600a6020528060005260406000206000915090508060000160009054906101000a900460ff16908060010154908060020160009054906101000a900473ffffffffffffffffffffffffffffffffffffffff16908060030154905084565b612f1f6139de565b60008110158015612f3257506103e88111155b612f71576040517f08c379a0000000000000000000000000000000000000000000000000000000008152600401612f6890616041565b60405180910390fd5b806009819055507fc52b745517237e6357976bba03e5dc4ff05bfc70c61a1f50294bb5b1059af86e81604051612fa79190614ce2565b60405180910390a150565b600e6020528060005260406000206000915090508060000160009054906101000a900473ffffffffffffffffffffffffffffffffffffffff16908060010154905082565b600b6020528060005260406000206000915090508060000160009054906101000a900460ff16908060010154908060020160009054906101000a900473ffffffffffffffffffffffffffffffffffffffff16908060030154908060040154905085565b60095481565b6000600560008473ffffffffffffffffffffffffffffffffffffffff1673ffffffffffffffffffffffffffffffffffffffff16815260200190815260200160002060008373ffffffffffffffffffffffffffffffffffffffff1673ffffffffffffffffffffffffffffffffffffffff16815260200190815260200160002060009054906101000a900460ff16905092915050565b6131046130fe61349c565b836134a4565b613143576040517f08c379a000000000000000000000000000000000000000000000000000000000815260040161313a906152a8565b60405180910390fd5b600f600083815260200190815260200160002080549050811061319b576040517f08c379a000000000000000000000000000000000000000000000000000000000815260040161319290615de3565b60405180910390fd5b600f600083815260200190815260200160002081815481106131c0576131bf6157dd565b5b906000526020600020906004020160000160009054906101000a900460ff1661321e576040517f08c379a000000000000000000000000000000000000000000000000000000000815260040161321590615e4f565b60405180910390fd5b6000600f60008481526020019081526020016000208281548110613245576132446157dd565b5b906000526020600020906004020160020160009054906101000a900473ffffffffffffffffffffffffffffffffffffffff1690506000600f600085815260200190815260200160002083815481106132a05761329f6157dd565b5b90600052602060002090600402016003015490506000600f600086815260200190815260200160002084815481106132db576132da6157dd565b5b906000526020600020906004020160000160006101000a81548160ff02191690831515021790555080600c60008473ffffffffffffffffffffffffffffffffffffffff1673ffffffffffffffffffffffffffffffffffffffff168152602001908152602001600020600082825461335291906152f7565b9250508190555080600c6000613366611c6c565b73ffffffffffffffffffffffffffffffffffffffff1673ffffffffffffffffffffffffffffffffffffffff16815260200190815260200160002060008282546133af9190615947565b925050819055508173ffffffffffffffffffffffffffffffffffffffff16847f2d9d00a807c2aff5d665db4d08836cdcefcafb265b17c460c5fcc6e40a7dd32c60405160405180910390a350505050565b6134086139de565b600073ffffffffffffffffffffffffffffffffffffffff168173ffffffffffffffffffffffffffffffffffffffff161415613478576040517f08c379a000000000000000000000000000000000000000000000000000000000815260040161346f906160d3565b60405180910390fd5b61348181613a5c565b50565b600c6020528060005260406000206000915090505481565b600033905090565b6000806134b083611425565b90508073ffffffffffffffffffffffffffffffffffffffff168473ffffffffffffffffffffffffffffffffffffffff1614806134f257506134f1818561305f565b5b8061353057508373ffffffffffffffffffffffffffffffffffffffff1661351884610c7a565b73ffffffffffffffffffffffffffffffffffffffff16145b91505092915050565b60007f01ffc9a7000000000000000000000000000000000000000000000000000000007bffffffffffffffffffffffffffffffffffffffffffffffffffffffff1916827bffffffffffffffffffffffffffffffffffffffffffffffffffffffff1916149050919050565b6135ac81614090565b6135eb576040517f08c379a00000000000000000000000000000000000000000000000000000000081526004016135e2906159c7565b60405180910390fd5b50565b816004600083815260200190815260200160002060006101000a81548173ffffffffffffffffffffffffffffffffffffffff021916908373ffffffffffffffffffffffffffffffffffffffff160217905550808273ffffffffffffffffffffffffffffffffffffffff1661366183611425565b73ffffffffffffffffffffffffffffffffffffffff167f8c5be1e5ebec7d5bd14f71427d1e84f3dd0314c0f7b2291e5b200ac8c7c3b92560405160405180910390a45050565b8273ffffffffffffffffffffffffffffffffffffffff166136c782611425565b73ffffffffffffffffffffffffffffffffffffffff161461371d576040517f08c379a000000000000000000000000000000000000000000000000000000000815260040161371490616165565b60405180910390fd5b600073ffffffffffffffffffffffffffffffffffffffff168273ffffffffffffffffffffffffffffffffffffffff16141561378d576040517f08c379a0000000000000000000000000000000000000000000000000000000008152600401613784906161f7565b60405180910390fd5b61379a83838360016140d1565b8273ffffffffffffffffffffffffffffffffffffffff166137ba82611425565b73ffffffffffffffffffffffffffffffffffffffff1614613810576040517f08c379a000000000000000000000000000000000000000000000000000000000815260040161380790616165565b60405180910390fd5b6004600082815260200190815260200160002060006101000a81549073ffffffffffffffffffffffffffffffffffffffff02191690556001600360008573ffffffffffffffffffffffffffffffffffffffff1673ffffffffffffffffffffffffffffffffffffffff168152602001908152602001600020600082825403925050819055506001600360008473ffffffffffffffffffffffffffffffffffffffff1673ffffffffffffffffffffffffffffffffffffffff16815260200190815260200160002060008282540192505081905550816002600083815260200190815260200160002060006101000a81548173ffffffffffffffffffffffffffffffffffffffff021916908373ffffffffffffffffffffffffffffffffffffffff160217905550808273ffffffffffffffffffffffffffffffffffffffff168473ffffffffffffffffffffffffffffffffffffffff167fddf252ad1be2c89b69c2b068fc378daa952ba7f163c4a11628f55a4df523b3ef60405160405180910390a461399c83838360016140d7565b505050565b60006002600083815260200190815260200160002060009054906101000a900473ffffffffffffffffffffffffffffffffffffffff169050919050565b6139e661349c565b73ffffffffffffffffffffffffffffffffffffffff16613a04611c6c565b73ffffffffffffffffffffffffffffffffffffffff1614613a5a576040517f08c379a0000000000000000000000000000000000000000000000000000000008152600401613a5190616263565b60405180910390fd5b565b6000600660009054906101000a900473ffffffffffffffffffffffffffffffffffffffff16905081600660006101000a81548173ffffffffffffffffffffffffffffffffffffffff021916908373ffffffffffffffffffffffffffffffffffffffff1602179055508173ffffffffffffffffffffffffffffffffffffffff168173ffffffffffffffffffffffffffffffffffffffff167f8be0079c531659141344cd1fd0a4f28419497f9722a3daafe3b4186f6b6457e060405160405180910390a35050565b600073ffffffffffffffffffffffffffffffffffffffff168273ffffffffffffffffffffffffffffffffffffffff161415613b92576040517f08c379a0000000000000000000000000000000000000000000000000000000008152600401613b89906162cf565b60405180910390fd5b613b9b81614090565b15613bdb576040517f08c379a0000000000000000000000000000000000000000000000000000000008152600401613bd29061633b565b60405180910390fd5b613be96000838360016140d1565b613bf281614090565b15613c32576040517f08c379a0000000000000000000000000000000000000000000000000000000008152600401613c299061633b565b60405180910390fd5b6001600360008473ffffffffffffffffffffffffffffffffffffffff1673ffffffffffffffffffffffffffffffffffffffff16815260200190815260200160002060008282540192505081905550816002600083815260200190815260200160002060006101000a81548173ffffffffffffffffffffffffffffffffffffffff021916908373ffffffffffffffffffffffffffffffffffffffff160217905550808273ffffffffffffffffffffffffffffffffffffffff16600073ffffffffffffffffffffffffffffffffffffffff167fddf252ad1be2c89b69c2b068fc378daa952ba7f163c4a11628f55a4df523b3ef60405160405180910390a4613d3c6000838360016140d7565b5050565b613d4982614090565b613d88576040517f08c379a0000000000000000000000000000000000000000000000000000000008152600401613d7f906163cd565b60405180910390fd5b80600760008481526020019081526020016000209080519060200190613daf929190614541565b505050565b8173ffffffffffffffffffffffffffffffffffffffff168373ffffffffffffffffffffffffffffffffffffffff161415613e23576040517f08c379a0000000000000000000000000000000000000000000000000000000008152600401613e1a90616439565b60405180910390fd5b80600560008573ffffffffffffffffffffffffffffffffffffffff1673ffffffffffffffffffffffffffffffffffffffff16815260200190815260200160002060008473ffffffffffffffffffffffffffffffffffffffff1673ffffffffffffffffffffffffffffffffffffffff16815260200190815260200160002060006101000a81548160ff0219169083151502179055508173ffffffffffffffffffffffffffffffffffffffff168373ffffffffffffffffffffffffffffffffffffffff167f17307eab39ab6107e8899845ad3d59bd9653f200f220920489ca2b5937696c3183604051613f14919061470e565b60405180910390a3505050565b613f2c8484846136a7565b613f38848484846140dd565b613f77576040517f08c379a0000000000000000000000000000000000000000000000000000000008152600401613f6e906164cb565b60405180910390fd5b50505050565b6060613f88826135a3565b6000600760008481526020019081526020016000208054613fa8906153a5565b80601f0160208091040260200160405190810160405280929190818152602001828054613fd4906153a5565b80156140215780601f10613ff657610100808354040283529160200191614021565b820191906000526020600020905b81548152906001019060200180831161400457829003601f168201915b505050505090506000614032614274565b905060008151141561404857819250505061408b565b60008251111561407d578082604051602001614065929190616527565b6040516020818303038152906040529250505061408b565b6140868461428b565b925050505b919050565b60008073ffffffffffffffffffffffffffffffffffffffff166140b2836139a1565b73ffffffffffffffffffffffffffffffffffffffff1614159050919050565b50505050565b50505050565b60006140fe8473ffffffffffffffffffffffffffffffffffffffff166142f3565b15614267578373ffffffffffffffffffffffffffffffffffffffff1663150b7a0261412761349c565b8786866040518563ffffffff1660e01b815260040161414994939291906165a0565b602060405180830381600087803b15801561416357600080fd5b505af192505050801561419457506040513d601f19601f820116820180604052508101906141919190616601565b60015b614217573d80600081146141c4576040519150601f19603f3d011682016040523d82523d6000602084013e6141c9565b606091505b5060008151141561420f576040517f08c379a0000000000000000000000000000000000000000000000000000000008152600401614206906164cb565b60405180910390fd5b805181602001fd5b63150b7a0260e01b7bffffffffffffffffffffffffffffffffffffffffffffffffffffffff1916817bffffffffffffffffffffffffffffffffffffffffffffffffffffffff19161491505061426c565b600190505b949350505050565b606060405180602001604052806000815250905090565b6060614296826135a3565b60006142a0614274565b905060008151116142c057604051806020016040528060008152506142eb565b806142ca84614316565b6040516020016142db929190616527565b6040516020818303038152906040525b915050919050565b6000808273ffffffffffffffffffffffffffffffffffffffff163b119050919050565b606060006001614325846143ee565b01905060008167ffffffffffffffff81111561434457614343614985565b5b6040519080825280601f01601f1916602001820160405280156143765781602001600182028036833780820191505090505b509050600082602001820190505b6001156143e3578080600190039150507f3031323334353637383961626364656600000000000000000000000000000000600a86061a8153600a85816143cd576143cc61589e565b5b04945060008514156143de576143e3565b614384565b819350505050919050565b600080600090507a184f03e93ff9f4daa797ed6e38ed64bf6a1f010000000000000000831061444c577a184f03e93ff9f4daa797ed6e38ed64bf6a1f01000000000000000083816144425761444161589e565b5b0492506040810190505b6d04ee2d6d415b85acef81000000008310614489576d04ee2d6d415b85acef8100000000838161447f5761447e61589e565b5b0492506020810190505b662386f26fc1000083106144b857662386f26fc1000083816144ae576144ad61589e565b5b0492506010810190505b6305f5e10083106144e1576305f5e10083816144d7576144d661589e565b5b0492506008810190505b61271083106145065761271083816144fc576144fb61589e565b5b0492506004810190505b60648310614529576064838161451f5761451e61589e565b5b0492506002810190505b600a8310614538576001810190505b80915050919050565b82805461454d906153a5565b90600052602060002090601f01602090048101928261456f57600085556145b6565b82601f1061458857805160ff19168380011785556145b6565b828001600101855582156145b6579182015b828111156145b557825182559160200191906001019061459a565b5b5090506145c391906145c7565b5090565b5b808211156145e05760008160009055506001016145c8565b5090565b6000604051905090565b600080fd5b600080fd5b6000819050919050565b61460b816145f8565b811461461657600080fd5b50565b60008135905061462881614602565b92915050565b60008060408385031215614645576146446145ee565b5b600061465385828601614619565b925050602061466485828601614619565b9150509250929050565b60007fffffffff0000000000000000000000000000000000000000000000000000000082169050919050565b6146a38161466e565b81146146ae57600080fd5b50565b6000813590506146c08161469a565b92915050565b6000602082840312156146dc576146db6145ee565b5b60006146ea848285016146b1565b91505092915050565b60008115159050919050565b614708816146f3565b82525050565b600060208201905061472360008301846146ff565b92915050565b600081519050919050565b600082825260208201905092915050565b60005b83811015614763578082015181840152602081019050614748565b83811115614772576000848401525b50505050565b6000601f19601f8301169050919050565b600061479482614729565b61479e8185614734565b93506147ae818560208601614745565b6147b781614778565b840191505092915050565b600060208201905081810360008301526147dc8184614789565b905092915050565b6000602082840312156147fa576147f96145ee565b5b600061480884828501614619565b91505092915050565b600073ffffffffffffffffffffffffffffffffffffffff82169050919050565b600061483c82614811565b9050919050565b61484c81614831565b82525050565b60006020820190506148676000830184614843565b92915050565b61487681614831565b811461488157600080fd5b50565b6000813590506148938161486d565b92915050565b600080604083850312156148b0576148af6145ee565b5b60006148be85828601614884565b92505060206148cf85828601614619565b9150509250929050565b6000806000606084860312156148f2576148f16145ee565b5b600061490086828701614884565b935050602061491186828701614884565b925050604061492286828701614619565b9150509250925092565b614935816145f8565b82525050565b600060808201905061495060008301876146ff565b61495d602083018661492c565b61496a6040830185614843565b614977606083018461492c565b95945050505050565b600080fd5b7f4e487b7100000000000000000000000000000000000000000000000000000000600052604160045260246000fd5b6149bd82614778565b810181811067ffffffffffffffff821117156149dc576149db614985565b5b80604052505050565b60006149ef6145e4565b90506149fb82826149b4565b919050565b600067ffffffffffffffff821115614a1b57614a1a614985565b5b602082029050602081019050919050565b600080fd5b6000614a44614a3f84614a00565b6149e5565b90508083825260208201905060208402830185811115614a6757614a66614a2c565b5b835b81811015614a905780614a7c8882614884565b845260208401935050602081019050614a69565b5050509392505050565b600082601f830112614aaf57614aae614980565b5b8135614abf848260208601614a31565b91505092915050565b600067ffffffffffffffff821115614ae357614ae2614985565b5b602082029050602081019050919050565b6000614b07614b0284614ac8565b6149e5565b90508083825260208201905060208402830185811115614b2a57614b29614a2c565b5b835b81811015614b535780614b3f8882614619565b845260208401935050602081019050614b2c565b5050509392505050565b600082601f830112614b7257614b71614980565b5b8135614b82848260208601614af4565b91505092915050565b60008060008060808587031215614ba557614ba46145ee565b5b6000614bb387828801614619565b945050602085013567ffffffffffffffff811115614bd457614bd36145f3565b5b614be087828801614a9a565b935050604085013567ffffffffffffffff811115614c0157614c006145f3565b5b614c0d87828801614b5d565b9250506060614c1e87828801614619565b91505092959194509250565b600080600060608486031215614c4357614c426145ee565b5b6000614c5186828701614619565b935050602084013567ffffffffffffffff811115614c7257614c716145f3565b5b614c7e86828701614a9a565b925050604084013567ffffffffffffffff811115614c9f57614c9e6145f3565b5b614cab86828701614b5d565b9150509250925092565b600060208284031215614ccb57614cca6145ee565b5b6000614cd984828501614884565b91505092915050565b6000602082019050614cf7600083018461492c565b92915050565b600080fd5b600067ffffffffffffffff821115614d1d57614d1c614985565b5b614d2682614778565b9050602081019050919050565b82818337600083830152505050565b6000614d55614d5084614d02565b6149e5565b905082815260208101848484011115614d7157614d70614cfd565b5b614d7c848285614d33565b509392505050565b600082601f830112614d9957614d98614980565b5b8135614da9848260208601614d42565b91505092915050565b60008060008060808587031215614dcc57614dcb6145ee565b5b6000614dda87828801614884565b945050602085013567ffffffffffffffff811115614dfb57614dfa6145f3565b5b614e0787828801614d84565b9350506040614e1887828801614619565b9250506060614e2987828801614619565b91505092959194509250565b60008060408385031215614e4c57614e4b6145ee565b5b6000614e5a85828601614619565b925050602083013567ffffffffffffffff811115614e7b57614e7a6145f3565b5b614e8785828601614d84565b9150509250929050565b60008060008060808587031215614eab57614eaa6145ee565b5b6000614eb987828801614619565b9450506020614eca87828801614619565b935050604085013567ffffffffffffffff811115614eeb57614eea6145f3565b5b614ef787828801614a9a565b925050606085013567ffffffffffffffff811115614f1857614f176145f3565b5b614f2487828801614b5d565b91505092959194509250565b614f39816146f3565b8114614f4457600080fd5b50565b600081359050614f5681614f30565b92915050565b60008060408385031215614f7357614f726145ee565b5b6000614f8185828601614884565b9250506020614f9285828601614f47565b9150509250929050565b600067ffffffffffffffff821115614fb757614fb6614985565b5b614fc082614778565b9050602081019050919050565b6000614fe0614fdb84614f9c565b6149e5565b905082815260208101848484011115614ffc57614ffb614cfd565b5b615007848285614d33565b509392505050565b600082601f83011261502457615023614980565b5b8135615034848260208601614fcd565b91505092915050565b60008060008060808587031215615057576150566145ee565b5b600061506587828801614884565b945050602061507687828801614884565b935050604061508787828801614619565b925050606085013567ffffffffffffffff8111156150a8576150a76145f3565b5b6150b48782880161500f565b91505092959194509250565b600080604083850312156150d7576150d66145ee565b5b60006150e585828601614884565b92505060206150f685828601614884565b9150509250929050565b600081519050919050565b600082825260208201905092915050565b6000819050602082019050919050565b615135816145f8565b82525050565b6000615147838361512c565b60208301905092915050565b6000602082019050919050565b600061516b82615100565b615175818561510b565b93506151808361511c565b8060005b838110156151b1578151615198888261513b565b97506151a383615153565b925050600181019050615184565b5085935050505092915050565b600060208201905081810360008301526151d88184615160565b905092915050565b60006040820190506151f56000830185614843565b615202602083018461492c565b9392505050565b600060a08201905061521e60008301886146ff565b61522b602083018761492c565b6152386040830186614843565b615245606083018561492c565b615252608083018461492c565b9695505050505050565b7f4e6f7420617070726f766564206f72206f776e65720000000000000000000000600082015250565b6000615292601583614734565b915061529d8261525c565b602082019050919050565b600060208201905081810360008301526152c181615285565b9050919050565b7f4e487b7100000000000000000000000000000000000000000000000000000000600052601160045260246000fd5b6000615302826145f8565b915061530d836145f8565b9250827fffffffffffffffffffffffffffffffffffffffffffffffffffffffffffffffff03821115615342576153416152c8565b5b828201905092915050565b6000604082019050615362600083018561492c565b61536f602083018461492c565b9392505050565b7f4e487b7100000000000000000000000000000000000000000000000000000000600052602260045260246000fd5b600060028204905060018216806153bd57607f821691505b602082108114156153d1576153d0615376565b5b50919050565b7f4552433732313a20617070726f76616c20746f2063757272656e74206f776e6560008201527f7200000000000000000000000000000000000000000000000000000000000000602082015250565b6000615433602183614734565b915061543e826153d7565b604082019050919050565b6000602082019050818103600083015261546281615426565b9050919050565b7f4552433732313a20617070726f76652063616c6c6572206973206e6f7420746f60008201527f6b656e206f776e6572206f7220617070726f76656420666f7220616c6c000000602082015250565b60006154c5603d83614734565b91506154d082615469565b604082019050919050565b600060208201905081810360008301526154f4816154b8565b9050919050565b7f4552433732313a2063616c6c6572206973206e6f7420746f6b656e206f776e6560008201527f72206f7220617070726f76656400000000000000000000000000000000000000602082015250565b6000615557602d83614734565b9150615562826154fb565b604082019050919050565b600060208201905081810360008301526155868161554a565b9050919050565b7f4e6f2066756e647320746f207769746864726177000000000000000000000000600082015250565b60006155c3601483614734565b91506155ce8261558d565b602082019050919050565b600060208201905081810360008301526155f2816155b6565b9050919050565b600081905092915050565b50565b60006156146000836155f9565b915061561f82615604565b600082019050919050565b600061563582615607565b9150819050919050565b7f5769746864726177616c206661696c6564000000000000000000000000000000600082015250565b6000615675601183614734565b91506156808261563f565b602082019050919050565b600060208201905081810360008301526156a481615668565b9050919050565b7f546f6b656e206e6f7420666f722073616c650000000000000000000000000000600082015250565b60006156e1601283614734565b91506156ec826156ab565b602082019050919050565b60006020820190508181036000830152615710816156d4565b9050919050565b6000615722826145f8565b915061572d836145f8565b9250817fffffffffffffffffffffffffffffffffffffffffffffffffffffffffffffffff0483118215151615615766576157656152c8565b5b828202905092915050565b7f496e73756666696369656e742066756e64730000000000000000000000000000600082015250565b60006157a7601283614734565b91506157b282615771565b602082019050919050565b600060208201905081810360008301526157d68161579a565b9050919050565b7f4e487b7100000000000000000000000000000000000000000000000000000000600052603260045260246000fd5b7f526f79616c7479206d757374206265206265747765656e203020616e6420313060008201527f3000000000000000000000000000000000000000000000000000000000000000602082015250565b6000615868602183614734565b91506158738261580c565b604082019050919050565b600060208201905081810360008301526158978161585b565b9050919050565b7f4e487b7100000000000000000000000000000000000000000000000000000000600052601260045260246000fd5b60006158d8826145f8565b91506158e3836145f8565b9250826158f3576158f261589e565b5b828204905092915050565b6000615909826145f8565b91507fffffffffffffffffffffffffffffffffffffffffffffffffffffffffffffffff82141561593c5761593b6152c8565b5b600182019050919050565b6000615952826145f8565b915061595d836145f8565b9250828210156159705761596f6152c8565b5b828203905092915050565b7f4552433732313a20696e76616c696420746f6b656e2049440000000000000000600082015250565b60006159b1601883614734565b91506159bc8261597b565b602082019050919050565b600060208201905081810360008301526159e0816159a4565b9050919050565b7f41756374696f6e206e6f74206163746976650000000000000000000000000000600082015250565b6000615a1d601283614734565b9150615a28826159e7565b602082019050919050565b60006020820190508181036000830152615a4c81615a10565b9050919050565b7f41756374696f6e20686173206e6f7420656e6465642079657400000000000000600082015250565b6000615a89601983614734565b9150615a9482615a53565b602082019050919050565b60006020820190508181036000830152615ab881615a7c565b9050919050565b6000606082019050615ad4600083018661492c565b615ae16020830185614843565b615aee604083018461492c565b949350505050565b7f4552433732313a2061646472657373207a65726f206973206e6f74206120766160008201527f6c6964206f776e65720000000000000000000000000000000000000000000000602082015250565b6000615b52602983614734565b9150615b5d82615af6565b604082019050919050565b60006020820190508181036000830152615b8181615b45565b9050919050565b7f5072696365206d7573742062652067726561746572207468616e203000000000600082015250565b6000615bbe601c83614734565b9150615bc982615b88565b602082019050919050565b60006020820190508181036000830152615bed81615bb1565b9050919050565b6000604082019050615c09600083018561492c565b615c166020830184614843565b9392505050565b6000819050919050565b6000819050919050565b6000615c4c615c47615c4284615c1d565b615c27565b6145f8565b9050919050565b615c5c81615c31565b82525050565b6000606082019050615c77600083018661492c565b615c846020830185614843565b615c916040830184615c53565b949350505050565b7f41756374696f6e2068617320656e646564000000000000000000000000000000600082015250565b6000615ccf601183614734565b9150615cda82615c99565b602082019050919050565b60006020820190508181036000830152615cfe81615cc2565b9050919050565b7f426964206d75737420626520686967686572207468616e20746865206375727260008201527f656e742068696768657374206269640000000000000000000000000000000000602082015250565b6000615d61602f83614734565b9150615d6c82615d05565b604082019050919050565b60006020820190508181036000830152615d9081615d54565b9050919050565b7f496e76616c6964206f6666657220696e64657800000000000000000000000000600082015250565b6000615dcd601383614734565b9150615dd882615d97565b602082019050919050565b60006020820190508181036000830152615dfc81615dc0565b9050919050565b7f4f6666657220646f6573206e6f74206578697374000000000000000000000000600082015250565b6000615e39601483614734565b9150615e4482615e03565b602082019050919050565b60006020820190508181036000830152615e6881615e2c565b9050919050565b7f496e76616c696420627579657220616464726573730000000000000000000000600082015250565b6000615ea5601583614734565b9150615eb082615e6f565b602082019050919050565b60006020820190508181036000830152615ed481615e98565b9050919050565b7f4e6f742074686520627579657200000000000000000000000000000000000000600082015250565b6000615f11600d83614734565b9150615f1c82615edb565b602082019050919050565b60006020820190508181036000830152615f4081615f04565b9050919050565b7f4e6f74207468652073656c6c6572000000000000000000000000000000000000600082015250565b6000615f7d600e83614734565b9150615f8882615f47565b602082019050919050565b60006020820190508181036000830152615fac81615f70565b9050919050565b600081519050615fc281614602565b92915050565b600060208284031215615fde57615fdd6145ee565b5b6000615fec84828501615fb3565b91505092915050565b7f496e76616c6964206d61726b6574206665652070657263656e74616765000000600082015250565b600061602b601d83614734565b915061603682615ff5565b602082019050919050565b6000602082019050818103600083015261605a8161601e565b9050919050565b7f4f776e61626c653a206e6577206f776e657220697320746865207a65726f206160008201527f6464726573730000000000000000000000000000000000000000000000000000602082015250565b60006160bd602683614734565b91506160c882616061565b604082019050919050565b600060208201905081810360008301526160ec816160b0565b9050919050565b7f4552433732313a207472616e736665722066726f6d20696e636f72726563742060008201527f6f776e6572000000000000000000000000000000000000000000000000000000602082015250565b600061614f602583614734565b915061615a826160f3565b604082019050919050565b6000602082019050818103600083015261617e81616142565b9050919050565b7f4552433732313a207472616e7366657220746f20746865207a65726f2061646460008201527f7265737300000000000000000000000000000000000000000000000000000000602082015250565b60006161e1602483614734565b91506161ec82616185565b604082019050919050565b60006020820190508181036000830152616210816161d4565b9050919050565b7f4f776e61626c653a2063616c6c6572206973206e6f7420746865206f776e6572600082015250565b600061624d602083614734565b915061625882616217565b602082019050919050565b6000602082019050818103600083015261627c81616240565b9050919050565b7f4552433732313a206d696e7420746f20746865207a65726f2061646472657373600082015250565b60006162b9602083614734565b91506162c482616283565b602082019050919050565b600060208201905081810360008301526162e8816162ac565b9050919050565b7f4552433732313a20746f6b656e20616c7265616479206d696e74656400000000600082015250565b6000616325601c83614734565b9150616330826162ef565b602082019050919050565b6000602082019050818103600083015261635481616318565b9050919050565b7f45524337323155524953746f726167653a2055524920736574206f66206e6f6e60008201527f6578697374656e7420746f6b656e000000000000000000000000000000000000602082015250565b60006163b7602e83614734565b91506163c28261635b565b604082019050919050565b600060208201905081810360008301526163e6816163aa565b9050919050565b7f4552433732313a20617070726f766520746f2063616c6c657200000000000000600082015250565b6000616423601983614734565b915061642e826163ed565b602082019050919050565b6000602082019050818103600083015261645281616416565b9050919050565b7f4552433732313a207472616e7366657220746f206e6f6e20455243373231526560008201527f63656976657220696d706c656d656e7465720000000000000000000000000000602082015250565b60006164b5603283614734565b91506164c082616459565b604082019050919050565b600060208201905081810360008301526164e4816164a8565b9050919050565b600081905092915050565b600061650182614729565b61650b81856164eb565b935061651b818560208601614745565b80840191505092915050565b600061653382856164f6565b915061653f82846164f6565b91508190509392505050565b600081519050919050565b600082825260208201905092915050565b60006165728261654b565b61657c8185616556565b935061658c818560208601614745565b61659581614778565b840191505092915050565b60006080820190506165b56000830187614843565b6165c26020830186614843565b6165cf604083018561492c565b81810360608301526165e18184616567565b905095945050505050565b6000815190506165fb8161469a565b92915050565b600060208284031215616617576166166145ee565b5b6000616625848285016165ec565b9150509291505056fea26469706673582212208f068bb29c238e8ed882b73c605820ce032803d4c26e9a4f2831336f7866bfc164736f6c63430008080033",
  "linkReferences": {},
  "deployedLinkReferences": {}
}