{
  "_format": "hh-sol-artifact-1",
  "contractName": "NFTMarketplace",
  "sourceName": "contracts/Market.sol",
  "abi": [
    {
      "inputs": [],
      "stateMutability": "nonpayable",
      "type": "constructor"
    },
    {
      "anonymous": false,
      "inputs": [
        {
          "indexed": true,
          "internalType": "address",
          "name": "owner",
          "type": "address"
        },
        {
          "indexed": true,
          "internalType": "address",
          "name": "approved",
          "type": "address"
        },
        {
          "indexed": true,
          "internalType": "uint256",
          "name": "tokenId",
          "type": "uint256"
        }
      ],
      "name": "Approval",
      "type": "event"
    },
    {
      "anonymous": false,
      "inputs": [
        {
          "indexed": true,
          "internalType": "address",
          "name": "owner",
          "type": "address"
        },
        {
          "indexed": true,
          "internalType": "address",
          "name": "operator",
          "type": "address"
        },
        {
          "indexed": false,
          "internalType": "bool",
          "name": "approved",
          "type": "bool"
        }
      ],
      "name": "ApprovalForAll",
      "type": "event"
    },
    {
      "anonymous": false,
      "inputs": [
        {
          "indexed": false,
          "internalType": "uint256",
          "name": "tokenId",
          "type": "uint256"
        },
        {
          "indexed": false,
          "internalType": "uint256",
          "name": "endTime",
          "type": "uint256"
        }
      ],
      "name": "AuctionCreated",
      "type": "event"
    },
    {
      "anonymous": false,
      "inputs": [
        {
          "indexed": false,
          "internalType": "uint256",
          "name": "tokenId",
          "type": "uint256"
        },
        {
          "indexed": false,
          "internalType": "address",
          "name": "highestBidder",
          "type": "address"
        },
        {
          "indexed": false,
          "internalType": "uint256",
          "name": "highestBid",
          "type": "uint256"
        }
      ],
      "name": "AuctionEnded",
      "type": "event"
    },
    {
      "anonymous": false,
      "inputs": [
        {
          "indexed": false,
          "internalType": "uint256",
          "name": "tokenId",
          "type": "uint256"
        },
        {
          "indexed": false,
          "internalType": "address",
          "name": "bidder",
          "type": "address"
        },
        {
          "indexed": false,
          "internalType": "uint256",
          "name": "bid",
          "type": "uint256"
        }
      ],
      "name": "BidPlaced",
      "type": "event"
    },
    {
      "anonymous": false,
      "inputs": [
        {
          "indexed": false,
          "internalType": "uint256",
          "name": "newMarketFeePercentage",
          "type": "uint256"
        }
      ],
      "name": "MarketFeePercentageChanged",
      "type": "event"
    },
    {
      "anonymous": false,
      "inputs": [
        {
          "indexed": false,
          "internalType": "uint256",
          "name": "tokenId",
          "type": "uint256"
        }
      ],
      "name": "OfferCanceled",
      "type": "event"
    },
    {
      "anonymous": false,
      "inputs": [
        {
          "indexed": false,
          "internalType": "uint256",
          "name": "tokenId",
          "type": "uint256"
        },
        {
          "indexed": false,
          "internalType": "uint256",
          "name": "price",
          "type": "uint256"
        },
        {
          "indexed": false,
          "internalType": "uint256",
          "name": "royalty",
          "type": "uint256"
        }
      ],
      "name": "OfferCreated",
      "type": "event"
    },
    {
      "anonymous": false,
      "inputs": [
        {
          "indexed": true,
          "internalType": "address",
          "name": "previousOwner",
          "type": "address"
        },
        {
          "indexed": true,
          "internalType": "address",
          "name": "newOwner",
          "type": "address"
        }
      ],
      "name": "OwnershipTransferred",
      "type": "event"
    },
    {
      "anonymous": false,
      "inputs": [
        {
          "indexed": false,
          "internalType": "uint256",
          "name": "tokenId",
          "type": "uint256"
        },
        {
          "indexed": false,
          "internalType": "address",
          "name": "owner",
          "type": "address"
        }
      ],
      "name": "TokenMinted",
      "type": "event"
    },
    {
      "anonymous": false,
      "inputs": [
        {
          "indexed": true,
          "internalType": "address",
          "name": "from",
          "type": "address"
        },
        {
          "indexed": true,
          "internalType": "address",
          "name": "to",
          "type": "address"
        },
        {
          "indexed": true,
          "internalType": "uint256",
          "name": "tokenId",
          "type": "uint256"
        }
      ],
      "name": "Transfer",
      "type": "event"
    },
    {
      "inputs": [
        {
          "internalType": "uint256",
          "name": "tokenId",
          "type": "uint256"
        }
      ],
      "name": "acceptOffer",
      "outputs": [],
      "stateMutability": "nonpayable",
      "type": "function"
    },
    {
      "inputs": [
        {
          "internalType": "address",
          "name": "to",
          "type": "address"
        },
        {
          "internalType": "uint256",
          "name": "tokenId",
          "type": "uint256"
        }
      ],
      "name": "approve",
      "outputs": [],
      "stateMutability": "nonpayable",
      "type": "function"
    },
    {
      "inputs": [
        {
          "internalType": "address",
          "name": "owner",
          "type": "address"
        }
      ],
      "name": "balanceOf",
      "outputs": [
        {
          "internalType": "uint256",
          "name": "",
          "type": "uint256"
        }
      ],
      "stateMutability": "view",
      "type": "function"
    },
    {
      "inputs": [
        {
          "internalType": "uint256",
          "name": "tokenId",
          "type": "uint256"
        }
      ],
      "name": "buyNFT",
      "outputs": [],
      "stateMutability": "payable",
      "type": "function"
    },
    {
      "inputs": [
        {
          "internalType": "uint256",
          "name": "tokenId",
          "type": "uint256"
        }
      ],
      "name": "cancelOffer",
      "outputs": [],
      "stateMutability": "nonpayable",
      "type": "function"
    },
    {
      "inputs": [
        {
          "internalType": "uint256",
          "name": "tokenId",
          "type": "uint256"
        },
        {
          "internalType": "uint256",
          "name": "duration",
          "type": "uint256"
        }
      ],
      "name": "createAuction",
      "outputs": [],
      "stateMutability": "nonpayable",
      "type": "function"
    },
    {
      "inputs": [
        {
          "internalType": "uint256",
          "name": "tokenId",
          "type": "uint256"
        },
        {
          "internalType": "uint256",
          "name": "price",
          "type": "uint256"
        },
        {
          "internalType": "uint256",
          "name": "royalty",
          "type": "uint256"
        }
      ],
      "name": "createOffer",
      "outputs": [],
      "stateMutability": "nonpayable",
      "type": "function"
    },
    {
      "inputs": [
        {
          "internalType": "uint256",
          "name": "tokenId",
          "type": "uint256"
        }
      ],
      "name": "depositForOffer",
      "outputs": [],
      "stateMutability": "payable",
      "type": "function"
    },
    {
      "inputs": [
        {
          "internalType": "uint256",
          "name": "tokenId",
          "type": "uint256"
        }
      ],
      "name": "endAuction",
      "outputs": [],
      "stateMutability": "nonpayable",
      "type": "function"
    },
    {
      "inputs": [
        {
          "internalType": "uint256",
          "name": "tokenId",
          "type": "uint256"
        }
      ],
      "name": "getApproved",
      "outputs": [
        {
          "internalType": "address",
          "name": "",
          "type": "address"
        }
      ],
      "stateMutability": "view",
      "type": "function"
    },
    {
      "inputs": [
        {
          "internalType": "address",
          "name": "owner",
          "type": "address"
        },
        {
          "internalType": "address",
          "name": "operator",
          "type": "address"
        }
      ],
      "name": "isApprovedForAll",
      "outputs": [
        {
          "internalType": "bool",
          "name": "",
          "type": "bool"
        }
      ],
      "stateMutability": "view",
      "type": "function"
    },
    {
      "inputs": [
        {
          "internalType": "uint256",
          "name": "tokenId",
          "type": "uint256"
        },
        {
          "internalType": "uint256",
          "name": "price",
          "type": "uint256"
        },
        {
          "internalType": "uint256",
          "name": "royalty",
          "type": "uint256"
        }
      ],
      "name": "listNFTOnMarket",
      "outputs": [],
      "stateMutability": "nonpayable",
      "type": "function"
    },
    {
      "inputs": [],
      "name": "marketFeePercentage",
      "outputs": [
        {
          "internalType": "uint256",
          "name": "",
          "type": "uint256"
        }
      ],
      "stateMutability": "view",
      "type": "function"
    },
    {
      "inputs": [
        {
          "internalType": "address",
          "name": "recipient",
          "type": "address"
        },
        {
          "internalType": "string",
          "name": "tokenURI",
          "type": "string"
        }
      ],
      "name": "mintNFT",
      "outputs": [],
      "stateMutability": "nonpayable",
      "type": "function"
    },
    {
      "inputs": [],
      "name": "name",
      "outputs": [
        {
          "internalType": "string",
          "name": "",
          "type": "string"
        }
      ],
      "stateMutability": "view",
      "type": "function"
    },
    {
      "inputs": [],
      "name": "owner",
      "outputs": [
        {
          "internalType": "address",
          "name": "",
          "type": "address"
        }
      ],
      "stateMutability": "view",
      "type": "function"
    },
    {
      "inputs": [
        {
          "internalType": "uint256",
          "name": "tokenId",
          "type": "uint256"
        }
      ],
      "name": "ownerOf",
      "outputs": [
        {
          "internalType": "address",
          "name": "",
          "type": "address"
        }
      ],
      "stateMutability": "view",
      "type": "function"
    },
    {
      "inputs": [
        {
          "internalType": "address",
          "name": "",
          "type": "address"
        }
      ],
      "name": "pendingWithdrawals",
      "outputs": [
        {
          "internalType": "uint256",
          "name": "",
          "type": "uint256"
        }
      ],
      "stateMutability": "view",
      "type": "function"
    },
    {
      "inputs": [
        {
          "internalType": "uint256",
          "name": "tokenId",
          "type": "uint256"
        }
      ],
      "name": "placeBid",
      "outputs": [],
      "stateMutability": "payable",
      "type": "function"
    },
    {
      "inputs": [],
      "name": "renounceOwnership",
      "outputs": [],
      "stateMutability": "nonpayable",
      "type": "function"
    },
    {
      "inputs": [
        {
          "internalType": "address",
          "name": "from",
          "type": "address"
        },
        {
          "internalType": "address",
          "name": "to",
          "type": "address"
        },
        {
          "internalType": "uint256",
          "name": "tokenId",
          "type": "uint256"
        }
      ],
      "name": "safeTransferFrom",
      "outputs": [],
      "stateMutability": "nonpayable",
      "type": "function"
    },
    {
      "inputs": [
        {
          "internalType": "address",
          "name": "from",
          "type": "address"
        },
        {
          "internalType": "address",
          "name": "to",
          "type": "address"
        },
        {
          "internalType": "uint256",
          "name": "tokenId",
          "type": "uint256"
        },
        {
          "internalType": "bytes",
          "name": "data",
          "type": "bytes"
        }
      ],
      "name": "safeTransferFrom",
      "outputs": [],
      "stateMutability": "nonpayable",
      "type": "function"
    },
    {
      "inputs": [
        {
          "internalType": "address",
          "name": "operator",
          "type": "address"
        },
        {
          "internalType": "bool",
          "name": "approved",
          "type": "bool"
        }
      ],
      "name": "setApprovalForAll",
      "outputs": [],
      "stateMutability": "nonpayable",
      "type": "function"
    },
    {
      "inputs": [
        {
          "internalType": "uint256",
          "name": "newMarketFeePercentage",
          "type": "uint256"
        }
      ],
      "name": "setMarketFeePercentage",
      "outputs": [],
      "stateMutability": "nonpayable",
      "type": "function"
    },
    {
      "inputs": [
        {
          "internalType": "bytes4",
          "name": "interfaceId",
          "type": "bytes4"
        }
      ],
      "name": "supportsInterface",
      "outputs": [
        {
          "internalType": "bool",
          "name": "",
          "type": "bool"
        }
      ],
      "stateMutability": "view",
      "type": "function"
    },
    {
      "inputs": [],
      "name": "symbol",
      "outputs": [
        {
          "internalType": "string",
          "name": "",
          "type": "string"
        }
      ],
      "stateMutability": "view",
      "type": "function"
    },
    {
      "inputs": [
        {
          "internalType": "uint256",
          "name": "",
          "type": "uint256"
        }
      ],
      "name": "tokenIdToAuction",
      "outputs": [
        {
          "internalType": "bool",
          "name": "isActive",
          "type": "bool"
        },
        {
          "internalType": "uint256",
          "name": "tokenId",
          "type": "uint256"
        },
        {
          "internalType": "address",
          "name": "highestBidder",
          "type": "address"
        },
        {
          "internalType": "uint256",
          "name": "highestBid",
          "type": "uint256"
        },
        {
          "internalType": "uint256",
          "name": "endTime",
          "type": "uint256"
        }
      ],
      "stateMutability": "view",
      "type": "function"
    },
    {
      "inputs": [
        {
          "internalType": "uint256",
          "name": "",
          "type": "uint256"
        }
      ],
      "name": "tokenIdToOffer",
      "outputs": [
        {
          "internalType": "bool",
          "name": "isForSale",
          "type": "bool"
        },
        {
          "internalType": "uint256",
          "name": "tokenId",
          "type": "uint256"
        },
        {
          "internalType": "address",
          "name": "seller",
          "type": "address"
        },
        {
          "internalType": "uint256",
          "name": "askingPrice",
          "type": "uint256"
        },
        {
          "internalType": "uint256",
          "name": "royalty",
          "type": "uint256"
        }
      ],
      "stateMutability": "view",
      "type": "function"
    },
    {
      "inputs": [
        {
          "internalType": "uint256",
          "name": "tokenId",
          "type": "uint256"
        }
      ],
      "name": "tokenURI",
      "outputs": [
        {
          "internalType": "string",
          "name": "",
          "type": "string"
        }
      ],
      "stateMutability": "view",
      "type": "function"
    },
    {
      "inputs": [
        {
          "internalType": "address",
          "name": "_contract",
          "type": "address"
        },
        {
          "internalType": "address",
          "name": "owner",
          "type": "address"
        }
      ],
      "name": "tokensOfOwner",
      "outputs": [
        {
          "internalType": "uint256[]",
          "name": "",
          "type": "uint256[]"
        }
      ],
      "stateMutability": "view",
      "type": "function"
    },
    {
      "inputs": [
        {
          "internalType": "address",
          "name": "from",
          "type": "address"
        },
        {
          "internalType": "address",
          "name": "to",
          "type": "address"
        },
        {
          "internalType": "uint256",
          "name": "tokenId",
          "type": "uint256"
        }
      ],
      "name": "transferFrom",
      "outputs": [],
      "stateMutability": "nonpayable",
      "type": "function"
    },
    {
      "inputs": [
        {
          "internalType": "address",
          "name": "newOwner",
          "type": "address"
        }
      ],
      "name": "transferOwnership",
      "outputs": [],
      "stateMutability": "nonpayable",
      "type": "function"
    },
    {
      "inputs": [
        {
          "internalType": "uint256",
          "name": "tokenId",
          "type": "uint256"
        },
        {
          "internalType": "string",
          "name": "newTokenURI",
          "type": "string"
        }
      ],
      "name": "updateMetadataURI",
      "outputs": [],
      "stateMutability": "nonpayable",
      "type": "function"
    },
    {
      "inputs": [],
      "name": "withdraw",
      "outputs": [],
      "stateMutability": "nonpayable",
      "type": "function"
    }
  ],
  "bytecode": "0x60806040523480156200001157600080fd5b506040518060400160405280600f81526020017f4e4654204d61726b6574706c61636500000000000000000000000000000000008152506040518060400160405280600481526020017f4e46544d00000000000000000000000000000000000000000000000000000000815250816000908051906020019062000096929190620001ae565b508060019080519060200190620000af929190620001ae565b505050620000d2620000c6620000e060201b60201c565b620000e860201b60201c565b6019600981905550620002c3565b600033905090565b6000600660009054906101000a900473ffffffffffffffffffffffffffffffffffffffff16905081600660006101000a81548173ffffffffffffffffffffffffffffffffffffffff021916908373ffffffffffffffffffffffffffffffffffffffff1602179055508173ffffffffffffffffffffffffffffffffffffffff168173ffffffffffffffffffffffffffffffffffffffff167f8be0079c531659141344cd1fd0a4f28419497f9722a3daafe3b4186f6b6457e060405160405180910390a35050565b828054620001bc906200028d565b90600052602060002090601f016020900481019282620001e057600085556200022c565b82601f10620001fb57805160ff19168380011785556200022c565b828001600101855582156200022c579182015b828111156200022b5782518255916020019190600101906200020e565b5b5090506200023b91906200023f565b5090565b5b808211156200025a57600081600090555060010162000240565b5090565b7f4e487b7100000000000000000000000000000000000000000000000000000000600052602260045260246000fd5b60006002820490506001821680620002a657607f821691505b60208210811415620002bd57620002bc6200025e565b5b50919050565b6151b480620002d36000396000f3fe6080604052600436106101f95760003560e01c8063a22cb4651161010d578063d712c4f2116100a0578063e985e9c51161006f578063e985e9c514610708578063eacabe1414610745578063ef706adf1461076e578063f2fde38b14610797578063f3f43703146107c0576101f9565b8063d712c4f21461064a578063dc35a90014610673578063e3b147571461069c578063e4cd1d9f146106dd576101f9565b8063c815729d116100dc578063c815729d14610566578063c87b56dd1461058f578063cfe8f487146105cc578063d531fe2b14610609576101f9565b8063a22cb465146104cf578063ac0eeed5146104f8578063b88d4fde14610514578063b9a2de3a1461053d576101f9565b806351ed828811610190578063715018a61161015f578063715018a61461041d5780638da5cb5b146104345780638fe86b3f1461045f57806395d89b41146104885780639979ef45146104b3576101f9565b806351ed82881461035e5780636352211e1461037a5780636841174e146103b757806370a08231146103e0576101f9565b8063095ea7b3116101cc578063095ea7b3146102cc57806323b872dd146102f55780633ccfd60b1461031e57806342842e0e14610335576101f9565b80630121683f146101fe57806301ffc9a71461022757806306fdde0314610264578063081812fc1461028f575b600080fd5b34801561020a57600080fd5b50610225600480360381019061022091906136e0565b6107fd565b005b34801561023357600080fd5b5061024e60048036038101906102499190613778565b610978565b60405161025b91906137c0565b60405180910390f35b34801561027057600080fd5b50610279610a5a565b6040516102869190613874565b60405180910390f35b34801561029b57600080fd5b506102b660048036038101906102b19190613896565b610aec565b6040516102c39190613904565b60405180910390f35b3480156102d857600080fd5b506102f360048036038101906102ee919061394b565b610b32565b005b34801561030157600080fd5b5061031c6004803603810190610317919061398b565b610c4a565b005b34801561032a57600080fd5b50610333610caa565b005b34801561034157600080fd5b5061035c6004803603810190610357919061398b565b610e3b565b005b61037860048036038101906103739190613896565b610e5b565b005b34801561038657600080fd5b506103a1600480360381019061039c9190613896565b6110f6565b6040516103ae9190613904565b60405180910390f35b3480156103c357600080fd5b506103de60048036038101906103d991906139de565b61117d565b005b3480156103ec57600080fd5b5061040760048036038101906104029190613a31565b61118d565b6040516104149190613a6d565b60405180910390f35b34801561042957600080fd5b50610432611245565b005b34801561044057600080fd5b50610449611259565b6040516104569190613904565b60405180910390f35b34801561046b57600080fd5b5061048660048036038101906104819190613bbd565b611283565b005b34801561049457600080fd5b5061049d6112e1565b6040516104aa9190613874565b60405180910390f35b6104cd60048036038101906104c89190613896565b611373565b005b3480156104db57600080fd5b506104f660048036038101906104f19190613c45565b6115d7565b005b610512600480360381019061050d9190613896565b6115ed565b005b34801561052057600080fd5b5061053b60048036038101906105369190613d26565b61181b565b005b34801561054957600080fd5b50610564600480360381019061055f9190613896565b61187d565b005b34801561057257600080fd5b5061058d60048036038101906105889190613896565b611b1b565b005b34801561059b57600080fd5b506105b660048036038101906105b19190613896565b611dc5565b6040516105c39190613874565b60405180910390f35b3480156105d857600080fd5b506105f360048036038101906105ee9190613da9565b611dd7565b6040516106009190613ea7565b60405180910390f35b34801561061557600080fd5b50610630600480360381019061062b9190613896565b611f07565b604051610641959493929190613ec9565b60405180910390f35b34801561065657600080fd5b50610671600480360381019061066c9190613896565b611f6a565b005b34801561067f57600080fd5b5061069a600480360381019061069591906139de565b612005565b005b3480156106a857600080fd5b506106c360048036038101906106be9190613896565b61220b565b6040516106d4959493929190613ec9565b60405180910390f35b3480156106e957600080fd5b506106f261226e565b6040516106ff9190613a6d565b60405180910390f35b34801561071457600080fd5b5061072f600480360381019061072a9190613da9565b612274565b60405161073c91906137c0565b60405180910390f35b34801561075157600080fd5b5061076c60048036038101906107679190613f1c565b612308565b005b34801561077a57600080fd5b5061079560048036038101906107909190613896565b61237a565b005b3480156107a357600080fd5b506107be60048036038101906107b99190613a31565b61248e565b005b3480156107cc57600080fd5b506107e760048036038101906107e29190613a31565b612512565b6040516107f49190613a6d565b60405180910390f35b61080e61080861252a565b83612532565b61084d576040517f08c379a000000000000000000000000000000000000000000000000000000000815260040161084490613fc4565b60405180910390fd5b6000814261085b9190614013565b90506040518060a00160405280600115158152602001848152602001600073ffffffffffffffffffffffffffffffffffffffff1681526020016000815260200182815250600b600085815260200190815260200160002060008201518160000160006101000a81548160ff0219169083151502179055506020820151816001015560408201518160020160006101000a81548173ffffffffffffffffffffffffffffffffffffffff021916908373ffffffffffffffffffffffffffffffffffffffff16021790555060608201518160030155608082015181600401559050507fe00a2da3a0f34a566402a244ab7ec63f8ab7472591cb18edf3269aa00461a410838260405161096b929190614069565b60405180910390a1505050565b60007f80ac58cd000000000000000000000000000000000000000000000000000000007bffffffffffffffffffffffffffffffffffffffffffffffffffffffff1916827bffffffffffffffffffffffffffffffffffffffffffffffffffffffff19161480610a4357507f5b5e139f000000000000000000000000000000000000000000000000000000007bffffffffffffffffffffffffffffffffffffffffffffffffffffffff1916827bffffffffffffffffffffffffffffffffffffffffffffffffffffffff1916145b80610a535750610a52826125c7565b5b9050919050565b606060008054610a69906140c1565b80601f0160208091040260200160405190810160405280929190818152602001828054610a95906140c1565b8015610ae25780601f10610ab757610100808354040283529160200191610ae2565b820191906000526020600020905b815481529060010190602001808311610ac557829003601f168201915b5050505050905090565b6000610af782612631565b6004600083815260200190815260200160002060009054906101000a900473ffffffffffffffffffffffffffffffffffffffff169050919050565b6000610b3d826110f6565b90508073ffffffffffffffffffffffffffffffffffffffff168373ffffffffffffffffffffffffffffffffffffffff161415610bae576040517f08c379a0000000000000000000000000000000000000000000000000000000008152600401610ba590614165565b60405180910390fd5b8073ffffffffffffffffffffffffffffffffffffffff16610bcd61252a565b73ffffffffffffffffffffffffffffffffffffffff161480610bfc5750610bfb81610bf661252a565b612274565b5b610c3b576040517f08c379a0000000000000000000000000000000000000000000000000000000008152600401610c32906141f7565b60405180910390fd5b610c45838361267c565b505050565b610c5b610c5561252a565b82612532565b610c9a576040517f08c379a0000000000000000000000000000000000000000000000000000000008152600401610c9190614289565b60405180910390fd5b610ca5838383612735565b505050565b6000600c6000610cb861252a565b73ffffffffffffffffffffffffffffffffffffffff1673ffffffffffffffffffffffffffffffffffffffff16815260200190815260200160002054905060008111610d38576040517f08c379a0000000000000000000000000000000000000000000000000000000008152600401610d2f906142f5565b60405180910390fd5b6000600c6000610d4661252a565b73ffffffffffffffffffffffffffffffffffffffff1673ffffffffffffffffffffffffffffffffffffffff168152602001908152602001600020819055506000610d8e61252a565b73ffffffffffffffffffffffffffffffffffffffff1682604051610db190614346565b60006040518083038185875af1925050503d8060008114610dee576040519150601f19603f3d011682016040523d82523d6000602084013e610df3565b606091505b5050905080610e37576040517f08c379a0000000000000000000000000000000000000000000000000000000008152600401610e2e906143a7565b60405180910390fd5b5050565b610e568383836040518060200160405280600081525061181b565b505050565b6000600a60008381526020019081526020016000206040518060a00160405290816000820160009054906101000a900460ff16151515158152602001600182015481526020016002820160009054906101000a900473ffffffffffffffffffffffffffffffffffffffff1673ffffffffffffffffffffffffffffffffffffffff1673ffffffffffffffffffffffffffffffffffffffff1681526020016003820154815260200160048201548152505090508060000151610f50576040517f08c379a0000000000000000000000000000000000000000000000000000000008152600401610f4790614413565b60405180910390fd5b8060600151341015610f97576040517f08c379a0000000000000000000000000000000000000000000000000000000008152600401610f8e9061447f565b60405180910390fd5b60006103e860095434610faa919061449f565b610fb49190614528565b905060006064836080015134610fca919061449f565b610fd49190614528565b90506000828234610fe59190614559565b610fef9190614559565b905060008460400151905081600c60008373ffffffffffffffffffffffffffffffffffffffff1673ffffffffffffffffffffffffffffffffffffffff16815260200190815260200160002060008282546110499190614013565b9250508190555083600c600061105d611259565b73ffffffffffffffffffffffffffffffffffffffff1673ffffffffffffffffffffffffffffffffffffffff16815260200190815260200160002060008282546110a69190614013565b925050819055506110bf816110b961252a565b88612735565b6000600a600088815260200190815260200160002060000160006101000a81548160ff021916908315150217905550505050505050565b60008061110283612a2f565b9050600073ffffffffffffffffffffffffffffffffffffffff168173ffffffffffffffffffffffffffffffffffffffff161415611174576040517f08c379a000000000000000000000000000000000000000000000000000000000815260040161116b906145d9565b60405180910390fd5b80915050919050565b611188838383612005565b505050565b60008073ffffffffffffffffffffffffffffffffffffffff168273ffffffffffffffffffffffffffffffffffffffff1614156111fe576040517f08c379a00000000000000000000000000000000000000000000000000000000081526004016111f59061466b565b60405180910390fd5b600360008373ffffffffffffffffffffffffffffffffffffffff1673ffffffffffffffffffffffffffffffffffffffff168152602001908152602001600020549050919050565b61124d612a6c565b6112576000612aea565b565b6000600660009054906101000a900473ffffffffffffffffffffffffffffffffffffffff16905090565b61129461128e61252a565b83612532565b6112d3576040517f08c379a00000000000000000000000000000000000000000000000000000000081526004016112ca90613fc4565b60405180910390fd5b6112dd8282612bb0565b5050565b6060600180546112f0906140c1565b80601f016020809104026020016040519081016040528092919081815260200182805461131c906140c1565b80156113695780601f1061133e57610100808354040283529160200191611369565b820191906000526020600020905b81548152906001019060200180831161134c57829003601f168201915b5050505050905090565b6000600b600083815260200190815260200160002090508060000160009054906101000a900460ff166113db576040517f08c379a00000000000000000000000000000000000000000000000000000000081526004016113d2906146d7565b60405180910390fd5b80600401544210611421576040517f08c379a000000000000000000000000000000000000000000000000000000000815260040161141890614743565b60405180910390fd5b80600301543411611467576040517f08c379a000000000000000000000000000000000000000000000000000000000815260040161145e906147d5565b60405180910390fd5b600073ffffffffffffffffffffffffffffffffffffffff168160020160009054906101000a900473ffffffffffffffffffffffffffffffffffffffff1673ffffffffffffffffffffffffffffffffffffffff161461153e578060030154600c60008360020160009054906101000a900473ffffffffffffffffffffffffffffffffffffffff1673ffffffffffffffffffffffffffffffffffffffff1673ffffffffffffffffffffffffffffffffffffffff16815260200190815260200160002060008282546115369190614013565b925050819055505b61154661252a565b8160020160006101000a81548173ffffffffffffffffffffffffffffffffffffffff021916908373ffffffffffffffffffffffffffffffffffffffff1602179055503481600301819055507f0e54eff26401bf69b81b26f60bd85ef47f5d85275c1d268d84f68d6897431c47826115bb61252a565b346040516115cb939291906147f5565b60405180910390a15050565b6115e96115e261252a565b8383612c24565b5050565b6000600a600083815260200190815260200160002090508060000160009054906101000a900460ff16611655576040517f08c379a000000000000000000000000000000000000000000000000000000000815260040161164c90614413565b60405180910390fd5b806003015434101561169c576040517f08c379a00000000000000000000000000000000000000000000000000000000081526004016116939061447f565b60405180910390fd5b60006103e8600954346116af919061449f565b6116b99190614528565b9050600060648360040154346116cf919061449f565b6116d99190614528565b905060008282346116ea9190614559565b6116f49190614559565b905060008460020160009054906101000a900473ffffffffffffffffffffffffffffffffffffffff16905081600c60008373ffffffffffffffffffffffffffffffffffffffff1673ffffffffffffffffffffffffffffffffffffffff168152602001908152602001600020600082825461176e9190614013565b9250508190555083600c6000611782611259565b73ffffffffffffffffffffffffffffffffffffffff1673ffffffffffffffffffffffffffffffffffffffff16815260200190815260200160002060008282546117cb9190614013565b925050819055506117e4816117de61252a565b88612735565b6000600a600088815260200190815260200160002060000160006101000a81548160ff021916908315150217905550505050505050565b61182c61182661252a565b83612532565b61186b576040517f08c379a000000000000000000000000000000000000000000000000000000000815260040161186290614289565b60405180910390fd5b61187784848484612d91565b50505050565b6000600b600083815260200190815260200160002090508060000160009054906101000a900460ff166118e5576040517f08c379a00000000000000000000000000000000000000000000000000000000081526004016118dc906146d7565b60405180910390fd5b806004015442101561192c576040517f08c379a000000000000000000000000000000000000000000000000000000000815260040161192390614878565b60405180910390fd5b6000611937836110f6565b905060006103e86009548460030154611950919061449f565b61195a9190614528565b905060006064600a6000878152602001908152602001600020600401548560030154611986919061449f565b6119909190614528565b90506000828286600301546119a59190614559565b6119af9190614559565b905080600c60008673ffffffffffffffffffffffffffffffffffffffff1673ffffffffffffffffffffffffffffffffffffffff1681526020019081526020016000206000828254611a009190614013565b9250508190555082600c6000611a14611259565b73ffffffffffffffffffffffffffffffffffffffff1673ffffffffffffffffffffffffffffffffffffffff1681526020019081526020016000206000828254611a5d9190614013565b92505081905550611a93848660020160009054906101000a900473ffffffffffffffffffffffffffffffffffffffff1688612735565b60008560000160006101000a81548160ff0219169083151502179055507fd2aa34a4fdbbc6dff6a3e56f46e0f3ae2a31d7785ff3487aa5c95c642acea501868660020160009054906101000a900473ffffffffffffffffffffffffffffffffffffffff168760030154604051611b0b939291906147f5565b60405180910390a1505050505050565b6000600a600083815260200190815260200160002090508060000160009054906101000a900460ff16611b83576040517f08c379a0000000000000000000000000000000000000000000000000000000008152600401611b7a90614413565b60405180910390fd5b611b8b61252a565b73ffffffffffffffffffffffffffffffffffffffff168160020160009054906101000a900473ffffffffffffffffffffffffffffffffffffffff1673ffffffffffffffffffffffffffffffffffffffff1614611c1c576040517f08c379a0000000000000000000000000000000000000000000000000000000008152600401611c13906148e4565b60405180910390fd5b60008160030154905060006103e86009548460030154611c3c919061449f565b611c469190614528565b90506000606484600401548560030154611c60919061449f565b611c6a9190614528565b9050818184611c799190614559565b611c839190614559565b600c60008660020160009054906101000a900473ffffffffffffffffffffffffffffffffffffffff1673ffffffffffffffffffffffffffffffffffffffff1673ffffffffffffffffffffffffffffffffffffffff1681526020019081526020016000206000828254611cf59190614013565b9250508190555081600c6000611d09611259565b73ffffffffffffffffffffffffffffffffffffffff1673ffffffffffffffffffffffffffffffffffffffff1681526020019081526020016000206000828254611d529190614013565b92505081905550611d8f8460020160009054906101000a900473ffffffffffffffffffffffffffffffffffffffff16611d8961252a565b87612735565b6000600a600087815260200190815260200160002060000160006101000a81548160ff0219169083151502179055505050505050565b6060611dd082612ded565b9050919050565b60606000611de48361118d565b905060008167ffffffffffffffff811115611e0257611e01613a92565b5b604051908082528060200260200182016040528015611e305781602001602082028036833780820191505090505b50905060005b82811015611efb578573ffffffffffffffffffffffffffffffffffffffff16632f745c5986836040518363ffffffff1660e01b8152600401611e79929190614904565b60206040518083038186803b158015611e9157600080fd5b505afa158015611ea5573d6000803e3d6000fd5b505050506040513d601f19601f82011682018060405250810190611ec99190614942565b828281518110611edc57611edb61496f565b5b6020026020010181815250508080611ef39061499e565b915050611e36565b50809250505092915050565b600a6020528060005260406000206000915090508060000160009054906101000a900460ff16908060010154908060020160009054906101000a900473ffffffffffffffffffffffffffffffffffffffff16908060030154908060040154905085565b611f72612a6c565b60008110158015611f8557506103e88111155b611fc4576040517f08c379a0000000000000000000000000000000000000000000000000000000008152600401611fbb90614a33565b60405180910390fd5b806009819055507fc52b745517237e6357976bba03e5dc4ff05bfc70c61a1f50294bb5b1059af86e81604051611ffa9190613a6d565b60405180910390a150565b61201661201061252a565b84612532565b612055576040517f08c379a000000000000000000000000000000000000000000000000000000000815260040161204c90613fc4565b60405180910390fd5b60008211612098576040517f08c379a000000000000000000000000000000000000000000000000000000000815260040161208f90614a9f565b60405180910390fd5b600081101580156120aa575060648111155b6120e9576040517f08c379a00000000000000000000000000000000000000000000000000000000081526004016120e090614b31565b60405180910390fd5b6040518060a0016040528060011515815260200184815260200161210b61252a565b73ffffffffffffffffffffffffffffffffffffffff16815260200183815260200182815250600a600085815260200190815260200160002060008201518160000160006101000a81548160ff0219169083151502179055506020820151816001015560408201518160020160006101000a81548173ffffffffffffffffffffffffffffffffffffffff021916908373ffffffffffffffffffffffffffffffffffffffff16021790555060608201518160030155608082015181600401559050507febf75d2941b5e2be1fba530be18f4460b1ee8a8e1a11a0a7b307290eb7a510348383836040516121fe93929190614b51565b60405180910390a1505050565b600b6020528060005260406000206000915090508060000160009054906101000a900460ff16908060010154908060020160009054906101000a900473ffffffffffffffffffffffffffffffffffffffff16908060030154908060040154905085565b60095481565b6000600560008473ffffffffffffffffffffffffffffffffffffffff1673ffffffffffffffffffffffffffffffffffffffff16815260200190815260200160002060008373ffffffffffffffffffffffffffffffffffffffff1673ffffffffffffffffffffffffffffffffffffffff16815260200190815260200160002060009054906101000a900460ff16905092915050565b612310612a6c565b61231a6008612f00565b60006123266008612f16565b90506123328382612f24565b61233c8183612bb0565b7f3a5398bda6f1f57d6c96834fa9bf02b5517bdc847d14312015a917ba421c31c9818460405161236d929190614b88565b60405180910390a1505050565b61238261252a565b73ffffffffffffffffffffffffffffffffffffffff16600a600083815260200190815260200160002060020160009054906101000a900473ffffffffffffffffffffffffffffffffffffffff1673ffffffffffffffffffffffffffffffffffffffff1614612425576040517f08c379a000000000000000000000000000000000000000000000000000000000815260040161241c906148e4565b60405180910390fd5b6000600a600083815260200190815260200160002060000160006101000a81548160ff0219169083151502179055507f0ff09947dd7d2583091e8cbfb427fecacb697bf895187b243fd0072c0ee9b951816040516124839190613a6d565b60405180910390a150565b612496612a6c565b600073ffffffffffffffffffffffffffffffffffffffff168173ffffffffffffffffffffffffffffffffffffffff161415612506576040517f08c379a00000000000000000000000000000000000000000000000000000000081526004016124fd90614c23565b60405180910390fd5b61250f81612aea565b50565b600c6020528060005260406000206000915090505481565b600033905090565b60008061253e836110f6565b90508073ffffffffffffffffffffffffffffffffffffffff168473ffffffffffffffffffffffffffffffffffffffff161480612580575061257f8185612274565b5b806125be57508373ffffffffffffffffffffffffffffffffffffffff166125a684610aec565b73ffffffffffffffffffffffffffffffffffffffff16145b91505092915050565b60007f01ffc9a7000000000000000000000000000000000000000000000000000000007bffffffffffffffffffffffffffffffffffffffffffffffffffffffff1916827bffffffffffffffffffffffffffffffffffffffffffffffffffffffff1916149050919050565b61263a81613142565b612679576040517f08c379a0000000000000000000000000000000000000000000000000000000008152600401612670906145d9565b60405180910390fd5b50565b816004600083815260200190815260200160002060006101000a81548173ffffffffffffffffffffffffffffffffffffffff021916908373ffffffffffffffffffffffffffffffffffffffff160217905550808273ffffffffffffffffffffffffffffffffffffffff166126ef836110f6565b73ffffffffffffffffffffffffffffffffffffffff167f8c5be1e5ebec7d5bd14f71427d1e84f3dd0314c0f7b2291e5b200ac8c7c3b92560405160405180910390a45050565b8273ffffffffffffffffffffffffffffffffffffffff16612755826110f6565b73ffffffffffffffffffffffffffffffffffffffff16146127ab576040517f08c379a00000000000000000000000000000000000000000000000000000000081526004016127a290614cb5565b60405180910390fd5b600073ffffffffffffffffffffffffffffffffffffffff168273ffffffffffffffffffffffffffffffffffffffff16141561281b576040517f08c379a000000000000000000000000000000000000000000000000000000000815260040161281290614d47565b60405180910390fd5b6128288383836001613183565b8273ffffffffffffffffffffffffffffffffffffffff16612848826110f6565b73ffffffffffffffffffffffffffffffffffffffff161461289e576040517f08c379a000000000000000000000000000000000000000000000000000000000815260040161289590614cb5565b60405180910390fd5b6004600082815260200190815260200160002060006101000a81549073ffffffffffffffffffffffffffffffffffffffff02191690556001600360008573ffffffffffffffffffffffffffffffffffffffff1673ffffffffffffffffffffffffffffffffffffffff168152602001908152602001600020600082825403925050819055506001600360008473ffffffffffffffffffffffffffffffffffffffff1673ffffffffffffffffffffffffffffffffffffffff16815260200190815260200160002060008282540192505081905550816002600083815260200190815260200160002060006101000a81548173ffffffffffffffffffffffffffffffffffffffff021916908373ffffffffffffffffffffffffffffffffffffffff160217905550808273ffffffffffffffffffffffffffffffffffffffff168473ffffffffffffffffffffffffffffffffffffffff167fddf252ad1be2c89b69c2b068fc378daa952ba7f163c4a11628f55a4df523b3ef60405160405180910390a4612a2a8383836001613189565b505050565b60006002600083815260200190815260200160002060009054906101000a900473ffffffffffffffffffffffffffffffffffffffff169050919050565b612a7461252a565b73ffffffffffffffffffffffffffffffffffffffff16612a92611259565b73ffffffffffffffffffffffffffffffffffffffff1614612ae8576040517f08c379a0000000000000000000000000000000000000000000000000000000008152600401612adf90614db3565b60405180910390fd5b565b6000600660009054906101000a900473ffffffffffffffffffffffffffffffffffffffff16905081600660006101000a81548173ffffffffffffffffffffffffffffffffffffffff021916908373ffffffffffffffffffffffffffffffffffffffff1602179055508173ffffffffffffffffffffffffffffffffffffffff168173ffffffffffffffffffffffffffffffffffffffff167f8be0079c531659141344cd1fd0a4f28419497f9722a3daafe3b4186f6b6457e060405160405180910390a35050565b612bb982613142565b612bf8576040517f08c379a0000000000000000000000000000000000000000000000000000000008152600401612bef90614e45565b60405180910390fd5b80600760008481526020019081526020016000209080519060200190612c1f9291906135f3565b505050565b8173ffffffffffffffffffffffffffffffffffffffff168373ffffffffffffffffffffffffffffffffffffffff161415612c93576040517f08c379a0000000000000000000000000000000000000000000000000000000008152600401612c8a90614eb1565b60405180910390fd5b80600560008573ffffffffffffffffffffffffffffffffffffffff1673ffffffffffffffffffffffffffffffffffffffff16815260200190815260200160002060008473ffffffffffffffffffffffffffffffffffffffff1673ffffffffffffffffffffffffffffffffffffffff16815260200190815260200160002060006101000a81548160ff0219169083151502179055508173ffffffffffffffffffffffffffffffffffffffff168373ffffffffffffffffffffffffffffffffffffffff167f17307eab39ab6107e8899845ad3d59bd9653f200f220920489ca2b5937696c3183604051612d8491906137c0565b60405180910390a3505050565b612d9c848484612735565b612da88484848461318f565b612de7576040517f08c379a0000000000000000000000000000000000000000000000000000000008152600401612dde90614f43565b60405180910390fd5b50505050565b6060612df882612631565b6000600760008481526020019081526020016000208054612e18906140c1565b80601f0160208091040260200160405190810160405280929190818152602001828054612e44906140c1565b8015612e915780601f10612e6657610100808354040283529160200191612e91565b820191906000526020600020905b815481529060010190602001808311612e7457829003601f168201915b505050505090506000612ea2613326565b9050600081511415612eb8578192505050612efb565b600082511115612eed578082604051602001612ed5929190614f9f565b60405160208183030381529060405292505050612efb565b612ef68461333d565b925050505b919050565b6001816000016000828254019250508190555050565b600081600001549050919050565b600073ffffffffffffffffffffffffffffffffffffffff168273ffffffffffffffffffffffffffffffffffffffff161415612f94576040517f08c379a0000000000000000000000000000000000000000000000000000000008152600401612f8b9061500f565b60405180910390fd5b612f9d81613142565b15612fdd576040517f08c379a0000000000000000000000000000000000000000000000000000000008152600401612fd49061507b565b60405180910390fd5b612feb600083836001613183565b612ff481613142565b15613034576040517f08c379a000000000000000000000000000000000000000000000000000000000815260040161302b9061507b565b60405180910390fd5b6001600360008473ffffffffffffffffffffffffffffffffffffffff1673ffffffffffffffffffffffffffffffffffffffff16815260200190815260200160002060008282540192505081905550816002600083815260200190815260200160002060006101000a81548173ffffffffffffffffffffffffffffffffffffffff021916908373ffffffffffffffffffffffffffffffffffffffff160217905550808273ffffffffffffffffffffffffffffffffffffffff16600073ffffffffffffffffffffffffffffffffffffffff167fddf252ad1be2c89b69c2b068fc378daa952ba7f163c4a11628f55a4df523b3ef60405160405180910390a461313e600083836001613189565b5050565b60008073ffffffffffffffffffffffffffffffffffffffff1661316483612a2f565b73ffffffffffffffffffffffffffffffffffffffff1614159050919050565b50505050565b50505050565b60006131b08473ffffffffffffffffffffffffffffffffffffffff166133a5565b15613319578373ffffffffffffffffffffffffffffffffffffffff1663150b7a026131d961252a565b8786866040518563ffffffff1660e01b81526004016131fb94939291906150f0565b602060405180830381600087803b15801561321557600080fd5b505af192505050801561324657506040513d601f19601f820116820180604052508101906132439190615151565b60015b6132c9573d8060008114613276576040519150601f19603f3d011682016040523d82523d6000602084013e61327b565b606091505b506000815114156132c1576040517f08c379a00000000000000000000000000000000000000000000000000000000081526004016132b890614f43565b60405180910390fd5b805181602001fd5b63150b7a0260e01b7bffffffffffffffffffffffffffffffffffffffffffffffffffffffff1916817bffffffffffffffffffffffffffffffffffffffffffffffffffffffff19161491505061331e565b600190505b949350505050565b606060405180602001604052806000815250905090565b606061334882612631565b6000613352613326565b90506000815111613372576040518060200160405280600081525061339d565b8061337c846133c8565b60405160200161338d929190614f9f565b6040516020818303038152906040525b915050919050565b6000808273ffffffffffffffffffffffffffffffffffffffff163b119050919050565b6060600060016133d7846134a0565b01905060008167ffffffffffffffff8111156133f6576133f5613a92565b5b6040519080825280601f01601f1916602001820160405280156134285781602001600182028036833780820191505090505b509050600082602001820190505b600115613495578080600190039150507f3031323334353637383961626364656600000000000000000000000000000000600a86061a8153600a858161347f5761347e6144f9565b5b049450600085141561349057613495565b613436565b819350505050919050565b600080600090507a184f03e93ff9f4daa797ed6e38ed64bf6a1f01000000000000000083106134fe577a184f03e93ff9f4daa797ed6e38ed64bf6a1f01000000000000000083816134f4576134f36144f9565b5b0492506040810190505b6d04ee2d6d415b85acef8100000000831061353b576d04ee2d6d415b85acef81000000008381613531576135306144f9565b5b0492506020810190505b662386f26fc10000831061356a57662386f26fc1000083816135605761355f6144f9565b5b0492506010810190505b6305f5e1008310613593576305f5e1008381613589576135886144f9565b5b0492506008810190505b61271083106135b85761271083816135ae576135ad6144f9565b5b0492506004810190505b606483106135db57606483816135d1576135d06144f9565b5b0492506002810190505b600a83106135ea576001810190505b80915050919050565b8280546135ff906140c1565b90600052602060002090601f0160209004810192826136215760008555613668565b82601f1061363a57805160ff1916838001178555613668565b82800160010185558215613668579182015b8281111561366757825182559160200191906001019061364c565b5b5090506136759190613679565b5090565b5b8082111561369257600081600090555060010161367a565b5090565b6000604051905090565b600080fd5b600080fd5b6000819050919050565b6136bd816136aa565b81146136c857600080fd5b50565b6000813590506136da816136b4565b92915050565b600080604083850312156136f7576136f66136a0565b5b6000613705858286016136cb565b9250506020613716858286016136cb565b9150509250929050565b60007fffffffff0000000000000000000000000000000000000000000000000000000082169050919050565b61375581613720565b811461376057600080fd5b50565b6000813590506137728161374c565b92915050565b60006020828403121561378e5761378d6136a0565b5b600061379c84828501613763565b91505092915050565b60008115159050919050565b6137ba816137a5565b82525050565b60006020820190506137d560008301846137b1565b92915050565b600081519050919050565b600082825260208201905092915050565b60005b838110156138155780820151818401526020810190506137fa565b83811115613824576000848401525b50505050565b6000601f19601f8301169050919050565b6000613846826137db565b61385081856137e6565b93506138608185602086016137f7565b6138698161382a565b840191505092915050565b6000602082019050818103600083015261388e818461383b565b905092915050565b6000602082840312156138ac576138ab6136a0565b5b60006138ba848285016136cb565b91505092915050565b600073ffffffffffffffffffffffffffffffffffffffff82169050919050565b60006138ee826138c3565b9050919050565b6138fe816138e3565b82525050565b600060208201905061391960008301846138f5565b92915050565b613928816138e3565b811461393357600080fd5b50565b6000813590506139458161391f565b92915050565b60008060408385031215613962576139616136a0565b5b600061397085828601613936565b9250506020613981858286016136cb565b9150509250929050565b6000806000606084860312156139a4576139a36136a0565b5b60006139b286828701613936565b93505060206139c386828701613936565b92505060406139d4868287016136cb565b9150509250925092565b6000806000606084860312156139f7576139f66136a0565b5b6000613a05868287016136cb565b9350506020613a16868287016136cb565b9250506040613a27868287016136cb565b9150509250925092565b600060208284031215613a4757613a466136a0565b5b6000613a5584828501613936565b91505092915050565b613a67816136aa565b82525050565b6000602082019050613a826000830184613a5e565b92915050565b600080fd5b600080fd5b7f4e487b7100000000000000000000000000000000000000000000000000000000600052604160045260246000fd5b613aca8261382a565b810181811067ffffffffffffffff82111715613ae957613ae8613a92565b5b80604052505050565b6000613afc613696565b9050613b088282613ac1565b919050565b600067ffffffffffffffff821115613b2857613b27613a92565b5b613b318261382a565b9050602081019050919050565b82818337600083830152505050565b6000613b60613b5b84613b0d565b613af2565b905082815260208101848484011115613b7c57613b7b613a8d565b5b613b87848285613b3e565b509392505050565b600082601f830112613ba457613ba3613a88565b5b8135613bb4848260208601613b4d565b91505092915050565b60008060408385031215613bd457613bd36136a0565b5b6000613be2858286016136cb565b925050602083013567ffffffffffffffff811115613c0357613c026136a5565b5b613c0f85828601613b8f565b9150509250929050565b613c22816137a5565b8114613c2d57600080fd5b50565b600081359050613c3f81613c19565b92915050565b60008060408385031215613c5c57613c5b6136a0565b5b6000613c6a85828601613936565b9250506020613c7b85828601613c30565b9150509250929050565b600067ffffffffffffffff821115613ca057613c9f613a92565b5b613ca98261382a565b9050602081019050919050565b6000613cc9613cc484613c85565b613af2565b905082815260208101848484011115613ce557613ce4613a8d565b5b613cf0848285613b3e565b509392505050565b600082601f830112613d0d57613d0c613a88565b5b8135613d1d848260208601613cb6565b91505092915050565b60008060008060808587031215613d4057613d3f6136a0565b5b6000613d4e87828801613936565b9450506020613d5f87828801613936565b9350506040613d70878288016136cb565b925050606085013567ffffffffffffffff811115613d9157613d906136a5565b5b613d9d87828801613cf8565b91505092959194509250565b60008060408385031215613dc057613dbf6136a0565b5b6000613dce85828601613936565b9250506020613ddf85828601613936565b9150509250929050565b600081519050919050565b600082825260208201905092915050565b6000819050602082019050919050565b613e1e816136aa565b82525050565b6000613e308383613e15565b60208301905092915050565b6000602082019050919050565b6000613e5482613de9565b613e5e8185613df4565b9350613e6983613e05565b8060005b83811015613e9a578151613e818882613e24565b9750613e8c83613e3c565b925050600181019050613e6d565b5085935050505092915050565b60006020820190508181036000830152613ec18184613e49565b905092915050565b600060a082019050613ede60008301886137b1565b613eeb6020830187613a5e565b613ef860408301866138f5565b613f056060830185613a5e565b613f126080830184613a5e565b9695505050505050565b60008060408385031215613f3357613f326136a0565b5b6000613f4185828601613936565b925050602083013567ffffffffffffffff811115613f6257613f616136a5565b5b613f6e85828601613b8f565b9150509250929050565b7f4e6f7420617070726f766564206f72206f776e65720000000000000000000000600082015250565b6000613fae6015836137e6565b9150613fb982613f78565b602082019050919050565b60006020820190508181036000830152613fdd81613fa1565b9050919050565b7f4e487b7100000000000000000000000000000000000000000000000000000000600052601160045260246000fd5b600061401e826136aa565b9150614029836136aa565b9250827fffffffffffffffffffffffffffffffffffffffffffffffffffffffffffffffff0382111561405e5761405d613fe4565b5b828201905092915050565b600060408201905061407e6000830185613a5e565b61408b6020830184613a5e565b9392505050565b7f4e487b7100000000000000000000000000000000000000000000000000000000600052602260045260246000fd5b600060028204905060018216806140d957607f821691505b602082108114156140ed576140ec614092565b5b50919050565b7f4552433732313a20617070726f76616c20746f2063757272656e74206f776e6560008201527f7200000000000000000000000000000000000000000000000000000000000000602082015250565b600061414f6021836137e6565b915061415a826140f3565b604082019050919050565b6000602082019050818103600083015261417e81614142565b9050919050565b7f4552433732313a20617070726f76652063616c6c6572206973206e6f7420746f60008201527f6b656e206f776e6572206f7220617070726f76656420666f7220616c6c000000602082015250565b60006141e1603d836137e6565b91506141ec82614185565b604082019050919050565b60006020820190508181036000830152614210816141d4565b9050919050565b7f4552433732313a2063616c6c6572206973206e6f7420746f6b656e206f776e6560008201527f72206f7220617070726f76656400000000000000000000000000000000000000602082015250565b6000614273602d836137e6565b915061427e82614217565b604082019050919050565b600060208201905081810360008301526142a281614266565b9050919050565b7f4e6f2066756e647320746f207769746864726177000000000000000000000000600082015250565b60006142df6014836137e6565b91506142ea826142a9565b602082019050919050565b6000602082019050818103600083015261430e816142d2565b9050919050565b600081905092915050565b50565b6000614330600083614315565b915061433b82614320565b600082019050919050565b600061435182614323565b9150819050919050565b7f5769746864726177616c206661696c6564000000000000000000000000000000600082015250565b60006143916011836137e6565b915061439c8261435b565b602082019050919050565b600060208201905081810360008301526143c081614384565b9050919050565b7f546f6b656e206e6f7420666f722073616c650000000000000000000000000000600082015250565b60006143fd6012836137e6565b9150614408826143c7565b602082019050919050565b6000602082019050818103600083015261442c816143f0565b9050919050565b7f496e73756666696369656e742066756e64730000000000000000000000000000600082015250565b60006144696012836137e6565b915061447482614433565b602082019050919050565b600060208201905081810360008301526144988161445c565b9050919050565b60006144aa826136aa565b91506144b5836136aa565b9250817fffffffffffffffffffffffffffffffffffffffffffffffffffffffffffffffff04831182151516156144ee576144ed613fe4565b5b828202905092915050565b7f4e487b7100000000000000000000000000000000000000000000000000000000600052601260045260246000fd5b6000614533826136aa565b915061453e836136aa565b92508261454e5761454d6144f9565b5b828204905092915050565b6000614564826136aa565b915061456f836136aa565b92508282101561458257614581613fe4565b5b828203905092915050565b7f4552433732313a20696e76616c696420746f6b656e2049440000000000000000600082015250565b60006145c36018836137e6565b91506145ce8261458d565b602082019050919050565b600060208201905081810360008301526145f2816145b6565b9050919050565b7f4552433732313a2061646472657373207a65726f206973206e6f74206120766160008201527f6c6964206f776e65720000000000000000000000000000000000000000000000602082015250565b60006146556029836137e6565b9150614660826145f9565b604082019050919050565b6000602082019050818103600083015261468481614648565b9050919050565b7f41756374696f6e206e6f74206163746976650000000000000000000000000000600082015250565b60006146c16012836137e6565b91506146cc8261468b565b602082019050919050565b600060208201905081810360008301526146f0816146b4565b9050919050565b7f41756374696f6e2068617320656e646564000000000000000000000000000000600082015250565b600061472d6011836137e6565b9150614738826146f7565b602082019050919050565b6000602082019050818103600083015261475c81614720565b9050919050565b7f426964206d75737420626520686967686572207468616e20746865206375727260008201527f656e742068696768657374206269640000000000000000000000000000000000602082015250565b60006147bf602f836137e6565b91506147ca82614763565b604082019050919050565b600060208201905081810360008301526147ee816147b2565b9050919050565b600060608201905061480a6000830186613a5e565b61481760208301856138f5565b6148246040830184613a5e565b949350505050565b7f41756374696f6e20686173206e6f7420656e6465642079657400000000000000600082015250565b60006148626019836137e6565b915061486d8261482c565b602082019050919050565b6000602082019050818103600083015261489181614855565b9050919050565b7f4e6f74207468652073656c6c6572000000000000000000000000000000000000600082015250565b60006148ce600e836137e6565b91506148d982614898565b602082019050919050565b600060208201905081810360008301526148fd816148c1565b9050919050565b600060408201905061491960008301856138f5565b6149266020830184613a5e565b9392505050565b60008151905061493c816136b4565b92915050565b600060208284031215614958576149576136a0565b5b60006149668482850161492d565b91505092915050565b7f4e487b7100000000000000000000000000000000000000000000000000000000600052603260045260246000fd5b60006149a9826136aa565b91507fffffffffffffffffffffffffffffffffffffffffffffffffffffffffffffffff8214156149dc576149db613fe4565b5b600182019050919050565b7f496e76616c6964206d61726b6574206665652070657263656e74616765000000600082015250565b6000614a1d601d836137e6565b9150614a28826149e7565b602082019050919050565b60006020820190508181036000830152614a4c81614a10565b9050919050565b7f5072696365206d7573742062652067726561746572207468616e203000000000600082015250565b6000614a89601c836137e6565b9150614a9482614a53565b602082019050919050565b60006020820190508181036000830152614ab881614a7c565b9050919050565b7f526f79616c7479206d757374206265206265747765656e203020616e6420313060008201527f3000000000000000000000000000000000000000000000000000000000000000602082015250565b6000614b1b6021836137e6565b9150614b2682614abf565b604082019050919050565b60006020820190508181036000830152614b4a81614b0e565b9050919050565b6000606082019050614b666000830186613a5e565b614b736020830185613a5e565b614b806040830184613a5e565b949350505050565b6000604082019050614b9d6000830185613a5e565b614baa60208301846138f5565b9392505050565b7f4f776e61626c653a206e6577206f776e657220697320746865207a65726f206160008201527f6464726573730000000000000000000000000000000000000000000000000000602082015250565b6000614c0d6026836137e6565b9150614c1882614bb1565b604082019050919050565b60006020820190508181036000830152614c3c81614c00565b9050919050565b7f4552433732313a207472616e736665722066726f6d20696e636f72726563742060008201527f6f776e6572000000000000000000000000000000000000000000000000000000602082015250565b6000614c9f6025836137e6565b9150614caa82614c43565b604082019050919050565b60006020820190508181036000830152614cce81614c92565b9050919050565b7f4552433732313a207472616e7366657220746f20746865207a65726f2061646460008201527f7265737300000000000000000000000000000000000000000000000000000000602082015250565b6000614d316024836137e6565b9150614d3c82614cd5565b604082019050919050565b60006020820190508181036000830152614d6081614d24565b9050919050565b7f4f776e61626c653a2063616c6c6572206973206e6f7420746865206f776e6572600082015250565b6000614d9d6020836137e6565b9150614da882614d67565b602082019050919050565b60006020820190508181036000830152614dcc81614d90565b9050919050565b7f45524337323155524953746f726167653a2055524920736574206f66206e6f6e60008201527f6578697374656e7420746f6b656e000000000000000000000000000000000000602082015250565b6000614e2f602e836137e6565b9150614e3a82614dd3565b604082019050919050565b60006020820190508181036000830152614e5e81614e22565b9050919050565b7f4552433732313a20617070726f766520746f2063616c6c657200000000000000600082015250565b6000614e9b6019836137e6565b9150614ea682614e65565b602082019050919050565b60006020820190508181036000830152614eca81614e8e565b9050919050565b7f4552433732313a207472616e7366657220746f206e6f6e20455243373231526560008201527f63656976657220696d706c656d656e7465720000000000000000000000000000602082015250565b6000614f2d6032836137e6565b9150614f3882614ed1565b604082019050919050565b60006020820190508181036000830152614f5c81614f20565b9050919050565b600081905092915050565b6000614f79826137db565b614f838185614f63565b9350614f938185602086016137f7565b80840191505092915050565b6000614fab8285614f6e565b9150614fb78284614f6e565b91508190509392505050565b7f4552433732313a206d696e7420746f20746865207a65726f2061646472657373600082015250565b6000614ff96020836137e6565b915061500482614fc3565b602082019050919050565b6000602082019050818103600083015261502881614fec565b9050919050565b7f4552433732313a20746f6b656e20616c7265616479206d696e74656400000000600082015250565b6000615065601c836137e6565b91506150708261502f565b602082019050919050565b6000602082019050818103600083015261509481615058565b9050919050565b600081519050919050565b600082825260208201905092915050565b60006150c28261509b565b6150cc81856150a6565b93506150dc8185602086016137f7565b6150e58161382a565b840191505092915050565b600060808201905061510560008301876138f5565b61511260208301866138f5565b61511f6040830185613a5e565b818103606083015261513181846150b7565b905095945050505050565b60008151905061514b8161374c565b92915050565b600060208284031215615167576151666136a0565b5b60006151758482850161513c565b9150509291505056fea26469706673582212205380dfcea56cb8e1dffc7c7f94ef8eb7b2d8688bf0bd14fabf7aee929849307264736f6c63430008080033",
  "linkReferences": {},
  "deployedLinkReferences": {}
}